{
  "contractName": "CompanyRegistry",
  "abi": [
    {
      "inputs": [
        {
          "internalType": "address",
          "name": "",
          "type": "address"
        }
      ],
      "name": "companies",
      "outputs": [
        {
          "internalType": "enum CompanyRegistry.CompanyType",
          "name": "companyType",
          "type": "uint8"
        },
        {
          "internalType": "address",
          "name": "addr",
          "type": "address"
        }
      ],
      "stateMutability": "view",
      "type": "function",
      "constant": true
    },
    {
      "inputs": [],
      "name": "companiesCount",
      "outputs": [
        {
          "internalType": "uint256",
          "name": "",
          "type": "uint256"
        }
      ],
      "stateMutability": "view",
      "type": "function",
      "constant": true
    },
    {
      "inputs": [
        {
          "internalType": "enum CompanyRegistry.CompanyType",
          "name": "companyType",
          "type": "uint8"
        }
      ],
      "name": "companyRegister",
      "outputs": [],
      "stateMutability": "nonpayable",
      "type": "function"
    },
    {
      "inputs": [
        {
          "internalType": "address",
          "name": "companyAddress",
          "type": "address"
        }
      ],
      "name": "getCompanyType",
      "outputs": [
        {
          "internalType": "enum CompanyRegistry.CompanyType",
          "name": "",
          "type": "uint8"
        }
      ],
      "stateMutability": "view",
      "type": "function",
      "constant": true
    }
  ],
  "bytecode": "0x608060405234801561001057600080fd5b5061053f806100206000396000f3fe608060405234801561001057600080fd5b506004361061004c5760003560e01c8063097bcc1a146100515780632aca7c0b14610081578063355e6ce81461009d578063835331e1146100ce575b600080fd5b61006b600480360381019061006691906102db565b6100ec565b6040516100789190610362565b60405180910390f35b61009b60048036038101906100969190610308565b610144565b005b6100b760048036038101906100b291906102db565b61025a565b6040516100c592919061037d565b60405180910390f35b6100d66102ab565b6040516100e391906103a6565b60405180910390f35b60008060008373ffffffffffffffffffffffffffffffffffffffff1673ffffffffffffffffffffffffffffffffffffffff16815260200190815260200160002060000160009054906101000a900460ff169050919050565b600060405180604001604052808360038111156101645761016361049a565b5b81526020013373ffffffffffffffffffffffffffffffffffffffff168152509050806000803373ffffffffffffffffffffffffffffffffffffffff1673ffffffffffffffffffffffffffffffffffffffff16815260200190815260200160002060008201518160000160006101000a81548160ff021916908360038111156101ef576101ee61049a565b5b021790555060208201518160000160016101000a81548173ffffffffffffffffffffffffffffffffffffffff021916908373ffffffffffffffffffffffffffffffffffffffff1602179055509050506001600081548092919061025190610422565b91905055505050565b60006020528060005260406000206000915090508060000160009054906101000a900460ff16908060000160019054906101000a900473ffffffffffffffffffffffffffffffffffffffff16905082565b60015481565b6000813590506102c0816104e2565b92915050565b6000813590506102d5816104f9565b92915050565b6000602082840312156102f1576102f06104c9565b5b60006102ff848285016102b1565b91505092915050565b60006020828403121561031e5761031d6104c9565b5b600061032c848285016102c6565b91505092915050565b61033e816103c1565b82525050565b61034d81610410565b82525050565b61035c81610406565b82525050565b60006020820190506103776000830184610344565b92915050565b60006040820190506103926000830185610344565b61039f6020830184610335565b9392505050565b60006020820190506103bb6000830184610353565b92915050565b60006103cc826103e6565b9050919050565b60008190506103e1826104ce565b919050565b600073ffffffffffffffffffffffffffffffffffffffff82169050919050565b6000819050919050565b600061041b826103d3565b9050919050565b600061042d82610406565b91507fffffffffffffffffffffffffffffffffffffffffffffffffffffffffffffffff8214156104605761045f61046b565b5b600182019050919050565b7f4e487b7100000000000000000000000000000000000000000000000000000000600052601160045260246000fd5b7f4e487b7100000000000000000000000000000000000000000000000000000000600052602160045260246000fd5b600080fd5b600481106104df576104de61049a565b5b50565b6104eb816103c1565b81146104f657600080fd5b50565b6004811061050657600080fd5b5056fea264697066735822122082d6e64edb7e4e1223b4f014975f9a20feb826b19d275a24495264e660ad962664736f6c63430008070033",
  "immutableReferences": {},
  "source": "// SPDX-License-Identifier: MIT\npragma solidity ^0.8.7;\n\ncontract CompanyRegistry {\n    enum CompanyType {\n        Mining,\n        Cutting,\n        Grading,\n        Manufacturer\n    }\n\n    struct Company {\n        CompanyType companyType;\n        address addr;\n    }\n\n    mapping(address => Company) public companies;\n    uint256 public companiesCount;\n\n    function companyRegister(CompanyType companyType) public {\n        Company memory newCompany = Company(companyType, msg.sender);\n        companies[msg.sender] = newCompany;\n        companiesCount++;\n    }\n\n    function getCompanyType(address companyAddress) public view returns (CompanyType) {\n        return companies[companyAddress].companyType;\n    }\n\n    modifier onlyMiningCompany() {\n        Company memory company = companies[msg.sender];\n        require(\n            company.companyType == CompanyType.Mining,\n            \"You are not the miners!\"\n        );\n        _;\n    }\n\n    modifier onlyCuttingCompany() {\n        Company memory company = companies[msg.sender];\n        require(\n            company.companyType == CompanyType.Cutting,\n            \"You are not the Cutters!\"\n        );\n        _;\n    }\n\n    modifier onlyGradingCompany() {\n        Company memory company = companies[msg.sender];\n        require(\n            company.companyType == CompanyType.Grading,\n            \"You are not the graders!\"\n        );\n        _;\n    }\n\n    modifier onlyManufacturer() {\n        Company memory company = companies[msg.sender];\n        require(\n            company.companyType == CompanyType.Manufacturer,\n            \"You are not the manufacturers!\"\n        );\n        _;\n    }\n\n}",
  "sourcePath": "/Users/huanghongbin/VsCodeProjests/tracing-luxury/src/contracts/CompanyRegistry.sol",
  "compiler": {
    "name": "solc",
    "version": "0.8.7+commit.e28d00a7.Emscripten.clang"
  },
  "schemaVersion": "3.4.16",
  "updatedAt": "2023-11-10T19:47:29.911Z",
  "networkType": "ethereum",
  "devdoc": {
    "kind": "dev",
    "methods": {},
    "version": 1
  },
  "userdoc": {
    "kind": "user",
    "methods": {},
    "version": 1
  }
}