{
  "contractName": "CompanyRegistry",
  "abi": [
    {
      "inputs": [
        {
          "internalType": "address",
          "name": "",
          "type": "address"
        }
      ],
      "name": "companies",
      "outputs": [
        {
          "internalType": "uint256",
          "name": "companyId",
          "type": "uint256"
        },
        {
          "internalType": "enum CompanyRegistry.CompanyType",
          "name": "companyType",
          "type": "uint8"
        },
        {
          "internalType": "address",
          "name": "addr",
          "type": "address"
        }
      ],
      "stateMutability": "view",
      "type": "function",
      "constant": true
    },
    {
      "inputs": [],
      "name": "companiesCount",
      "outputs": [
        {
          "internalType": "uint256",
          "name": "",
          "type": "uint256"
        }
      ],
      "stateMutability": "view",
      "type": "function",
      "constant": true
    },
    {
      "inputs": [
        {
          "internalType": "uint256",
          "name": "",
          "type": "uint256"
        }
      ],
      "name": "indexMap",
      "outputs": [
        {
          "internalType": "address",
          "name": "",
          "type": "address"
        }
      ],
      "stateMutability": "view",
      "type": "function",
      "constant": true
    },
    {
      "inputs": [],
      "name": "getAllCompanies",
      "outputs": [
        {
          "components": [
            {
              "internalType": "uint256",
              "name": "companyId",
              "type": "uint256"
            },
            {
              "internalType": "enum CompanyRegistry.CompanyType",
              "name": "companyType",
              "type": "uint8"
            },
            {
              "internalType": "address",
              "name": "addr",
              "type": "address"
            }
          ],
          "internalType": "struct CompanyRegistry.Company[]",
          "name": "",
          "type": "tuple[]"
        }
      ],
      "stateMutability": "view",
      "type": "function",
      "constant": true
    },
    {
      "inputs": [
        {
          "internalType": "enum CompanyRegistry.CompanyType",
          "name": "companyType",
          "type": "uint8"
        }
      ],
      "name": "companyRegister",
      "outputs": [],
      "stateMutability": "nonpayable",
      "type": "function"
    },
    {
      "inputs": [
        {
          "internalType": "address",
          "name": "companyAddress",
          "type": "address"
        }
      ],
      "name": "getCompanyType",
      "outputs": [
        {
          "internalType": "enum CompanyRegistry.CompanyType",
          "name": "",
          "type": "uint8"
        }
      ],
      "stateMutability": "view",
      "type": "function",
      "constant": true
    }
  ],
  "bytecode": "0x608060405234801561001057600080fd5b50610b3e806100206000396000f3fe608060405234801561001057600080fd5b50600436106100625760003560e01c8063097bcc1a146100675780632aca7c0b14610097578063355e6ce8146100b3578063408bf4c3146100e5578063835331e114610103578063dd70534014610121575b600080fd5b610081600480360381019061007c91906106cf565b610151565b60405161008e91906108a5565b60405180910390f35b6100b160048036038101906100ac91906106fc565b6101a9565b005b6100cd60048036038101906100c891906106cf565b610325565b6040516100dc939291906108db565b60405180910390f35b6100ed61037c565b6040516100fa9190610883565b60405180910390f35b61010b61060e565b60405161011891906108c0565b60405180910390f35b61013b60048036038101906101369190610729565b610614565b6040516101489190610868565b60405180910390f35b60008060008373ffffffffffffffffffffffffffffffffffffffff1673ffffffffffffffffffffffffffffffffffffffff16815260200190815260200160002060010160009054906101000a900460ff169050919050565b6000604051806060016040528060025481526020018360038111156101d1576101d0610a24565b5b81526020013373ffffffffffffffffffffffffffffffffffffffff168152509050806000803373ffffffffffffffffffffffffffffffffffffffff1673ffffffffffffffffffffffffffffffffffffffff1681526020019081526020016000206000820151816000015560208201518160010160006101000a81548160ff0219169083600381111561026657610265610a24565b5b021790555060408201518160010160016101000a81548173ffffffffffffffffffffffffffffffffffffffff021916908373ffffffffffffffffffffffffffffffffffffffff1602179055509050503360016000600254815260200190815260200160002060006101000a81548173ffffffffffffffffffffffffffffffffffffffff021916908373ffffffffffffffffffffffffffffffffffffffff1602179055506002600081548092919061031c906109ac565b91905055505050565b60006020528060005260406000206000915090508060000154908060010160009054906101000a900460ff16908060010160019054906101000a900473ffffffffffffffffffffffffffffffffffffffff16905083565b6060600060025467ffffffffffffffff81111561039c5761039b610a82565b5b6040519080825280602002602001820160405280156103d557816020015b6103c2610647565b8152602001906001900390816103ba5790505b5090506000805b60025481101561060557600073ffffffffffffffffffffffffffffffffffffffff166000806001600085815260200190815260200160002060009054906101000a900473ffffffffffffffffffffffffffffffffffffffff1673ffffffffffffffffffffffffffffffffffffffff1673ffffffffffffffffffffffffffffffffffffffff16815260200190815260200160002060010160019054906101000a900473ffffffffffffffffffffffffffffffffffffffff1673ffffffffffffffffffffffffffffffffffffffff16146105f2576000806001600084815260200190815260200160002060009054906101000a900473ffffffffffffffffffffffffffffffffffffffff1673ffffffffffffffffffffffffffffffffffffffff1673ffffffffffffffffffffffffffffffffffffffff168152602001908152602001600020604051806060016040529081600082015481526020016001820160009054906101000a900460ff16600381111561055957610558610a24565b5b600381111561056b5761056a610a24565b5b81526020016001820160019054906101000a900473ffffffffffffffffffffffffffffffffffffffff1673ffffffffffffffffffffffffffffffffffffffff1673ffffffffffffffffffffffffffffffffffffffff16815250508383815181106105d8576105d7610a53565b5b602002602001018190525081806105ee906109ac565b9250505b80806105fd906109ac565b9150506103dc565b50819250505090565b60025481565b60016020528060005260406000206000915054906101000a900473ffffffffffffffffffffffffffffffffffffffff1681565b6040518060600160405280600081526020016000600381111561066d5761066c610a24565b5b8152602001600073ffffffffffffffffffffffffffffffffffffffff1681525090565b60008135905061069f81610aca565b92915050565b6000813590506106b481610ae1565b92915050565b6000813590506106c981610af1565b92915050565b6000602082840312156106e5576106e4610ab1565b5b60006106f384828501610690565b91505092915050565b60006020828403121561071257610711610ab1565b5b6000610720848285016106a5565b91505092915050565b60006020828403121561073f5761073e610ab1565b5b600061074d848285016106ba565b91505092915050565b60006107628383610808565b60608301905092915050565b6107778161094b565b82525050565b6107868161094b565b82525050565b600061079782610922565b6107a1818561093a565b93506107ac83610912565b8060005b838110156107dd5781516107c48882610756565b97506107cf8361092d565b9250506001810190506107b0565b5085935050505092915050565b6107f38161099a565b82525050565b6108028161099a565b82525050565b60608201600082015161081e600085018261084a565b50602082015161083160208501826107ea565b506040820151610844604085018261076e565b50505050565b61085381610990565b82525050565b61086281610990565b82525050565b600060208201905061087d600083018461077d565b92915050565b6000602082019050818103600083015261089d818461078c565b905092915050565b60006020820190506108ba60008301846107f9565b92915050565b60006020820190506108d56000830184610859565b92915050565b60006060820190506108f06000830186610859565b6108fd60208301856107f9565b61090a604083018461077d565b949350505050565b6000819050602082019050919050565b600081519050919050565b6000602082019050919050565b600082825260208201905092915050565b600061095682610970565b9050919050565b600081905061096b82610ab6565b919050565b600073ffffffffffffffffffffffffffffffffffffffff82169050919050565b6000819050919050565b60006109a58261095d565b9050919050565b60006109b782610990565b91507fffffffffffffffffffffffffffffffffffffffffffffffffffffffffffffffff8214156109ea576109e96109f5565b5b600182019050919050565b7f4e487b7100000000000000000000000000000000000000000000000000000000600052601160045260246000fd5b7f4e487b7100000000000000000000000000000000000000000000000000000000600052602160045260246000fd5b7f4e487b7100000000000000000000000000000000000000000000000000000000600052603260045260246000fd5b7f4e487b7100000000000000000000000000000000000000000000000000000000600052604160045260246000fd5b600080fd5b60048110610ac757610ac6610a24565b5b50565b610ad38161094b565b8114610ade57600080fd5b50565b60048110610aee57600080fd5b50565b610afa81610990565b8114610b0557600080fd5b5056fea2646970667358221220baeebd994ed835a33072df4f3ac86a87c922adc012f58def15b289b5883c438864736f6c63430008070033",
  "immutableReferences": {},
  "source": "// SPDX-License-Identifier: MIT\npragma solidity ^0.8.7;\n\ncontract CompanyRegistry {\n    enum CompanyType {\n        Mining,\n        Cutting,\n        Grading,\n        Manufacturer\n    }\n\n    struct Company {\n        uint256 companyId;\n        CompanyType companyType;\n        address addr;\n    }\n\n    mapping(address => Company) public companies;\n\n    mapping(uint256=>address) public indexMap;\n    uint256 public companiesCount;\n\n    function getAllCompanies() public view returns (Company[] memory) {\n        Company[] memory allCompanies = new Company[](companiesCount);\n        uint256 index = 0;\n        for (uint256 i = 0; i < companiesCount; i++) {\n            if (companies[indexMap[i]].addr != address(0)) {\n                allCompanies[index] = companies[indexMap[i]];\n                index++;\n            }\n        }\n        return allCompanies;\n    }\n\n    function companyRegister(CompanyType companyType) public {\n        //todo \n        Company memory newCompany = Company(companiesCount,companyType, msg.sender);\n        companies[msg.sender] = newCompany;\n        indexMap[companiesCount] = msg.sender;\n        companiesCount++;\n    }\n\n    function getCompanyType(\n        address companyAddress\n    ) public view returns (CompanyType) {\n        return companies[companyAddress].companyType;\n    }\n\n    modifier onlyMiningCompany() {\n        Company memory company = companies[msg.sender];\n        require(\n            company.companyType == CompanyType.Mining,\n            \"You are not the miners!\"\n        );\n        _;\n    }\n\n    modifier onlyCuttingCompany() {\n        Company memory company = companies[msg.sender];\n        require(\n            company.companyType == CompanyType.Cutting,\n            \"You are not the Cutters!\"\n        );\n        _;\n    }\n\n    modifier onlyGradingCompany() {\n        Company memory company = companies[msg.sender];\n        require(\n            company.companyType == CompanyType.Grading,\n            \"You are not the graders!\"\n        );\n        _;\n    }\n\n    modifier onlyManufacturer() {\n        Company memory company = companies[msg.sender];\n        require(\n            company.companyType == CompanyType.Manufacturer,\n            \"You are not the manufacturers!\"\n        );\n        _;\n    }\n}\n",
  "sourcePath": "/Users/huanghongbin/VsCodeProjests/tracing-luxury/src/contracts/CompanyRegistry.sol",
  "compiler": {
    "name": "solc",
    "version": "0.8.7+commit.e28d00a7.Emscripten.clang"
  },
  "schemaVersion": "3.4.16",
  "updatedAt": "2023-11-12T17:07:16.355Z",
  "networkType": "ethereum",
  "devdoc": {
    "kind": "dev",
    "methods": {},
    "version": 1
  },
  "userdoc": {
    "kind": "user",
    "methods": {},
    "version": 1
  }
}