{
  "contractName": "CompanyRegistry",
  "abi": [
    {
      "inputs": [
        {
          "internalType": "address",
          "name": "",
          "type": "address"
        }
      ],
      "name": "companies",
      "outputs": [
        {
          "internalType": "uint256",
          "name": "companyId",
          "type": "uint256"
        },
        {
          "internalType": "enum CompanyRegistry.CompanyType",
          "name": "companyType",
          "type": "uint8"
        },
        {
          "internalType": "address",
          "name": "addr",
          "type": "address"
        },
        {
          "internalType": "string",
          "name": "companyName",
          "type": "string"
        }
      ],
      "stateMutability": "view",
      "type": "function",
      "constant": true
    },
    {
      "inputs": [],
      "name": "companiesCount",
      "outputs": [
        {
          "internalType": "uint256",
          "name": "",
          "type": "uint256"
        }
      ],
      "stateMutability": "view",
      "type": "function",
      "constant": true
    },
    {
      "inputs": [
        {
          "internalType": "uint256",
          "name": "",
          "type": "uint256"
        }
      ],
      "name": "indexMap",
      "outputs": [
        {
          "internalType": "address",
          "name": "",
          "type": "address"
        }
      ],
      "stateMutability": "view",
      "type": "function",
      "constant": true
    },
    {
      "inputs": [],
      "name": "getAllCompanies",
      "outputs": [
        {
          "components": [
            {
              "internalType": "uint256",
              "name": "companyId",
              "type": "uint256"
            },
            {
              "internalType": "enum CompanyRegistry.CompanyType",
              "name": "companyType",
              "type": "uint8"
            },
            {
              "internalType": "address",
              "name": "addr",
              "type": "address"
            },
            {
              "internalType": "string",
              "name": "companyName",
              "type": "string"
            }
          ],
          "internalType": "struct CompanyRegistry.Company[]",
          "name": "",
          "type": "tuple[]"
        }
      ],
      "stateMutability": "view",
      "type": "function",
      "constant": true
    },
    {
      "inputs": [
        {
          "internalType": "enum CompanyRegistry.CompanyType",
          "name": "companyType",
          "type": "uint8"
        },
        {
          "internalType": "string",
          "name": "companyName",
          "type": "string"
        }
      ],
      "name": "companyRegister",
      "outputs": [],
      "stateMutability": "nonpayable",
      "type": "function"
    },
    {
      "inputs": [
        {
          "internalType": "address",
          "name": "companyAddress",
          "type": "address"
        }
      ],
      "name": "getCompanyType",
      "outputs": [
        {
          "internalType": "enum CompanyRegistry.CompanyType",
          "name": "",
          "type": "uint8"
        }
      ],
      "stateMutability": "view",
      "type": "function",
      "constant": true
    }
  ],
  "bytecode": "0x608060405234801561001057600080fd5b50611036806100206000396000f3fe608060405234801561001057600080fd5b50600436106100625760003560e01c8063097bcc1a14610067578063355e6ce814610097578063408bf4c3146100ca578063622b8c58146100e8578063835331e114610104578063dd70534014610122575b600080fd5b610081600480360381019061007c91906109f3565b610152565b60405161008e9190610ca2565b60405180910390f35b6100b160048036038101906100ac91906109f3565b6101aa565b6040516100c19493929190610cd8565b60405180910390f35b6100d261028f565b6040516100df9190610c80565b60405180910390f35b61010260048036038101906100fd9190610a20565b6105b3565b005b61010c610832565b6040516101199190610cbd565b60405180910390f35b61013c60048036038101906101379190610a80565b610838565b6040516101499190610c65565b60405180910390f35b60008060008373ffffffffffffffffffffffffffffffffffffffff1673ffffffffffffffffffffffffffffffffffffffff16815260200190815260200160002060010160009054906101000a900460ff169050919050565b60006020528060005260406000206000915090508060000154908060010160009054906101000a900460ff16908060010160019054906101000a900473ffffffffffffffffffffffffffffffffffffffff169080600201805461020c90610e1e565b80601f016020809104026020016040519081016040528092919081815260200182805461023890610e1e565b80156102855780601f1061025a57610100808354040283529160200191610285565b820191906000526020600020905b81548152906001019060200180831161026857829003601f168201915b5050505050905084565b6060600060025467ffffffffffffffff8111156102af576102ae610f55565b5b6040519080825280602002602001820160405280156102e857816020015b6102d561086b565b8152602001906001900390816102cd5790505b5090506000805b6002548110156105aa57600073ffffffffffffffffffffffffffffffffffffffff166000806001600085815260200190815260200160002060009054906101000a900473ffffffffffffffffffffffffffffffffffffffff1673ffffffffffffffffffffffffffffffffffffffff1673ffffffffffffffffffffffffffffffffffffffff16815260200190815260200160002060010160019054906101000a900473ffffffffffffffffffffffffffffffffffffffff1673ffffffffffffffffffffffffffffffffffffffff1614610597576000806001600084815260200190815260200160002060009054906101000a900473ffffffffffffffffffffffffffffffffffffffff1673ffffffffffffffffffffffffffffffffffffffff1673ffffffffffffffffffffffffffffffffffffffff168152602001908152602001600020604051806080016040529081600082015481526020016001820160009054906101000a900460ff16600381111561046c5761046b610ec8565b5b600381111561047e5761047d610ec8565b5b81526020016001820160019054906101000a900473ffffffffffffffffffffffffffffffffffffffff1673ffffffffffffffffffffffffffffffffffffffff1673ffffffffffffffffffffffffffffffffffffffff1681526020016002820180546104e890610e1e565b80601f016020809104026020016040519081016040528092919081815260200182805461051490610e1e565b80156105615780601f1061053657610100808354040283529160200191610561565b820191906000526020600020905b81548152906001019060200180831161054457829003601f168201915b50505050508152505083838151811061057d5761057c610f26565b5b6020026020010181905250818061059390610e50565b9250505b80806105a290610e50565b9150506102ef565b50819250505090565b600073ffffffffffffffffffffffffffffffffffffffff166000803373ffffffffffffffffffffffffffffffffffffffff1673ffffffffffffffffffffffffffffffffffffffff16815260200190815260200160002060010160019054906101000a900473ffffffffffffffffffffffffffffffffffffffff1673ffffffffffffffffffffffffffffffffffffffff161461064d57600080fd5b60006040518060800160405280600254815260200185600381111561067557610674610ec8565b5b81526020013373ffffffffffffffffffffffffffffffffffffffff16815260200184848080601f016020809104026020016040519081016040528093929190818152602001838380828437600081840152601f19601f820116905080830192505050505050508152509050806000803373ffffffffffffffffffffffffffffffffffffffff1673ffffffffffffffffffffffffffffffffffffffff1681526020019081526020016000206000820151816000015560208201518160010160006101000a81548160ff0219169083600381111561075457610753610ec8565b5b021790555060408201518160010160016101000a81548173ffffffffffffffffffffffffffffffffffffffff021916908373ffffffffffffffffffffffffffffffffffffffff16021790555060608201518160020190805190602001906107bc9291906108bb565b509050503360016000600254815260200190815260200160002060006101000a81548173ffffffffffffffffffffffffffffffffffffffff021916908373ffffffffffffffffffffffffffffffffffffffff1602179055506002600081548092919061082790610e50565b919050555050505050565b60025481565b60016020528060005260406000206000915054906101000a900473ffffffffffffffffffffffffffffffffffffffff1681565b6040518060800160405280600081526020016000600381111561089157610890610ec8565b5b8152602001600073ffffffffffffffffffffffffffffffffffffffff168152602001606081525090565b8280546108c790610e1e565b90600052602060002090601f0160209004810192826108e95760008555610930565b82601f1061090257805160ff1916838001178555610930565b82800160010185558215610930579182015b8281111561092f578251825591602001919060010190610914565b5b50905061093d9190610941565b5090565b5b8082111561095a576000816000905550600101610942565b5090565b60008135905061096d81610fc2565b92915050565b60008135905061098281610fd9565b92915050565b60008083601f84011261099e5761099d610f89565b5b8235905067ffffffffffffffff8111156109bb576109ba610f84565b5b6020830191508360018202830111156109d7576109d6610f8e565b5b9250929050565b6000813590506109ed81610fe9565b92915050565b600060208284031215610a0957610a08610f98565b5b6000610a178482850161095e565b91505092915050565b600080600060408486031215610a3957610a38610f98565b5b6000610a4786828701610973565b935050602084013567ffffffffffffffff811115610a6857610a67610f93565b5b610a7486828701610988565b92509250509250925092565b600060208284031215610a9657610a95610f98565b5b6000610aa4848285016109de565b91505092915050565b6000610ab98383610be4565b905092915050565b610aca81610d8a565b82525050565b610ad981610d8a565b82525050565b6000610aea82610d34565b610af48185610d57565b935083602082028501610b0685610d24565b8060005b85811015610b425784840389528151610b238582610aad565b9450610b2e83610d4a565b925060208a01995050600181019050610b0a565b50829750879550505050505092915050565b610b5d81610dd9565b82525050565b610b6c81610dd9565b82525050565b6000610b7d82610d3f565b610b878185610d68565b9350610b97818560208601610deb565b610ba081610f9d565b840191505092915050565b6000610bb682610d3f565b610bc08185610d79565b9350610bd0818560208601610deb565b610bd981610f9d565b840191505092915050565b6000608083016000830151610bfc6000860182610c47565b506020830151610c0f6020860182610b54565b506040830151610c226040860182610ac1565b5060608301518482036060860152610c3a8282610b72565b9150508091505092915050565b610c5081610dcf565b82525050565b610c5f81610dcf565b82525050565b6000602082019050610c7a6000830184610ad0565b92915050565b60006020820190508181036000830152610c9a8184610adf565b905092915050565b6000602082019050610cb76000830184610b63565b92915050565b6000602082019050610cd26000830184610c56565b92915050565b6000608082019050610ced6000830187610c56565b610cfa6020830186610b63565b610d076040830185610ad0565b8181036060830152610d198184610bab565b905095945050505050565b6000819050602082019050919050565b600081519050919050565b600081519050919050565b6000602082019050919050565b600082825260208201905092915050565b600082825260208201905092915050565b600082825260208201905092915050565b6000610d9582610daf565b9050919050565b6000819050610daa82610fae565b919050565b600073ffffffffffffffffffffffffffffffffffffffff82169050919050565b6000819050919050565b6000610de482610d9c565b9050919050565b60005b83811015610e09578082015181840152602081019050610dee565b83811115610e18576000848401525b50505050565b60006002820490506001821680610e3657607f821691505b60208210811415610e4a57610e49610ef7565b5b50919050565b6000610e5b82610dcf565b91507fffffffffffffffffffffffffffffffffffffffffffffffffffffffffffffffff821415610e8e57610e8d610e99565b5b600182019050919050565b7f4e487b7100000000000000000000000000000000000000000000000000000000600052601160045260246000fd5b7f4e487b7100000000000000000000000000000000000000000000000000000000600052602160045260246000fd5b7f4e487b7100000000000000000000000000000000000000000000000000000000600052602260045260246000fd5b7f4e487b7100000000000000000000000000000000000000000000000000000000600052603260045260246000fd5b7f4e487b7100000000000000000000000000000000000000000000000000000000600052604160045260246000fd5b600080fd5b600080fd5b600080fd5b600080fd5b600080fd5b6000601f19601f8301169050919050565b60048110610fbf57610fbe610ec8565b5b50565b610fcb81610d8a565b8114610fd657600080fd5b50565b60048110610fe657600080fd5b50565b610ff281610dcf565b8114610ffd57600080fd5b5056fea2646970667358221220728e993c69c4e6dca3cf3a8ea8d835927ace11006dfce768fd9f1eaad6c4e50d64736f6c63430008070033",
  "immutableReferences": {},
  "source": "// SPDX-License-Identifier: MIT\npragma solidity ^0.8.7;\n\ncontract CompanyRegistry {\n    enum CompanyType {\n        Mining,\n        Cutting,\n        Grading,\n        Manufacturer\n    }\n\n    struct Company {\n        uint256 companyId;\n        CompanyType companyType;\n        address addr;\n        string companyName;\n    }\n\n    mapping(address => Company) public companies;\n\n    mapping(uint256 => address) public indexMap;\n    uint256 public companiesCount;\n\n    function getAllCompanies() public view returns (Company[] memory) {\n        Company[] memory allCompanies = new Company[](companiesCount);\n        uint256 index = 0;\n        for (uint256 i = 0; i < companiesCount; i++) {\n            if (companies[indexMap[i]].addr != address(0)) {\n                allCompanies[index] = companies[indexMap[i]];\n                index++;\n            }\n        }\n        return allCompanies;\n    }\n\n    function companyRegister(\n        CompanyType companyType,\n        string calldata companyName\n    ) public {\n        require(companies[msg.sender].addr == address(0));\n        Company memory newCompany = Company(\n            companiesCount,\n            companyType,\n            msg.sender,\n            companyName\n        );\n        companies[msg.sender] = newCompany;\n        indexMap[companiesCount] = msg.sender;\n        companiesCount++;\n    }\n\n    function getCompanyType(\n        address companyAddress\n    ) public view returns (CompanyType) {\n        return companies[companyAddress].companyType;\n    }\n\n    modifier onlyMiningCompany() {\n        Company memory company = companies[msg.sender];\n        require(\n            company.companyType == CompanyType.Mining,\n            \"You are not the miners!\"\n        );\n        _;\n    }\n\n    modifier onlyCuttingCompany() {\n        Company memory company = companies[msg.sender];\n        require(\n            company.companyType == CompanyType.Cutting,\n            \"You are not the Cutters!\"\n        );\n        _;\n    }\n\n    modifier onlyGradingCompany() {\n        Company memory company = companies[msg.sender];\n        require(\n            company.companyType == CompanyType.Grading,\n            \"You are not the graders!\"\n        );\n        _;\n    }\n\n    modifier onlyManufacturer() {\n        Company memory company = companies[msg.sender];\n        require(\n            company.companyType == CompanyType.Manufacturer,\n            \"You are not the manufacturers!\"\n        );\n        _;\n    }\n}\n",
  "sourcePath": "/Users/huanghongbin/VsCodeProjests/tracing-luxury/src/contracts/CompanyRegistry.sol",
  "compiler": {
    "name": "solc",
    "version": "0.8.7+commit.e28d00a7.Emscripten.clang"
  },
  "schemaVersion": "3.4.16",
  "updatedAt": "2023-11-20T07:06:27.875Z",
  "networkType": "ethereum",
  "devdoc": {
    "kind": "dev",
    "methods": {},
    "version": 1
  },
  "userdoc": {
    "kind": "user",
    "methods": {},
    "version": 1
  }
}