{
  "contractName": "CompanyRegistry",
  "abi": [
    {
      "inputs": [
        {
          "internalType": "address",
          "name": "",
          "type": "address"
        }
      ],
      "name": "companies",
      "outputs": [
        {
          "internalType": "uint256",
          "name": "companyId",
          "type": "uint256"
        },
        {
          "internalType": "enum CompanyRegistry.CompanyType",
          "name": "companyType",
          "type": "uint8"
        },
        {
          "internalType": "address",
          "name": "addr",
          "type": "address"
        },
        {
          "internalType": "string",
          "name": "companyName",
          "type": "string"
        }
      ],
      "stateMutability": "view",
      "type": "function",
      "constant": true
    },
    {
      "inputs": [],
      "name": "companiesCount",
      "outputs": [
        {
          "internalType": "uint256",
          "name": "",
          "type": "uint256"
        }
      ],
      "stateMutability": "view",
      "type": "function",
      "constant": true
    },
    {
      "inputs": [
        {
          "internalType": "uint256",
          "name": "",
          "type": "uint256"
        }
      ],
      "name": "indexMap",
      "outputs": [
        {
          "internalType": "address",
          "name": "",
          "type": "address"
        }
      ],
      "stateMutability": "view",
      "type": "function",
      "constant": true
    },
    {
      "inputs": [],
      "name": "getAllCompanies",
      "outputs": [
        {
          "components": [
            {
              "internalType": "uint256",
              "name": "companyId",
              "type": "uint256"
            },
            {
              "internalType": "enum CompanyRegistry.CompanyType",
              "name": "companyType",
              "type": "uint8"
            },
            {
              "internalType": "address",
              "name": "addr",
              "type": "address"
            },
            {
              "internalType": "string",
              "name": "companyName",
              "type": "string"
            }
          ],
          "internalType": "struct CompanyRegistry.Company[]",
          "name": "",
          "type": "tuple[]"
        }
      ],
      "stateMutability": "view",
      "type": "function",
      "constant": true
    },
    {
      "inputs": [
        {
          "internalType": "enum CompanyRegistry.CompanyType",
          "name": "companyType",
          "type": "uint8"
        },
        {
          "internalType": "string",
          "name": "companyName",
          "type": "string"
        }
      ],
      "name": "companyRegister",
      "outputs": [],
      "stateMutability": "nonpayable",
      "type": "function"
    },
    {
      "inputs": [
        {
          "internalType": "address",
          "name": "companyAddress",
          "type": "address"
        }
      ],
      "name": "getCompany",
      "outputs": [
        {
          "components": [
            {
              "internalType": "uint256",
              "name": "companyId",
              "type": "uint256"
            },
            {
              "internalType": "enum CompanyRegistry.CompanyType",
              "name": "companyType",
              "type": "uint8"
            },
            {
              "internalType": "address",
              "name": "addr",
              "type": "address"
            },
            {
              "internalType": "string",
              "name": "companyName",
              "type": "string"
            }
          ],
          "internalType": "struct CompanyRegistry.Company",
          "name": "company",
          "type": "tuple"
        }
      ],
      "stateMutability": "view",
      "type": "function",
      "constant": true
    },
    {
      "inputs": [
        {
          "internalType": "address",
          "name": "companyAddress",
          "type": "address"
        }
      ],
      "name": "getCompanyType",
      "outputs": [
        {
          "internalType": "enum CompanyRegistry.CompanyType",
          "name": "",
          "type": "uint8"
        }
      ],
      "stateMutability": "view",
      "type": "function",
      "constant": true
    }
  ],
  "bytecode": "0x608060405234801561001057600080fd5b50611353806100206000396000f3fe608060405234801561001057600080fd5b506004361061007d5760003560e01c8063622b8c581161005b578063622b8c581461010357806362bc56e61461011f578063835331e11461014f578063dd7053401461016d5761007d565b8063097bcc1a14610082578063355e6ce8146100b2578063408bf4c3146100e5575b600080fd5b61009c60048036038101906100979190610bf9565b61019d565b6040516100a99190610f2e565b60405180910390f35b6100cc60048036038101906100c79190610bf9565b6101f5565b6040516100dc9493929190610fa6565b60405180910390f35b6100ed6102da565b6040516100fa9190610f0c565b60405180910390f35b61011d60048036038101906101189190610c26565b6105fe565b005b61013960048036038101906101349190610bf9565b6108b3565b6040516101469190610f69565b60405180910390f35b610157610a38565b6040516101649190610f8b565b60405180910390f35b61018760048036038101906101829190610c86565b610a3e565b6040516101949190610ef1565b60405180910390f35b60008060008373ffffffffffffffffffffffffffffffffffffffff1673ffffffffffffffffffffffffffffffffffffffff16815260200190815260200160002060010160009054906101000a900460ff169050919050565b60006020528060005260406000206000915090508060000154908060010160009054906101000a900460ff16908060010160019054906101000a900473ffffffffffffffffffffffffffffffffffffffff1690806002018054610257906110ec565b80601f0160208091040260200160405190810160405280929190818152602001828054610283906110ec565b80156102d05780601f106102a5576101008083540402835291602001916102d0565b820191906000526020600020905b8154815290600101906020018083116102b357829003601f168201915b5050505050905084565b6060600060025467ffffffffffffffff8111156102fa576102f9611223565b5b60405190808252806020026020018201604052801561033357816020015b610320610a71565b8152602001906001900390816103185790505b5090506000805b6002548110156105f557600073ffffffffffffffffffffffffffffffffffffffff166000806001600085815260200190815260200160002060009054906101000a900473ffffffffffffffffffffffffffffffffffffffff1673ffffffffffffffffffffffffffffffffffffffff1673ffffffffffffffffffffffffffffffffffffffff16815260200190815260200160002060010160019054906101000a900473ffffffffffffffffffffffffffffffffffffffff1673ffffffffffffffffffffffffffffffffffffffff16146105e2576000806001600084815260200190815260200160002060009054906101000a900473ffffffffffffffffffffffffffffffffffffffff1673ffffffffffffffffffffffffffffffffffffffff1673ffffffffffffffffffffffffffffffffffffffff168152602001908152602001600020604051806080016040529081600082015481526020016001820160009054906101000a900460ff1660038111156104b7576104b6611196565b5b60038111156104c9576104c8611196565b5b81526020016001820160019054906101000a900473ffffffffffffffffffffffffffffffffffffffff1673ffffffffffffffffffffffffffffffffffffffff1673ffffffffffffffffffffffffffffffffffffffff168152602001600282018054610533906110ec565b80601f016020809104026020016040519081016040528092919081815260200182805461055f906110ec565b80156105ac5780601f10610581576101008083540402835291602001916105ac565b820191906000526020600020905b81548152906001019060200180831161058f57829003601f168201915b5050505050815250508383815181106105c8576105c76111f4565b5b602002602001018190525081806105de9061111e565b9250505b80806105ed9061111e565b91505061033a565b50819250505090565b600073ffffffffffffffffffffffffffffffffffffffff166000803373ffffffffffffffffffffffffffffffffffffffff1673ffffffffffffffffffffffffffffffffffffffff16815260200190815260200160002060010160019054906101000a900473ffffffffffffffffffffffffffffffffffffffff1673ffffffffffffffffffffffffffffffffffffffff16146106ce576040517f08c379a00000000000000000000000000000000000000000000000000000000081526004016106c590610f49565b60405180910390fd5b6000604051806080016040528060025481526020018560038111156106f6576106f5611196565b5b81526020013373ffffffffffffffffffffffffffffffffffffffff16815260200184848080601f016020809104026020016040519081016040528093929190818152602001838380828437600081840152601f19601f820116905080830192505050505050508152509050806000803373ffffffffffffffffffffffffffffffffffffffff1673ffffffffffffffffffffffffffffffffffffffff1681526020019081526020016000206000820151816000015560208201518160010160006101000a81548160ff021916908360038111156107d5576107d4611196565b5b021790555060408201518160010160016101000a81548173ffffffffffffffffffffffffffffffffffffffff021916908373ffffffffffffffffffffffffffffffffffffffff160217905550606082015181600201908051906020019061083d929190610ac1565b509050503360016000600254815260200190815260200160002060006101000a81548173ffffffffffffffffffffffffffffffffffffffff021916908373ffffffffffffffffffffffffffffffffffffffff160217905550600260008154809291906108a89061111e565b919050555050505050565b6108bb610a71565b6000808373ffffffffffffffffffffffffffffffffffffffff1673ffffffffffffffffffffffffffffffffffffffff168152602001908152602001600020604051806080016040529081600082015481526020016001820160009054906101000a900460ff16600381111561093357610932611196565b5b600381111561094557610944611196565b5b81526020016001820160019054906101000a900473ffffffffffffffffffffffffffffffffffffffff1673ffffffffffffffffffffffffffffffffffffffff1673ffffffffffffffffffffffffffffffffffffffff1681526020016002820180546109af906110ec565b80601f01602080910402602001604051908101604052809291908181526020018280546109db906110ec565b8015610a285780601f106109fd57610100808354040283529160200191610a28565b820191906000526020600020905b815481529060010190602001808311610a0b57829003601f168201915b5050505050815250509050919050565b60025481565b60016020528060005260406000206000915054906101000a900473ffffffffffffffffffffffffffffffffffffffff1681565b60405180608001604052806000815260200160006003811115610a9757610a96611196565b5b8152602001600073ffffffffffffffffffffffffffffffffffffffff168152602001606081525090565b828054610acd906110ec565b90600052602060002090601f016020900481019282610aef5760008555610b36565b82601f10610b0857805160ff1916838001178555610b36565b82800160010185558215610b36579182015b82811115610b35578251825591602001919060010190610b1a565b5b509050610b439190610b47565b5090565b5b80821115610b60576000816000905550600101610b48565b5090565b600081359050610b73816112df565b92915050565b600081359050610b88816112f6565b92915050565b60008083601f840112610ba457610ba3611257565b5b8235905067ffffffffffffffff811115610bc157610bc0611252565b5b602083019150836001820283011115610bdd57610bdc61125c565b5b9250929050565b600081359050610bf381611306565b92915050565b600060208284031215610c0f57610c0e611266565b5b6000610c1d84828501610b64565b91505092915050565b600080600060408486031215610c3f57610c3e611266565b5b6000610c4d86828701610b79565b935050602084013567ffffffffffffffff811115610c6e57610c6d611261565b5b610c7a86828701610b8e565b92509250509250925092565b600060208284031215610c9c57610c9b611266565b5b6000610caa84828501610be4565b91505092915050565b6000610cbf8383610e0d565b905092915050565b610cd081611058565b82525050565b610cdf81611058565b82525050565b6000610cf082611002565b610cfa8185611025565b935083602082028501610d0c85610ff2565b8060005b85811015610d485784840389528151610d298582610cb3565b9450610d3483611018565b925060208a01995050600181019050610d10565b50829750879550505050505092915050565b610d63816110a7565b82525050565b610d72816110a7565b82525050565b6000610d838261100d565b610d8d8185611036565b9350610d9d8185602086016110b9565b610da68161126b565b840191505092915050565b6000610dbc8261100d565b610dc68185611047565b9350610dd68185602086016110b9565b610ddf8161126b565b840191505092915050565b6000610df7602383611047565b9150610e028261127c565b604082019050919050565b6000608083016000830151610e256000860182610ed3565b506020830151610e386020860182610d5a565b506040830151610e4b6040860182610cc7565b5060608301518482036060860152610e638282610d78565b9150508091505092915050565b6000608083016000830151610e886000860182610ed3565b506020830151610e9b6020860182610d5a565b506040830151610eae6040860182610cc7565b5060608301518482036060860152610ec68282610d78565b9150508091505092915050565b610edc8161109d565b82525050565b610eeb8161109d565b82525050565b6000602082019050610f066000830184610cd6565b92915050565b60006020820190508181036000830152610f268184610ce5565b905092915050565b6000602082019050610f436000830184610d69565b92915050565b60006020820190508181036000830152610f6281610dea565b9050919050565b60006020820190508181036000830152610f838184610e70565b905092915050565b6000602082019050610fa06000830184610ee2565b92915050565b6000608082019050610fbb6000830187610ee2565b610fc86020830186610d69565b610fd56040830185610cd6565b8181036060830152610fe78184610db1565b905095945050505050565b6000819050602082019050919050565b600081519050919050565b600081519050919050565b6000602082019050919050565b600082825260208201905092915050565b600082825260208201905092915050565b600082825260208201905092915050565b60006110638261107d565b9050919050565b6000819050611078826112cb565b919050565b600073ffffffffffffffffffffffffffffffffffffffff82169050919050565b6000819050919050565b60006110b28261106a565b9050919050565b60005b838110156110d75780820151818401526020810190506110bc565b838111156110e6576000848401525b50505050565b6000600282049050600182168061110457607f821691505b60208210811415611118576111176111c5565b5b50919050565b60006111298261109d565b91507fffffffffffffffffffffffffffffffffffffffffffffffffffffffffffffffff82141561115c5761115b611167565b5b600182019050919050565b7f4e487b7100000000000000000000000000000000000000000000000000000000600052601160045260246000fd5b7f4e487b7100000000000000000000000000000000000000000000000000000000600052602160045260246000fd5b7f4e487b7100000000000000000000000000000000000000000000000000000000600052602260045260246000fd5b7f4e487b7100000000000000000000000000000000000000000000000000000000600052603260045260246000fd5b7f4e487b7100000000000000000000000000000000000000000000000000000000600052604160045260246000fd5b600080fd5b600080fd5b600080fd5b600080fd5b600080fd5b6000601f19601f8301169050919050565b7f74617267657420616464726573732068617665206265656e207265676973746560008201527f7265640000000000000000000000000000000000000000000000000000000000602082015250565b600481106112dc576112db611196565b5b50565b6112e881611058565b81146112f357600080fd5b50565b6004811061130357600080fd5b50565b61130f8161109d565b811461131a57600080fd5b5056fea2646970667358221220453c75ee98fa1a15f5ad1153b528b653390ad603c3ca9c62a485a1453592096d64736f6c63430008070033",
  "immutableReferences": {},
  "source": "// SPDX-License-Identifier: MIT\npragma solidity ^0.8.7;\n\ncontract CompanyRegistry {\n    enum CompanyType {\n        Mining,\n        Cutting,\n        Grading,\n        Manufacturer\n    }\n\n    struct Company {\n        uint256 companyId;\n        CompanyType companyType;\n        address addr;\n        string companyName;\n    }\n\n    mapping(address => Company) public companies;\n\n    mapping(uint256 => address) public indexMap;\n    uint256 public companiesCount;\n\n    function getAllCompanies() public view returns (Company[] memory) {\n        Company[] memory allCompanies = new Company[](companiesCount);\n        uint256 index = 0;\n        for (uint256 i = 0; i < companiesCount; i++) {\n            if (companies[indexMap[i]].addr != address(0)) {\n                allCompanies[index] = companies[indexMap[i]];\n                index++;\n            }\n        }\n        return allCompanies;\n    }\n\n    function companyRegister(\n        CompanyType companyType,\n        string calldata companyName\n    ) public {\n        require(companies[msg.sender].addr == address(0), \"target address have been registered\");\n        Company memory newCompany = Company(\n            companiesCount,\n            companyType,\n            msg.sender,\n            companyName\n        );\n        companies[msg.sender] = newCompany;\n        indexMap[companiesCount] = msg.sender;\n        companiesCount++;\n    }\n\n    function getCompany(address companyAddress) public view returns(Company memory company){\n        return companies[companyAddress];\n    }\n\n    function getCompanyType(\n        address companyAddress\n    ) public view returns (CompanyType) {\n        return companies[companyAddress].companyType;\n    }\n\n    modifier onlyMiningCompany() {\n        Company memory company = companies[msg.sender];\n        require(\n            company.companyType == CompanyType.Mining,\n            \"You are not the miners!\"\n        );\n        _;\n    }\n\n    modifier onlyCuttingCompany() {\n        Company memory company = companies[msg.sender];\n        require(\n            company.companyType == CompanyType.Cutting,\n            \"You are not the Cutters!\"\n        );\n        _;\n    }\n\n    modifier onlyGradingCompany() {\n        Company memory company = companies[msg.sender];\n        require(\n            company.companyType == CompanyType.Grading,\n            \"You are not the graders!\"\n        );\n        _;\n    }\n\n    modifier onlyManufacturer() {\n        Company memory company = companies[msg.sender];\n        require(\n            company.companyType == CompanyType.Manufacturer,\n            \"You are not the manufacturers!\"\n        );\n        _;\n    }\n}\n",
  "sourcePath": "/Users/huanghongbin/VsCodeProjests/tracing-luxury/src/contracts/CompanyRegistry.sol",
  "compiler": {
    "name": "solc",
    "version": "0.8.7+commit.e28d00a7.Emscripten.clang"
  },
  "schemaVersion": "3.4.16",
  "updatedAt": "2023-11-22T16:26:34.275Z",
  "networkType": "ethereum",
  "devdoc": {
    "kind": "dev",
    "methods": {},
    "version": 1
  },
  "userdoc": {
    "kind": "user",
    "methods": {},
    "version": 1
  }
}