{
  "contractName": "CompanyRegistry",
  "abi": [
    {
      "inputs": [
        {
          "internalType": "address",
          "name": "",
          "type": "address"
        }
      ],
      "name": "companies",
      "outputs": [
        {
          "internalType": "uint256",
          "name": "companyId",
          "type": "uint256"
        },
        {
          "internalType": "enum CompanyRegistry.CompanyType",
          "name": "companyType",
          "type": "uint8"
        },
        {
          "internalType": "address",
          "name": "addr",
          "type": "address"
        },
        {
          "internalType": "string",
          "name": "companyName",
          "type": "string"
        }
      ],
      "stateMutability": "view",
      "type": "function",
      "constant": true
    },
    {
      "inputs": [],
      "name": "companiesCount",
      "outputs": [
        {
          "internalType": "uint256",
          "name": "",
          "type": "uint256"
        }
      ],
      "stateMutability": "view",
      "type": "function",
      "constant": true
    },
    {
      "inputs": [
        {
          "internalType": "uint256",
          "name": "",
          "type": "uint256"
        }
      ],
      "name": "indexMap",
      "outputs": [
        {
          "internalType": "address",
          "name": "",
          "type": "address"
        }
      ],
      "stateMutability": "view",
      "type": "function",
      "constant": true
    },
    {
      "inputs": [],
      "name": "getAllCompanies",
      "outputs": [
        {
          "components": [
            {
              "internalType": "uint256",
              "name": "companyId",
              "type": "uint256"
            },
            {
              "internalType": "enum CompanyRegistry.CompanyType",
              "name": "companyType",
              "type": "uint8"
            },
            {
              "internalType": "address",
              "name": "addr",
              "type": "address"
            },
            {
              "internalType": "string",
              "name": "companyName",
              "type": "string"
            }
          ],
          "internalType": "struct CompanyRegistry.Company[]",
          "name": "",
          "type": "tuple[]"
        }
      ],
      "stateMutability": "view",
      "type": "function",
      "constant": true
    },
    {
      "inputs": [
        {
          "internalType": "enum CompanyRegistry.CompanyType",
          "name": "companyType",
          "type": "uint8"
        },
        {
          "internalType": "string",
          "name": "companyName",
          "type": "string"
        }
      ],
      "name": "companyRegister",
      "outputs": [],
      "stateMutability": "nonpayable",
      "type": "function"
    },
    {
      "inputs": [
        {
          "internalType": "address",
          "name": "companyAddress",
          "type": "address"
        }
      ],
      "name": "getCompanyType",
      "outputs": [
        {
          "internalType": "enum CompanyRegistry.CompanyType",
          "name": "",
          "type": "uint8"
        }
      ],
      "stateMutability": "view",
      "type": "function",
      "constant": true
    }
  ],
  "bytecode": "0x608060405234801561001057600080fd5b506110fe806100206000396000f3fe608060405234801561001057600080fd5b50600436106100625760003560e01c8063097bcc1a14610067578063355e6ce814610097578063408bf4c3146100ca578063622b8c58146100e8578063835331e114610104578063dd70534014610122575b600080fd5b610081600480360381019061007c9190610a29565b610152565b60405161008e9190610cfb565b60405180910390f35b6100b160048036038101906100ac9190610a29565b6101aa565b6040516100c19493929190610d51565b60405180910390f35b6100d261028f565b6040516100df9190610cd9565b60405180910390f35b61010260048036038101906100fd9190610a56565b6105b3565b005b61010c610868565b6040516101199190610d36565b60405180910390f35b61013c60048036038101906101379190610ab6565b61086e565b6040516101499190610cbe565b60405180910390f35b60008060008373ffffffffffffffffffffffffffffffffffffffff1673ffffffffffffffffffffffffffffffffffffffff16815260200190815260200160002060010160009054906101000a900460ff169050919050565b60006020528060005260406000206000915090508060000154908060010160009054906101000a900460ff16908060010160019054906101000a900473ffffffffffffffffffffffffffffffffffffffff169080600201805461020c90610e97565b80601f016020809104026020016040519081016040528092919081815260200182805461023890610e97565b80156102855780601f1061025a57610100808354040283529160200191610285565b820191906000526020600020905b81548152906001019060200180831161026857829003601f168201915b5050505050905084565b6060600060025467ffffffffffffffff8111156102af576102ae610fce565b5b6040519080825280602002602001820160405280156102e857816020015b6102d56108a1565b8152602001906001900390816102cd5790505b5090506000805b6002548110156105aa57600073ffffffffffffffffffffffffffffffffffffffff166000806001600085815260200190815260200160002060009054906101000a900473ffffffffffffffffffffffffffffffffffffffff1673ffffffffffffffffffffffffffffffffffffffff1673ffffffffffffffffffffffffffffffffffffffff16815260200190815260200160002060010160019054906101000a900473ffffffffffffffffffffffffffffffffffffffff1673ffffffffffffffffffffffffffffffffffffffff1614610597576000806001600084815260200190815260200160002060009054906101000a900473ffffffffffffffffffffffffffffffffffffffff1673ffffffffffffffffffffffffffffffffffffffff1673ffffffffffffffffffffffffffffffffffffffff168152602001908152602001600020604051806080016040529081600082015481526020016001820160009054906101000a900460ff16600381111561046c5761046b610f41565b5b600381111561047e5761047d610f41565b5b81526020016001820160019054906101000a900473ffffffffffffffffffffffffffffffffffffffff1673ffffffffffffffffffffffffffffffffffffffff1673ffffffffffffffffffffffffffffffffffffffff1681526020016002820180546104e890610e97565b80601f016020809104026020016040519081016040528092919081815260200182805461051490610e97565b80156105615780601f1061053657610100808354040283529160200191610561565b820191906000526020600020905b81548152906001019060200180831161054457829003601f168201915b50505050508152505083838151811061057d5761057c610f9f565b5b6020026020010181905250818061059390610ec9565b9250505b80806105a290610ec9565b9150506102ef565b50819250505090565b600073ffffffffffffffffffffffffffffffffffffffff166000803373ffffffffffffffffffffffffffffffffffffffff1673ffffffffffffffffffffffffffffffffffffffff16815260200190815260200160002060010160019054906101000a900473ffffffffffffffffffffffffffffffffffffffff1673ffffffffffffffffffffffffffffffffffffffff1614610683576040517f08c379a000000000000000000000000000000000000000000000000000000000815260040161067a90610d16565b60405180910390fd5b6000604051806080016040528060025481526020018560038111156106ab576106aa610f41565b5b81526020013373ffffffffffffffffffffffffffffffffffffffff16815260200184848080601f016020809104026020016040519081016040528093929190818152602001838380828437600081840152601f19601f820116905080830192505050505050508152509050806000803373ffffffffffffffffffffffffffffffffffffffff1673ffffffffffffffffffffffffffffffffffffffff1681526020019081526020016000206000820151816000015560208201518160010160006101000a81548160ff0219169083600381111561078a57610789610f41565b5b021790555060408201518160010160016101000a81548173ffffffffffffffffffffffffffffffffffffffff021916908373ffffffffffffffffffffffffffffffffffffffff16021790555060608201518160020190805190602001906107f29291906108f1565b509050503360016000600254815260200190815260200160002060006101000a81548173ffffffffffffffffffffffffffffffffffffffff021916908373ffffffffffffffffffffffffffffffffffffffff1602179055506002600081548092919061085d90610ec9565b919050555050505050565b60025481565b60016020528060005260406000206000915054906101000a900473ffffffffffffffffffffffffffffffffffffffff1681565b604051806080016040528060008152602001600060038111156108c7576108c6610f41565b5b8152602001600073ffffffffffffffffffffffffffffffffffffffff168152602001606081525090565b8280546108fd90610e97565b90600052602060002090601f01602090048101928261091f5760008555610966565b82601f1061093857805160ff1916838001178555610966565b82800160010185558215610966579182015b8281111561096557825182559160200191906001019061094a565b5b5090506109739190610977565b5090565b5b80821115610990576000816000905550600101610978565b5090565b6000813590506109a38161108a565b92915050565b6000813590506109b8816110a1565b92915050565b60008083601f8401126109d4576109d3611002565b5b8235905067ffffffffffffffff8111156109f1576109f0610ffd565b5b602083019150836001820283011115610a0d57610a0c611007565b5b9250929050565b600081359050610a23816110b1565b92915050565b600060208284031215610a3f57610a3e611011565b5b6000610a4d84828501610994565b91505092915050565b600080600060408486031215610a6f57610a6e611011565b5b6000610a7d868287016109a9565b935050602084013567ffffffffffffffff811115610a9e57610a9d61100c565b5b610aaa868287016109be565b92509250509250925092565b600060208284031215610acc57610acb611011565b5b6000610ada84828501610a14565b91505092915050565b6000610aef8383610c3d565b905092915050565b610b0081610e03565b82525050565b610b0f81610e03565b82525050565b6000610b2082610dad565b610b2a8185610dd0565b935083602082028501610b3c85610d9d565b8060005b85811015610b785784840389528151610b598582610ae3565b9450610b6483610dc3565b925060208a01995050600181019050610b40565b50829750879550505050505092915050565b610b9381610e52565b82525050565b610ba281610e52565b82525050565b6000610bb382610db8565b610bbd8185610de1565b9350610bcd818560208601610e64565b610bd681611016565b840191505092915050565b6000610bec82610db8565b610bf68185610df2565b9350610c06818560208601610e64565b610c0f81611016565b840191505092915050565b6000610c27602383610df2565b9150610c3282611027565b604082019050919050565b6000608083016000830151610c556000860182610ca0565b506020830151610c686020860182610b8a565b506040830151610c7b6040860182610af7565b5060608301518482036060860152610c938282610ba8565b9150508091505092915050565b610ca981610e48565b82525050565b610cb881610e48565b82525050565b6000602082019050610cd36000830184610b06565b92915050565b60006020820190508181036000830152610cf38184610b15565b905092915050565b6000602082019050610d106000830184610b99565b92915050565b60006020820190508181036000830152610d2f81610c1a565b9050919050565b6000602082019050610d4b6000830184610caf565b92915050565b6000608082019050610d666000830187610caf565b610d736020830186610b99565b610d806040830185610b06565b8181036060830152610d928184610be1565b905095945050505050565b6000819050602082019050919050565b600081519050919050565b600081519050919050565b6000602082019050919050565b600082825260208201905092915050565b600082825260208201905092915050565b600082825260208201905092915050565b6000610e0e82610e28565b9050919050565b6000819050610e2382611076565b919050565b600073ffffffffffffffffffffffffffffffffffffffff82169050919050565b6000819050919050565b6000610e5d82610e15565b9050919050565b60005b83811015610e82578082015181840152602081019050610e67565b83811115610e91576000848401525b50505050565b60006002820490506001821680610eaf57607f821691505b60208210811415610ec357610ec2610f70565b5b50919050565b6000610ed482610e48565b91507fffffffffffffffffffffffffffffffffffffffffffffffffffffffffffffffff821415610f0757610f06610f12565b5b600182019050919050565b7f4e487b7100000000000000000000000000000000000000000000000000000000600052601160045260246000fd5b7f4e487b7100000000000000000000000000000000000000000000000000000000600052602160045260246000fd5b7f4e487b7100000000000000000000000000000000000000000000000000000000600052602260045260246000fd5b7f4e487b7100000000000000000000000000000000000000000000000000000000600052603260045260246000fd5b7f4e487b7100000000000000000000000000000000000000000000000000000000600052604160045260246000fd5b600080fd5b600080fd5b600080fd5b600080fd5b600080fd5b6000601f19601f8301169050919050565b7f74617267657420616464726573732068617665206265656e207265676973746560008201527f7265640000000000000000000000000000000000000000000000000000000000602082015250565b6004811061108757611086610f41565b5b50565b61109381610e03565b811461109e57600080fd5b50565b600481106110ae57600080fd5b50565b6110ba81610e48565b81146110c557600080fd5b5056fea264697066735822122066afd020fc64d59aa52eea0c5b6b8fe88f5ff8317cfdcbb1fb633d856e08cc0264736f6c63430008070033",
  "immutableReferences": {},
  "source": "// SPDX-License-Identifier: MIT\r\npragma solidity ^0.8.7;\r\n\r\ncontract CompanyRegistry {\r\n    enum CompanyType {\r\n        Mining,\r\n        Cutting,\r\n        Grading,\r\n        Manufacturer\r\n    }\r\n\r\n    struct Company {\r\n        uint256 companyId;\r\n        CompanyType companyType;\r\n        address addr;\r\n        string companyName;\r\n    }\r\n\r\n    mapping(address => Company) public companies;\r\n\r\n    mapping(uint256 => address) public indexMap;\r\n    uint256 public companiesCount;\r\n\r\n    function getAllCompanies() public view returns (Company[] memory) {\r\n        Company[] memory allCompanies = new Company[](companiesCount);\r\n        uint256 index = 0;\r\n        for (uint256 i = 0; i < companiesCount; i++) {\r\n            if (companies[indexMap[i]].addr != address(0)) {\r\n                allCompanies[index] = companies[indexMap[i]];\r\n                index++;\r\n            }\r\n        }\r\n        return allCompanies;\r\n    }\r\n\r\n    function companyRegister(\r\n        CompanyType companyType,\r\n        string calldata companyName\r\n    ) public {\r\n        require(companies[msg.sender].addr == address(0), \"target address have been registered\");\r\n        Company memory newCompany = Company(\r\n            companiesCount,\r\n            companyType,\r\n            msg.sender,\r\n            companyName\r\n        );\r\n        companies[msg.sender] = newCompany;\r\n        indexMap[companiesCount] = msg.sender;\r\n        companiesCount++;\r\n    }\r\n\r\n    function getCompanyType(\r\n        address companyAddress\r\n    ) public view returns (CompanyType) {\r\n        return companies[companyAddress].companyType;\r\n    }\r\n\r\n    modifier onlyMiningCompany() {\r\n        Company memory company = companies[msg.sender];\r\n        require(\r\n            company.companyType == CompanyType.Mining,\r\n            \"You are not the miners!\"\r\n        );\r\n        _;\r\n    }\r\n\r\n    modifier onlyCuttingCompany() {\r\n        Company memory company = companies[msg.sender];\r\n        require(\r\n            company.companyType == CompanyType.Cutting,\r\n            \"You are not the Cutters!\"\r\n        );\r\n        _;\r\n    }\r\n\r\n    modifier onlyGradingCompany() {\r\n        Company memory company = companies[msg.sender];\r\n        require(\r\n            company.companyType == CompanyType.Grading,\r\n            \"You are not the graders!\"\r\n        );\r\n        _;\r\n    }\r\n\r\n    modifier onlyManufacturer() {\r\n        Company memory company = companies[msg.sender];\r\n        require(\r\n            company.companyType == CompanyType.Manufacturer,\r\n            \"You are not the manufacturers!\"\r\n        );\r\n        _;\r\n    }\r\n}\r\n",
  "sourcePath": "D:\\master\\dapp\\tracing-luxury\\src\\contracts\\CompanyRegistry.sol",
  "compiler": {
    "name": "solc",
    "version": "0.8.7+commit.e28d00a7.Emscripten.clang"
  },
  "schemaVersion": "3.4.16",
  "updatedAt": "2023-11-20T11:51:37.974Z",
  "networkType": "ethereum",
  "devdoc": {
    "kind": "dev",
    "methods": {},
    "version": 1
  },
  "userdoc": {
    "kind": "user",
    "methods": {},
    "version": 1
  }
}