{
  "contractName": "DiamondRegistry",
  "abi": [
    {
      "inputs": [
        {
          "internalType": "address",
          "name": "_rawDiamondRegistry",
          "type": "address"
        },
        {
          "internalType": "address",
          "name": "_companyRegistry",
          "type": "address"
        }
      ],
      "stateMutability": "nonpayable",
      "type": "constructor"
    },
    {
      "inputs": [],
      "name": "diamondCounts",
      "outputs": [
        {
          "internalType": "uint256",
          "name": "",
          "type": "uint256"
        }
      ],
      "stateMutability": "view",
      "type": "function",
      "constant": true
    },
    {
      "inputs": [
        {
          "internalType": "uint256",
          "name": "",
          "type": "uint256"
        }
      ],
      "name": "diamondItems",
      "outputs": [
        {
          "internalType": "uint256",
          "name": "uniqueId",
          "type": "uint256"
        },
        {
          "components": [
            {
              "internalType": "uint256",
              "name": "companyId",
              "type": "uint256"
            },
            {
              "internalType": "enum CompanyRegistry.CompanyType",
              "name": "companyType",
              "type": "uint8"
            },
            {
              "internalType": "address",
              "name": "addr",
              "type": "address"
            },
            {
              "internalType": "string",
              "name": "companyName",
              "type": "string"
            }
          ],
          "internalType": "struct CompanyRegistry.Company",
          "name": "gradingLab",
          "type": "tuple"
        },
        {
          "internalType": "string",
          "name": "clarity",
          "type": "string"
        },
        {
          "internalType": "uint256",
          "name": "grade",
          "type": "uint256"
        },
        {
          "components": [
            {
              "internalType": "uint256",
              "name": "rawId",
              "type": "uint256"
            },
            {
              "internalType": "string",
              "name": "rawDiamondName",
              "type": "string"
            },
            {
              "internalType": "string",
              "name": "rawDiamondColor",
              "type": "string"
            },
            {
              "internalType": "string",
              "name": "cuttingGrade",
              "type": "string"
            },
            {
              "components": [
                {
                  "internalType": "uint256",
                  "name": "companyId",
                  "type": "uint256"
                },
                {
                  "internalType": "enum CompanyRegistry.CompanyType",
                  "name": "companyType",
                  "type": "uint8"
                },
                {
                  "internalType": "address",
                  "name": "addr",
                  "type": "address"
                },
                {
                  "internalType": "string",
                  "name": "companyName",
                  "type": "string"
                }
              ],
              "internalType": "struct CompanyRegistry.Company",
              "name": "miningCompany",
              "type": "tuple"
            },
            {
              "components": [
                {
                  "internalType": "uint256",
                  "name": "companyId",
                  "type": "uint256"
                },
                {
                  "internalType": "enum CompanyRegistry.CompanyType",
                  "name": "companyType",
                  "type": "uint8"
                },
                {
                  "internalType": "address",
                  "name": "addr",
                  "type": "address"
                },
                {
                  "internalType": "string",
                  "name": "companyName",
                  "type": "string"
                }
              ],
              "internalType": "struct CompanyRegistry.Company",
              "name": "cuttingCompany",
              "type": "tuple"
            },
            {
              "internalType": "uint256",
              "name": "minedTime",
              "type": "uint256"
            },
            {
              "internalType": "uint256",
              "name": "cuttingTime",
              "type": "uint256"
            }
          ],
          "internalType": "struct RawDiamondRegistry.RawDiamond",
          "name": "rawDiamond",
          "type": "tuple"
        },
        {
          "internalType": "uint256",
          "name": "registerTime",
          "type": "uint256"
        }
      ],
      "stateMutability": "view",
      "type": "function",
      "constant": true
    },
    {
      "inputs": [],
      "name": "getAllDiamonds",
      "outputs": [
        {
          "components": [
            {
              "internalType": "uint256",
              "name": "uniqueId",
              "type": "uint256"
            },
            {
              "components": [
                {
                  "internalType": "uint256",
                  "name": "companyId",
                  "type": "uint256"
                },
                {
                  "internalType": "enum CompanyRegistry.CompanyType",
                  "name": "companyType",
                  "type": "uint8"
                },
                {
                  "internalType": "address",
                  "name": "addr",
                  "type": "address"
                },
                {
                  "internalType": "string",
                  "name": "companyName",
                  "type": "string"
                }
              ],
              "internalType": "struct CompanyRegistry.Company",
              "name": "gradingLab",
              "type": "tuple"
            },
            {
              "internalType": "string",
              "name": "clarity",
              "type": "string"
            },
            {
              "internalType": "uint256",
              "name": "grade",
              "type": "uint256"
            },
            {
              "components": [
                {
                  "internalType": "uint256",
                  "name": "rawId",
                  "type": "uint256"
                },
                {
                  "internalType": "string",
                  "name": "rawDiamondName",
                  "type": "string"
                },
                {
                  "internalType": "string",
                  "name": "rawDiamondColor",
                  "type": "string"
                },
                {
                  "internalType": "string",
                  "name": "cuttingGrade",
                  "type": "string"
                },
                {
                  "components": [
                    {
                      "internalType": "uint256",
                      "name": "companyId",
                      "type": "uint256"
                    },
                    {
                      "internalType": "enum CompanyRegistry.CompanyType",
                      "name": "companyType",
                      "type": "uint8"
                    },
                    {
                      "internalType": "address",
                      "name": "addr",
                      "type": "address"
                    },
                    {
                      "internalType": "string",
                      "name": "companyName",
                      "type": "string"
                    }
                  ],
                  "internalType": "struct CompanyRegistry.Company",
                  "name": "miningCompany",
                  "type": "tuple"
                },
                {
                  "components": [
                    {
                      "internalType": "uint256",
                      "name": "companyId",
                      "type": "uint256"
                    },
                    {
                      "internalType": "enum CompanyRegistry.CompanyType",
                      "name": "companyType",
                      "type": "uint8"
                    },
                    {
                      "internalType": "address",
                      "name": "addr",
                      "type": "address"
                    },
                    {
                      "internalType": "string",
                      "name": "companyName",
                      "type": "string"
                    }
                  ],
                  "internalType": "struct CompanyRegistry.Company",
                  "name": "cuttingCompany",
                  "type": "tuple"
                },
                {
                  "internalType": "uint256",
                  "name": "minedTime",
                  "type": "uint256"
                },
                {
                  "internalType": "uint256",
                  "name": "cuttingTime",
                  "type": "uint256"
                }
              ],
              "internalType": "struct RawDiamondRegistry.RawDiamond",
              "name": "rawDiamond",
              "type": "tuple"
            },
            {
              "internalType": "uint256",
              "name": "registerTime",
              "type": "uint256"
            }
          ],
          "internalType": "struct DiamondRegistry.Diamond[]",
          "name": "",
          "type": "tuple[]"
        }
      ],
      "stateMutability": "view",
      "type": "function",
      "constant": true
    },
    {
      "inputs": [
        {
          "internalType": "uint256",
          "name": "uniqueId",
          "type": "uint256"
        }
      ],
      "name": "getDiamond",
      "outputs": [
        {
          "components": [
            {
              "internalType": "uint256",
              "name": "uniqueId",
              "type": "uint256"
            },
            {
              "components": [
                {
                  "internalType": "uint256",
                  "name": "companyId",
                  "type": "uint256"
                },
                {
                  "internalType": "enum CompanyRegistry.CompanyType",
                  "name": "companyType",
                  "type": "uint8"
                },
                {
                  "internalType": "address",
                  "name": "addr",
                  "type": "address"
                },
                {
                  "internalType": "string",
                  "name": "companyName",
                  "type": "string"
                }
              ],
              "internalType": "struct CompanyRegistry.Company",
              "name": "gradingLab",
              "type": "tuple"
            },
            {
              "internalType": "string",
              "name": "clarity",
              "type": "string"
            },
            {
              "internalType": "uint256",
              "name": "grade",
              "type": "uint256"
            },
            {
              "components": [
                {
                  "internalType": "uint256",
                  "name": "rawId",
                  "type": "uint256"
                },
                {
                  "internalType": "string",
                  "name": "rawDiamondName",
                  "type": "string"
                },
                {
                  "internalType": "string",
                  "name": "rawDiamondColor",
                  "type": "string"
                },
                {
                  "internalType": "string",
                  "name": "cuttingGrade",
                  "type": "string"
                },
                {
                  "components": [
                    {
                      "internalType": "uint256",
                      "name": "companyId",
                      "type": "uint256"
                    },
                    {
                      "internalType": "enum CompanyRegistry.CompanyType",
                      "name": "companyType",
                      "type": "uint8"
                    },
                    {
                      "internalType": "address",
                      "name": "addr",
                      "type": "address"
                    },
                    {
                      "internalType": "string",
                      "name": "companyName",
                      "type": "string"
                    }
                  ],
                  "internalType": "struct CompanyRegistry.Company",
                  "name": "miningCompany",
                  "type": "tuple"
                },
                {
                  "components": [
                    {
                      "internalType": "uint256",
                      "name": "companyId",
                      "type": "uint256"
                    },
                    {
                      "internalType": "enum CompanyRegistry.CompanyType",
                      "name": "companyType",
                      "type": "uint8"
                    },
                    {
                      "internalType": "address",
                      "name": "addr",
                      "type": "address"
                    },
                    {
                      "internalType": "string",
                      "name": "companyName",
                      "type": "string"
                    }
                  ],
                  "internalType": "struct CompanyRegistry.Company",
                  "name": "cuttingCompany",
                  "type": "tuple"
                },
                {
                  "internalType": "uint256",
                  "name": "minedTime",
                  "type": "uint256"
                },
                {
                  "internalType": "uint256",
                  "name": "cuttingTime",
                  "type": "uint256"
                }
              ],
              "internalType": "struct RawDiamondRegistry.RawDiamond",
              "name": "rawDiamond",
              "type": "tuple"
            },
            {
              "internalType": "uint256",
              "name": "registerTime",
              "type": "uint256"
            }
          ],
          "internalType": "struct DiamondRegistry.Diamond",
          "name": "",
          "type": "tuple"
        }
      ],
      "stateMutability": "view",
      "type": "function",
      "constant": true
    },
    {
      "inputs": [
        {
          "internalType": "uint256",
          "name": "rawId",
          "type": "uint256"
        },
        {
          "internalType": "string",
          "name": "clarity",
          "type": "string"
        },
        {
          "internalType": "uint256",
          "name": "grade",
          "type": "uint256"
        }
      ],
      "name": "diamondRegister",
      "outputs": [
        {
          "internalType": "uint256",
          "name": "",
          "type": "uint256"
        }
      ],
      "stateMutability": "nonpayable",
      "type": "function"
    }
  ],
  "bytecode": "0x60806040523480156200001157600080fd5b5060405162002dab38038062002dab8339818101604052810190620000379190620000d8565b81600260006101000a81548173ffffffffffffffffffffffffffffffffffffffff021916908373ffffffffffffffffffffffffffffffffffffffff16021790555080600360006101000a81548173ffffffffffffffffffffffffffffffffffffffff021916908373ffffffffffffffffffffffffffffffffffffffff160217905550505062000172565b600081519050620000d28162000158565b92915050565b60008060408385031215620000f257620000f162000153565b5b60006200010285828601620000c1565b92505060206200011585828601620000c1565b9150509250929050565b60006200012c8262000133565b9050919050565b600073ffffffffffffffffffffffffffffffffffffffff82169050919050565b600080fd5b62000163816200011f565b81146200016f57600080fd5b50565b612c2980620001826000396000f3fe608060405234801561001057600080fd5b50600436106100575760003560e01c80631829563c1461005c57806380662c331461007a578063a9856cf9146100aa578063defd9955146100c8578063e3ed14db146100fd575b600080fd5b61006461012d565b6040516100719190612778565b60405180910390f35b610094600480360381019061008f919061214d565b610133565b6040516100a19190612778565b60405180910390f35b6100b26107d8565b6040516100bf91906126f4565b60405180910390f35b6100e260048036038101906100dd9190612120565b610ef3565b6040516100f496959493929190612793565b60405180910390f35b61011760048036038101906101129190612120565b61154f565b6040516101249190612756565b60405180910390f35b60015481565b60006002600381111561014957610148612a34565b5b600360009054906101000a900473ffffffffffffffffffffffffffffffffffffffff1673ffffffffffffffffffffffffffffffffffffffff1663097bcc1a336040518263ffffffff1660e01b81526004016101a491906126d9565b60206040518083038186803b1580156101bc57600080fd5b505afa1580156101d0573d6000803e3d6000fd5b505050506040513d601f19601f820116820180604052508101906101f49190612061565b600381111561020657610205612a34565b5b14610246576040517f08c379a000000000000000000000000000000000000000000000000000000000815260040161023d90612736565b60405180910390fd5b6000600260009054906101000a900473ffffffffffffffffffffffffffffffffffffffff1673ffffffffffffffffffffffffffffffffffffffff16632e78c4fb876040518263ffffffff1660e01b81526004016102a39190612778565b60006040518083038186803b1580156102bb57600080fd5b505afa1580156102cf573d6000803e3d6000fd5b505050506040513d6000823e3d601f19601f820116820180604052508101906102f891906120d7565b9050600073ffffffffffffffffffffffffffffffffffffffff168160a001516040015173ffffffffffffffffffffffffffffffffffffffff16141580156103745750600073ffffffffffffffffffffffffffffffffffffffff1681608001516040015173ffffffffffffffffffffffffffffffffffffffff1614155b6103b3576040517f08c379a00000000000000000000000000000000000000000000000000000000081526004016103aa90612716565b60405180910390fd5b6000600160008154809291906103c8906129bc565b9190505590506000600360009054906101000a900473ffffffffffffffffffffffffffffffffffffffff1673ffffffffffffffffffffffffffffffffffffffff166362bc56e6336040518263ffffffff1660e01b815260040161042b91906126d9565b60006040518083038186803b15801561044357600080fd5b505afa158015610457573d6000803e3d6000fd5b505050506040513d6000823e3d601f19601f82011682018060405250810190610480919061208e565b9050600042905060006040518060c001604052808581526020018481526020018a8a8080601f016020809104026020016040519081016040528093929190818152602001838380828437600081840152601f19601f82011690508083019250505050505050815260200188815260200186815260200183815250905080600080868152602001908152602001600020600082015181600001556020820151816001016000820151816000015560208201518160010160006101000a81548160ff0219169083600381111561055757610556612a34565b5b021790555060408201518160010160016101000a81548173ffffffffffffffffffffffffffffffffffffffff021916908373ffffffffffffffffffffffffffffffffffffffff16021790555060608201518160020190805190602001906105bf929190611bd7565b50505060408201518160040190805190602001906105de929190611bd7565b5060608201518160050155608082015181600601600082015181600001556020820151816001019080519060200190610618929190611bd7565b506040820151816002019080519060200190610635929190611bd7565b506060820151816003019080519060200190610652929190611bd7565b506080820151816004016000820151816000015560208201518160010160006101000a81548160ff0219169083600381111561069157610690612a34565b5b021790555060408201518160010160016101000a81548173ffffffffffffffffffffffffffffffffffffffff021916908373ffffffffffffffffffffffffffffffffffffffff16021790555060608201518160020190805190602001906106f9929190611bd7565b50505060a0820151816007016000820151816000015560208201518160010160006101000a81548160ff0219169083600381111561073a57610739612a34565b5b021790555060408201518160010160016101000a81548173ffffffffffffffffffffffffffffffffffffffff021916908373ffffffffffffffffffffffffffffffffffffffff16021790555060608201518160020190805190602001906107a2929190611bd7565b50505060c082015181600a015560e082015181600b0155505060a082015181601201559050508395505050505050949350505050565b6060600060015467ffffffffffffffff8111156107f8576107f7612ac1565b5b60405190808252806020026020018201604052801561083157816020015b61081e611c5d565b8152602001906001900390816108165790505b50905060005b600154811015610eeb576000808281526020019081526020016000206040518060c00160405290816000820154815260200160018201604051806080016040529081600082015481526020016001820160009054906101000a900460ff1660038111156108a7576108a6612a34565b5b60038111156108b9576108b8612a34565b5b81526020016001820160019054906101000a900473ffffffffffffffffffffffffffffffffffffffff1673ffffffffffffffffffffffffffffffffffffffff1673ffffffffffffffffffffffffffffffffffffffff16815260200160028201805461092390612959565b80601f016020809104026020016040519081016040528092919081815260200182805461094f90612959565b801561099c5780601f106109715761010080835404028352916020019161099c565b820191906000526020600020905b81548152906001019060200180831161097f57829003601f168201915b50505050508152505081526020016004820180546109b990612959565b80601f01602080910402602001604051908101604052809291908181526020018280546109e590612959565b8015610a325780601f10610a0757610100808354040283529160200191610a32565b820191906000526020600020905b815481529060010190602001808311610a1557829003601f168201915b5050505050815260200160058201548152602001600682016040518061010001604052908160008201548152602001600182018054610a7090612959565b80601f0160208091040260200160405190810160405280929190818152602001828054610a9c90612959565b8015610ae95780601f10610abe57610100808354040283529160200191610ae9565b820191906000526020600020905b815481529060010190602001808311610acc57829003601f168201915b50505050508152602001600282018054610b0290612959565b80601f0160208091040260200160405190810160405280929190818152602001828054610b2e90612959565b8015610b7b5780601f10610b5057610100808354040283529160200191610b7b565b820191906000526020600020905b815481529060010190602001808311610b5e57829003601f168201915b50505050508152602001600382018054610b9490612959565b80601f0160208091040260200160405190810160405280929190818152602001828054610bc090612959565b8015610c0d5780601f10610be257610100808354040283529160200191610c0d565b820191906000526020600020905b815481529060010190602001808311610bf057829003601f168201915b5050505050815260200160048201604051806080016040529081600082015481526020016001820160009054906101000a900460ff166003811115610c5557610c54612a34565b5b6003811115610c6757610c66612a34565b5b81526020016001820160019054906101000a900473ffffffffffffffffffffffffffffffffffffffff1673ffffffffffffffffffffffffffffffffffffffff1673ffffffffffffffffffffffffffffffffffffffff168152602001600282018054610cd190612959565b80601f0160208091040260200160405190810160405280929190818152602001828054610cfd90612959565b8015610d4a5780601f10610d1f57610100808354040283529160200191610d4a565b820191906000526020600020905b815481529060010190602001808311610d2d57829003601f168201915b505050505081525050815260200160078201604051806080016040529081600082015481526020016001820160009054906101000a900460ff166003811115610d9657610d95612a34565b5b6003811115610da857610da7612a34565b5b81526020016001820160019054906101000a900473ffffffffffffffffffffffffffffffffffffffff1673ffffffffffffffffffffffffffffffffffffffff1673ffffffffffffffffffffffffffffffffffffffff168152602001600282018054610e1290612959565b80601f0160208091040260200160405190810160405280929190818152602001828054610e3e90612959565b8015610e8b5780601f10610e6057610100808354040283529160200191610e8b565b820191906000526020600020905b815481529060010190602001808311610e6e57829003601f168201915b5050505050815250508152602001600a8201548152602001600b820154815250508152602001601282015481525050828281518110610ecd57610ecc612a92565b5b60200260200101819052508080610ee3906129bc565b915050610837565b508091505090565b600060205280600052604060002060009150905080600001549080600101604051806080016040529081600082015481526020016001820160009054906101000a900460ff166003811115610f4b57610f4a612a34565b5b6003811115610f5d57610f5c612a34565b5b81526020016001820160019054906101000a900473ffffffffffffffffffffffffffffffffffffffff1673ffffffffffffffffffffffffffffffffffffffff1673ffffffffffffffffffffffffffffffffffffffff168152602001600282018054610fc790612959565b80601f0160208091040260200160405190810160405280929190818152602001828054610ff390612959565b80156110405780601f1061101557610100808354040283529160200191611040565b820191906000526020600020905b81548152906001019060200180831161102357829003601f168201915b5050505050815250509080600401805461105990612959565b80601f016020809104026020016040519081016040528092919081815260200182805461108590612959565b80156110d25780601f106110a7576101008083540402835291602001916110d2565b820191906000526020600020905b8154815290600101906020018083116110b557829003601f168201915b50505050509080600501549080600601604051806101000160405290816000820154815260200160018201805461110890612959565b80601f016020809104026020016040519081016040528092919081815260200182805461113490612959565b80156111815780601f1061115657610100808354040283529160200191611181565b820191906000526020600020905b81548152906001019060200180831161116457829003601f168201915b5050505050815260200160028201805461119a90612959565b80601f01602080910402602001604051908101604052809291908181526020018280546111c690612959565b80156112135780601f106111e857610100808354040283529160200191611213565b820191906000526020600020905b8154815290600101906020018083116111f657829003601f168201915b5050505050815260200160038201805461122c90612959565b80601f016020809104026020016040519081016040528092919081815260200182805461125890612959565b80156112a55780601f1061127a576101008083540402835291602001916112a5565b820191906000526020600020905b81548152906001019060200180831161128857829003601f168201915b5050505050815260200160048201604051806080016040529081600082015481526020016001820160009054906101000a900460ff1660038111156112ed576112ec612a34565b5b60038111156112ff576112fe612a34565b5b81526020016001820160019054906101000a900473ffffffffffffffffffffffffffffffffffffffff1673ffffffffffffffffffffffffffffffffffffffff1673ffffffffffffffffffffffffffffffffffffffff16815260200160028201805461136990612959565b80601f016020809104026020016040519081016040528092919081815260200182805461139590612959565b80156113e25780601f106113b7576101008083540402835291602001916113e2565b820191906000526020600020905b8154815290600101906020018083116113c557829003601f168201915b505050505081525050815260200160078201604051806080016040529081600082015481526020016001820160009054906101000a900460ff16600381111561142e5761142d612a34565b5b60038111156114405761143f612a34565b5b81526020016001820160019054906101000a900473ffffffffffffffffffffffffffffffffffffffff1673ffffffffffffffffffffffffffffffffffffffff1673ffffffffffffffffffffffffffffffffffffffff1681526020016002820180546114aa90612959565b80601f01602080910402602001604051908101604052809291908181526020018280546114d690612959565b80156115235780601f106114f857610100808354040283529160200191611523565b820191906000526020600020905b81548152906001019060200180831161150657829003601f168201915b5050505050815250508152602001600a8201548152602001600b82015481525050908060120154905086565b611557611c5d565b6000808381526020019081526020016000206040518060c00160405290816000820154815260200160018201604051806080016040529081600082015481526020016001820160009054906101000a900460ff1660038111156115bd576115bc612a34565b5b60038111156115cf576115ce612a34565b5b81526020016001820160019054906101000a900473ffffffffffffffffffffffffffffffffffffffff1673ffffffffffffffffffffffffffffffffffffffff1673ffffffffffffffffffffffffffffffffffffffff16815260200160028201805461163990612959565b80601f016020809104026020016040519081016040528092919081815260200182805461166590612959565b80156116b25780601f10611687576101008083540402835291602001916116b2565b820191906000526020600020905b81548152906001019060200180831161169557829003601f168201915b50505050508152505081526020016004820180546116cf90612959565b80601f01602080910402602001604051908101604052809291908181526020018280546116fb90612959565b80156117485780601f1061171d57610100808354040283529160200191611748565b820191906000526020600020905b81548152906001019060200180831161172b57829003601f168201915b505050505081526020016005820154815260200160068201604051806101000160405290816000820154815260200160018201805461178690612959565b80601f01602080910402602001604051908101604052809291908181526020018280546117b290612959565b80156117ff5780601f106117d4576101008083540402835291602001916117ff565b820191906000526020600020905b8154815290600101906020018083116117e257829003601f168201915b5050505050815260200160028201805461181890612959565b80601f016020809104026020016040519081016040528092919081815260200182805461184490612959565b80156118915780601f1061186657610100808354040283529160200191611891565b820191906000526020600020905b81548152906001019060200180831161187457829003601f168201915b505050505081526020016003820180546118aa90612959565b80601f01602080910402602001604051908101604052809291908181526020018280546118d690612959565b80156119235780601f106118f857610100808354040283529160200191611923565b820191906000526020600020905b81548152906001019060200180831161190657829003601f168201915b5050505050815260200160048201604051806080016040529081600082015481526020016001820160009054906101000a900460ff16600381111561196b5761196a612a34565b5b600381111561197d5761197c612a34565b5b81526020016001820160019054906101000a900473ffffffffffffffffffffffffffffffffffffffff1673ffffffffffffffffffffffffffffffffffffffff1673ffffffffffffffffffffffffffffffffffffffff1681526020016002820180546119e790612959565b80601f0160208091040260200160405190810160405280929190818152602001828054611a1390612959565b8015611a605780601f10611a3557610100808354040283529160200191611a60565b820191906000526020600020905b815481529060010190602001808311611a4357829003601f168201915b505050505081525050815260200160078201604051806080016040529081600082015481526020016001820160009054906101000a900460ff166003811115611aac57611aab612a34565b5b6003811115611abe57611abd612a34565b5b81526020016001820160019054906101000a900473ffffffffffffffffffffffffffffffffffffffff1673ffffffffffffffffffffffffffffffffffffffff1673ffffffffffffffffffffffffffffffffffffffff168152602001600282018054611b2890612959565b80601f0160208091040260200160405190810160405280929190818152602001828054611b5490612959565b8015611ba15780601f10611b7657610100808354040283529160200191611ba1565b820191906000526020600020905b815481529060010190602001808311611b8457829003601f168201915b5050505050815250508152602001600a8201548152602001600b8201548152505081526020016012820154815250509050919050565b828054611be390612959565b90600052602060002090601f016020900481019282611c055760008555611c4c565b82601f10611c1e57805160ff1916838001178555611c4c565b82800160010185558215611c4c579182015b82811115611c4b578251825591602001919060010190611c30565b5b509050611c599190611c9f565b5090565b6040518060c0016040528060008152602001611c77611cbc565b81526020016060815260200160008152602001611c92611d0c565b8152602001600081525090565b5b80821115611cb8576000816000905550600101611ca0565b5090565b60405180608001604052806000815260200160006003811115611ce257611ce1612a34565b5b8152602001600073ffffffffffffffffffffffffffffffffffffffff168152602001606081525090565b60405180610100016040528060008152602001606081526020016060815260200160608152602001611d3c611cbc565b8152602001611d49611cbc565b815260200160008152602001600081525090565b6000611d70611d6b8461282e565b612809565b905082815260208101848484011115611d8c57611d8b612b09565b5b611d97848285612926565b509392505050565b600081519050611dae81612bb5565b92915050565b600081519050611dc381612bcc565b92915050565b60008083601f840112611ddf57611dde612af5565b5b8235905067ffffffffffffffff811115611dfc57611dfb612af0565b5b602083019150836001820283011115611e1857611e17612b04565b5b9250929050565b600082601f830112611e3457611e33612af5565b5b8151611e44848260208601611d5d565b91505092915050565b600060808284031215611e6357611e62612afa565b5b611e6d6080612809565b90506000611e7d8482850161204c565b6000830152506020611e9184828501611db4565b6020830152506040611ea584828501611d9f565b604083015250606082015167ffffffffffffffff811115611ec957611ec8612aff565b5b611ed584828501611e1f565b60608301525092915050565b60006101008284031215611ef857611ef7612afa565b5b611f03610100612809565b90506000611f138482850161204c565b600083015250602082015167ffffffffffffffff811115611f3757611f36612aff565b5b611f4384828501611e1f565b602083015250604082015167ffffffffffffffff811115611f6757611f66612aff565b5b611f7384828501611e1f565b604083015250606082015167ffffffffffffffff811115611f9757611f96612aff565b5b611fa384828501611e1f565b606083015250608082015167ffffffffffffffff811115611fc757611fc6612aff565b5b611fd384828501611e4d565b60808301525060a082015167ffffffffffffffff811115611ff757611ff6612aff565b5b61200384828501611e4d565b60a08301525060c06120178482850161204c565b60c08301525060e061202b8482850161204c565b60e08301525092915050565b60008135905061204681612bdc565b92915050565b60008151905061205b81612bdc565b92915050565b60006020828403121561207757612076612b13565b5b600061208584828501611db4565b91505092915050565b6000602082840312156120a4576120a3612b13565b5b600082015167ffffffffffffffff8111156120c2576120c1612b0e565b5b6120ce84828501611e4d565b91505092915050565b6000602082840312156120ed576120ec612b13565b5b600082015167ffffffffffffffff81111561210b5761210a612b0e565b5b61211784828501611ee1565b91505092915050565b60006020828403121561213657612135612b13565b5b600061214484828501612037565b91505092915050565b6000806000806060858703121561216757612166612b13565b5b600061217587828801612037565b945050602085013567ffffffffffffffff81111561219657612195612b0e565b5b6121a287828801611dc9565b935093505060406121b587828801612037565b91505092959194509250565b60006121cd83836123f5565b905092915050565b6121de816128c5565b82525050565b6121ed816128c5565b82525050565b60006121fe8261286f565b6122088185612892565b93508360208202850161221a8561285f565b8060005b85811015612256578484038952815161223785826121c1565b945061224283612885565b925060208a0199505060018101905061221e565b50829750879550505050505092915050565b61227181612914565b82525050565b60006122828261287a565b61228c81856128a3565b935061229c818560208601612926565b6122a581612b18565b840191505092915050565b60006122bb8261287a565b6122c581856128b4565b93506122d5818560208601612926565b6122de81612b18565b840191505092915050565b60006122f66024836128b4565b915061230182612b29565b604082019050919050565b60006123196018836128b4565b915061232482612b78565b602082019050919050565b600060808301600083015161234760008601826126bb565b50602083015161235a6020860182612268565b50604083015161236d60408601826121d5565b50606083015184820360608601526123858282612277565b9150508091505092915050565b60006080830160008301516123aa60008601826126bb565b5060208301516123bd6020860182612268565b5060408301516123d060408601826121d5565b50606083015184820360608601526123e88282612277565b9150508091505092915050565b600060c08301600083015161240d60008601826126bb565b5060208301518482036020860152612425828261232f565b9150506040830151848203604086015261243f8282612277565b915050606083015161245460608601826126bb565b506080830151848203608086015261246c8282612523565b91505060a083015161248160a08601826126bb565b508091505092915050565b600060c0830160008301516124a460008601826126bb565b50602083015184820360208601526124bc828261232f565b915050604083015184820360408601526124d68282612277565b91505060608301516124eb60608601826126bb565b50608083015184820360808601526125038282612523565b91505060a083015161251860a08601826126bb565b508091505092915050565b60006101008301600083015161253c60008601826126bb565b50602083015184820360208601526125548282612277565b9150506040830151848203604086015261256e8282612277565b915050606083015184820360608601526125888282612277565b915050608083015184820360808601526125a2828261232f565b91505060a083015184820360a08601526125bc828261232f565b91505060c08301516125d160c08601826126bb565b5060e08301516125e460e08601826126bb565b508091505092915050565b60006101008301600083015161260860008601826126bb565b50602083015184820360208601526126208282612277565b9150506040830151848203604086015261263a8282612277565b915050606083015184820360608601526126548282612277565b9150506080830151848203608086015261266e828261232f565b91505060a083015184820360a0860152612688828261232f565b91505060c083015161269d60c08601826126bb565b5060e08301516126b060e08601826126bb565b508091505092915050565b6126c48161290a565b82525050565b6126d38161290a565b82525050565b60006020820190506126ee60008301846121e4565b92915050565b6000602082019050818103600083015261270e81846121f3565b905092915050565b6000602082019050818103600083015261272f816122e9565b9050919050565b6000602082019050818103600083015261274f8161230c565b9050919050565b60006020820190508181036000830152612770818461248c565b905092915050565b600060208201905061278d60008301846126ca565b92915050565b600060c0820190506127a860008301896126ca565b81810360208301526127ba8188612392565b905081810360408301526127ce81876122b0565b90506127dd60608301866126ca565b81810360808301526127ef81856125ef565b90506127fe60a08301846126ca565b979650505050505050565b6000612813612824565b905061281f828261298b565b919050565b6000604051905090565b600067ffffffffffffffff82111561284957612848612ac1565b5b61285282612b18565b9050602081019050919050565b6000819050602082019050919050565b600081519050919050565b600081519050919050565b6000602082019050919050565b600082825260208201905092915050565b600082825260208201905092915050565b600082825260208201905092915050565b60006128d0826128ea565b9050919050565b60008190506128e582612ba1565b919050565b600073ffffffffffffffffffffffffffffffffffffffff82169050919050565b6000819050919050565b600061291f826128d7565b9050919050565b60005b83811015612944578082015181840152602081019050612929565b83811115612953576000848401525b50505050565b6000600282049050600182168061297157607f821691505b6020821081141561298557612984612a63565b5b50919050565b61299482612b18565b810181811067ffffffffffffffff821117156129b3576129b2612ac1565b5b80604052505050565b60006129c78261290a565b91507fffffffffffffffffffffffffffffffffffffffffffffffffffffffffffffffff8214156129fa576129f9612a05565b5b600182019050919050565b7f4e487b7100000000000000000000000000000000000000000000000000000000600052601160045260246000fd5b7f4e487b7100000000000000000000000000000000000000000000000000000000600052602160045260246000fd5b7f4e487b7100000000000000000000000000000000000000000000000000000000600052602260045260246000fd5b7f4e487b7100000000000000000000000000000000000000000000000000000000600052603260045260246000fd5b7f4e487b7100000000000000000000000000000000000000000000000000000000600052604160045260246000fd5b600080fd5b600080fd5b600080fd5b600080fd5b600080fd5b600080fd5b600080fd5b600080fd5b6000601f19601f8301169050919050565b7f7468697320726177206469616d6f6e6420686176656e2774206265656e20736860008201527f6170656400000000000000000000000000000000000000000000000000000000602082015250565b7f596f7520617265206e6f74207468652067726164657273210000000000000000600082015250565b60048110612bb257612bb1612a34565b5b50565b612bbe816128c5565b8114612bc957600080fd5b50565b60048110612bd957600080fd5b50565b612be58161290a565b8114612bf057600080fd5b5056fea26469706673582212202e504ddc81cfb4084385362b65237c918bfbde82f7d454e8b409a4b8a1c768f864736f6c63430008070033",
  "immutableReferences": {},
  "source": "// SPDX-License-Identifier: MIT\npragma solidity ^0.8.7;\n\nimport \"./RawDiamondRegistry.sol\";\nimport \"./CompanyRegistry.sol\";\n\ncontract DiamondRegistry {\n    struct Diamond {\n        uint256 uniqueId;\n        CompanyRegistry.Company gradingLab;\n        string clarity;\n        uint256 grade;\n        RawDiamondRegistry.RawDiamond rawDiamond;\n        //time\n        uint256 registerTime;\n    }\n\n    mapping(uint256 => Diamond) public diamondItems;\n    uint256 public diamondCounts;\n\n    RawDiamondRegistry private rawDiamondRegistry;\n    CompanyRegistry private companyRegistry;\n\n    constructor(address _rawDiamondRegistry, address _companyRegistry) {\n        rawDiamondRegistry = RawDiamondRegistry(_rawDiamondRegistry);\n        companyRegistry = CompanyRegistry(_companyRegistry);\n    }\n\n    function getAllDiamonds() public view returns (Diamond[] memory) {\n        Diamond[] memory allDiamonds = new Diamond[](diamondCounts);\n        for (uint i = 0; i < diamondCounts; i++) {\n            allDiamonds[i] = diamondItems[i];\n        }\n        return allDiamonds;\n    }\n\n    function getDiamond(uint256 uniqueId) public view returns (Diamond memory) {\n        return diamondItems[uniqueId];\n    }\n\n    function diamondRegister(\n        uint256 rawId,\n        string calldata clarity,\n        uint256 grade\n    ) public onlyGradingCompany returns (uint256) {\n        RawDiamondRegistry.RawDiamond memory rawDiamond = rawDiamondRegistry\n            .getRawDiamond(rawId);\n        require(\n            rawDiamond.cuttingCompany.addr != address(0) &&\n                rawDiamond.miningCompany.addr != address(0),\n            \"this raw diamond haven't been shaped\"\n        );\n        uint256 uniqueId = diamondCounts++;\n        CompanyRegistry.Company memory gradingLab = companyRegistry.getCompany(\n            msg.sender\n        );\n        uint256 registerTime = block.timestamp;\n        Diamond memory newDiamond = Diamond(\n            uniqueId,\n            gradingLab,\n            clarity,\n            grade,\n            rawDiamond,\n            registerTime\n        );\n        diamondItems[uniqueId] = newDiamond;\n        return uniqueId;\n    }\n\n    modifier onlyGradingCompany() {\n        require(\n            companyRegistry.getCompanyType(msg.sender) ==\n                CompanyRegistry.CompanyType.Grading,\n            \"You are not the graders!\"\n        );\n        _;\n    }\n}\n",
  "sourcePath": "/Users/huanghongbin/VsCodeProjests/tracing-luxury/src/contracts/DiamondRegistry.sol",
  "compiler": {
    "name": "solc",
    "version": "0.8.7+commit.e28d00a7.Emscripten.clang"
  },
  "schemaVersion": "3.4.16",
  "updatedAt": "2023-11-27T15:12:47.019Z",
  "networkType": "ethereum",
  "devdoc": {
    "kind": "dev",
    "methods": {},
    "version": 1
  },
  "userdoc": {
    "kind": "user",
    "methods": {},
    "version": 1
  }
}