{
  "contractName": "DiamondRegistry",
  "abi": [
    {
      "inputs": [
        {
          "internalType": "address",
          "name": "_rawDiamondRegistry",
          "type": "address"
        },
        {
          "internalType": "address",
          "name": "_companyRegistry",
          "type": "address"
        }
      ],
      "stateMutability": "nonpayable",
      "type": "constructor"
    },
    {
      "inputs": [],
      "name": "diamondCounts",
      "outputs": [
        {
          "internalType": "uint256",
          "name": "",
          "type": "uint256"
        }
      ],
      "stateMutability": "view",
      "type": "function",
      "constant": true
    },
    {
      "inputs": [
        {
          "internalType": "uint256",
          "name": "",
          "type": "uint256"
        }
      ],
      "name": "diamondItems",
      "outputs": [
        {
          "internalType": "uint256",
          "name": "uniqueId",
          "type": "uint256"
        },
        {
          "components": [
            {
              "internalType": "uint256",
              "name": "companyId",
              "type": "uint256"
            },
            {
              "internalType": "enum CompanyRegistry.CompanyType",
              "name": "companyType",
              "type": "uint8"
            },
            {
              "internalType": "address",
              "name": "addr",
              "type": "address"
            },
            {
              "internalType": "string",
              "name": "companyName",
              "type": "string"
            }
          ],
          "internalType": "struct CompanyRegistry.Company",
          "name": "gradingLab",
          "type": "tuple"
        },
        {
          "internalType": "string",
          "name": "clarity",
          "type": "string"
        },
        {
          "internalType": "uint256",
          "name": "grade",
          "type": "uint256"
        },
        {
          "components": [
            {
              "internalType": "uint256",
              "name": "rawId",
              "type": "uint256"
            },
            {
              "internalType": "string",
              "name": "rawDiamondName",
              "type": "string"
            },
            {
              "internalType": "string",
              "name": "rawDiamondColor",
              "type": "string"
            },
            {
              "internalType": "string",
              "name": "cuttingGrade",
              "type": "string"
            },
            {
              "components": [
                {
                  "internalType": "uint256",
                  "name": "companyId",
                  "type": "uint256"
                },
                {
                  "internalType": "enum CompanyRegistry.CompanyType",
                  "name": "companyType",
                  "type": "uint8"
                },
                {
                  "internalType": "address",
                  "name": "addr",
                  "type": "address"
                },
                {
                  "internalType": "string",
                  "name": "companyName",
                  "type": "string"
                }
              ],
              "internalType": "struct CompanyRegistry.Company",
              "name": "miningCompany",
              "type": "tuple"
            },
            {
              "components": [
                {
                  "internalType": "uint256",
                  "name": "companyId",
                  "type": "uint256"
                },
                {
                  "internalType": "enum CompanyRegistry.CompanyType",
                  "name": "companyType",
                  "type": "uint8"
                },
                {
                  "internalType": "address",
                  "name": "addr",
                  "type": "address"
                },
                {
                  "internalType": "string",
                  "name": "companyName",
                  "type": "string"
                }
              ],
              "internalType": "struct CompanyRegistry.Company",
              "name": "cuttingCompany",
              "type": "tuple"
            }
          ],
          "internalType": "struct RawDiamondRegistry.RawDiamond",
          "name": "rawDiamond",
          "type": "tuple"
        }
      ],
      "stateMutability": "view",
      "type": "function",
      "constant": true
    },
    {
      "inputs": [],
      "name": "getAllDiamonds",
      "outputs": [
        {
          "components": [
            {
              "internalType": "uint256",
              "name": "uniqueId",
              "type": "uint256"
            },
            {
              "components": [
                {
                  "internalType": "uint256",
                  "name": "companyId",
                  "type": "uint256"
                },
                {
                  "internalType": "enum CompanyRegistry.CompanyType",
                  "name": "companyType",
                  "type": "uint8"
                },
                {
                  "internalType": "address",
                  "name": "addr",
                  "type": "address"
                },
                {
                  "internalType": "string",
                  "name": "companyName",
                  "type": "string"
                }
              ],
              "internalType": "struct CompanyRegistry.Company",
              "name": "gradingLab",
              "type": "tuple"
            },
            {
              "internalType": "string",
              "name": "clarity",
              "type": "string"
            },
            {
              "internalType": "uint256",
              "name": "grade",
              "type": "uint256"
            },
            {
              "components": [
                {
                  "internalType": "uint256",
                  "name": "rawId",
                  "type": "uint256"
                },
                {
                  "internalType": "string",
                  "name": "rawDiamondName",
                  "type": "string"
                },
                {
                  "internalType": "string",
                  "name": "rawDiamondColor",
                  "type": "string"
                },
                {
                  "internalType": "string",
                  "name": "cuttingGrade",
                  "type": "string"
                },
                {
                  "components": [
                    {
                      "internalType": "uint256",
                      "name": "companyId",
                      "type": "uint256"
                    },
                    {
                      "internalType": "enum CompanyRegistry.CompanyType",
                      "name": "companyType",
                      "type": "uint8"
                    },
                    {
                      "internalType": "address",
                      "name": "addr",
                      "type": "address"
                    },
                    {
                      "internalType": "string",
                      "name": "companyName",
                      "type": "string"
                    }
                  ],
                  "internalType": "struct CompanyRegistry.Company",
                  "name": "miningCompany",
                  "type": "tuple"
                },
                {
                  "components": [
                    {
                      "internalType": "uint256",
                      "name": "companyId",
                      "type": "uint256"
                    },
                    {
                      "internalType": "enum CompanyRegistry.CompanyType",
                      "name": "companyType",
                      "type": "uint8"
                    },
                    {
                      "internalType": "address",
                      "name": "addr",
                      "type": "address"
                    },
                    {
                      "internalType": "string",
                      "name": "companyName",
                      "type": "string"
                    }
                  ],
                  "internalType": "struct CompanyRegistry.Company",
                  "name": "cuttingCompany",
                  "type": "tuple"
                }
              ],
              "internalType": "struct RawDiamondRegistry.RawDiamond",
              "name": "rawDiamond",
              "type": "tuple"
            }
          ],
          "internalType": "struct DiamondRegistry.Diamond[]",
          "name": "",
          "type": "tuple[]"
        }
      ],
      "stateMutability": "view",
      "type": "function",
      "constant": true
    },
    {
      "inputs": [
        {
          "internalType": "uint256",
          "name": "uniqueId",
          "type": "uint256"
        }
      ],
      "name": "getDiamond",
      "outputs": [
        {
          "components": [
            {
              "internalType": "uint256",
              "name": "uniqueId",
              "type": "uint256"
            },
            {
              "components": [
                {
                  "internalType": "uint256",
                  "name": "companyId",
                  "type": "uint256"
                },
                {
                  "internalType": "enum CompanyRegistry.CompanyType",
                  "name": "companyType",
                  "type": "uint8"
                },
                {
                  "internalType": "address",
                  "name": "addr",
                  "type": "address"
                },
                {
                  "internalType": "string",
                  "name": "companyName",
                  "type": "string"
                }
              ],
              "internalType": "struct CompanyRegistry.Company",
              "name": "gradingLab",
              "type": "tuple"
            },
            {
              "internalType": "string",
              "name": "clarity",
              "type": "string"
            },
            {
              "internalType": "uint256",
              "name": "grade",
              "type": "uint256"
            },
            {
              "components": [
                {
                  "internalType": "uint256",
                  "name": "rawId",
                  "type": "uint256"
                },
                {
                  "internalType": "string",
                  "name": "rawDiamondName",
                  "type": "string"
                },
                {
                  "internalType": "string",
                  "name": "rawDiamondColor",
                  "type": "string"
                },
                {
                  "internalType": "string",
                  "name": "cuttingGrade",
                  "type": "string"
                },
                {
                  "components": [
                    {
                      "internalType": "uint256",
                      "name": "companyId",
                      "type": "uint256"
                    },
                    {
                      "internalType": "enum CompanyRegistry.CompanyType",
                      "name": "companyType",
                      "type": "uint8"
                    },
                    {
                      "internalType": "address",
                      "name": "addr",
                      "type": "address"
                    },
                    {
                      "internalType": "string",
                      "name": "companyName",
                      "type": "string"
                    }
                  ],
                  "internalType": "struct CompanyRegistry.Company",
                  "name": "miningCompany",
                  "type": "tuple"
                },
                {
                  "components": [
                    {
                      "internalType": "uint256",
                      "name": "companyId",
                      "type": "uint256"
                    },
                    {
                      "internalType": "enum CompanyRegistry.CompanyType",
                      "name": "companyType",
                      "type": "uint8"
                    },
                    {
                      "internalType": "address",
                      "name": "addr",
                      "type": "address"
                    },
                    {
                      "internalType": "string",
                      "name": "companyName",
                      "type": "string"
                    }
                  ],
                  "internalType": "struct CompanyRegistry.Company",
                  "name": "cuttingCompany",
                  "type": "tuple"
                }
              ],
              "internalType": "struct RawDiamondRegistry.RawDiamond",
              "name": "rawDiamond",
              "type": "tuple"
            }
          ],
          "internalType": "struct DiamondRegistry.Diamond",
          "name": "",
          "type": "tuple"
        }
      ],
      "stateMutability": "view",
      "type": "function",
      "constant": true
    },
    {
      "inputs": [
        {
          "internalType": "uint256",
          "name": "rawId",
          "type": "uint256"
        },
        {
          "internalType": "string",
          "name": "clarity",
          "type": "string"
        },
        {
          "internalType": "uint256",
          "name": "grade",
          "type": "uint256"
        }
      ],
      "name": "diamondRegister",
      "outputs": [
        {
          "internalType": "uint256",
          "name": "",
          "type": "uint256"
        }
      ],
      "stateMutability": "nonpayable",
      "type": "function"
    }
  ],
  "bytecode": "0x60806040523480156200001157600080fd5b5060405162002c6538038062002c658339818101604052810190620000379190620000d8565b81600260006101000a81548173ffffffffffffffffffffffffffffffffffffffff021916908373ffffffffffffffffffffffffffffffffffffffff16021790555080600360006101000a81548173ffffffffffffffffffffffffffffffffffffffff021916908373ffffffffffffffffffffffffffffffffffffffff160217905550505062000172565b600081519050620000d28162000158565b92915050565b60008060408385031215620000f257620000f162000153565b5b60006200010285828601620000c1565b92505060206200011585828601620000c1565b9150509250929050565b60006200012c8262000133565b9050919050565b600073ffffffffffffffffffffffffffffffffffffffff82169050919050565b600080fd5b62000163816200011f565b81146200016f57600080fd5b50565b612ae380620001826000396000f3fe608060405234801561001057600080fd5b50600436106100575760003560e01c80631829563c1461005c57806380662c331461007a578063a9856cf9146100aa578063defd9955146100c8578063e3ed14db146100fc575b600080fd5b61006461012c565b6040516100719190612640565b60405180910390f35b610094600480360381019061008f9190612089565b610132565b6040516100a19190612640565b60405180910390f35b6100b26107ad565b6040516100bf91906125bc565b60405180910390f35b6100e260048036038101906100dd919061205c565b610ea9565b6040516100f395949392919061265b565b60405180910390f35b6101166004803603810190610111919061205c565b6114ea565b604051610123919061261e565b60405180910390f35b60015481565b600060026003811115610148576101476128ee565b5b600360009054906101000a900473ffffffffffffffffffffffffffffffffffffffff1673ffffffffffffffffffffffffffffffffffffffff1663097bcc1a336040518263ffffffff1660e01b81526004016101a391906125a1565b60206040518083038186803b1580156101bb57600080fd5b505afa1580156101cf573d6000803e3d6000fd5b505050506040513d601f19601f820116820180604052508101906101f39190611f9d565b6003811115610205576102046128ee565b5b14610245576040517f08c379a000000000000000000000000000000000000000000000000000000000815260040161023c906125fe565b60405180910390fd5b6000600260009054906101000a900473ffffffffffffffffffffffffffffffffffffffff1673ffffffffffffffffffffffffffffffffffffffff16632e78c4fb876040518263ffffffff1660e01b81526004016102a29190612640565b60006040518083038186803b1580156102ba57600080fd5b505afa1580156102ce573d6000803e3d6000fd5b505050506040513d6000823e3d601f19601f820116820180604052508101906102f79190612013565b9050600073ffffffffffffffffffffffffffffffffffffffff168160a001516040015173ffffffffffffffffffffffffffffffffffffffff16141580156103735750600073ffffffffffffffffffffffffffffffffffffffff1681608001516040015173ffffffffffffffffffffffffffffffffffffffff1614155b6103b2576040517f08c379a00000000000000000000000000000000000000000000000000000000081526004016103a9906125de565b60405180910390fd5b6000600160008154809291906103c790612876565b9190505590506000600360009054906101000a900473ffffffffffffffffffffffffffffffffffffffff1673ffffffffffffffffffffffffffffffffffffffff166362bc56e6336040518263ffffffff1660e01b815260040161042a91906125a1565b60006040518083038186803b15801561044257600080fd5b505afa158015610456573d6000803e3d6000fd5b505050506040513d6000823e3d601f19601f8201168201806040525081019061047f9190611fca565b905060006040518060a0016040528084815260200183815260200189898080601f016020809104026020016040519081016040528093929190818152602001838380828437600081840152601f19601f82011690508083019250505050505050815260200187815260200185815250905080600080858152602001908152602001600020600082015181600001556020820151816001016000820151816000015560208201518160010160006101000a81548160ff0219169083600381111561054b5761054a6128ee565b5b021790555060408201518160010160016101000a81548173ffffffffffffffffffffffffffffffffffffffff021916908373ffffffffffffffffffffffffffffffffffffffff16021790555060608201518160020190805190602001906105b3929190611b53565b50505060408201518160040190805190602001906105d2929190611b53565b506060820151816005015560808201518160060160008201518160000155602082015181600101908051906020019061060c929190611b53565b506040820151816002019080519060200190610629929190611b53565b506060820151816003019080519060200190610646929190611b53565b506080820151816004016000820151816000015560208201518160010160006101000a81548160ff02191690836003811115610685576106846128ee565b5b021790555060408201518160010160016101000a81548173ffffffffffffffffffffffffffffffffffffffff021916908373ffffffffffffffffffffffffffffffffffffffff16021790555060608201518160020190805190602001906106ed929190611b53565b50505060a0820151816007016000820151816000015560208201518160010160006101000a81548160ff0219169083600381111561072e5761072d6128ee565b5b021790555060408201518160010160016101000a81548173ffffffffffffffffffffffffffffffffffffffff021916908373ffffffffffffffffffffffffffffffffffffffff1602179055506060820151816002019080519060200190610796929190611b53565b505050505090505082945050505050949350505050565b6060600060015467ffffffffffffffff8111156107cd576107cc61297b565b5b60405190808252806020026020018201604052801561080657816020015b6107f3611bd9565b8152602001906001900390816107eb5790505b50905060005b600154811015610ea1576000808281526020019081526020016000206040518060a00160405290816000820154815260200160018201604051806080016040529081600082015481526020016001820160009054906101000a900460ff16600381111561087c5761087b6128ee565b5b600381111561088e5761088d6128ee565b5b81526020016001820160019054906101000a900473ffffffffffffffffffffffffffffffffffffffff1673ffffffffffffffffffffffffffffffffffffffff1673ffffffffffffffffffffffffffffffffffffffff1681526020016002820180546108f890612813565b80601f016020809104026020016040519081016040528092919081815260200182805461092490612813565b80156109715780601f1061094657610100808354040283529160200191610971565b820191906000526020600020905b81548152906001019060200180831161095457829003601f168201915b505050505081525050815260200160048201805461098e90612813565b80601f01602080910402602001604051908101604052809291908181526020018280546109ba90612813565b8015610a075780601f106109dc57610100808354040283529160200191610a07565b820191906000526020600020905b8154815290600101906020018083116109ea57829003601f168201915b5050505050815260200160058201548152602001600682016040518060c001604052908160008201548152602001600182018054610a4490612813565b80601f0160208091040260200160405190810160405280929190818152602001828054610a7090612813565b8015610abd5780601f10610a9257610100808354040283529160200191610abd565b820191906000526020600020905b815481529060010190602001808311610aa057829003601f168201915b50505050508152602001600282018054610ad690612813565b80601f0160208091040260200160405190810160405280929190818152602001828054610b0290612813565b8015610b4f5780601f10610b2457610100808354040283529160200191610b4f565b820191906000526020600020905b815481529060010190602001808311610b3257829003601f168201915b50505050508152602001600382018054610b6890612813565b80601f0160208091040260200160405190810160405280929190818152602001828054610b9490612813565b8015610be15780601f10610bb657610100808354040283529160200191610be1565b820191906000526020600020905b815481529060010190602001808311610bc457829003601f168201915b5050505050815260200160048201604051806080016040529081600082015481526020016001820160009054906101000a900460ff166003811115610c2957610c286128ee565b5b6003811115610c3b57610c3a6128ee565b5b81526020016001820160019054906101000a900473ffffffffffffffffffffffffffffffffffffffff1673ffffffffffffffffffffffffffffffffffffffff1673ffffffffffffffffffffffffffffffffffffffff168152602001600282018054610ca590612813565b80601f0160208091040260200160405190810160405280929190818152602001828054610cd190612813565b8015610d1e5780601f10610cf357610100808354040283529160200191610d1e565b820191906000526020600020905b815481529060010190602001808311610d0157829003601f168201915b505050505081525050815260200160078201604051806080016040529081600082015481526020016001820160009054906101000a900460ff166003811115610d6a57610d696128ee565b5b6003811115610d7c57610d7b6128ee565b5b81526020016001820160019054906101000a900473ffffffffffffffffffffffffffffffffffffffff1673ffffffffffffffffffffffffffffffffffffffff1673ffffffffffffffffffffffffffffffffffffffff168152602001600282018054610de690612813565b80601f0160208091040260200160405190810160405280929190818152602001828054610e1290612813565b8015610e5f5780601f10610e3457610100808354040283529160200191610e5f565b820191906000526020600020905b815481529060010190602001808311610e4257829003601f168201915b5050505050815250508152505081525050828281518110610e8357610e8261294c565b5b60200260200101819052508080610e9990612876565b91505061080c565b508091505090565b600060205280600052604060002060009150905080600001549080600101604051806080016040529081600082015481526020016001820160009054906101000a900460ff166003811115610f0157610f006128ee565b5b6003811115610f1357610f126128ee565b5b81526020016001820160019054906101000a900473ffffffffffffffffffffffffffffffffffffffff1673ffffffffffffffffffffffffffffffffffffffff1673ffffffffffffffffffffffffffffffffffffffff168152602001600282018054610f7d90612813565b80601f0160208091040260200160405190810160405280929190818152602001828054610fa990612813565b8015610ff65780601f10610fcb57610100808354040283529160200191610ff6565b820191906000526020600020905b815481529060010190602001808311610fd957829003601f168201915b5050505050815250509080600401805461100f90612813565b80601f016020809104026020016040519081016040528092919081815260200182805461103b90612813565b80156110885780601f1061105d57610100808354040283529160200191611088565b820191906000526020600020905b81548152906001019060200180831161106b57829003601f168201915b505050505090806005015490806006016040518060c0016040529081600082015481526020016001820180546110bd90612813565b80601f01602080910402602001604051908101604052809291908181526020018280546110e990612813565b80156111365780601f1061110b57610100808354040283529160200191611136565b820191906000526020600020905b81548152906001019060200180831161111957829003601f168201915b5050505050815260200160028201805461114f90612813565b80601f016020809104026020016040519081016040528092919081815260200182805461117b90612813565b80156111c85780601f1061119d576101008083540402835291602001916111c8565b820191906000526020600020905b8154815290600101906020018083116111ab57829003601f168201915b505050505081526020016003820180546111e190612813565b80601f016020809104026020016040519081016040528092919081815260200182805461120d90612813565b801561125a5780601f1061122f5761010080835404028352916020019161125a565b820191906000526020600020905b81548152906001019060200180831161123d57829003601f168201915b5050505050815260200160048201604051806080016040529081600082015481526020016001820160009054906101000a900460ff1660038111156112a2576112a16128ee565b5b60038111156112b4576112b36128ee565b5b81526020016001820160019054906101000a900473ffffffffffffffffffffffffffffffffffffffff1673ffffffffffffffffffffffffffffffffffffffff1673ffffffffffffffffffffffffffffffffffffffff16815260200160028201805461131e90612813565b80601f016020809104026020016040519081016040528092919081815260200182805461134a90612813565b80156113975780601f1061136c57610100808354040283529160200191611397565b820191906000526020600020905b81548152906001019060200180831161137a57829003601f168201915b505050505081525050815260200160078201604051806080016040529081600082015481526020016001820160009054906101000a900460ff1660038111156113e3576113e26128ee565b5b60038111156113f5576113f46128ee565b5b81526020016001820160019054906101000a900473ffffffffffffffffffffffffffffffffffffffff1673ffffffffffffffffffffffffffffffffffffffff1673ffffffffffffffffffffffffffffffffffffffff16815260200160028201805461145f90612813565b80601f016020809104026020016040519081016040528092919081815260200182805461148b90612813565b80156114d85780601f106114ad576101008083540402835291602001916114d8565b820191906000526020600020905b8154815290600101906020018083116114bb57829003601f168201915b50505050508152505081525050905085565b6114f2611bd9565b6000808381526020019081526020016000206040518060a00160405290816000820154815260200160018201604051806080016040529081600082015481526020016001820160009054906101000a900460ff166003811115611558576115576128ee565b5b600381111561156a576115696128ee565b5b81526020016001820160019054906101000a900473ffffffffffffffffffffffffffffffffffffffff1673ffffffffffffffffffffffffffffffffffffffff1673ffffffffffffffffffffffffffffffffffffffff1681526020016002820180546115d490612813565b80601f016020809104026020016040519081016040528092919081815260200182805461160090612813565b801561164d5780601f106116225761010080835404028352916020019161164d565b820191906000526020600020905b81548152906001019060200180831161163057829003601f168201915b505050505081525050815260200160048201805461166a90612813565b80601f016020809104026020016040519081016040528092919081815260200182805461169690612813565b80156116e35780601f106116b8576101008083540402835291602001916116e3565b820191906000526020600020905b8154815290600101906020018083116116c657829003601f168201915b5050505050815260200160058201548152602001600682016040518060c00160405290816000820154815260200160018201805461172090612813565b80601f016020809104026020016040519081016040528092919081815260200182805461174c90612813565b80156117995780601f1061176e57610100808354040283529160200191611799565b820191906000526020600020905b81548152906001019060200180831161177c57829003601f168201915b505050505081526020016002820180546117b290612813565b80601f01602080910402602001604051908101604052809291908181526020018280546117de90612813565b801561182b5780601f106118005761010080835404028352916020019161182b565b820191906000526020600020905b81548152906001019060200180831161180e57829003601f168201915b5050505050815260200160038201805461184490612813565b80601f016020809104026020016040519081016040528092919081815260200182805461187090612813565b80156118bd5780601f10611892576101008083540402835291602001916118bd565b820191906000526020600020905b8154815290600101906020018083116118a057829003601f168201915b5050505050815260200160048201604051806080016040529081600082015481526020016001820160009054906101000a900460ff166003811115611905576119046128ee565b5b6003811115611917576119166128ee565b5b81526020016001820160019054906101000a900473ffffffffffffffffffffffffffffffffffffffff1673ffffffffffffffffffffffffffffffffffffffff1673ffffffffffffffffffffffffffffffffffffffff16815260200160028201805461198190612813565b80601f01602080910402602001604051908101604052809291908181526020018280546119ad90612813565b80156119fa5780601f106119cf576101008083540402835291602001916119fa565b820191906000526020600020905b8154815290600101906020018083116119dd57829003601f168201915b505050505081525050815260200160078201604051806080016040529081600082015481526020016001820160009054906101000a900460ff166003811115611a4657611a456128ee565b5b6003811115611a5857611a576128ee565b5b81526020016001820160019054906101000a900473ffffffffffffffffffffffffffffffffffffffff1673ffffffffffffffffffffffffffffffffffffffff1673ffffffffffffffffffffffffffffffffffffffff168152602001600282018054611ac290612813565b80601f0160208091040260200160405190810160405280929190818152602001828054611aee90612813565b8015611b3b5780601f10611b1057610100808354040283529160200191611b3b565b820191906000526020600020905b815481529060010190602001808311611b1e57829003601f168201915b50505050508152505081525050815250509050919050565b828054611b5f90612813565b90600052602060002090601f016020900481019282611b815760008555611bc8565b82601f10611b9a57805160ff1916838001178555611bc8565b82800160010185558215611bc8579182015b82811115611bc7578251825591602001919060010190611bac565b5b509050611bd59190611c14565b5090565b6040518060a0016040528060008152602001611bf3611c31565b81526020016060815260200160008152602001611c0e611c81565b81525090565b5b80821115611c2d576000816000905550600101611c15565b5090565b60405180608001604052806000815260200160006003811115611c5757611c566128ee565b5b8152602001600073ffffffffffffffffffffffffffffffffffffffff168152602001606081525090565b6040518060c0016040528060008152602001606081526020016060815260200160608152602001611cb0611c31565b8152602001611cbd611c31565b81525090565b6000611cd6611cd1846126e8565b6126c3565b905082815260208101848484011115611cf257611cf16129c3565b5b611cfd8482856127e0565b509392505050565b600081519050611d1481612a6f565b92915050565b600081519050611d2981612a86565b92915050565b60008083601f840112611d4557611d446129af565b5b8235905067ffffffffffffffff811115611d6257611d616129aa565b5b602083019150836001820283011115611d7e57611d7d6129be565b5b9250929050565b600082601f830112611d9a57611d996129af565b5b8151611daa848260208601611cc3565b91505092915050565b600060808284031215611dc957611dc86129b4565b5b611dd360806126c3565b90506000611de384828501611f88565b6000830152506020611df784828501611d1a565b6020830152506040611e0b84828501611d05565b604083015250606082015167ffffffffffffffff811115611e2f57611e2e6129b9565b5b611e3b84828501611d85565b60608301525092915050565b600060c08284031215611e5d57611e5c6129b4565b5b611e6760c06126c3565b90506000611e7784828501611f88565b600083015250602082015167ffffffffffffffff811115611e9b57611e9a6129b9565b5b611ea784828501611d85565b602083015250604082015167ffffffffffffffff811115611ecb57611eca6129b9565b5b611ed784828501611d85565b604083015250606082015167ffffffffffffffff811115611efb57611efa6129b9565b5b611f0784828501611d85565b606083015250608082015167ffffffffffffffff811115611f2b57611f2a6129b9565b5b611f3784828501611db3565b60808301525060a082015167ffffffffffffffff811115611f5b57611f5a6129b9565b5b611f6784828501611db3565b60a08301525092915050565b600081359050611f8281612a96565b92915050565b600081519050611f9781612a96565b92915050565b600060208284031215611fb357611fb26129cd565b5b6000611fc184828501611d1a565b91505092915050565b600060208284031215611fe057611fdf6129cd565b5b600082015167ffffffffffffffff811115611ffe57611ffd6129c8565b5b61200a84828501611db3565b91505092915050565b600060208284031215612029576120286129cd565b5b600082015167ffffffffffffffff811115612047576120466129c8565b5b61205384828501611e47565b91505092915050565b600060208284031215612072576120716129cd565b5b600061208084828501611f73565b91505092915050565b600080600080606085870312156120a3576120a26129cd565b5b60006120b187828801611f73565b945050602085013567ffffffffffffffff8111156120d2576120d16129c8565b5b6120de87828801611d2f565b935093505060406120f187828801611f73565b91505092959194509250565b60006121098383612331565b905092915050565b61211a8161277f565b82525050565b6121298161277f565b82525050565b600061213a82612729565b612144818561274c565b93508360208202850161215685612719565b8060005b85811015612192578484038952815161217385826120fd565b945061217e8361273f565b925060208a0199505060018101905061215a565b50829750879550505050505092915050565b6121ad816127ce565b82525050565b60006121be82612734565b6121c8818561275d565b93506121d88185602086016127e0565b6121e1816129d2565b840191505092915050565b60006121f782612734565b612201818561276e565b93506122118185602086016127e0565b61221a816129d2565b840191505092915050565b600061223260248361276e565b915061223d826129e3565b604082019050919050565b600061225560188361276e565b915061226082612a32565b602082019050919050565b60006080830160008301516122836000860182612583565b50602083015161229660208601826121a4565b5060408301516122a96040860182612111565b50606083015184820360608601526122c182826121b3565b9150508091505092915050565b60006080830160008301516122e66000860182612583565b5060208301516122f960208601826121a4565b50604083015161230c6040860182612111565b506060830151848203606086015261232482826121b3565b9150508091505092915050565b600060a0830160008301516123496000860182612583565b5060208301518482036020860152612361828261226b565b9150506040830151848203604086015261237b82826121b3565b91505060608301516123906060860182612583565b50608083015184820360808601526123a88282612439565b9150508091505092915050565b600060a0830160008301516123cd6000860182612583565b50602083015184820360208601526123e5828261226b565b915050604083015184820360408601526123ff82826121b3565b91505060608301516124146060860182612583565b506080830151848203608086015261242c8282612439565b9150508091505092915050565b600060c0830160008301516124516000860182612583565b506020830151848203602086015261246982826121b3565b9150506040830151848203604086015261248382826121b3565b9150506060830151848203606086015261249d82826121b3565b915050608083015184820360808601526124b7828261226b565b91505060a083015184820360a08601526124d1828261226b565b9150508091505092915050565b600060c0830160008301516124f66000860182612583565b506020830151848203602086015261250e82826121b3565b9150506040830151848203604086015261252882826121b3565b9150506060830151848203606086015261254282826121b3565b9150506080830151848203608086015261255c828261226b565b91505060a083015184820360a0860152612576828261226b565b9150508091505092915050565b61258c816127c4565b82525050565b61259b816127c4565b82525050565b60006020820190506125b66000830184612120565b92915050565b600060208201905081810360008301526125d6818461212f565b905092915050565b600060208201905081810360008301526125f781612225565b9050919050565b6000602082019050818103600083015261261781612248565b9050919050565b6000602082019050818103600083015261263881846123b5565b905092915050565b60006020820190506126556000830184612592565b92915050565b600060a0820190506126706000830188612592565b818103602083015261268281876122ce565b9050818103604083015261269681866121ec565b90506126a56060830185612592565b81810360808301526126b781846124de565b90509695505050505050565b60006126cd6126de565b90506126d98282612845565b919050565b6000604051905090565b600067ffffffffffffffff8211156127035761270261297b565b5b61270c826129d2565b9050602081019050919050565b6000819050602082019050919050565b600081519050919050565b600081519050919050565b6000602082019050919050565b600082825260208201905092915050565b600082825260208201905092915050565b600082825260208201905092915050565b600061278a826127a4565b9050919050565b600081905061279f82612a5b565b919050565b600073ffffffffffffffffffffffffffffffffffffffff82169050919050565b6000819050919050565b60006127d982612791565b9050919050565b60005b838110156127fe5780820151818401526020810190506127e3565b8381111561280d576000848401525b50505050565b6000600282049050600182168061282b57607f821691505b6020821081141561283f5761283e61291d565b5b50919050565b61284e826129d2565b810181811067ffffffffffffffff8211171561286d5761286c61297b565b5b80604052505050565b6000612881826127c4565b91507fffffffffffffffffffffffffffffffffffffffffffffffffffffffffffffffff8214156128b4576128b36128bf565b5b600182019050919050565b7f4e487b7100000000000000000000000000000000000000000000000000000000600052601160045260246000fd5b7f4e487b7100000000000000000000000000000000000000000000000000000000600052602160045260246000fd5b7f4e487b7100000000000000000000000000000000000000000000000000000000600052602260045260246000fd5b7f4e487b7100000000000000000000000000000000000000000000000000000000600052603260045260246000fd5b7f4e487b7100000000000000000000000000000000000000000000000000000000600052604160045260246000fd5b600080fd5b600080fd5b600080fd5b600080fd5b600080fd5b600080fd5b600080fd5b600080fd5b6000601f19601f8301169050919050565b7f7468697320726177206469616d6f6e6420686176656e2774206265656e20736860008201527f6170656400000000000000000000000000000000000000000000000000000000602082015250565b7f596f7520617265206e6f74207468652067726164657273210000000000000000600082015250565b60048110612a6c57612a6b6128ee565b5b50565b612a788161277f565b8114612a8357600080fd5b50565b60048110612a9357600080fd5b50565b612a9f816127c4565b8114612aaa57600080fd5b5056fea2646970667358221220a6b2af1ef4c7739c8bb686f13a16c4f82585489430b43c0be7fc14745255b43d64736f6c63430008070033",
  "immutableReferences": {},
  "source": "// SPDX-License-Identifier: MIT\r\npragma solidity ^0.8.7;\r\n\r\nimport \"./RawDiamondRegistry.sol\";\r\nimport \"./CompanyRegistry.sol\";\r\n\r\ncontract DiamondRegistry {\r\n    struct Diamond {\r\n        uint256 uniqueId;\r\n        CompanyRegistry.Company gradingLab;\r\n        string clarity;\r\n        uint256 grade;\r\n        RawDiamondRegistry.RawDiamond rawDiamond;\r\n    }\r\n\r\n    mapping(uint256 => Diamond) public diamondItems;\r\n    uint256 public diamondCounts;\r\n\r\n    RawDiamondRegistry private rawDiamondRegistry;\r\n    CompanyRegistry private companyRegistry;\r\n\r\n    constructor(address _rawDiamondRegistry, address _companyRegistry) {\r\n        rawDiamondRegistry = RawDiamondRegistry(_rawDiamondRegistry);\r\n        companyRegistry = CompanyRegistry(_companyRegistry);\r\n    }\r\n\r\n    function getAllDiamonds() public view returns (Diamond[] memory) {\r\n        Diamond[] memory allDiamonds = new Diamond[](diamondCounts);\r\n        for (uint i = 0; i < diamondCounts; i++) {\r\n            allDiamonds[i] = diamondItems[i];\r\n        }\r\n        return allDiamonds;\r\n    }\r\n\r\n    function getDiamond(uint256 uniqueId) public view returns (Diamond memory) {\r\n        return diamondItems[uniqueId];\r\n    }\r\n\r\n    function diamondRegister(\r\n        uint256 rawId,\r\n        string calldata clarity,\r\n        uint256 grade\r\n    ) public onlyGradingCompany returns (uint256) {\r\n        RawDiamondRegistry.RawDiamond memory rawDiamond = rawDiamondRegistry\r\n            .getRawDiamond(rawId);\r\n        require(\r\n            rawDiamond.cuttingCompany.addr != address(0) &&\r\n                rawDiamond.miningCompany.addr != address(0),\r\n            \"this raw diamond haven't been shaped\"\r\n        );\r\n        uint256 uniqueId = diamondCounts++;\r\n        CompanyRegistry.Company memory gradingLab = companyRegistry.getCompany(\r\n            msg.sender\r\n        );\r\n        Diamond memory newDiamond = Diamond(\r\n            uniqueId,\r\n            gradingLab,\r\n            clarity,\r\n            grade,\r\n            rawDiamond\r\n        );\r\n        diamondItems[uniqueId] = newDiamond;\r\n        return uniqueId;\r\n    }\r\n\r\n    modifier onlyGradingCompany() {\r\n        require(\r\n            companyRegistry.getCompanyType(msg.sender) ==\r\n                CompanyRegistry.CompanyType.Grading,\r\n            \"You are not the graders!\"\r\n        );\r\n        _;\r\n    }\r\n}\r\n",
  "sourcePath": "D:\\master\\dapp\\tracing-luxury-1\\src\\contracts\\DiamondRegistry.sol",
  "compiler": {
    "name": "solc",
    "version": "0.8.7+commit.e28d00a7.Emscripten.clang"
  },
  "schemaVersion": "3.4.16",
  "updatedAt": "2023-11-22T08:55:11.585Z",
  "networkType": "ethereum",
  "devdoc": {
    "kind": "dev",
    "methods": {},
    "version": 1
  },
  "userdoc": {
    "kind": "user",
    "methods": {},
    "version": 1
  }
}