{
  "contractName": "DiamondRegistry",
  "abi": [
    {
      "inputs": [
        {
          "internalType": "address",
          "name": "_rawDiamondRegistry",
          "type": "address"
        },
        {
          "internalType": "address",
          "name": "_companyRegistry",
          "type": "address"
        }
      ],
      "stateMutability": "nonpayable",
      "type": "constructor"
    },
    {
      "inputs": [],
      "name": "diamondCounts",
      "outputs": [
        {
          "internalType": "uint256",
          "name": "",
          "type": "uint256"
        }
      ],
      "stateMutability": "view",
      "type": "function",
      "constant": true
    },
    {
      "inputs": [
        {
          "internalType": "uint256",
          "name": "",
          "type": "uint256"
        }
      ],
      "name": "diamondItems",
      "outputs": [
        {
          "internalType": "uint256",
          "name": "uniqueId",
          "type": "uint256"
        },
        {
          "internalType": "address",
          "name": "gradingLab",
          "type": "address"
        },
        {
          "internalType": "uint256",
          "name": "grade",
          "type": "uint256"
        },
        {
          "components": [
            {
              "internalType": "uint256",
              "name": "rawId",
              "type": "uint256"
            },
            {
              "internalType": "string",
              "name": "rawDiamondName",
              "type": "string"
            },
            {
              "internalType": "string",
              "name": "rawDiamondColor",
              "type": "string"
            },
            {
              "internalType": "string",
              "name": "cuttingGrade",
              "type": "string"
            },
            {
              "components": [
                {
                  "internalType": "uint256",
                  "name": "companyId",
                  "type": "uint256"
                },
                {
                  "internalType": "enum CompanyRegistry.CompanyType",
                  "name": "companyType",
                  "type": "uint8"
                },
                {
                  "internalType": "address",
                  "name": "addr",
                  "type": "address"
                },
                {
                  "internalType": "string",
                  "name": "companyName",
                  "type": "string"
                }
              ],
              "internalType": "struct CompanyRegistry.Company",
              "name": "miningCompany",
              "type": "tuple"
            },
            {
              "components": [
                {
                  "internalType": "uint256",
                  "name": "companyId",
                  "type": "uint256"
                },
                {
                  "internalType": "enum CompanyRegistry.CompanyType",
                  "name": "companyType",
                  "type": "uint8"
                },
                {
                  "internalType": "address",
                  "name": "addr",
                  "type": "address"
                },
                {
                  "internalType": "string",
                  "name": "companyName",
                  "type": "string"
                }
              ],
              "internalType": "struct CompanyRegistry.Company",
              "name": "cuttingCompany",
              "type": "tuple"
            }
          ],
          "internalType": "struct RawDiamondRegistry.RawDiamond",
          "name": "rawDiamond",
          "type": "tuple"
        }
      ],
      "stateMutability": "view",
      "type": "function",
      "constant": true
    },
    {
      "inputs": [],
      "name": "getAllDiamonds",
      "outputs": [
        {
          "components": [
            {
              "internalType": "uint256",
              "name": "uniqueId",
              "type": "uint256"
            },
            {
              "internalType": "address",
              "name": "gradingLab",
              "type": "address"
            },
            {
              "internalType": "uint256",
              "name": "grade",
              "type": "uint256"
            },
            {
              "components": [
                {
                  "internalType": "uint256",
                  "name": "rawId",
                  "type": "uint256"
                },
                {
                  "internalType": "string",
                  "name": "rawDiamondName",
                  "type": "string"
                },
                {
                  "internalType": "string",
                  "name": "rawDiamondColor",
                  "type": "string"
                },
                {
                  "internalType": "string",
                  "name": "cuttingGrade",
                  "type": "string"
                },
                {
                  "components": [
                    {
                      "internalType": "uint256",
                      "name": "companyId",
                      "type": "uint256"
                    },
                    {
                      "internalType": "enum CompanyRegistry.CompanyType",
                      "name": "companyType",
                      "type": "uint8"
                    },
                    {
                      "internalType": "address",
                      "name": "addr",
                      "type": "address"
                    },
                    {
                      "internalType": "string",
                      "name": "companyName",
                      "type": "string"
                    }
                  ],
                  "internalType": "struct CompanyRegistry.Company",
                  "name": "miningCompany",
                  "type": "tuple"
                },
                {
                  "components": [
                    {
                      "internalType": "uint256",
                      "name": "companyId",
                      "type": "uint256"
                    },
                    {
                      "internalType": "enum CompanyRegistry.CompanyType",
                      "name": "companyType",
                      "type": "uint8"
                    },
                    {
                      "internalType": "address",
                      "name": "addr",
                      "type": "address"
                    },
                    {
                      "internalType": "string",
                      "name": "companyName",
                      "type": "string"
                    }
                  ],
                  "internalType": "struct CompanyRegistry.Company",
                  "name": "cuttingCompany",
                  "type": "tuple"
                }
              ],
              "internalType": "struct RawDiamondRegistry.RawDiamond",
              "name": "rawDiamond",
              "type": "tuple"
            }
          ],
          "internalType": "struct DiamondRegistry.Diamond[]",
          "name": "",
          "type": "tuple[]"
        }
      ],
      "stateMutability": "view",
      "type": "function",
      "constant": true
    },
    {
      "inputs": [
        {
          "internalType": "uint256",
          "name": "uniqueId",
          "type": "uint256"
        }
      ],
      "name": "getDiamond",
      "outputs": [
        {
          "components": [
            {
              "internalType": "uint256",
              "name": "uniqueId",
              "type": "uint256"
            },
            {
              "internalType": "address",
              "name": "gradingLab",
              "type": "address"
            },
            {
              "internalType": "uint256",
              "name": "grade",
              "type": "uint256"
            },
            {
              "components": [
                {
                  "internalType": "uint256",
                  "name": "rawId",
                  "type": "uint256"
                },
                {
                  "internalType": "string",
                  "name": "rawDiamondName",
                  "type": "string"
                },
                {
                  "internalType": "string",
                  "name": "rawDiamondColor",
                  "type": "string"
                },
                {
                  "internalType": "string",
                  "name": "cuttingGrade",
                  "type": "string"
                },
                {
                  "components": [
                    {
                      "internalType": "uint256",
                      "name": "companyId",
                      "type": "uint256"
                    },
                    {
                      "internalType": "enum CompanyRegistry.CompanyType",
                      "name": "companyType",
                      "type": "uint8"
                    },
                    {
                      "internalType": "address",
                      "name": "addr",
                      "type": "address"
                    },
                    {
                      "internalType": "string",
                      "name": "companyName",
                      "type": "string"
                    }
                  ],
                  "internalType": "struct CompanyRegistry.Company",
                  "name": "miningCompany",
                  "type": "tuple"
                },
                {
                  "components": [
                    {
                      "internalType": "uint256",
                      "name": "companyId",
                      "type": "uint256"
                    },
                    {
                      "internalType": "enum CompanyRegistry.CompanyType",
                      "name": "companyType",
                      "type": "uint8"
                    },
                    {
                      "internalType": "address",
                      "name": "addr",
                      "type": "address"
                    },
                    {
                      "internalType": "string",
                      "name": "companyName",
                      "type": "string"
                    }
                  ],
                  "internalType": "struct CompanyRegistry.Company",
                  "name": "cuttingCompany",
                  "type": "tuple"
                }
              ],
              "internalType": "struct RawDiamondRegistry.RawDiamond",
              "name": "rawDiamond",
              "type": "tuple"
            }
          ],
          "internalType": "struct DiamondRegistry.Diamond",
          "name": "",
          "type": "tuple"
        }
      ],
      "stateMutability": "view",
      "type": "function",
      "constant": true
    },
    {
      "inputs": [
        {
          "internalType": "uint256",
          "name": "rawId",
          "type": "uint256"
        },
        {
          "internalType": "uint256",
          "name": "grade",
          "type": "uint256"
        }
      ],
      "name": "diamondRegister",
      "outputs": [
        {
          "internalType": "uint256",
          "name": "",
          "type": "uint256"
        }
      ],
      "stateMutability": "nonpayable",
      "type": "function"
    }
  ],
  "bytecode": "0x60806040523480156200001157600080fd5b5060405162002342380380620023428339818101604052810190620000379190620000d8565b81600260006101000a81548173ffffffffffffffffffffffffffffffffffffffff021916908373ffffffffffffffffffffffffffffffffffffffff16021790555080600360006101000a81548173ffffffffffffffffffffffffffffffffffffffff021916908373ffffffffffffffffffffffffffffffffffffffff160217905550505062000172565b600081519050620000d28162000158565b92915050565b60008060408385031215620000f257620000f162000153565b5b60006200010285828601620000c1565b92505060206200011585828601620000c1565b9150509250929050565b60006200012c8262000133565b9050919050565b600073ffffffffffffffffffffffffffffffffffffffff82169050919050565b600080fd5b62000163816200011f565b81146200016f57600080fd5b50565b6121c080620001826000396000f3fe608060405234801561001057600080fd5b50600436106100575760003560e01c80631829563c1461005c578063a01a33b31461007a578063a9856cf9146100aa578063defd9955146100c8578063e3ed14db146100fb575b600080fd5b61006461012b565b6040516100719190611d92565b60405180910390f35b610094600480360381019061008f9190611930565b610131565b6040516100a19190611d92565b60405180910390f35b6100b2610589565b6040516100bf9190611d2e565b60405180910390f35b6100e260048036038101906100dd9190611903565b610b08565b6040516100f29493929190611dad565b60405180910390f35b61011560048036038101906101109190611903565b610fa4565b6040516101229190611d70565b60405180910390f35b60015481565b60006002600381111561014757610146612024565b5b600360009054906101000a900473ffffffffffffffffffffffffffffffffffffffff1673ffffffffffffffffffffffffffffffffffffffff1663097bcc1a336040518263ffffffff1660e01b81526004016101a29190611d13565b60206040518083038186803b1580156101ba57600080fd5b505afa1580156101ce573d6000803e3d6000fd5b505050506040513d601f19601f820116820180604052508101906101f2919061188d565b600381111561020457610203612024565b5b14610244576040517f08c379a000000000000000000000000000000000000000000000000000000000815260040161023b90611d50565b60405180910390fd5b6000600260009054906101000a900473ffffffffffffffffffffffffffffffffffffffff1673ffffffffffffffffffffffffffffffffffffffff16632e78c4fb856040518263ffffffff1660e01b81526004016102a19190611d92565b60006040518083038186803b1580156102b957600080fd5b505afa1580156102cd573d6000803e3d6000fd5b505050506040513d6000823e3d601f19601f820116820180604052508101906102f691906118ba565b905060006001600081548092919061030d90611fac565b919050559050600060405180608001604052808381526020013373ffffffffffffffffffffffffffffffffffffffff168152602001868152602001848152509050806000808481526020019081526020016000206000820151816000015560208201518160010160006101000a81548173ffffffffffffffffffffffffffffffffffffffff021916908373ffffffffffffffffffffffffffffffffffffffff160217905550604082015181600201556060820151816003016000820151816000015560208201518160010190805190602001906103eb929190611490565b506040820151816002019080519060200190610408929190611490565b506060820151816003019080519060200190610425929190611490565b506080820151816004016000820151816000015560208201518160010160006101000a81548160ff0219169083600381111561046457610463612024565b5b021790555060408201518160010160016101000a81548173ffffffffffffffffffffffffffffffffffffffff021916908373ffffffffffffffffffffffffffffffffffffffff16021790555060608201518160020190805190602001906104cc929190611490565b50505060a0820151816007016000820151816000015560208201518160010160006101000a81548160ff0219169083600381111561050d5761050c612024565b5b021790555060408201518160010160016101000a81548173ffffffffffffffffffffffffffffffffffffffff021916908373ffffffffffffffffffffffffffffffffffffffff1602179055506060820151816002019080519060200190610575929190611490565b505050505090505081935050505092915050565b6060600060015467ffffffffffffffff8111156105a9576105a86120b1565b5b6040519080825280602002602001820160405280156105e257816020015b6105cf611516565b8152602001906001900390816105c75790505b50905060005b600154811015610b0057600080828152602001908152602001600020604051806080016040529081600082015481526020016001820160009054906101000a900473ffffffffffffffffffffffffffffffffffffffff1673ffffffffffffffffffffffffffffffffffffffff1673ffffffffffffffffffffffffffffffffffffffff16815260200160028201548152602001600382016040518060c0016040529081600082015481526020016001820180546106a390611f49565b80601f01602080910402602001604051908101604052809291908181526020018280546106cf90611f49565b801561071c5780601f106106f15761010080835404028352916020019161071c565b820191906000526020600020905b8154815290600101906020018083116106ff57829003601f168201915b5050505050815260200160028201805461073590611f49565b80601f016020809104026020016040519081016040528092919081815260200182805461076190611f49565b80156107ae5780601f10610783576101008083540402835291602001916107ae565b820191906000526020600020905b81548152906001019060200180831161079157829003601f168201915b505050505081526020016003820180546107c790611f49565b80601f01602080910402602001604051908101604052809291908181526020018280546107f390611f49565b80156108405780601f1061081557610100808354040283529160200191610840565b820191906000526020600020905b81548152906001019060200180831161082357829003601f168201915b5050505050815260200160048201604051806080016040529081600082015481526020016001820160009054906101000a900460ff16600381111561088857610887612024565b5b600381111561089a57610899612024565b5b81526020016001820160019054906101000a900473ffffffffffffffffffffffffffffffffffffffff1673ffffffffffffffffffffffffffffffffffffffff1673ffffffffffffffffffffffffffffffffffffffff16815260200160028201805461090490611f49565b80601f016020809104026020016040519081016040528092919081815260200182805461093090611f49565b801561097d5780601f106109525761010080835404028352916020019161097d565b820191906000526020600020905b81548152906001019060200180831161096057829003601f168201915b505050505081525050815260200160078201604051806080016040529081600082015481526020016001820160009054906101000a900460ff1660038111156109c9576109c8612024565b5b60038111156109db576109da612024565b5b81526020016001820160019054906101000a900473ffffffffffffffffffffffffffffffffffffffff1673ffffffffffffffffffffffffffffffffffffffff1673ffffffffffffffffffffffffffffffffffffffff168152602001600282018054610a4590611f49565b80601f0160208091040260200160405190810160405280929190818152602001828054610a7190611f49565b8015610abe5780601f10610a9357610100808354040283529160200191610abe565b820191906000526020600020905b815481529060010190602001808311610aa157829003601f168201915b5050505050815250508152505081525050828281518110610ae257610ae1612082565b5b60200260200101819052508080610af890611fac565b9150506105e8565b508091505090565b60006020528060005260406000206000915090508060000154908060010160009054906101000a900473ffffffffffffffffffffffffffffffffffffffff1690806002015490806003016040518060c001604052908160008201548152602001600182018054610b7790611f49565b80601f0160208091040260200160405190810160405280929190818152602001828054610ba390611f49565b8015610bf05780601f10610bc557610100808354040283529160200191610bf0565b820191906000526020600020905b815481529060010190602001808311610bd357829003601f168201915b50505050508152602001600282018054610c0990611f49565b80601f0160208091040260200160405190810160405280929190818152602001828054610c3590611f49565b8015610c825780601f10610c5757610100808354040283529160200191610c82565b820191906000526020600020905b815481529060010190602001808311610c6557829003601f168201915b50505050508152602001600382018054610c9b90611f49565b80601f0160208091040260200160405190810160405280929190818152602001828054610cc790611f49565b8015610d145780601f10610ce957610100808354040283529160200191610d14565b820191906000526020600020905b815481529060010190602001808311610cf757829003601f168201915b5050505050815260200160048201604051806080016040529081600082015481526020016001820160009054906101000a900460ff166003811115610d5c57610d5b612024565b5b6003811115610d6e57610d6d612024565b5b81526020016001820160019054906101000a900473ffffffffffffffffffffffffffffffffffffffff1673ffffffffffffffffffffffffffffffffffffffff1673ffffffffffffffffffffffffffffffffffffffff168152602001600282018054610dd890611f49565b80601f0160208091040260200160405190810160405280929190818152602001828054610e0490611f49565b8015610e515780601f10610e2657610100808354040283529160200191610e51565b820191906000526020600020905b815481529060010190602001808311610e3457829003601f168201915b505050505081525050815260200160078201604051806080016040529081600082015481526020016001820160009054906101000a900460ff166003811115610e9d57610e9c612024565b5b6003811115610eaf57610eae612024565b5b81526020016001820160019054906101000a900473ffffffffffffffffffffffffffffffffffffffff1673ffffffffffffffffffffffffffffffffffffffff1673ffffffffffffffffffffffffffffffffffffffff168152602001600282018054610f1990611f49565b80601f0160208091040260200160405190810160405280929190818152602001828054610f4590611f49565b8015610f925780601f10610f6757610100808354040283529160200191610f92565b820191906000526020600020905b815481529060010190602001808311610f7557829003601f168201915b50505050508152505081525050905084565b610fac611516565b600080838152602001908152602001600020604051806080016040529081600082015481526020016001820160009054906101000a900473ffffffffffffffffffffffffffffffffffffffff1673ffffffffffffffffffffffffffffffffffffffff1673ffffffffffffffffffffffffffffffffffffffff16815260200160028201548152602001600382016040518060c00160405290816000820154815260200160018201805461105d90611f49565b80601f016020809104026020016040519081016040528092919081815260200182805461108990611f49565b80156110d65780601f106110ab576101008083540402835291602001916110d6565b820191906000526020600020905b8154815290600101906020018083116110b957829003601f168201915b505050505081526020016002820180546110ef90611f49565b80601f016020809104026020016040519081016040528092919081815260200182805461111b90611f49565b80156111685780601f1061113d57610100808354040283529160200191611168565b820191906000526020600020905b81548152906001019060200180831161114b57829003601f168201915b5050505050815260200160038201805461118190611f49565b80601f01602080910402602001604051908101604052809291908181526020018280546111ad90611f49565b80156111fa5780601f106111cf576101008083540402835291602001916111fa565b820191906000526020600020905b8154815290600101906020018083116111dd57829003601f168201915b5050505050815260200160048201604051806080016040529081600082015481526020016001820160009054906101000a900460ff16600381111561124257611241612024565b5b600381111561125457611253612024565b5b81526020016001820160019054906101000a900473ffffffffffffffffffffffffffffffffffffffff1673ffffffffffffffffffffffffffffffffffffffff1673ffffffffffffffffffffffffffffffffffffffff1681526020016002820180546112be90611f49565b80601f01602080910402602001604051908101604052809291908181526020018280546112ea90611f49565b80156113375780601f1061130c57610100808354040283529160200191611337565b820191906000526020600020905b81548152906001019060200180831161131a57829003601f168201915b505050505081525050815260200160078201604051806080016040529081600082015481526020016001820160009054906101000a900460ff16600381111561138357611382612024565b5b600381111561139557611394612024565b5b81526020016001820160019054906101000a900473ffffffffffffffffffffffffffffffffffffffff1673ffffffffffffffffffffffffffffffffffffffff1673ffffffffffffffffffffffffffffffffffffffff1681526020016002820180546113ff90611f49565b80601f016020809104026020016040519081016040528092919081815260200182805461142b90611f49565b80156114785780601f1061144d57610100808354040283529160200191611478565b820191906000526020600020905b81548152906001019060200180831161145b57829003601f168201915b50505050508152505081525050815250509050919050565b82805461149c90611f49565b90600052602060002090601f0160209004810192826114be5760008555611505565b82601f106114d757805160ff1916838001178555611505565b82800160010185558215611505579182015b828111156115045782518255916020019190600101906114e9565b5b509050611512919061155a565b5090565b604051806080016040528060008152602001600073ffffffffffffffffffffffffffffffffffffffff16815260200160008152602001611554611577565b81525090565b5b8082111561157357600081600090555060010161155b565b5090565b6040518060c00160405280600081526020016060815260200160608152602001606081526020016115a66115b9565b81526020016115b36115b9565b81525090565b604051806080016040528060008152602001600060038111156115df576115de612024565b5b8152602001600073ffffffffffffffffffffffffffffffffffffffff168152602001606081525090565b600061161c61161784611e1e565b611df9565b905082815260208101848484011115611638576116376120ef565b5b611643848285611f16565b509392505050565b60008151905061165a8161214c565b92915050565b60008151905061166f81612163565b92915050565b600082601f83011261168a576116896120e0565b5b815161169a848260208601611609565b91505092915050565b6000608082840312156116b9576116b86120e5565b5b6116c36080611df9565b905060006116d384828501611878565b60008301525060206116e784828501611660565b60208301525060406116fb8482850161164b565b604083015250606082015167ffffffffffffffff81111561171f5761171e6120ea565b5b61172b84828501611675565b60608301525092915050565b600060c0828403121561174d5761174c6120e5565b5b61175760c0611df9565b9050600061176784828501611878565b600083015250602082015167ffffffffffffffff81111561178b5761178a6120ea565b5b61179784828501611675565b602083015250604082015167ffffffffffffffff8111156117bb576117ba6120ea565b5b6117c784828501611675565b604083015250606082015167ffffffffffffffff8111156117eb576117ea6120ea565b5b6117f784828501611675565b606083015250608082015167ffffffffffffffff81111561181b5761181a6120ea565b5b611827848285016116a3565b60808301525060a082015167ffffffffffffffff81111561184b5761184a6120ea565b5b611857848285016116a3565b60a08301525092915050565b60008135905061187281612173565b92915050565b60008151905061188781612173565b92915050565b6000602082840312156118a3576118a26120f9565b5b60006118b184828501611660565b91505092915050565b6000602082840312156118d0576118cf6120f9565b5b600082015167ffffffffffffffff8111156118ee576118ed6120f4565b5b6118fa84828501611737565b91505092915050565b600060208284031215611919576119186120f9565b5b600061192784828501611863565b91505092915050565b60008060408385031215611947576119466120f9565b5b600061195585828601611863565b925050602061196685828601611863565b9150509250929050565b600061197c8383611ae5565b905092915050565b61198d81611eb5565b82525050565b61199c81611eb5565b82525050565b60006119ad82611e5f565b6119b78185611e82565b9350836020820285016119c985611e4f565b8060005b85811015611a0557848403895281516119e68582611970565b94506119f183611e75565b925060208a019950506001810190506119cd565b50829750879550505050505092915050565b611a2081611f04565b82525050565b6000611a3182611e6a565b611a3b8185611e93565b9350611a4b818560208601611f16565b611a54816120fe565b840191505092915050565b6000611a6c601883611ea4565b9150611a778261210f565b602082019050919050565b6000608083016000830151611a9a6000860182611cf5565b506020830151611aad6020860182611a17565b506040830151611ac06040860182611984565b5060608301518482036060860152611ad88282611a26565b9150508091505092915050565b6000608083016000830151611afd6000860182611cf5565b506020830151611b106020860182611984565b506040830151611b236040860182611cf5565b5060608301518482036060860152611b3b8282611bab565b9150508091505092915050565b6000608083016000830151611b606000860182611cf5565b506020830151611b736020860182611984565b506040830151611b866040860182611cf5565b5060608301518482036060860152611b9e8282611bab565b9150508091505092915050565b600060c083016000830151611bc36000860182611cf5565b5060208301518482036020860152611bdb8282611a26565b91505060408301518482036040860152611bf58282611a26565b91505060608301518482036060860152611c0f8282611a26565b91505060808301518482036080860152611c298282611a82565b91505060a083015184820360a0860152611c438282611a82565b9150508091505092915050565b600060c083016000830151611c686000860182611cf5565b5060208301518482036020860152611c808282611a26565b91505060408301518482036040860152611c9a8282611a26565b91505060608301518482036060860152611cb48282611a26565b91505060808301518482036080860152611cce8282611a82565b91505060a083015184820360a0860152611ce88282611a82565b9150508091505092915050565b611cfe81611efa565b82525050565b611d0d81611efa565b82525050565b6000602082019050611d286000830184611993565b92915050565b60006020820190508181036000830152611d4881846119a2565b905092915050565b60006020820190508181036000830152611d6981611a5f565b9050919050565b60006020820190508181036000830152611d8a8184611b48565b905092915050565b6000602082019050611da76000830184611d04565b92915050565b6000608082019050611dc26000830187611d04565b611dcf6020830186611993565b611ddc6040830185611d04565b8181036060830152611dee8184611c50565b905095945050505050565b6000611e03611e14565b9050611e0f8282611f7b565b919050565b6000604051905090565b600067ffffffffffffffff821115611e3957611e386120b1565b5b611e42826120fe565b9050602081019050919050565b6000819050602082019050919050565b600081519050919050565b600081519050919050565b6000602082019050919050565b600082825260208201905092915050565b600082825260208201905092915050565b600082825260208201905092915050565b6000611ec082611eda565b9050919050565b6000819050611ed582612138565b919050565b600073ffffffffffffffffffffffffffffffffffffffff82169050919050565b6000819050919050565b6000611f0f82611ec7565b9050919050565b60005b83811015611f34578082015181840152602081019050611f19565b83811115611f43576000848401525b50505050565b60006002820490506001821680611f6157607f821691505b60208210811415611f7557611f74612053565b5b50919050565b611f84826120fe565b810181811067ffffffffffffffff82111715611fa357611fa26120b1565b5b80604052505050565b6000611fb782611efa565b91507fffffffffffffffffffffffffffffffffffffffffffffffffffffffffffffffff821415611fea57611fe9611ff5565b5b600182019050919050565b7f4e487b7100000000000000000000000000000000000000000000000000000000600052601160045260246000fd5b7f4e487b7100000000000000000000000000000000000000000000000000000000600052602160045260246000fd5b7f4e487b7100000000000000000000000000000000000000000000000000000000600052602260045260246000fd5b7f4e487b7100000000000000000000000000000000000000000000000000000000600052603260045260246000fd5b7f4e487b7100000000000000000000000000000000000000000000000000000000600052604160045260246000fd5b600080fd5b600080fd5b600080fd5b600080fd5b600080fd5b600080fd5b6000601f19601f8301169050919050565b7f596f7520617265206e6f74207468652067726164657273210000000000000000600082015250565b6004811061214957612148612024565b5b50565b61215581611eb5565b811461216057600080fd5b50565b6004811061217057600080fd5b50565b61217c81611efa565b811461218757600080fd5b5056fea26469706673582212205a03ad9efd850af2b99e6061cf7913715afc9693477bf3c8350741e4dca6f2ad64736f6c63430008070033",
  "immutableReferences": {},
  "source": "// SPDX-License-Identifier: MIT\npragma solidity ^0.8.7;\n\nimport \"./RawDiamondRegistry.sol\";\nimport \"./CompanyRegistry.sol\";\n\ncontract DiamondRegistry {\n    struct Diamond {\n        uint256 uniqueId;\n        address gradingLab;\n        uint256 grade;\n        RawDiamondRegistry.RawDiamond rawDiamond;\n    }\n\n    mapping(uint256 => Diamond) public diamondItems;\n    uint256 public diamondCounts;\n\n    RawDiamondRegistry private rawDiamondRegistry;\n    CompanyRegistry private companyRegistry;\n\n    constructor(address _rawDiamondRegistry, address _companyRegistry) {\n        rawDiamondRegistry = RawDiamondRegistry(_rawDiamondRegistry);\n        companyRegistry = CompanyRegistry(_companyRegistry);\n    }\n\n    function getAllDiamonds() public view returns (Diamond[] memory) {\n        Diamond[] memory allDiamonds = new Diamond[](diamondCounts);\n        for (uint i = 0; i < diamondCounts; i++) {\n            allDiamonds[i] = diamondItems[i];\n        }\n        return allDiamonds;\n    }\n\n    function getDiamond(uint256 uniqueId) public view returns (Diamond memory) {\n        return diamondItems[uniqueId];\n    }\n\n    function diamondRegister(\n        uint256 rawId,uint256 grade\n    ) public onlyGradingCompany returns (uint256) {\n        RawDiamondRegistry.RawDiamond memory rawDiamond = rawDiamondRegistry\n            .getRawDiamond(rawId);\n        uint256 uniqueId = diamondCounts++;\n        Diamond memory newDiamond = Diamond(uniqueId, msg.sender, grade, rawDiamond);\n        diamondItems[uniqueId] = newDiamond;\n        return uniqueId;\n    }\n\n    modifier onlyGradingCompany() {\n        require(\n            companyRegistry.getCompanyType(msg.sender) ==\n                CompanyRegistry.CompanyType.Grading,\n            \"You are not the graders!\"\n        );\n        _;\n    }\n}\n",
  "sourcePath": "/Users/huanghongbin/VsCodeProjests/tracing-luxury/src/contracts/DiamondRegistry.sol",
  "compiler": {
    "name": "solc",
    "version": "0.8.7+commit.e28d00a7.Emscripten.clang"
  },
  "schemaVersion": "3.4.16",
  "updatedAt": "2023-11-20T17:22:26.144Z",
  "networkType": "ethereum",
  "devdoc": {
    "kind": "dev",
    "methods": {},
    "version": 1
  },
  "userdoc": {
    "kind": "user",
    "methods": {},
    "version": 1
  }
}