{
  "contractName": "DiamondRegistry",
  "abi": [
    {
      "inputs": [
        {
          "internalType": "address",
          "name": "_rawDiamondRegistry",
          "type": "address"
        },
        {
          "internalType": "address",
          "name": "_companyRegistry",
          "type": "address"
        }
      ],
      "stateMutability": "nonpayable",
      "type": "constructor"
    },
    {
      "inputs": [],
      "name": "diamondCounts",
      "outputs": [
        {
          "internalType": "uint256",
          "name": "",
          "type": "uint256"
        }
      ],
      "stateMutability": "view",
      "type": "function",
      "constant": true
    },
    {
      "inputs": [
        {
          "internalType": "uint256",
          "name": "",
          "type": "uint256"
        }
      ],
      "name": "diamondItems",
      "outputs": [
        {
          "internalType": "uint256",
          "name": "uniqueId",
          "type": "uint256"
        },
        {
          "internalType": "address",
          "name": "gradingLab",
          "type": "address"
        },
        {
          "components": [
            {
              "internalType": "uint256",
              "name": "rawId",
              "type": "uint256"
            },
            {
              "internalType": "address",
              "name": "miningCompany",
              "type": "address"
            },
            {
              "internalType": "address",
              "name": "cuttingCompany",
              "type": "address"
            }
          ],
          "internalType": "struct RawDiamondRegistry.RawDiamond",
          "name": "rawDiamond",
          "type": "tuple"
        }
      ],
      "stateMutability": "view",
      "type": "function",
      "constant": true
    },
    {
      "inputs": [
        {
          "internalType": "uint256",
          "name": "uniqueId",
          "type": "uint256"
        }
      ],
      "name": "getDiamond",
      "outputs": [
        {
          "components": [
            {
              "internalType": "uint256",
              "name": "uniqueId",
              "type": "uint256"
            },
            {
              "internalType": "address",
              "name": "gradingLab",
              "type": "address"
            },
            {
              "components": [
                {
                  "internalType": "uint256",
                  "name": "rawId",
                  "type": "uint256"
                },
                {
                  "internalType": "address",
                  "name": "miningCompany",
                  "type": "address"
                },
                {
                  "internalType": "address",
                  "name": "cuttingCompany",
                  "type": "address"
                }
              ],
              "internalType": "struct RawDiamondRegistry.RawDiamond",
              "name": "rawDiamond",
              "type": "tuple"
            }
          ],
          "internalType": "struct DiamondRegistry.Diamond",
          "name": "",
          "type": "tuple"
        }
      ],
      "stateMutability": "view",
      "type": "function",
      "constant": true
    },
    {
      "inputs": [
        {
          "internalType": "uint256",
          "name": "rawId",
          "type": "uint256"
        }
      ],
      "name": "diamondRegister",
      "outputs": [
        {
          "internalType": "uint256",
          "name": "",
          "type": "uint256"
        }
      ],
      "stateMutability": "nonpayable",
      "type": "function"
    }
  ],
  "bytecode": "0x608060405234801561001057600080fd5b50604051610dc2380380610dc2833981810160405281019061003291906100d0565b81600260006101000a81548173ffffffffffffffffffffffffffffffffffffffff021916908373ffffffffffffffffffffffffffffffffffffffff16021790555080600360006101000a81548173ffffffffffffffffffffffffffffffffffffffff021916908373ffffffffffffffffffffffffffffffffffffffff160217905550505061015e565b6000815190506100ca81610147565b92915050565b600080604083850312156100e7576100e6610142565b5b60006100f5858286016100bb565b9250506020610106858286016100bb565b9150509250929050565b600061011b82610122565b9050919050565b600073ffffffffffffffffffffffffffffffffffffffff82169050919050565b600080fd5b61015081610110565b811461015b57600080fd5b50565b610c558061016d6000396000f3fe608060405234801561001057600080fd5b506004361061004c5760003560e01c80631829563c146100515780635224d5b61461006f578063defd99551461009f578063e3ed14db146100d1575b600080fd5b610059610101565b60405161006691906109d2565b60405180910390f35b6100896004803603810190610084919061082a565b610107565b60405161009691906109d2565b60405180910390f35b6100b960048036038101906100b4919061082a565b61042e565b6040516100c8939291906109ed565b60405180910390f35b6100eb60048036038101906100e6919061082a565b610538565b6040516100f891906109b7565b60405180910390f35b60015481565b60006002600381111561011d5761011c610b3f565b5b600360009054906101000a900473ffffffffffffffffffffffffffffffffffffffff1673ffffffffffffffffffffffffffffffffffffffff1663097bcc1a336040518263ffffffff1660e01b8152600401610178919061097c565b60206040518083038186803b15801561019057600080fd5b505afa1580156101a4573d6000803e3d6000fd5b505050506040513d601f19601f820116820180604052508101906101c891906107d0565b60038111156101da576101d9610b3f565b5b1461021a576040517f08c379a000000000000000000000000000000000000000000000000000000000815260040161021190610997565b60405180910390fd5b6000600260009054906101000a900473ffffffffffffffffffffffffffffffffffffffff1673ffffffffffffffffffffffffffffffffffffffff16632e78c4fb846040518263ffffffff1660e01b815260040161027791906109d2565b60606040518083038186803b15801561028f57600080fd5b505afa1580156102a3573d6000803e3d6000fd5b505050506040513d601f19601f820116820180604052508101906102c791906107fd565b90506000600160008154809291906102de90610ac7565b919050559050600060405180606001604052808381526020013373ffffffffffffffffffffffffffffffffffffffff168152602001848152509050806000808481526020019081526020016000206000820151816000015560208201518160010160006101000a81548173ffffffffffffffffffffffffffffffffffffffff021916908373ffffffffffffffffffffffffffffffffffffffff1602179055506040820151816002016000820151816000015560208201518160010160006101000a81548173ffffffffffffffffffffffffffffffffffffffff021916908373ffffffffffffffffffffffffffffffffffffffff16021790555060408201518160020160006101000a81548173ffffffffffffffffffffffffffffffffffffffff021916908373ffffffffffffffffffffffffffffffffffffffff1602179055505050905050819350505050919050565b60006020528060005260406000206000915090508060000154908060010160009054906101000a900473ffffffffffffffffffffffffffffffffffffffff169080600201604051806060016040529081600082015481526020016001820160009054906101000a900473ffffffffffffffffffffffffffffffffffffffff1673ffffffffffffffffffffffffffffffffffffffff1673ffffffffffffffffffffffffffffffffffffffff1681526020016002820160009054906101000a900473ffffffffffffffffffffffffffffffffffffffff1673ffffffffffffffffffffffffffffffffffffffff1673ffffffffffffffffffffffffffffffffffffffff1681525050905083565b61054061068e565b600080838152602001908152602001600020604051806060016040529081600082015481526020016001820160009054906101000a900473ffffffffffffffffffffffffffffffffffffffff1673ffffffffffffffffffffffffffffffffffffffff1673ffffffffffffffffffffffffffffffffffffffff16815260200160028201604051806060016040529081600082015481526020016001820160009054906101000a900473ffffffffffffffffffffffffffffffffffffffff1673ffffffffffffffffffffffffffffffffffffffff1673ffffffffffffffffffffffffffffffffffffffff1681526020016002820160009054906101000a900473ffffffffffffffffffffffffffffffffffffffff1673ffffffffffffffffffffffffffffffffffffffff1673ffffffffffffffffffffffffffffffffffffffff1681525050815250509050919050565b604051806060016040528060008152602001600073ffffffffffffffffffffffffffffffffffffffff1681526020016106c56106cb565b81525090565b604051806060016040528060008152602001600073ffffffffffffffffffffffffffffffffffffffff168152602001600073ffffffffffffffffffffffffffffffffffffffff1681525090565b60008151905061072781610be1565b92915050565b60008151905061073c81610bf8565b92915050565b60006060828403121561075857610757610b9d565b5b6107626060610a24565b90506000610772848285016107bb565b600083015250602061078684828501610718565b602083015250604061079a84828501610718565b60408301525092915050565b6000813590506107b581610c08565b92915050565b6000815190506107ca81610c08565b92915050565b6000602082840312156107e6576107e5610ba2565b5b60006107f48482850161072d565b91505092915050565b60006060828403121561081357610812610ba2565b5b600061082184828501610742565b91505092915050565b6000602082840312156108405761083f610ba2565b5b600061084e848285016107a6565b91505092915050565b61086081610a5a565b82525050565b61086f81610a5a565b82525050565b6000610882601883610a49565b915061088d82610bb8565b602082019050919050565b60a0820160008201516108ae600085018261095e565b5060208201516108c16020850182610857565b5060408201516108d460408501826108da565b50505050565b6060820160008201516108f0600085018261095e565b5060208201516109036020850182610857565b5060408201516109166040850182610857565b50505050565b606082016000820151610932600085018261095e565b5060208201516109456020850182610857565b5060408201516109586040850182610857565b50505050565b61096781610a8c565b82525050565b61097681610a8c565b82525050565b60006020820190506109916000830184610866565b92915050565b600060208201905081810360008301526109b081610875565b9050919050565b600060a0820190506109cc6000830184610898565b92915050565b60006020820190506109e7600083018461096d565b92915050565b600060a082019050610a02600083018661096d565b610a0f6020830185610866565b610a1c604083018461091c565b949350505050565b6000610a2e610a3f565b9050610a3a8282610a96565b919050565b6000604051905090565b600082825260208201905092915050565b6000610a6582610a6c565b9050919050565b600073ffffffffffffffffffffffffffffffffffffffff82169050919050565b6000819050919050565b610a9f82610ba7565b810181811067ffffffffffffffff82111715610abe57610abd610b6e565b5b80604052505050565b6000610ad282610a8c565b91507fffffffffffffffffffffffffffffffffffffffffffffffffffffffffffffffff821415610b0557610b04610b10565b5b600182019050919050565b7f4e487b7100000000000000000000000000000000000000000000000000000000600052601160045260246000fd5b7f4e487b7100000000000000000000000000000000000000000000000000000000600052602160045260246000fd5b7f4e487b7100000000000000000000000000000000000000000000000000000000600052604160045260246000fd5b600080fd5b600080fd5b6000601f19601f8301169050919050565b7f596f7520617265206e6f74207468652067726164657273210000000000000000600082015250565b610bea81610a5a565b8114610bf557600080fd5b50565b60048110610c0557600080fd5b50565b610c1181610a8c565b8114610c1c57600080fd5b5056fea2646970667358221220fbd8802373b1ec4b9217e0a90d93509d7b2233f088562ec6585ffdfa8ebdaa6164736f6c63430008070033",
  "immutableReferences": {},
  "source": "// SPDX-License-Identifier: MIT\npragma solidity ^0.8.7;\n\nimport \"./RawDiamondRegistry.sol\";\nimport \"./CompanyRegistry.sol\";\n\ncontract DiamondRegistry {\n    struct Diamond {\n        uint256 uniqueId;\n        address gradingLab;\n        RawDiamondRegistry.RawDiamond rawDiamond;\n    }\n\n    mapping(uint256 => Diamond) public diamondItems;\n    uint256 public diamondCounts;\n\n    RawDiamondRegistry private rawDiamondRegistry;\n    CompanyRegistry private companyRegistry;\n\n    constructor(address _rawDiamondRegistry, address _companyRegistry) {\n        rawDiamondRegistry = RawDiamondRegistry(_rawDiamondRegistry);\n        companyRegistry = CompanyRegistry(_companyRegistry);\n    }\n\n    function getDiamond(uint256 uniqueId) public view returns (Diamond memory) {\n        return diamondItems[uniqueId];\n    }\n\n    function diamondRegister(\n        uint256 rawId\n    ) public onlyGradingCompany returns (uint256) {\n        RawDiamondRegistry.RawDiamond memory rawDiamond = rawDiamondRegistry\n            .getRawDiamond(rawId);\n        uint256 uniqueId = diamondCounts++;\n        Diamond memory newDiamond = Diamond(uniqueId, msg.sender, rawDiamond);\n        diamondItems[uniqueId] = newDiamond;\n        return uniqueId;\n    }\n\n    modifier onlyGradingCompany() {\n        require(\n            companyRegistry.getCompanyType(msg.sender) ==\n                CompanyRegistry.CompanyType.Grading,\n            \"You are not the graders!\"\n        );\n        _;\n    }\n}\n",
  "sourcePath": "/Users/huanghongbin/VsCodeProjests/tracing-luxury/src/contracts/DiamondRegistry.sol",
  "compiler": {
    "name": "solc",
    "version": "0.8.7+commit.e28d00a7.Emscripten.clang"
  },
  "schemaVersion": "3.4.16",
  "updatedAt": "2023-11-11T07:57:23.632Z",
  "networkType": "ethereum",
  "devdoc": {
    "kind": "dev",
    "methods": {},
    "version": 1
  },
  "userdoc": {
    "kind": "user",
    "methods": {},
    "version": 1
  }
}