{
  "contractName": "DiamondRegistry",
  "abi": [
    {
      "inputs": [
        {
          "internalType": "address",
          "name": "_rawDiamondRegistry",
          "type": "address"
        }
      ],
      "stateMutability": "nonpayable",
      "type": "constructor"
    },
    {
      "inputs": [],
      "name": "diamondCounts",
      "outputs": [
        {
          "internalType": "uint256",
          "name": "",
          "type": "uint256"
        }
      ],
      "stateMutability": "view",
      "type": "function",
      "constant": true
    },
    {
      "inputs": [
        {
          "internalType": "uint256",
          "name": "",
          "type": "uint256"
        }
      ],
      "name": "diamondItems",
      "outputs": [
        {
          "internalType": "uint256",
          "name": "uniqueId",
          "type": "uint256"
        },
        {
          "components": [
            {
              "internalType": "uint256",
              "name": "rawId",
              "type": "uint256"
            },
            {
              "internalType": "address",
              "name": "miningCompany",
              "type": "address"
            },
            {
              "internalType": "address",
              "name": "cuttingCompany",
              "type": "address"
            },
            {
              "internalType": "address",
              "name": "gradingLab",
              "type": "address"
            }
          ],
          "internalType": "struct RawDiamondRegistry.RawDiamond",
          "name": "rawDiamond",
          "type": "tuple"
        }
      ],
      "stateMutability": "view",
      "type": "function",
      "constant": true
    },
    {
      "inputs": [
        {
          "internalType": "uint256",
          "name": "uniqueId",
          "type": "uint256"
        }
      ],
      "name": "getDiamond",
      "outputs": [
        {
          "components": [
            {
              "internalType": "uint256",
              "name": "uniqueId",
              "type": "uint256"
            },
            {
              "components": [
                {
                  "internalType": "uint256",
                  "name": "rawId",
                  "type": "uint256"
                },
                {
                  "internalType": "address",
                  "name": "miningCompany",
                  "type": "address"
                },
                {
                  "internalType": "address",
                  "name": "cuttingCompany",
                  "type": "address"
                },
                {
                  "internalType": "address",
                  "name": "gradingLab",
                  "type": "address"
                }
              ],
              "internalType": "struct RawDiamondRegistry.RawDiamond",
              "name": "rawDiamond",
              "type": "tuple"
            }
          ],
          "internalType": "struct DiamondRegistry.Diamond",
          "name": "",
          "type": "tuple"
        }
      ],
      "stateMutability": "view",
      "type": "function",
      "constant": true
    },
    {
      "inputs": [
        {
          "internalType": "uint256",
          "name": "rowId",
          "type": "uint256"
        }
      ],
      "name": "diamondGrading",
      "outputs": [
        {
          "internalType": "uint256",
          "name": "",
          "type": "uint256"
        }
      ],
      "stateMutability": "nonpayable",
      "type": "function"
    }
  ],
  "bytecode": "0x608060405234801561001057600080fd5b50604051610b5f380380610b5f8339818101604052810190610032919061008e565b80600260006101000a81548173ffffffffffffffffffffffffffffffffffffffff021916908373ffffffffffffffffffffffffffffffffffffffff16021790555050610109565b600081519050610088816100f2565b92915050565b6000602082840312156100a4576100a36100ed565b5b60006100b284828501610079565b91505092915050565b60006100c6826100cd565b9050919050565b600073ffffffffffffffffffffffffffffffffffffffff82169050919050565b600080fd5b6100fb816100bb565b811461010657600080fd5b50565b610a47806101186000396000f3fe608060405234801561001057600080fd5b506004361061004c5760003560e01c80631829563c146100515780638b1afb281461006f578063defd99551461009f578063e3ed14db146100d0575b600080fd5b610059610100565b604051610066919061084b565b60405180910390f35b610089600480360381019061008491906106fd565b610106565b604051610096919061084b565b60405180910390f35b6100b960048036038101906100b491906106fd565b6102ff565b6040516100c7929190610866565b60405180910390f35b6100ea60048036038101906100e591906106fd565b610439565b6040516100f79190610830565b60405180910390f35b60015481565b600080600260009054906101000a900473ffffffffffffffffffffffffffffffffffffffff1673ffffffffffffffffffffffffffffffffffffffff16632e78c4fb846040518263ffffffff1660e01b8152600401610164919061084b565b60806040518083038186803b15801561017c57600080fd5b505afa158015610190573d6000803e3d6000fd5b505050506040513d601f19601f820116820180604052508101906101b491906106d0565b90506000600160008154809291906101cb90610921565b9190505590506000604051806040016040528083815260200184815250905080600080848152602001908152602001600020600082015181600001556020820151816001016000820151816000015560208201518160010160006101000a81548173ffffffffffffffffffffffffffffffffffffffff021916908373ffffffffffffffffffffffffffffffffffffffff16021790555060408201518160020160006101000a81548173ffffffffffffffffffffffffffffffffffffffff021916908373ffffffffffffffffffffffffffffffffffffffff16021790555060608201518160030160006101000a81548173ffffffffffffffffffffffffffffffffffffffff021916908373ffffffffffffffffffffffffffffffffffffffff1602179055505050905050819350505050919050565b600060205280600052604060002060009150905080600001549080600101604051806080016040529081600082015481526020016001820160009054906101000a900473ffffffffffffffffffffffffffffffffffffffff1673ffffffffffffffffffffffffffffffffffffffff1673ffffffffffffffffffffffffffffffffffffffff1681526020016002820160009054906101000a900473ffffffffffffffffffffffffffffffffffffffff1673ffffffffffffffffffffffffffffffffffffffff1673ffffffffffffffffffffffffffffffffffffffff1681526020016003820160009054906101000a900473ffffffffffffffffffffffffffffffffffffffff1673ffffffffffffffffffffffffffffffffffffffff1673ffffffffffffffffffffffffffffffffffffffff1681525050905082565b61044161058f565b6000808381526020019081526020016000206040518060400160405290816000820154815260200160018201604051806080016040529081600082015481526020016001820160009054906101000a900473ffffffffffffffffffffffffffffffffffffffff1673ffffffffffffffffffffffffffffffffffffffff1673ffffffffffffffffffffffffffffffffffffffff1681526020016002820160009054906101000a900473ffffffffffffffffffffffffffffffffffffffff1673ffffffffffffffffffffffffffffffffffffffff1673ffffffffffffffffffffffffffffffffffffffff1681526020016003820160009054906101000a900473ffffffffffffffffffffffffffffffffffffffff1673ffffffffffffffffffffffffffffffffffffffff1673ffffffffffffffffffffffffffffffffffffffff1681525050815250509050919050565b6040518060400160405280600081526020016105a96105af565b81525090565b604051806080016040528060008152602001600073ffffffffffffffffffffffffffffffffffffffff168152602001600073ffffffffffffffffffffffffffffffffffffffff168152602001600073ffffffffffffffffffffffffffffffffffffffff1681525090565b600081519050610628816109e3565b92915050565b600060808284031215610644576106436109c8565b5b61064e608061088f565b9050600061065e848285016106bb565b600083015250602061067284828501610619565b602083015250604061068684828501610619565b604083015250606061069a84828501610619565b60608301525092915050565b6000813590506106b5816109fa565b92915050565b6000815190506106ca816109fa565b92915050565b6000608082840312156106e6576106e56109cd565b5b60006106f48482850161062e565b91505092915050565b600060208284031215610713576107126109cd565b5b6000610721848285016106a6565b91505092915050565b610733816108b4565b82525050565b60a08201600082015161074f6000850182610812565b5060208201516107626020850182610768565b50505050565b60808201600082015161077e6000850182610812565b506020820151610791602085018261072a565b5060408201516107a4604085018261072a565b5060608201516107b7606085018261072a565b50505050565b6080820160008201516107d36000850182610812565b5060208201516107e6602085018261072a565b5060408201516107f9604085018261072a565b50606082015161080c606085018261072a565b50505050565b61081b816108e6565b82525050565b61082a816108e6565b82525050565b600060a0820190506108456000830184610739565b92915050565b60006020820190506108606000830184610821565b92915050565b600060a08201905061087b6000830185610821565b61088860208301846107bd565b9392505050565b60006108996108aa565b90506108a582826108f0565b919050565b6000604051905090565b60006108bf826108c6565b9050919050565b600073ffffffffffffffffffffffffffffffffffffffff82169050919050565b6000819050919050565b6108f9826109d2565b810181811067ffffffffffffffff8211171561091857610917610999565b5b80604052505050565b600061092c826108e6565b91507fffffffffffffffffffffffffffffffffffffffffffffffffffffffffffffffff82141561095f5761095e61096a565b5b600182019050919050565b7f4e487b7100000000000000000000000000000000000000000000000000000000600052601160045260246000fd5b7f4e487b7100000000000000000000000000000000000000000000000000000000600052604160045260246000fd5b600080fd5b600080fd5b6000601f19601f8301169050919050565b6109ec816108b4565b81146109f757600080fd5b50565b610a03816108e6565b8114610a0e57600080fd5b5056fea264697066735822122060b9f323bc2f3d018a3e43634f506c24db247e54a1678cb52ab99e4dbf2a092664736f6c63430008070033",
  "immutableReferences": {},
  "source": "// SPDX-License-Identifier: MIT\npragma solidity ^0.8.7;\n\nimport \"./RawDiamondRegistry.sol\";\n\ncontract DiamondRegistry {\n    struct Diamond {\n        uint256 uniqueId;\n        RawDiamondRegistry.RawDiamond rawDiamond;\n    }\n\n    mapping(uint256 => Diamond) public diamondItems;\n    uint256 public diamondCounts;\n\n    RawDiamondRegistry private rawDiamondRegistry;\n\n    constructor(address _rawDiamondRegistry) {\n        rawDiamondRegistry = RawDiamondRegistry(_rawDiamondRegistry);\n    }\n\n    function getDiamond(uint256 uniqueId) public view returns(Diamond memory){\n        return diamondItems[uniqueId];\n    }\n\n    function diamondGrading(uint256 rowId) public returns (uint256) {\n        RawDiamondRegistry.RawDiamond memory rawDiamond = rawDiamondRegistry.getRawDiamond(rowId);\n        uint256 uniqueId = diamondCounts++;\n        Diamond memory newDiamond = Diamond(uniqueId, rawDiamond);\n        diamondItems[uniqueId] = newDiamond;\n        return uniqueId;\n    }\n}",
  "sourcePath": "/Users/huanghongbin/VsCodeProjests/tracing-luxury/src/contracts/DiamondRegistry.sol",
  "compiler": {
    "name": "solc",
    "version": "0.8.7+commit.e28d00a7.Emscripten.clang"
  },
  "schemaVersion": "3.4.16",
  "updatedAt": "2023-11-10T11:04:52.251Z",
  "networkType": "ethereum",
  "devdoc": {
    "kind": "dev",
    "methods": {},
    "version": 1
  },
  "userdoc": {
    "kind": "user",
    "methods": {},
    "version": 1
  }
}