{
  "contractName": "DiamondRegistry",
  "abi": [
    {
      "inputs": [
        {
          "internalType": "address",
          "name": "_rawDiamondRegistry",
          "type": "address"
        },
        {
          "internalType": "address",
          "name": "_companyRegistry",
          "type": "address"
        }
      ],
      "stateMutability": "nonpayable",
      "type": "constructor"
    },
    {
      "inputs": [],
      "name": "diamondCounts",
      "outputs": [
        {
          "internalType": "uint256",
          "name": "",
          "type": "uint256"
        }
      ],
      "stateMutability": "view",
      "type": "function",
      "constant": true
    },
    {
      "inputs": [
        {
          "internalType": "uint256",
          "name": "",
          "type": "uint256"
        }
      ],
      "name": "diamondItems",
      "outputs": [
        {
          "internalType": "uint256",
          "name": "uniqueId",
          "type": "uint256"
        },
        {
          "internalType": "address",
          "name": "gradingLab",
          "type": "address"
        },
        {
          "components": [
            {
              "internalType": "uint256",
              "name": "rawId",
              "type": "uint256"
            },
            {
              "internalType": "address",
              "name": "miningCompany",
              "type": "address"
            },
            {
              "internalType": "address",
              "name": "cuttingCompany",
              "type": "address"
            }
          ],
          "internalType": "struct RawDiamondRegistry.RawDiamond",
          "name": "rawDiamond",
          "type": "tuple"
        }
      ],
      "stateMutability": "view",
      "type": "function",
      "constant": true
    },
    {
      "inputs": [],
      "name": "getAllDiamonds",
      "outputs": [
        {
          "components": [
            {
              "internalType": "uint256",
              "name": "uniqueId",
              "type": "uint256"
            },
            {
              "internalType": "address",
              "name": "gradingLab",
              "type": "address"
            },
            {
              "components": [
                {
                  "internalType": "uint256",
                  "name": "rawId",
                  "type": "uint256"
                },
                {
                  "internalType": "address",
                  "name": "miningCompany",
                  "type": "address"
                },
                {
                  "internalType": "address",
                  "name": "cuttingCompany",
                  "type": "address"
                }
              ],
              "internalType": "struct RawDiamondRegistry.RawDiamond",
              "name": "rawDiamond",
              "type": "tuple"
            }
          ],
          "internalType": "struct DiamondRegistry.Diamond[]",
          "name": "",
          "type": "tuple[]"
        }
      ],
      "stateMutability": "view",
      "type": "function",
      "constant": true
    },
    {
      "inputs": [
        {
          "internalType": "uint256",
          "name": "uniqueId",
          "type": "uint256"
        }
      ],
      "name": "getDiamond",
      "outputs": [
        {
          "components": [
            {
              "internalType": "uint256",
              "name": "uniqueId",
              "type": "uint256"
            },
            {
              "internalType": "address",
              "name": "gradingLab",
              "type": "address"
            },
            {
              "components": [
                {
                  "internalType": "uint256",
                  "name": "rawId",
                  "type": "uint256"
                },
                {
                  "internalType": "address",
                  "name": "miningCompany",
                  "type": "address"
                },
                {
                  "internalType": "address",
                  "name": "cuttingCompany",
                  "type": "address"
                }
              ],
              "internalType": "struct RawDiamondRegistry.RawDiamond",
              "name": "rawDiamond",
              "type": "tuple"
            }
          ],
          "internalType": "struct DiamondRegistry.Diamond",
          "name": "",
          "type": "tuple"
        }
      ],
      "stateMutability": "view",
      "type": "function",
      "constant": true
    },
    {
      "inputs": [
        {
          "internalType": "uint256",
          "name": "rawId",
          "type": "uint256"
        }
      ],
      "name": "diamondRegister",
      "outputs": [
        {
          "internalType": "uint256",
          "name": "",
          "type": "uint256"
        }
      ],
      "stateMutability": "nonpayable",
      "type": "function"
    }
  ],
  "bytecode": "0x60806040523480156200001157600080fd5b506040516200112b3803806200112b8339818101604052810190620000379190620000d8565b81600260006101000a81548173ffffffffffffffffffffffffffffffffffffffff021916908373ffffffffffffffffffffffffffffffffffffffff16021790555080600360006101000a81548173ffffffffffffffffffffffffffffffffffffffff021916908373ffffffffffffffffffffffffffffffffffffffff160217905550505062000172565b600081519050620000d28162000158565b92915050565b60008060408385031215620000f257620000f162000153565b5b60006200010285828601620000c1565b92505060206200011585828601620000c1565b9150509250929050565b60006200012c8262000133565b9050919050565b600073ffffffffffffffffffffffffffffffffffffffff82169050919050565b600080fd5b62000163816200011f565b81146200016f57600080fd5b50565b610fa980620001826000396000f3fe608060405234801561001057600080fd5b50600436106100575760003560e01c80631829563c1461005c5780635224d5b61461007a578063a9856cf9146100aa578063defd9955146100c8578063e3ed14db146100fa575b600080fd5b61006461012a565b6040516100719190610cbe565b60405180910390f35b610094600480360381019061008f9190610a3c565b610130565b6040516100a19190610cbe565b60405180910390f35b6100b2610457565b6040516100bf9190610c61565b60405180910390f35b6100e260048036038101906100dd9190610a3c565b610640565b6040516100f193929190610cd9565b60405180910390f35b610114600480360381019061010f9190610a3c565b61074a565b6040516101219190610ca3565b60405180910390f35b60015481565b60006002600381111561014657610145610e64565b5b600360009054906101000a900473ffffffffffffffffffffffffffffffffffffffff1673ffffffffffffffffffffffffffffffffffffffff1663097bcc1a336040518263ffffffff1660e01b81526004016101a19190610c46565b60206040518083038186803b1580156101b957600080fd5b505afa1580156101cd573d6000803e3d6000fd5b505050506040513d601f19601f820116820180604052508101906101f191906109e2565b600381111561020357610202610e64565b5b14610243576040517f08c379a000000000000000000000000000000000000000000000000000000000815260040161023a90610c83565b60405180910390fd5b6000600260009054906101000a900473ffffffffffffffffffffffffffffffffffffffff1673ffffffffffffffffffffffffffffffffffffffff16632e78c4fb846040518263ffffffff1660e01b81526004016102a09190610cbe565b60606040518083038186803b1580156102b857600080fd5b505afa1580156102cc573d6000803e3d6000fd5b505050506040513d601f19601f820116820180604052508101906102f09190610a0f565b905060006001600081548092919061030790610dec565b919050559050600060405180606001604052808381526020013373ffffffffffffffffffffffffffffffffffffffff168152602001848152509050806000808481526020019081526020016000206000820151816000015560208201518160010160006101000a81548173ffffffffffffffffffffffffffffffffffffffff021916908373ffffffffffffffffffffffffffffffffffffffff1602179055506040820151816002016000820151816000015560208201518160010160006101000a81548173ffffffffffffffffffffffffffffffffffffffff021916908373ffffffffffffffffffffffffffffffffffffffff16021790555060408201518160020160006101000a81548173ffffffffffffffffffffffffffffffffffffffff021916908373ffffffffffffffffffffffffffffffffffffffff1602179055505050905050819350505050919050565b6060600060015467ffffffffffffffff81111561047757610476610ec2565b5b6040519080825280602002602001820160405280156104b057816020015b61049d6108a0565b8152602001906001900390816104955790505b50905060005b60015481101561063857600080828152602001908152602001600020604051806060016040529081600082015481526020016001820160009054906101000a900473ffffffffffffffffffffffffffffffffffffffff1673ffffffffffffffffffffffffffffffffffffffff1673ffffffffffffffffffffffffffffffffffffffff16815260200160028201604051806060016040529081600082015481526020016001820160009054906101000a900473ffffffffffffffffffffffffffffffffffffffff1673ffffffffffffffffffffffffffffffffffffffff1673ffffffffffffffffffffffffffffffffffffffff1681526020016002820160009054906101000a900473ffffffffffffffffffffffffffffffffffffffff1673ffffffffffffffffffffffffffffffffffffffff1673ffffffffffffffffffffffffffffffffffffffff16815250508152505082828151811061061a57610619610e93565b5b6020026020010181905250808061063090610dec565b9150506104b6565b508091505090565b60006020528060005260406000206000915090508060000154908060010160009054906101000a900473ffffffffffffffffffffffffffffffffffffffff169080600201604051806060016040529081600082015481526020016001820160009054906101000a900473ffffffffffffffffffffffffffffffffffffffff1673ffffffffffffffffffffffffffffffffffffffff1673ffffffffffffffffffffffffffffffffffffffff1681526020016002820160009054906101000a900473ffffffffffffffffffffffffffffffffffffffff1673ffffffffffffffffffffffffffffffffffffffff1673ffffffffffffffffffffffffffffffffffffffff1681525050905083565b6107526108a0565b600080838152602001908152602001600020604051806060016040529081600082015481526020016001820160009054906101000a900473ffffffffffffffffffffffffffffffffffffffff1673ffffffffffffffffffffffffffffffffffffffff1673ffffffffffffffffffffffffffffffffffffffff16815260200160028201604051806060016040529081600082015481526020016001820160009054906101000a900473ffffffffffffffffffffffffffffffffffffffff1673ffffffffffffffffffffffffffffffffffffffff1673ffffffffffffffffffffffffffffffffffffffff1681526020016002820160009054906101000a900473ffffffffffffffffffffffffffffffffffffffff1673ffffffffffffffffffffffffffffffffffffffff1673ffffffffffffffffffffffffffffffffffffffff1681525050815250509050919050565b604051806060016040528060008152602001600073ffffffffffffffffffffffffffffffffffffffff1681526020016108d76108dd565b81525090565b604051806060016040528060008152602001600073ffffffffffffffffffffffffffffffffffffffff168152602001600073ffffffffffffffffffffffffffffffffffffffff1681525090565b60008151905061093981610f35565b92915050565b60008151905061094e81610f4c565b92915050565b60006060828403121561096a57610969610ef1565b5b6109746060610d10565b90506000610984848285016109cd565b60008301525060206109988482850161092a565b60208301525060406109ac8482850161092a565b60408301525092915050565b6000813590506109c781610f5c565b92915050565b6000815190506109dc81610f5c565b92915050565b6000602082840312156109f8576109f7610ef6565b5b6000610a068482850161093f565b91505092915050565b600060608284031215610a2557610a24610ef6565b5b6000610a3384828501610954565b91505092915050565b600060208284031215610a5257610a51610ef6565b5b6000610a60848285016109b8565b91505092915050565b6000610a758383610b20565b60a08301905092915050565b610a8a81610d7f565b82525050565b610a9981610d7f565b82525050565b6000610aaa82610d45565b610ab48185610d5d565b9350610abf83610d35565b8060005b83811015610af0578151610ad78882610a69565b9750610ae283610d50565b925050600181019050610ac3565b5085935050505092915050565b6000610b0a601883610d6e565b9150610b1582610f0c565b602082019050919050565b60a082016000820151610b366000850182610c28565b506020820151610b496020850182610a81565b506040820151610b5c6040850182610ba4565b50505050565b60a082016000820151610b786000850182610c28565b506020820151610b8b6020850182610a81565b506040820151610b9e6040850182610ba4565b50505050565b606082016000820151610bba6000850182610c28565b506020820151610bcd6020850182610a81565b506040820151610be06040850182610a81565b50505050565b606082016000820151610bfc6000850182610c28565b506020820151610c0f6020850182610a81565b506040820151610c226040850182610a81565b50505050565b610c3181610db1565b82525050565b610c4081610db1565b82525050565b6000602082019050610c5b6000830184610a90565b92915050565b60006020820190508181036000830152610c7b8184610a9f565b905092915050565b60006020820190508181036000830152610c9c81610afd565b9050919050565b600060a082019050610cb86000830184610b62565b92915050565b6000602082019050610cd36000830184610c37565b92915050565b600060a082019050610cee6000830186610c37565b610cfb6020830185610a90565b610d086040830184610be6565b949350505050565b6000610d1a610d2b565b9050610d268282610dbb565b919050565b6000604051905090565b6000819050602082019050919050565b600081519050919050565b6000602082019050919050565b600082825260208201905092915050565b600082825260208201905092915050565b6000610d8a82610d91565b9050919050565b600073ffffffffffffffffffffffffffffffffffffffff82169050919050565b6000819050919050565b610dc482610efb565b810181811067ffffffffffffffff82111715610de357610de2610ec2565b5b80604052505050565b6000610df782610db1565b91507fffffffffffffffffffffffffffffffffffffffffffffffffffffffffffffffff821415610e2a57610e29610e35565b5b600182019050919050565b7f4e487b7100000000000000000000000000000000000000000000000000000000600052601160045260246000fd5b7f4e487b7100000000000000000000000000000000000000000000000000000000600052602160045260246000fd5b7f4e487b7100000000000000000000000000000000000000000000000000000000600052603260045260246000fd5b7f4e487b7100000000000000000000000000000000000000000000000000000000600052604160045260246000fd5b600080fd5b600080fd5b6000601f19601f8301169050919050565b7f596f7520617265206e6f74207468652067726164657273210000000000000000600082015250565b610f3e81610d7f565b8114610f4957600080fd5b50565b60048110610f5957600080fd5b50565b610f6581610db1565b8114610f7057600080fd5b5056fea26469706673582212208c9c200e823afa8e7885f253899d54071dfd677ff65dcf0d71295195fa89c97f64736f6c63430008070033",
  "immutableReferences": {},
  "source": "// SPDX-License-Identifier: MIT\npragma solidity ^0.8.7;\n\nimport \"./RawDiamondRegistry.sol\";\nimport \"./CompanyRegistry.sol\";\n\ncontract DiamondRegistry {\n    struct Diamond {\n        uint256 uniqueId;\n        address gradingLab;\n        RawDiamondRegistry.RawDiamond rawDiamond;\n    }\n\n    mapping(uint256 => Diamond) public diamondItems;\n    uint256 public diamondCounts;\n\n    RawDiamondRegistry private rawDiamondRegistry;\n    CompanyRegistry private companyRegistry;\n\n    constructor(address _rawDiamondRegistry, address _companyRegistry) {\n        rawDiamondRegistry = RawDiamondRegistry(_rawDiamondRegistry);\n        companyRegistry = CompanyRegistry(_companyRegistry);\n    }\n\n    function getAllDiamonds() public view returns (Diamond[] memory) {\n        Diamond[] memory allDiamonds = new Diamond[](diamondCounts);\n        for (uint i = 0; i < diamondCounts; i++) {\n            allDiamonds[i] = diamondItems[i];\n        }\n        return allDiamonds;\n    }\n\n    function getDiamond(uint256 uniqueId) public view returns (Diamond memory) {\n        return diamondItems[uniqueId];\n    }\n\n    function diamondRegister(\n        uint256 rawId\n    ) public onlyGradingCompany returns (uint256) {\n        RawDiamondRegistry.RawDiamond memory rawDiamond = rawDiamondRegistry\n            .getRawDiamond(rawId);\n        uint256 uniqueId = diamondCounts++;\n        Diamond memory newDiamond = Diamond(uniqueId, msg.sender, rawDiamond);\n        diamondItems[uniqueId] = newDiamond;\n        return uniqueId;\n    }\n\n    modifier onlyGradingCompany() {\n        require(\n            companyRegistry.getCompanyType(msg.sender) ==\n                CompanyRegistry.CompanyType.Grading,\n            \"You are not the graders!\"\n        );\n        _;\n    }\n}\n",
  "sourcePath": "/Users/huanghongbin/VsCodeProjests/tracing-luxury/src/contracts/DiamondRegistry.sol",
  "compiler": {
    "name": "solc",
    "version": "0.8.7+commit.e28d00a7.Emscripten.clang"
  },
  "schemaVersion": "3.4.16",
  "updatedAt": "2023-11-13T18:20:45.220Z",
  "networkType": "ethereum",
  "devdoc": {
    "kind": "dev",
    "methods": {},
    "version": 1
  },
  "userdoc": {
    "kind": "user",
    "methods": {},
    "version": 1
  }
}