{
  "contractName": "DiamondRegistry",
  "abi": [
    {
      "inputs": [
        {
          "internalType": "address",
          "name": "_rawDiamondRegistry",
          "type": "address"
        },
        {
          "internalType": "address",
          "name": "_companyRegistry",
          "type": "address"
        }
      ],
      "stateMutability": "nonpayable",
      "type": "constructor"
    },
    {
      "inputs": [],
      "name": "diamondCounts",
      "outputs": [
        {
          "internalType": "uint256",
          "name": "",
          "type": "uint256"
        }
      ],
      "stateMutability": "view",
      "type": "function",
      "constant": true
    },
    {
      "inputs": [
        {
          "internalType": "uint256",
          "name": "",
          "type": "uint256"
        }
      ],
      "name": "diamondItems",
      "outputs": [
        {
          "internalType": "uint256",
          "name": "uniqueId",
          "type": "uint256"
        },
        {
          "internalType": "address",
          "name": "gradingLab",
          "type": "address"
        },
        {
          "internalType": "uint256",
          "name": "grade",
          "type": "uint256"
        },
        {
          "components": [
            {
              "internalType": "uint256",
              "name": "rawId",
              "type": "uint256"
            },
            {
              "internalType": "address",
              "name": "miningCompany",
              "type": "address"
            },
            {
              "internalType": "address",
              "name": "cuttingCompany",
              "type": "address"
            }
          ],
          "internalType": "struct RawDiamondRegistry.RawDiamond",
          "name": "rawDiamond",
          "type": "tuple"
        }
      ],
      "stateMutability": "view",
      "type": "function",
      "constant": true
    },
    {
      "inputs": [],
      "name": "getAllDiamonds",
      "outputs": [
        {
          "components": [
            {
              "internalType": "uint256",
              "name": "uniqueId",
              "type": "uint256"
            },
            {
              "internalType": "address",
              "name": "gradingLab",
              "type": "address"
            },
            {
              "internalType": "uint256",
              "name": "grade",
              "type": "uint256"
            },
            {
              "components": [
                {
                  "internalType": "uint256",
                  "name": "rawId",
                  "type": "uint256"
                },
                {
                  "internalType": "address",
                  "name": "miningCompany",
                  "type": "address"
                },
                {
                  "internalType": "address",
                  "name": "cuttingCompany",
                  "type": "address"
                }
              ],
              "internalType": "struct RawDiamondRegistry.RawDiamond",
              "name": "rawDiamond",
              "type": "tuple"
            }
          ],
          "internalType": "struct DiamondRegistry.Diamond[]",
          "name": "",
          "type": "tuple[]"
        }
      ],
      "stateMutability": "view",
      "type": "function",
      "constant": true
    },
    {
      "inputs": [
        {
          "internalType": "uint256",
          "name": "uniqueId",
          "type": "uint256"
        }
      ],
      "name": "getDiamond",
      "outputs": [
        {
          "components": [
            {
              "internalType": "uint256",
              "name": "uniqueId",
              "type": "uint256"
            },
            {
              "internalType": "address",
              "name": "gradingLab",
              "type": "address"
            },
            {
              "internalType": "uint256",
              "name": "grade",
              "type": "uint256"
            },
            {
              "components": [
                {
                  "internalType": "uint256",
                  "name": "rawId",
                  "type": "uint256"
                },
                {
                  "internalType": "address",
                  "name": "miningCompany",
                  "type": "address"
                },
                {
                  "internalType": "address",
                  "name": "cuttingCompany",
                  "type": "address"
                }
              ],
              "internalType": "struct RawDiamondRegistry.RawDiamond",
              "name": "rawDiamond",
              "type": "tuple"
            }
          ],
          "internalType": "struct DiamondRegistry.Diamond",
          "name": "",
          "type": "tuple"
        }
      ],
      "stateMutability": "view",
      "type": "function",
      "constant": true
    },
    {
      "inputs": [
        {
          "internalType": "uint256",
          "name": "rawId",
          "type": "uint256"
        },
        {
          "internalType": "uint256",
          "name": "grade",
          "type": "uint256"
        }
      ],
      "name": "diamondRegister",
      "outputs": [
        {
          "internalType": "uint256",
          "name": "",
          "type": "uint256"
        }
      ],
      "stateMutability": "nonpayable",
      "type": "function"
    }
  ],
  "bytecode": "0x60806040523480156200001157600080fd5b50604051620011d2380380620011d28339818101604052810190620000379190620000d8565b81600260006101000a81548173ffffffffffffffffffffffffffffffffffffffff021916908373ffffffffffffffffffffffffffffffffffffffff16021790555080600360006101000a81548173ffffffffffffffffffffffffffffffffffffffff021916908373ffffffffffffffffffffffffffffffffffffffff160217905550505062000172565b600081519050620000d28162000158565b92915050565b60008060408385031215620000f257620000f162000153565b5b60006200010285828601620000c1565b92505060206200011585828601620000c1565b9150509250929050565b60006200012c8262000133565b9050919050565b600073ffffffffffffffffffffffffffffffffffffffff82169050919050565b600080fd5b62000163816200011f565b81146200016f57600080fd5b50565b61105080620001826000396000f3fe608060405234801561001057600080fd5b50600436106100575760003560e01c80631829563c1461005c578063a01a33b31461007a578063a9856cf9146100aa578063defd9955146100c8578063e3ed14db146100fb575b600080fd5b61006461012b565b6040516100719190610d57565b60405180910390f35b610094600480360381019061008f9190610a9c565b610131565b6040516100a19190610d57565b60405180910390f35b6100b2610469565b6040516100bf9190610cfa565b60405180910390f35b6100e260048036038101906100dd9190610a6f565b61065c565b6040516100f29493929190610d72565b60405180910390f35b61011560048036038101906101109190610a6f565b61076c565b6040516101229190610d3c565b60405180910390f35b60015481565b60006002600381111561014757610146610f0b565b5b600360009054906101000a900473ffffffffffffffffffffffffffffffffffffffff1673ffffffffffffffffffffffffffffffffffffffff1663097bcc1a336040518263ffffffff1660e01b81526004016101a29190610cdf565b60206040518083038186803b1580156101ba57600080fd5b505afa1580156101ce573d6000803e3d6000fd5b505050506040513d601f19601f820116820180604052508101906101f29190610a15565b600381111561020457610203610f0b565b5b14610244576040517f08c379a000000000000000000000000000000000000000000000000000000000815260040161023b90610d1c565b60405180910390fd5b6000600260009054906101000a900473ffffffffffffffffffffffffffffffffffffffff1673ffffffffffffffffffffffffffffffffffffffff16632e78c4fb856040518263ffffffff1660e01b81526004016102a19190610d57565b60606040518083038186803b1580156102b957600080fd5b505afa1580156102cd573d6000803e3d6000fd5b505050506040513d601f19601f820116820180604052508101906102f19190610a42565b905060006001600081548092919061030890610e93565b919050559050600060405180608001604052808381526020013373ffffffffffffffffffffffffffffffffffffffff168152602001868152602001848152509050806000808481526020019081526020016000206000820151816000015560208201518160010160006101000a81548173ffffffffffffffffffffffffffffffffffffffff021916908373ffffffffffffffffffffffffffffffffffffffff160217905550604082015181600201556060820151816003016000820151816000015560208201518160010160006101000a81548173ffffffffffffffffffffffffffffffffffffffff021916908373ffffffffffffffffffffffffffffffffffffffff16021790555060408201518160020160006101000a81548173ffffffffffffffffffffffffffffffffffffffff021916908373ffffffffffffffffffffffffffffffffffffffff160217905550505090505081935050505092915050565b6060600060015467ffffffffffffffff81111561048957610488610f69565b5b6040519080825280602002602001820160405280156104c257816020015b6104af6108cc565b8152602001906001900390816104a75790505b50905060005b60015481101561065457600080828152602001908152602001600020604051806080016040529081600082015481526020016001820160009054906101000a900473ffffffffffffffffffffffffffffffffffffffff1673ffffffffffffffffffffffffffffffffffffffff1673ffffffffffffffffffffffffffffffffffffffff1681526020016002820154815260200160038201604051806060016040529081600082015481526020016001820160009054906101000a900473ffffffffffffffffffffffffffffffffffffffff1673ffffffffffffffffffffffffffffffffffffffff1673ffffffffffffffffffffffffffffffffffffffff1681526020016002820160009054906101000a900473ffffffffffffffffffffffffffffffffffffffff1673ffffffffffffffffffffffffffffffffffffffff1673ffffffffffffffffffffffffffffffffffffffff16815250508152505082828151811061063657610635610f3a565b5b6020026020010181905250808061064c90610e93565b9150506104c8565b508091505090565b60006020528060005260406000206000915090508060000154908060010160009054906101000a900473ffffffffffffffffffffffffffffffffffffffff169080600201549080600301604051806060016040529081600082015481526020016001820160009054906101000a900473ffffffffffffffffffffffffffffffffffffffff1673ffffffffffffffffffffffffffffffffffffffff1673ffffffffffffffffffffffffffffffffffffffff1681526020016002820160009054906101000a900473ffffffffffffffffffffffffffffffffffffffff1673ffffffffffffffffffffffffffffffffffffffff1673ffffffffffffffffffffffffffffffffffffffff1681525050905084565b6107746108cc565b600080838152602001908152602001600020604051806080016040529081600082015481526020016001820160009054906101000a900473ffffffffffffffffffffffffffffffffffffffff1673ffffffffffffffffffffffffffffffffffffffff1673ffffffffffffffffffffffffffffffffffffffff1681526020016002820154815260200160038201604051806060016040529081600082015481526020016001820160009054906101000a900473ffffffffffffffffffffffffffffffffffffffff1673ffffffffffffffffffffffffffffffffffffffff1673ffffffffffffffffffffffffffffffffffffffff1681526020016002820160009054906101000a900473ffffffffffffffffffffffffffffffffffffffff1673ffffffffffffffffffffffffffffffffffffffff1673ffffffffffffffffffffffffffffffffffffffff1681525050815250509050919050565b604051806080016040528060008152602001600073ffffffffffffffffffffffffffffffffffffffff1681526020016000815260200161090a610910565b81525090565b604051806060016040528060008152602001600073ffffffffffffffffffffffffffffffffffffffff168152602001600073ffffffffffffffffffffffffffffffffffffffff1681525090565b60008151905061096c81610fdc565b92915050565b60008151905061098181610ff3565b92915050565b60006060828403121561099d5761099c610f98565b5b6109a76060610db7565b905060006109b784828501610a00565b60008301525060206109cb8482850161095d565b60208301525060406109df8482850161095d565b60408301525092915050565b6000813590506109fa81611003565b92915050565b600081519050610a0f81611003565b92915050565b600060208284031215610a2b57610a2a610f9d565b5b6000610a3984828501610972565b91505092915050565b600060608284031215610a5857610a57610f9d565b5b6000610a6684828501610987565b91505092915050565b600060208284031215610a8557610a84610f9d565b5b6000610a93848285016109eb565b91505092915050565b60008060408385031215610ab357610ab2610f9d565b5b6000610ac1858286016109eb565b9250506020610ad2858286016109eb565b9150509250929050565b6000610ae88383610b93565b60c08301905092915050565b610afd81610e26565b82525050565b610b0c81610e26565b82525050565b6000610b1d82610dec565b610b278185610e04565b9350610b3283610ddc565b8060005b83811015610b63578151610b4a8882610adc565b9750610b5583610df7565b925050600181019050610b36565b5085935050505092915050565b6000610b7d601883610e15565b9150610b8882610fb3565b602082019050919050565b60c082016000820151610ba96000850182610cc1565b506020820151610bbc6020850182610af4565b506040820151610bcf6040850182610cc1565b506060820151610be26060850182610c3d565b50505050565b60c082016000820151610bfe6000850182610cc1565b506020820151610c116020850182610af4565b506040820151610c246040850182610cc1565b506060820151610c376060850182610c3d565b50505050565b606082016000820151610c536000850182610cc1565b506020820151610c666020850182610af4565b506040820151610c796040850182610af4565b50505050565b606082016000820151610c956000850182610cc1565b506020820151610ca86020850182610af4565b506040820151610cbb6040850182610af4565b50505050565b610cca81610e58565b82525050565b610cd981610e58565b82525050565b6000602082019050610cf46000830184610b03565b92915050565b60006020820190508181036000830152610d148184610b12565b905092915050565b60006020820190508181036000830152610d3581610b70565b9050919050565b600060c082019050610d516000830184610be8565b92915050565b6000602082019050610d6c6000830184610cd0565b92915050565b600060c082019050610d876000830187610cd0565b610d946020830186610b03565b610da16040830185610cd0565b610dae6060830184610c7f565b95945050505050565b6000610dc1610dd2565b9050610dcd8282610e62565b919050565b6000604051905090565b6000819050602082019050919050565b600081519050919050565b6000602082019050919050565b600082825260208201905092915050565b600082825260208201905092915050565b6000610e3182610e38565b9050919050565b600073ffffffffffffffffffffffffffffffffffffffff82169050919050565b6000819050919050565b610e6b82610fa2565b810181811067ffffffffffffffff82111715610e8a57610e89610f69565b5b80604052505050565b6000610e9e82610e58565b91507fffffffffffffffffffffffffffffffffffffffffffffffffffffffffffffffff821415610ed157610ed0610edc565b5b600182019050919050565b7f4e487b7100000000000000000000000000000000000000000000000000000000600052601160045260246000fd5b7f4e487b7100000000000000000000000000000000000000000000000000000000600052602160045260246000fd5b7f4e487b7100000000000000000000000000000000000000000000000000000000600052603260045260246000fd5b7f4e487b7100000000000000000000000000000000000000000000000000000000600052604160045260246000fd5b600080fd5b600080fd5b6000601f19601f8301169050919050565b7f596f7520617265206e6f74207468652067726164657273210000000000000000600082015250565b610fe581610e26565b8114610ff057600080fd5b50565b6004811061100057600080fd5b50565b61100c81610e58565b811461101757600080fd5b5056fea26469706673582212202e902f42d37c42e4eb084600f01c95c5c5857cc6ba226497b0d4a59c09295bd264736f6c63430008070033",
  "immutableReferences": {},
  "source": "// SPDX-License-Identifier: MIT\npragma solidity ^0.8.7;\n\nimport \"./RawDiamondRegistry.sol\";\nimport \"./CompanyRegistry.sol\";\n\ncontract DiamondRegistry {\n    struct Diamond {\n        uint256 uniqueId;\n        address gradingLab;\n        uint256 grade;\n        RawDiamondRegistry.RawDiamond rawDiamond;\n    }\n\n    mapping(uint256 => Diamond) public diamondItems;\n    uint256 public diamondCounts;\n\n    RawDiamondRegistry private rawDiamondRegistry;\n    CompanyRegistry private companyRegistry;\n\n    constructor(address _rawDiamondRegistry, address _companyRegistry) {\n        rawDiamondRegistry = RawDiamondRegistry(_rawDiamondRegistry);\n        companyRegistry = CompanyRegistry(_companyRegistry);\n    }\n\n    function getAllDiamonds() public view returns (Diamond[] memory) {\n        Diamond[] memory allDiamonds = new Diamond[](diamondCounts);\n        for (uint i = 0; i < diamondCounts; i++) {\n            allDiamonds[i] = diamondItems[i];\n        }\n        return allDiamonds;\n    }\n\n    function getDiamond(uint256 uniqueId) public view returns (Diamond memory) {\n        return diamondItems[uniqueId];\n    }\n\n    function diamondRegister(\n        uint256 rawId,uint256 grade\n    ) public onlyGradingCompany returns (uint256) {\n        RawDiamondRegistry.RawDiamond memory rawDiamond = rawDiamondRegistry\n            .getRawDiamond(rawId);\n        uint256 uniqueId = diamondCounts++;\n        Diamond memory newDiamond = Diamond(uniqueId, msg.sender, grade, rawDiamond);\n        diamondItems[uniqueId] = newDiamond;\n        return uniqueId;\n    }\n\n    modifier onlyGradingCompany() {\n        require(\n            companyRegistry.getCompanyType(msg.sender) ==\n                CompanyRegistry.CompanyType.Grading,\n            \"You are not the graders!\"\n        );\n        _;\n    }\n}\n",
  "sourcePath": "/Users/huanghongbin/VsCodeProjests/tracing-luxury/src/contracts/DiamondRegistry.sol",
  "compiler": {
    "name": "solc",
    "version": "0.8.7+commit.e28d00a7.Emscripten.clang"
  },
  "schemaVersion": "3.4.16",
  "updatedAt": "2023-11-14T13:51:58.447Z",
  "networkType": "ethereum",
  "devdoc": {
    "kind": "dev",
    "methods": {},
    "version": 1
  },
  "userdoc": {
    "kind": "user",
    "methods": {},
    "version": 1
  }
}