{
  "contractName": "JewelryShop",
  "abi": [
    {
      "inputs": [
        {
          "internalType": "address",
          "name": "_companyRegistry",
          "type": "address"
        },
        {
          "internalType": "address",
          "name": "_diamondRegistry",
          "type": "address"
        }
      ],
      "stateMutability": "nonpayable",
      "type": "constructor"
    },
    {
      "inputs": [],
      "name": "jewelryCounts",
      "outputs": [
        {
          "internalType": "uint256",
          "name": "",
          "type": "uint256"
        }
      ],
      "stateMutability": "view",
      "type": "function",
      "constant": true
    },
    {
      "inputs": [
        {
          "internalType": "uint256",
          "name": "",
          "type": "uint256"
        }
      ],
      "name": "jewelryItems",
      "outputs": [
        {
          "internalType": "uint256",
          "name": "jewelryId",
          "type": "uint256"
        },
        {
          "components": [
            {
              "internalType": "uint256",
              "name": "companyId",
              "type": "uint256"
            },
            {
              "internalType": "enum CompanyRegistry.CompanyType",
              "name": "companyType",
              "type": "uint8"
            },
            {
              "internalType": "address",
              "name": "addr",
              "type": "address"
            },
            {
              "internalType": "string",
              "name": "companyName",
              "type": "string"
            }
          ],
          "internalType": "struct CompanyRegistry.Company",
          "name": "manufacturer",
          "type": "tuple"
        },
        {
          "internalType": "address",
          "name": "owner",
          "type": "address"
        },
        {
          "components": [
            {
              "internalType": "uint256",
              "name": "uniqueId",
              "type": "uint256"
            },
            {
              "components": [
                {
                  "internalType": "uint256",
                  "name": "companyId",
                  "type": "uint256"
                },
                {
                  "internalType": "enum CompanyRegistry.CompanyType",
                  "name": "companyType",
                  "type": "uint8"
                },
                {
                  "internalType": "address",
                  "name": "addr",
                  "type": "address"
                },
                {
                  "internalType": "string",
                  "name": "companyName",
                  "type": "string"
                }
              ],
              "internalType": "struct CompanyRegistry.Company",
              "name": "gradingLab",
              "type": "tuple"
            },
            {
              "internalType": "string",
              "name": "clarity",
              "type": "string"
            },
            {
              "internalType": "uint256",
              "name": "grade",
              "type": "uint256"
            },
            {
              "components": [
                {
                  "internalType": "uint256",
                  "name": "rawId",
                  "type": "uint256"
                },
                {
                  "internalType": "string",
                  "name": "rawDiamondName",
                  "type": "string"
                },
                {
                  "internalType": "string",
                  "name": "rawDiamondColor",
                  "type": "string"
                },
                {
                  "internalType": "string",
                  "name": "cuttingGrade",
                  "type": "string"
                },
                {
                  "components": [
                    {
                      "internalType": "uint256",
                      "name": "companyId",
                      "type": "uint256"
                    },
                    {
                      "internalType": "enum CompanyRegistry.CompanyType",
                      "name": "companyType",
                      "type": "uint8"
                    },
                    {
                      "internalType": "address",
                      "name": "addr",
                      "type": "address"
                    },
                    {
                      "internalType": "string",
                      "name": "companyName",
                      "type": "string"
                    }
                  ],
                  "internalType": "struct CompanyRegistry.Company",
                  "name": "miningCompany",
                  "type": "tuple"
                },
                {
                  "components": [
                    {
                      "internalType": "uint256",
                      "name": "companyId",
                      "type": "uint256"
                    },
                    {
                      "internalType": "enum CompanyRegistry.CompanyType",
                      "name": "companyType",
                      "type": "uint8"
                    },
                    {
                      "internalType": "address",
                      "name": "addr",
                      "type": "address"
                    },
                    {
                      "internalType": "string",
                      "name": "companyName",
                      "type": "string"
                    }
                  ],
                  "internalType": "struct CompanyRegistry.Company",
                  "name": "cuttingCompany",
                  "type": "tuple"
                },
                {
                  "internalType": "uint256",
                  "name": "minedTime",
                  "type": "uint256"
                },
                {
                  "internalType": "uint256",
                  "name": "cuttingTime",
                  "type": "uint256"
                }
              ],
              "internalType": "struct RawDiamondRegistry.RawDiamond",
              "name": "rawDiamond",
              "type": "tuple"
            },
            {
              "internalType": "uint256",
              "name": "registerTime",
              "type": "uint256"
            }
          ],
          "internalType": "struct DiamondRegistry.Diamond",
          "name": "diamond",
          "type": "tuple"
        },
        {
          "internalType": "uint256",
          "name": "price",
          "type": "uint256"
        },
        {
          "internalType": "bool",
          "name": "beingSold",
          "type": "bool"
        },
        {
          "internalType": "uint256",
          "name": "designTime",
          "type": "uint256"
        }
      ],
      "stateMutability": "view",
      "type": "function",
      "constant": true
    },
    {
      "inputs": [
        {
          "internalType": "uint256",
          "name": "_jewelryId",
          "type": "uint256"
        },
        {
          "internalType": "address",
          "name": "_to",
          "type": "address"
        }
      ],
      "name": "transferTo",
      "outputs": [],
      "stateMutability": "nonpayable",
      "type": "function"
    },
    {
      "inputs": [],
      "name": "getAllJewels",
      "outputs": [
        {
          "components": [
            {
              "internalType": "uint256",
              "name": "jewelryId",
              "type": "uint256"
            },
            {
              "components": [
                {
                  "internalType": "uint256",
                  "name": "companyId",
                  "type": "uint256"
                },
                {
                  "internalType": "enum CompanyRegistry.CompanyType",
                  "name": "companyType",
                  "type": "uint8"
                },
                {
                  "internalType": "address",
                  "name": "addr",
                  "type": "address"
                },
                {
                  "internalType": "string",
                  "name": "companyName",
                  "type": "string"
                }
              ],
              "internalType": "struct CompanyRegistry.Company",
              "name": "manufacturer",
              "type": "tuple"
            },
            {
              "internalType": "address",
              "name": "owner",
              "type": "address"
            },
            {
              "components": [
                {
                  "internalType": "uint256",
                  "name": "uniqueId",
                  "type": "uint256"
                },
                {
                  "components": [
                    {
                      "internalType": "uint256",
                      "name": "companyId",
                      "type": "uint256"
                    },
                    {
                      "internalType": "enum CompanyRegistry.CompanyType",
                      "name": "companyType",
                      "type": "uint8"
                    },
                    {
                      "internalType": "address",
                      "name": "addr",
                      "type": "address"
                    },
                    {
                      "internalType": "string",
                      "name": "companyName",
                      "type": "string"
                    }
                  ],
                  "internalType": "struct CompanyRegistry.Company",
                  "name": "gradingLab",
                  "type": "tuple"
                },
                {
                  "internalType": "string",
                  "name": "clarity",
                  "type": "string"
                },
                {
                  "internalType": "uint256",
                  "name": "grade",
                  "type": "uint256"
                },
                {
                  "components": [
                    {
                      "internalType": "uint256",
                      "name": "rawId",
                      "type": "uint256"
                    },
                    {
                      "internalType": "string",
                      "name": "rawDiamondName",
                      "type": "string"
                    },
                    {
                      "internalType": "string",
                      "name": "rawDiamondColor",
                      "type": "string"
                    },
                    {
                      "internalType": "string",
                      "name": "cuttingGrade",
                      "type": "string"
                    },
                    {
                      "components": [
                        {
                          "internalType": "uint256",
                          "name": "companyId",
                          "type": "uint256"
                        },
                        {
                          "internalType": "enum CompanyRegistry.CompanyType",
                          "name": "companyType",
                          "type": "uint8"
                        },
                        {
                          "internalType": "address",
                          "name": "addr",
                          "type": "address"
                        },
                        {
                          "internalType": "string",
                          "name": "companyName",
                          "type": "string"
                        }
                      ],
                      "internalType": "struct CompanyRegistry.Company",
                      "name": "miningCompany",
                      "type": "tuple"
                    },
                    {
                      "components": [
                        {
                          "internalType": "uint256",
                          "name": "companyId",
                          "type": "uint256"
                        },
                        {
                          "internalType": "enum CompanyRegistry.CompanyType",
                          "name": "companyType",
                          "type": "uint8"
                        },
                        {
                          "internalType": "address",
                          "name": "addr",
                          "type": "address"
                        },
                        {
                          "internalType": "string",
                          "name": "companyName",
                          "type": "string"
                        }
                      ],
                      "internalType": "struct CompanyRegistry.Company",
                      "name": "cuttingCompany",
                      "type": "tuple"
                    },
                    {
                      "internalType": "uint256",
                      "name": "minedTime",
                      "type": "uint256"
                    },
                    {
                      "internalType": "uint256",
                      "name": "cuttingTime",
                      "type": "uint256"
                    }
                  ],
                  "internalType": "struct RawDiamondRegistry.RawDiamond",
                  "name": "rawDiamond",
                  "type": "tuple"
                },
                {
                  "internalType": "uint256",
                  "name": "registerTime",
                  "type": "uint256"
                }
              ],
              "internalType": "struct DiamondRegistry.Diamond",
              "name": "diamond",
              "type": "tuple"
            },
            {
              "internalType": "uint256",
              "name": "price",
              "type": "uint256"
            },
            {
              "internalType": "bool",
              "name": "beingSold",
              "type": "bool"
            },
            {
              "internalType": "uint256",
              "name": "designTime",
              "type": "uint256"
            }
          ],
          "internalType": "struct JewelryShop.Jewelry[]",
          "name": "",
          "type": "tuple[]"
        }
      ],
      "stateMutability": "view",
      "type": "function",
      "constant": true
    },
    {
      "inputs": [
        {
          "internalType": "uint256",
          "name": "uniqueId",
          "type": "uint256"
        },
        {
          "internalType": "uint256",
          "name": "price",
          "type": "uint256"
        }
      ],
      "name": "diamondDesigning",
      "outputs": [],
      "stateMutability": "nonpayable",
      "type": "function"
    },
    {
      "inputs": [
        {
          "internalType": "uint256",
          "name": "jewelryId",
          "type": "uint256"
        }
      ],
      "name": "jewelryPurchase",
      "outputs": [],
      "stateMutability": "payable",
      "type": "function",
      "payable": true
    },
    {
      "inputs": [
        {
          "internalType": "uint256",
          "name": "jewelryId",
          "type": "uint256"
        }
      ],
      "name": "sell",
      "outputs": [],
      "stateMutability": "nonpayable",
      "type": "function"
    },
    {
      "inputs": [],
      "name": "getMyJewels",
      "outputs": [
        {
          "components": [
            {
              "internalType": "uint256",
              "name": "jewelryId",
              "type": "uint256"
            },
            {
              "components": [
                {
                  "internalType": "uint256",
                  "name": "companyId",
                  "type": "uint256"
                },
                {
                  "internalType": "enum CompanyRegistry.CompanyType",
                  "name": "companyType",
                  "type": "uint8"
                },
                {
                  "internalType": "address",
                  "name": "addr",
                  "type": "address"
                },
                {
                  "internalType": "string",
                  "name": "companyName",
                  "type": "string"
                }
              ],
              "internalType": "struct CompanyRegistry.Company",
              "name": "manufacturer",
              "type": "tuple"
            },
            {
              "internalType": "address",
              "name": "owner",
              "type": "address"
            },
            {
              "components": [
                {
                  "internalType": "uint256",
                  "name": "uniqueId",
                  "type": "uint256"
                },
                {
                  "components": [
                    {
                      "internalType": "uint256",
                      "name": "companyId",
                      "type": "uint256"
                    },
                    {
                      "internalType": "enum CompanyRegistry.CompanyType",
                      "name": "companyType",
                      "type": "uint8"
                    },
                    {
                      "internalType": "address",
                      "name": "addr",
                      "type": "address"
                    },
                    {
                      "internalType": "string",
                      "name": "companyName",
                      "type": "string"
                    }
                  ],
                  "internalType": "struct CompanyRegistry.Company",
                  "name": "gradingLab",
                  "type": "tuple"
                },
                {
                  "internalType": "string",
                  "name": "clarity",
                  "type": "string"
                },
                {
                  "internalType": "uint256",
                  "name": "grade",
                  "type": "uint256"
                },
                {
                  "components": [
                    {
                      "internalType": "uint256",
                      "name": "rawId",
                      "type": "uint256"
                    },
                    {
                      "internalType": "string",
                      "name": "rawDiamondName",
                      "type": "string"
                    },
                    {
                      "internalType": "string",
                      "name": "rawDiamondColor",
                      "type": "string"
                    },
                    {
                      "internalType": "string",
                      "name": "cuttingGrade",
                      "type": "string"
                    },
                    {
                      "components": [
                        {
                          "internalType": "uint256",
                          "name": "companyId",
                          "type": "uint256"
                        },
                        {
                          "internalType": "enum CompanyRegistry.CompanyType",
                          "name": "companyType",
                          "type": "uint8"
                        },
                        {
                          "internalType": "address",
                          "name": "addr",
                          "type": "address"
                        },
                        {
                          "internalType": "string",
                          "name": "companyName",
                          "type": "string"
                        }
                      ],
                      "internalType": "struct CompanyRegistry.Company",
                      "name": "miningCompany",
                      "type": "tuple"
                    },
                    {
                      "components": [
                        {
                          "internalType": "uint256",
                          "name": "companyId",
                          "type": "uint256"
                        },
                        {
                          "internalType": "enum CompanyRegistry.CompanyType",
                          "name": "companyType",
                          "type": "uint8"
                        },
                        {
                          "internalType": "address",
                          "name": "addr",
                          "type": "address"
                        },
                        {
                          "internalType": "string",
                          "name": "companyName",
                          "type": "string"
                        }
                      ],
                      "internalType": "struct CompanyRegistry.Company",
                      "name": "cuttingCompany",
                      "type": "tuple"
                    },
                    {
                      "internalType": "uint256",
                      "name": "minedTime",
                      "type": "uint256"
                    },
                    {
                      "internalType": "uint256",
                      "name": "cuttingTime",
                      "type": "uint256"
                    }
                  ],
                  "internalType": "struct RawDiamondRegistry.RawDiamond",
                  "name": "rawDiamond",
                  "type": "tuple"
                },
                {
                  "internalType": "uint256",
                  "name": "registerTime",
                  "type": "uint256"
                }
              ],
              "internalType": "struct DiamondRegistry.Diamond",
              "name": "diamond",
              "type": "tuple"
            },
            {
              "internalType": "uint256",
              "name": "price",
              "type": "uint256"
            },
            {
              "internalType": "bool",
              "name": "beingSold",
              "type": "bool"
            },
            {
              "internalType": "uint256",
              "name": "designTime",
              "type": "uint256"
            }
          ],
          "internalType": "struct JewelryShop.Jewelry[]",
          "name": "",
          "type": "tuple[]"
        }
      ],
      "stateMutability": "view",
      "type": "function",
      "constant": true
    },
    {
      "inputs": [
        {
          "internalType": "uint256",
          "name": "jewelryId",
          "type": "uint256"
        }
      ],
      "name": "jewelryVerify",
      "outputs": [
        {
          "components": [
            {
              "internalType": "uint256",
              "name": "jewelryId",
              "type": "uint256"
            },
            {
              "components": [
                {
                  "internalType": "uint256",
                  "name": "companyId",
                  "type": "uint256"
                },
                {
                  "internalType": "enum CompanyRegistry.CompanyType",
                  "name": "companyType",
                  "type": "uint8"
                },
                {
                  "internalType": "address",
                  "name": "addr",
                  "type": "address"
                },
                {
                  "internalType": "string",
                  "name": "companyName",
                  "type": "string"
                }
              ],
              "internalType": "struct CompanyRegistry.Company",
              "name": "manufacturer",
              "type": "tuple"
            },
            {
              "internalType": "address",
              "name": "owner",
              "type": "address"
            },
            {
              "components": [
                {
                  "internalType": "uint256",
                  "name": "uniqueId",
                  "type": "uint256"
                },
                {
                  "components": [
                    {
                      "internalType": "uint256",
                      "name": "companyId",
                      "type": "uint256"
                    },
                    {
                      "internalType": "enum CompanyRegistry.CompanyType",
                      "name": "companyType",
                      "type": "uint8"
                    },
                    {
                      "internalType": "address",
                      "name": "addr",
                      "type": "address"
                    },
                    {
                      "internalType": "string",
                      "name": "companyName",
                      "type": "string"
                    }
                  ],
                  "internalType": "struct CompanyRegistry.Company",
                  "name": "gradingLab",
                  "type": "tuple"
                },
                {
                  "internalType": "string",
                  "name": "clarity",
                  "type": "string"
                },
                {
                  "internalType": "uint256",
                  "name": "grade",
                  "type": "uint256"
                },
                {
                  "components": [
                    {
                      "internalType": "uint256",
                      "name": "rawId",
                      "type": "uint256"
                    },
                    {
                      "internalType": "string",
                      "name": "rawDiamondName",
                      "type": "string"
                    },
                    {
                      "internalType": "string",
                      "name": "rawDiamondColor",
                      "type": "string"
                    },
                    {
                      "internalType": "string",
                      "name": "cuttingGrade",
                      "type": "string"
                    },
                    {
                      "components": [
                        {
                          "internalType": "uint256",
                          "name": "companyId",
                          "type": "uint256"
                        },
                        {
                          "internalType": "enum CompanyRegistry.CompanyType",
                          "name": "companyType",
                          "type": "uint8"
                        },
                        {
                          "internalType": "address",
                          "name": "addr",
                          "type": "address"
                        },
                        {
                          "internalType": "string",
                          "name": "companyName",
                          "type": "string"
                        }
                      ],
                      "internalType": "struct CompanyRegistry.Company",
                      "name": "miningCompany",
                      "type": "tuple"
                    },
                    {
                      "components": [
                        {
                          "internalType": "uint256",
                          "name": "companyId",
                          "type": "uint256"
                        },
                        {
                          "internalType": "enum CompanyRegistry.CompanyType",
                          "name": "companyType",
                          "type": "uint8"
                        },
                        {
                          "internalType": "address",
                          "name": "addr",
                          "type": "address"
                        },
                        {
                          "internalType": "string",
                          "name": "companyName",
                          "type": "string"
                        }
                      ],
                      "internalType": "struct CompanyRegistry.Company",
                      "name": "cuttingCompany",
                      "type": "tuple"
                    },
                    {
                      "internalType": "uint256",
                      "name": "minedTime",
                      "type": "uint256"
                    },
                    {
                      "internalType": "uint256",
                      "name": "cuttingTime",
                      "type": "uint256"
                    }
                  ],
                  "internalType": "struct RawDiamondRegistry.RawDiamond",
                  "name": "rawDiamond",
                  "type": "tuple"
                },
                {
                  "internalType": "uint256",
                  "name": "registerTime",
                  "type": "uint256"
                }
              ],
              "internalType": "struct DiamondRegistry.Diamond",
              "name": "diamond",
              "type": "tuple"
            },
            {
              "internalType": "uint256",
              "name": "price",
              "type": "uint256"
            },
            {
              "internalType": "bool",
              "name": "beingSold",
              "type": "bool"
            },
            {
              "internalType": "uint256",
              "name": "designTime",
              "type": "uint256"
            }
          ],
          "internalType": "struct JewelryShop.Jewelry",
          "name": "",
          "type": "tuple"
        }
      ],
      "stateMutability": "view",
      "type": "function",
      "constant": true
    }
  ],
  "bytecode": "0x60806040523480156200001157600080fd5b5060405162004524380380620045248339818101604052810190620000379190620000d8565b81600260006101000a81548173ffffffffffffffffffffffffffffffffffffffff021916908373ffffffffffffffffffffffffffffffffffffffff16021790555080600360006101000a81548173ffffffffffffffffffffffffffffffffffffffff021916908373ffffffffffffffffffffffffffffffffffffffff160217905550505062000172565b600081519050620000d28162000158565b92915050565b60008060408385031215620000f257620000f162000153565b5b60006200010285828601620000c1565b92505060206200011585828601620000c1565b9150509250929050565b60006200012c8262000133565b9050919050565b600073ffffffffffffffffffffffffffffffffffffffff82169050919050565b600080fd5b62000163816200011f565b81146200016f57600080fd5b50565b6143a280620001826000396000f3fe6080604052600436106100865760003560e01c80638e1f2999116100595780638e1f2999146101355780639cf4dc7014610151578063a23fb7ae1461018e578063d4822fbf146101d1578063e4849b32146101fa57610086565b80631648f1e51461008b578063365db402146100b65780634974275c146100e15780637bb87bb31461010c575b600080fd5b34801561009757600080fd5b506100a0610223565b6040516100ad9190613de7565b60405180910390f35b3480156100c257600080fd5b506100cb610c99565b6040516100d89190613e8b565b60405180910390f35b3480156100ed57600080fd5b506100f6610c9f565b6040516101039190613de7565b60405180910390f35b34801561011857600080fd5b50610133600480360381019061012e91906137f2565b61159e565b005b61014f600480360381019061014a9190613785565b611cb5565b005b34801561015d57600080fd5b5061017860048036038101906101739190613785565b611eec565b6040516101859190613e69565b60405180910390f35b34801561019a57600080fd5b506101b560048036038101906101b09190613785565b612758565b6040516101c89796959493929190613ea6565b60405180910390f35b3480156101dd57600080fd5b506101f860048036038101906101f391906137b2565b612f64565b005b34801561020657600080fd5b50610221600480360381019061021c9190613785565b61308a565b005b60606000805b6001548110156102f0573373ffffffffffffffffffffffffffffffffffffffff1660008083815260200190815260200160002060040160009054906101000a900473ffffffffffffffffffffffffffffffffffffffff1673ffffffffffffffffffffffffffffffffffffffff161480156102c957506000151560008083815260200190815260200160002060190160009054906101000a900460ff161515145b156102dd5781806102d99061413c565b9250505b80806102e89061413c565b915050610229565b5060008167ffffffffffffffff81111561030d5761030c614241565b5b60405190808252806020026020018201604052801561034657816020015b610333613128565b81526020019060019003908161032b5790505b5090506000805b600154811015610c8f573373ffffffffffffffffffffffffffffffffffffffff1660008083815260200190815260200160002060040160009054906101000a900473ffffffffffffffffffffffffffffffffffffffff1673ffffffffffffffffffffffffffffffffffffffff161480156103ed57506000151560008083815260200190815260200160002060190160009054906101000a900460ff161515145b15610c7c576000808281526020019081526020016000206040518060e00160405290816000820154815260200160018201604051806080016040529081600082015481526020016001820160009054906101000a900460ff166003811115610458576104576141b4565b5b600381111561046a576104696141b4565b5b81526020016001820160019054906101000a900473ffffffffffffffffffffffffffffffffffffffff1673ffffffffffffffffffffffffffffffffffffffff1673ffffffffffffffffffffffffffffffffffffffff1681526020016002820180546104d4906140d9565b80601f0160208091040260200160405190810160405280929190818152602001828054610500906140d9565b801561054d5780601f106105225761010080835404028352916020019161054d565b820191906000526020600020905b81548152906001019060200180831161053057829003601f168201915b50505050508152505081526020016004820160009054906101000a900473ffffffffffffffffffffffffffffffffffffffff1673ffffffffffffffffffffffffffffffffffffffff1673ffffffffffffffffffffffffffffffffffffffff168152602001600582016040518060c00160405290816000820154815260200160018201604051806080016040529081600082015481526020016001820160009054906101000a900460ff166003811115610609576106086141b4565b5b600381111561061b5761061a6141b4565b5b81526020016001820160019054906101000a900473ffffffffffffffffffffffffffffffffffffffff1673ffffffffffffffffffffffffffffffffffffffff1673ffffffffffffffffffffffffffffffffffffffff168152602001600282018054610685906140d9565b80601f01602080910402602001604051908101604052809291908181526020018280546106b1906140d9565b80156106fe5780601f106106d3576101008083540402835291602001916106fe565b820191906000526020600020905b8154815290600101906020018083116106e157829003601f168201915b505050505081525050815260200160048201805461071b906140d9565b80601f0160208091040260200160405190810160405280929190818152602001828054610747906140d9565b80156107945780601f1061076957610100808354040283529160200191610794565b820191906000526020600020905b81548152906001019060200180831161077757829003601f168201915b50505050508152602001600582015481526020016006820160405180610100016040529081600082015481526020016001820180546107d2906140d9565b80601f01602080910402602001604051908101604052809291908181526020018280546107fe906140d9565b801561084b5780601f106108205761010080835404028352916020019161084b565b820191906000526020600020905b81548152906001019060200180831161082e57829003601f168201915b50505050508152602001600282018054610864906140d9565b80601f0160208091040260200160405190810160405280929190818152602001828054610890906140d9565b80156108dd5780601f106108b2576101008083540402835291602001916108dd565b820191906000526020600020905b8154815290600101906020018083116108c057829003601f168201915b505050505081526020016003820180546108f6906140d9565b80601f0160208091040260200160405190810160405280929190818152602001828054610922906140d9565b801561096f5780601f106109445761010080835404028352916020019161096f565b820191906000526020600020905b81548152906001019060200180831161095257829003601f168201915b5050505050815260200160048201604051806080016040529081600082015481526020016001820160009054906101000a900460ff1660038111156109b7576109b66141b4565b5b60038111156109c9576109c86141b4565b5b81526020016001820160019054906101000a900473ffffffffffffffffffffffffffffffffffffffff1673ffffffffffffffffffffffffffffffffffffffff1673ffffffffffffffffffffffffffffffffffffffff168152602001600282018054610a33906140d9565b80601f0160208091040260200160405190810160405280929190818152602001828054610a5f906140d9565b8015610aac5780601f10610a8157610100808354040283529160200191610aac565b820191906000526020600020905b815481529060010190602001808311610a8f57829003601f168201915b505050505081525050815260200160078201604051806080016040529081600082015481526020016001820160009054906101000a900460ff166003811115610af857610af76141b4565b5b6003811115610b0a57610b096141b4565b5b81526020016001820160019054906101000a900473ffffffffffffffffffffffffffffffffffffffff1673ffffffffffffffffffffffffffffffffffffffff1673ffffffffffffffffffffffffffffffffffffffff168152602001600282018054610b74906140d9565b80601f0160208091040260200160405190810160405280929190818152602001828054610ba0906140d9565b8015610bed5780601f10610bc257610100808354040283529160200191610bed565b820191906000526020600020905b815481529060010190602001808311610bd057829003601f168201915b5050505050815250508152602001600a8201548152602001600b8201548152505081526020016012820154815250508152602001601882015481526020016019820160009054906101000a900460ff16151515158152602001601a82015481525050838381518110610c6257610c61614212565b5b60200260200101819052508180610c789061413c565b9250505b8080610c879061413c565b91505061034d565b5081935050505090565b60015481565b6060600060015467ffffffffffffffff811115610cbf57610cbe614241565b5b604051908082528060200260200182016040528015610cf857816020015b610ce5613128565b815260200190600190039081610cdd5790505b50905060005b600154811015611596576000808281526020019081526020016000206040518060e00160405290816000820154815260200160018201604051806080016040529081600082015481526020016001820160009054906101000a900460ff166003811115610d6e57610d6d6141b4565b5b6003811115610d8057610d7f6141b4565b5b81526020016001820160019054906101000a900473ffffffffffffffffffffffffffffffffffffffff1673ffffffffffffffffffffffffffffffffffffffff1673ffffffffffffffffffffffffffffffffffffffff168152602001600282018054610dea906140d9565b80601f0160208091040260200160405190810160405280929190818152602001828054610e16906140d9565b8015610e635780601f10610e3857610100808354040283529160200191610e63565b820191906000526020600020905b815481529060010190602001808311610e4657829003601f168201915b50505050508152505081526020016004820160009054906101000a900473ffffffffffffffffffffffffffffffffffffffff1673ffffffffffffffffffffffffffffffffffffffff1673ffffffffffffffffffffffffffffffffffffffff168152602001600582016040518060c00160405290816000820154815260200160018201604051806080016040529081600082015481526020016001820160009054906101000a900460ff166003811115610f1f57610f1e6141b4565b5b6003811115610f3157610f306141b4565b5b81526020016001820160019054906101000a900473ffffffffffffffffffffffffffffffffffffffff1673ffffffffffffffffffffffffffffffffffffffff1673ffffffffffffffffffffffffffffffffffffffff168152602001600282018054610f9b906140d9565b80601f0160208091040260200160405190810160405280929190818152602001828054610fc7906140d9565b80156110145780601f10610fe957610100808354040283529160200191611014565b820191906000526020600020905b815481529060010190602001808311610ff757829003601f168201915b5050505050815250508152602001600482018054611031906140d9565b80601f016020809104026020016040519081016040528092919081815260200182805461105d906140d9565b80156110aa5780601f1061107f576101008083540402835291602001916110aa565b820191906000526020600020905b81548152906001019060200180831161108d57829003601f168201915b50505050508152602001600582015481526020016006820160405180610100016040529081600082015481526020016001820180546110e8906140d9565b80601f0160208091040260200160405190810160405280929190818152602001828054611114906140d9565b80156111615780601f1061113657610100808354040283529160200191611161565b820191906000526020600020905b81548152906001019060200180831161114457829003601f168201915b5050505050815260200160028201805461117a906140d9565b80601f01602080910402602001604051908101604052809291908181526020018280546111a6906140d9565b80156111f35780601f106111c8576101008083540402835291602001916111f3565b820191906000526020600020905b8154815290600101906020018083116111d657829003601f168201915b5050505050815260200160038201805461120c906140d9565b80601f0160208091040260200160405190810160405280929190818152602001828054611238906140d9565b80156112855780601f1061125a57610100808354040283529160200191611285565b820191906000526020600020905b81548152906001019060200180831161126857829003601f168201915b5050505050815260200160048201604051806080016040529081600082015481526020016001820160009054906101000a900460ff1660038111156112cd576112cc6141b4565b5b60038111156112df576112de6141b4565b5b81526020016001820160019054906101000a900473ffffffffffffffffffffffffffffffffffffffff1673ffffffffffffffffffffffffffffffffffffffff1673ffffffffffffffffffffffffffffffffffffffff168152602001600282018054611349906140d9565b80601f0160208091040260200160405190810160405280929190818152602001828054611375906140d9565b80156113c25780601f10611397576101008083540402835291602001916113c2565b820191906000526020600020905b8154815290600101906020018083116113a557829003601f168201915b505050505081525050815260200160078201604051806080016040529081600082015481526020016001820160009054906101000a900460ff16600381111561140e5761140d6141b4565b5b60038111156114205761141f6141b4565b5b81526020016001820160019054906101000a900473ffffffffffffffffffffffffffffffffffffffff1673ffffffffffffffffffffffffffffffffffffffff1673ffffffffffffffffffffffffffffffffffffffff16815260200160028201805461148a906140d9565b80601f01602080910402602001604051908101604052809291908181526020018280546114b6906140d9565b80156115035780601f106114d857610100808354040283529160200191611503565b820191906000526020600020905b8154815290600101906020018083116114e657829003601f168201915b5050505050815250508152602001600a8201548152602001600b8201548152505081526020016012820154815250508152602001601882015481526020016019820160009054906101000a900460ff16151515158152602001601a8201548152505082828151811061157857611577614212565b5b6020026020010181905250808061158e9061413c565b915050610cfe565b508091505090565b6003808111156115b1576115b06141b4565b5b600260009054906101000a900473ffffffffffffffffffffffffffffffffffffffff1673ffffffffffffffffffffffffffffffffffffffff1663097bcc1a336040518263ffffffff1660e01b815260040161160c9190613dcc565b60206040518083038186803b15801561162457600080fd5b505afa158015611638573d6000803e3d6000fd5b505050506040513d601f19601f8201168201806040525081019061165c91906136c6565b600381111561166e5761166d6141b4565b5b146116ae576040517f08c379a00000000000000000000000000000000000000000000000000000000081526004016116a590613e29565b60405180910390fd5b6116b6613128565b600360009054906101000a900473ffffffffffffffffffffffffffffffffffffffff1673ffffffffffffffffffffffffffffffffffffffff1663e3ed14db846040518263ffffffff1660e01b81526004016117119190613e8b565b60006040518083038186803b15801561172957600080fd5b505afa15801561173d573d6000803e3d6000fd5b505050506040513d6000823e3d601f19601f82011682018060405250810190611766919061373c565b81606001819052506000600260009054906101000a900473ffffffffffffffffffffffffffffffffffffffff1673ffffffffffffffffffffffffffffffffffffffff166362bc56e6336040518263ffffffff1660e01b81526004016117cb9190613dcc565b60006040518083038186803b1580156117e357600080fd5b505afa1580156117f7573d6000803e3d6000fd5b505050506040513d6000823e3d601f19601f8201168201806040525081019061182091906136f3565b905080826020018190525033826040019073ffffffffffffffffffffffffffffffffffffffff16908173ffffffffffffffffffffffffffffffffffffffff16815250508282608001818152505060015482600001818152505060018260a0019015159081151581525050428260c001818152505081600080600160008154809291906118ab9061413c565b919050558152602001908152602001600020600082015181600001556020820151816001016000820151816000015560208201518160010160006101000a81548160ff02191690836003811115611905576119046141b4565b5b021790555060408201518160010160016101000a81548173ffffffffffffffffffffffffffffffffffffffff021916908373ffffffffffffffffffffffffffffffffffffffff160217905550606082015181600201908051906020019061196d929190613189565b50505060408201518160040160006101000a81548173ffffffffffffffffffffffffffffffffffffffff021916908373ffffffffffffffffffffffffffffffffffffffff160217905550606082015181600501600082015181600001556020820151816001016000820151816000015560208201518160010160006101000a81548160ff02191690836003811115611a0857611a076141b4565b5b021790555060408201518160010160016101000a81548173ffffffffffffffffffffffffffffffffffffffff021916908373ffffffffffffffffffffffffffffffffffffffff1602179055506060820151816002019080519060200190611a70929190613189565b5050506040820151816004019080519060200190611a8f929190613189565b5060608201518160050155608082015181600601600082015181600001556020820151816001019080519060200190611ac9929190613189565b506040820151816002019080519060200190611ae6929190613189565b506060820151816003019080519060200190611b03929190613189565b506080820151816004016000820151816000015560208201518160010160006101000a81548160ff02191690836003811115611b4257611b416141b4565b5b021790555060408201518160010160016101000a81548173ffffffffffffffffffffffffffffffffffffffff021916908373ffffffffffffffffffffffffffffffffffffffff1602179055506060820151816002019080519060200190611baa929190613189565b50505060a0820151816007016000820151816000015560208201518160010160006101000a81548160ff02191690836003811115611beb57611bea6141b4565b5b021790555060408201518160010160016101000a81548173ffffffffffffffffffffffffffffffffffffffff021916908373ffffffffffffffffffffffffffffffffffffffff1602179055506060820151816002019080519060200190611c53929190613189565b50505060c082015181600a015560e082015181600b0155505060a0820151816012015550506080820151816018015560a08201518160190160006101000a81548160ff02191690831515021790555060c082015181601a015590505050505050565b3373ffffffffffffffffffffffffffffffffffffffff1660008083815260200190815260200160002060040160009054906101000a900473ffffffffffffffffffffffffffffffffffffffff1673ffffffffffffffffffffffffffffffffffffffff161415611d59576040517f08c379a0000000000000000000000000000000000000000000000000000000008152600401611d5090613e09565b60405180910390fd5b670de0b6b3a764000060008083815260200190815260200160002060180154611d829190613fdf565b3414611dc3576040517f08c379a0000000000000000000000000000000000000000000000000000000008152600401611dba90613e49565b60405180910390fd5b60008082815260200190815260200160002060040160009054906101000a900473ffffffffffffffffffffffffffffffffffffffff1673ffffffffffffffffffffffffffffffffffffffff166108fc670de0b6b3a764000060008085815260200190815260200160002060180154611e3b9190613fdf565b9081150290604051600060405180830381858888f19350505050158015611e66573d6000803e3d6000fd5b50600080600083815260200190815260200160002060190160006101000a81548160ff0219169083151502179055503360008083815260200190815260200160002060040160006101000a81548173ffffffffffffffffffffffffffffffffffffffff021916908373ffffffffffffffffffffffffffffffffffffffff16021790555050565b611ef4613128565b6000808381526020019081526020016000206040518060e00160405290816000820154815260200160018201604051806080016040529081600082015481526020016001820160009054906101000a900460ff166003811115611f5a57611f596141b4565b5b6003811115611f6c57611f6b6141b4565b5b81526020016001820160019054906101000a900473ffffffffffffffffffffffffffffffffffffffff1673ffffffffffffffffffffffffffffffffffffffff1673ffffffffffffffffffffffffffffffffffffffff168152602001600282018054611fd6906140d9565b80601f0160208091040260200160405190810160405280929190818152602001828054612002906140d9565b801561204f5780601f106120245761010080835404028352916020019161204f565b820191906000526020600020905b81548152906001019060200180831161203257829003601f168201915b50505050508152505081526020016004820160009054906101000a900473ffffffffffffffffffffffffffffffffffffffff1673ffffffffffffffffffffffffffffffffffffffff1673ffffffffffffffffffffffffffffffffffffffff168152602001600582016040518060c00160405290816000820154815260200160018201604051806080016040529081600082015481526020016001820160009054906101000a900460ff16600381111561210b5761210a6141b4565b5b600381111561211d5761211c6141b4565b5b81526020016001820160019054906101000a900473ffffffffffffffffffffffffffffffffffffffff1673ffffffffffffffffffffffffffffffffffffffff1673ffffffffffffffffffffffffffffffffffffffff168152602001600282018054612187906140d9565b80601f01602080910402602001604051908101604052809291908181526020018280546121b3906140d9565b80156122005780601f106121d557610100808354040283529160200191612200565b820191906000526020600020905b8154815290600101906020018083116121e357829003601f168201915b505050505081525050815260200160048201805461221d906140d9565b80601f0160208091040260200160405190810160405280929190818152602001828054612249906140d9565b80156122965780601f1061226b57610100808354040283529160200191612296565b820191906000526020600020905b81548152906001019060200180831161227957829003601f168201915b50505050508152602001600582015481526020016006820160405180610100016040529081600082015481526020016001820180546122d4906140d9565b80601f0160208091040260200160405190810160405280929190818152602001828054612300906140d9565b801561234d5780601f106123225761010080835404028352916020019161234d565b820191906000526020600020905b81548152906001019060200180831161233057829003601f168201915b50505050508152602001600282018054612366906140d9565b80601f0160208091040260200160405190810160405280929190818152602001828054612392906140d9565b80156123df5780601f106123b4576101008083540402835291602001916123df565b820191906000526020600020905b8154815290600101906020018083116123c257829003601f168201915b505050505081526020016003820180546123f8906140d9565b80601f0160208091040260200160405190810160405280929190818152602001828054612424906140d9565b80156124715780601f1061244657610100808354040283529160200191612471565b820191906000526020600020905b81548152906001019060200180831161245457829003601f168201915b5050505050815260200160048201604051806080016040529081600082015481526020016001820160009054906101000a900460ff1660038111156124b9576124b86141b4565b5b60038111156124cb576124ca6141b4565b5b81526020016001820160019054906101000a900473ffffffffffffffffffffffffffffffffffffffff1673ffffffffffffffffffffffffffffffffffffffff1673ffffffffffffffffffffffffffffffffffffffff168152602001600282018054612535906140d9565b80601f0160208091040260200160405190810160405280929190818152602001828054612561906140d9565b80156125ae5780601f10612583576101008083540402835291602001916125ae565b820191906000526020600020905b81548152906001019060200180831161259157829003601f168201915b505050505081525050815260200160078201604051806080016040529081600082015481526020016001820160009054906101000a900460ff1660038111156125fa576125f96141b4565b5b600381111561260c5761260b6141b4565b5b81526020016001820160019054906101000a900473ffffffffffffffffffffffffffffffffffffffff1673ffffffffffffffffffffffffffffffffffffffff1673ffffffffffffffffffffffffffffffffffffffff168152602001600282018054612676906140d9565b80601f01602080910402602001604051908101604052809291908181526020018280546126a2906140d9565b80156126ef5780601f106126c4576101008083540402835291602001916126ef565b820191906000526020600020905b8154815290600101906020018083116126d257829003601f168201915b5050505050815250508152602001600a8201548152602001600b8201548152505081526020016012820154815250508152602001601882015481526020016019820160009054906101000a900460ff16151515158152602001601a820154815250509050919050565b600060205280600052604060002060009150905080600001549080600101604051806080016040529081600082015481526020016001820160009054906101000a900460ff1660038111156127b0576127af6141b4565b5b60038111156127c2576127c16141b4565b5b81526020016001820160019054906101000a900473ffffffffffffffffffffffffffffffffffffffff1673ffffffffffffffffffffffffffffffffffffffff1673ffffffffffffffffffffffffffffffffffffffff16815260200160028201805461282c906140d9565b80601f0160208091040260200160405190810160405280929190818152602001828054612858906140d9565b80156128a55780601f1061287a576101008083540402835291602001916128a5565b820191906000526020600020905b81548152906001019060200180831161288857829003601f168201915b505050505081525050908060040160009054906101000a900473ffffffffffffffffffffffffffffffffffffffff1690806005016040518060c00160405290816000820154815260200160018201604051806080016040529081600082015481526020016001820160009054906101000a900460ff16600381111561292d5761292c6141b4565b5b600381111561293f5761293e6141b4565b5b81526020016001820160019054906101000a900473ffffffffffffffffffffffffffffffffffffffff1673ffffffffffffffffffffffffffffffffffffffff1673ffffffffffffffffffffffffffffffffffffffff1681526020016002820180546129a9906140d9565b80601f01602080910402602001604051908101604052809291908181526020018280546129d5906140d9565b8015612a225780601f106129f757610100808354040283529160200191612a22565b820191906000526020600020905b815481529060010190602001808311612a0557829003601f168201915b5050505050815250508152602001600482018054612a3f906140d9565b80601f0160208091040260200160405190810160405280929190818152602001828054612a6b906140d9565b8015612ab85780601f10612a8d57610100808354040283529160200191612ab8565b820191906000526020600020905b815481529060010190602001808311612a9b57829003601f168201915b5050505050815260200160058201548152602001600682016040518061010001604052908160008201548152602001600182018054612af6906140d9565b80601f0160208091040260200160405190810160405280929190818152602001828054612b22906140d9565b8015612b6f5780601f10612b4457610100808354040283529160200191612b6f565b820191906000526020600020905b815481529060010190602001808311612b5257829003601f168201915b50505050508152602001600282018054612b88906140d9565b80601f0160208091040260200160405190810160405280929190818152602001828054612bb4906140d9565b8015612c015780601f10612bd657610100808354040283529160200191612c01565b820191906000526020600020905b815481529060010190602001808311612be457829003601f168201915b50505050508152602001600382018054612c1a906140d9565b80601f0160208091040260200160405190810160405280929190818152602001828054612c46906140d9565b8015612c935780601f10612c6857610100808354040283529160200191612c93565b820191906000526020600020905b815481529060010190602001808311612c7657829003601f168201915b5050505050815260200160048201604051806080016040529081600082015481526020016001820160009054906101000a900460ff166003811115612cdb57612cda6141b4565b5b6003811115612ced57612cec6141b4565b5b81526020016001820160019054906101000a900473ffffffffffffffffffffffffffffffffffffffff1673ffffffffffffffffffffffffffffffffffffffff1673ffffffffffffffffffffffffffffffffffffffff168152602001600282018054612d57906140d9565b80601f0160208091040260200160405190810160405280929190818152602001828054612d83906140d9565b8015612dd05780601f10612da557610100808354040283529160200191612dd0565b820191906000526020600020905b815481529060010190602001808311612db357829003601f168201915b505050505081525050815260200160078201604051806080016040529081600082015481526020016001820160009054906101000a900460ff166003811115612e1c57612e1b6141b4565b5b6003811115612e2e57612e2d6141b4565b5b81526020016001820160019054906101000a900473ffffffffffffffffffffffffffffffffffffffff1673ffffffffffffffffffffffffffffffffffffffff1673ffffffffffffffffffffffffffffffffffffffff168152602001600282018054612e98906140d9565b80601f0160208091040260200160405190810160405280929190818152602001828054612ec4906140d9565b8015612f115780601f10612ee657610100808354040283529160200191612f11565b820191906000526020600020905b815481529060010190602001808311612ef457829003601f168201915b5050505050815250508152602001600a8201548152602001600b820154815250508152602001601282015481525050908060180154908060190160009054906101000a900460ff169080601a0154905087565b3373ffffffffffffffffffffffffffffffffffffffff1660008084815260200190815260200160002060040160009054906101000a900473ffffffffffffffffffffffffffffffffffffffff1673ffffffffffffffffffffffffffffffffffffffff1614612fd157600080fd5b6000151560008084815260200190815260200160002060190160009054906101000a900460ff1615151461300457600080fd5b8060008084815260200190815260200160002060040160006101000a81548173ffffffffffffffffffffffffffffffffffffffff021916908373ffffffffffffffffffffffffffffffffffffffff160217905550600080600084815260200190815260200160002060190160006101000a81548160ff0219169083151502179055505050565b3373ffffffffffffffffffffffffffffffffffffffff1660008083815260200190815260200160002060040160009054906101000a900473ffffffffffffffffffffffffffffffffffffffff1673ffffffffffffffffffffffffffffffffffffffff16146130f757600080fd5b600160008083815260200190815260200160002060190160006101000a81548160ff02191690831515021790555050565b6040518060e001604052806000815260200161314261320f565b8152602001600073ffffffffffffffffffffffffffffffffffffffff16815260200161316c61325f565b815260200160008152602001600015158152602001600081525090565b828054613195906140d9565b90600052602060002090601f0160209004810192826131b757600085556131fe565b82601f106131d057805160ff19168380011785556131fe565b828001600101855582156131fe579182015b828111156131fd5782518255916020019190600101906131e2565b5b50905061320b91906132a1565b5090565b60405180608001604052806000815260200160006003811115613235576132346141b4565b5b8152602001600073ffffffffffffffffffffffffffffffffffffffff168152602001606081525090565b6040518060c001604052806000815260200161327961320f565b815260200160608152602001600081526020016132946132be565b8152602001600081525090565b5b808211156132ba5760008160009055506001016132a2565b5090565b604051806101000160405280600081526020016060815260200160608152602001606081526020016132ee61320f565b81526020016132fb61320f565b815260200160008152602001600081525090565b600061332261331d84613f48565b613f23565b90508281526020810184848401111561333e5761333d61427f565b5b6133498482856140a6565b509392505050565b6000813590506133608161432e565b92915050565b6000815190506133758161432e565b92915050565b60008151905061338a81614345565b92915050565b600082601f8301126133a5576133a4614270565b5b81516133b584826020860161330f565b91505092915050565b6000608082840312156133d4576133d3614275565b5b6133de6080613f23565b905060006133ee848285016136b1565b60008301525060206134028482850161337b565b602083015250604061341684828501613366565b604083015250606082015167ffffffffffffffff81111561343a5761343961427a565b5b61344684828501613390565b60608301525092915050565b600060c0828403121561346857613467614275565b5b61347260c0613f23565b90506000613482848285016136b1565b600083015250602082015167ffffffffffffffff8111156134a6576134a561427a565b5b6134b2848285016133be565b602083015250604082015167ffffffffffffffff8111156134d6576134d561427a565b5b6134e284828501613390565b60408301525060606134f6848285016136b1565b606083015250608082015167ffffffffffffffff81111561351a5761351961427a565b5b61352684828501613546565b60808301525060a061353a848285016136b1565b60a08301525092915050565b6000610100828403121561355d5761355c614275565b5b613568610100613f23565b90506000613578848285016136b1565b600083015250602082015167ffffffffffffffff81111561359c5761359b61427a565b5b6135a884828501613390565b602083015250604082015167ffffffffffffffff8111156135cc576135cb61427a565b5b6135d884828501613390565b604083015250606082015167ffffffffffffffff8111156135fc576135fb61427a565b5b61360884828501613390565b606083015250608082015167ffffffffffffffff81111561362c5761362b61427a565b5b613638848285016133be565b60808301525060a082015167ffffffffffffffff81111561365c5761365b61427a565b5b613668848285016133be565b60a08301525060c061367c848285016136b1565b60c08301525060e0613690848285016136b1565b60e08301525092915050565b6000813590506136ab81614355565b92915050565b6000815190506136c081614355565b92915050565b6000602082840312156136dc576136db614289565b5b60006136ea8482850161337b565b91505092915050565b60006020828403121561370957613708614289565b5b600082015167ffffffffffffffff81111561372757613726614284565b5b613733848285016133be565b91505092915050565b60006020828403121561375257613751614289565b5b600082015167ffffffffffffffff8111156137705761376f614284565b5b61377c84828501613452565b91505092915050565b60006020828403121561379b5761379a614289565b5b60006137a98482850161369c565b91505092915050565b600080604083850312156137c9576137c8614289565b5b60006137d78582860161369c565b92505060206137e885828601613351565b9150509250929050565b6000806040838503121561380957613808614289565b5b60006138178582860161369c565b92505060206138288582860161369c565b9150509250929050565b600061383e8383613b9c565b905092915050565b61384f81614039565b82525050565b61385e81614039565b82525050565b600061386f82613f89565b6138798185613fac565b93508360208202850161388b85613f79565b8060005b858110156138c757848403895281516138a88582613832565b94506138b383613f9f565b925060208a0199505060018101905061388f565b50829750879550505050505092915050565b6138e28161404b565b82525050565b6138f18161404b565b82525050565b61390081614094565b82525050565b600061391182613f94565b61391b8185613fbd565b935061392b8185602086016140a6565b6139348161428e565b840191505092915050565b600061394c601183613fce565b91506139578261429f565b602082019050919050565b600061396f601e83613fce565b915061397a826142c8565b602082019050919050565b6000613992601b83613fce565b915061399d826142f1565b602082019050919050565b60006080830160008301516139c06000860182613dae565b5060208301516139d360208601826138f7565b5060408301516139e66040860182613846565b50606083015184820360608601526139fe8282613906565b9150508091505092915050565b6000608083016000830151613a236000860182613dae565b506020830151613a3660208601826138f7565b506040830151613a496040860182613846565b5060608301518482036060860152613a618282613906565b9150508091505092915050565b600060c083016000830151613a866000860182613dae565b5060208301518482036020860152613a9e82826139a8565b91505060408301518482036040860152613ab88282613906565b9150506060830151613acd6060860182613dae565b5060808301518482036080860152613ae58282613ce2565b91505060a0830151613afa60a0860182613dae565b508091505092915050565b600060c083016000830151613b1d6000860182613dae565b5060208301518482036020860152613b3582826139a8565b91505060408301518482036040860152613b4f8282613906565b9150506060830151613b646060860182613dae565b5060808301518482036080860152613b7c8282613ce2565b91505060a0830151613b9160a0860182613dae565b508091505092915050565b600060e083016000830151613bb46000860182613dae565b5060208301518482036020860152613bcc82826139a8565b9150506040830151613be16040860182613846565b5060608301518482036060860152613bf98282613a6e565b9150506080830151613c0e6080860182613dae565b5060a0830151613c2160a08601826138d9565b5060c0830151613c3460c0860182613dae565b508091505092915050565b600060e083016000830151613c576000860182613dae565b5060208301518482036020860152613c6f82826139a8565b9150506040830151613c846040860182613846565b5060608301518482036060860152613c9c8282613a6e565b9150506080830151613cb16080860182613dae565b5060a0830151613cc460a08601826138d9565b5060c0830151613cd760c0860182613dae565b508091505092915050565b600061010083016000830151613cfb6000860182613dae565b5060208301518482036020860152613d138282613906565b91505060408301518482036040860152613d2d8282613906565b91505060608301518482036060860152613d478282613906565b91505060808301518482036080860152613d6182826139a8565b91505060a083015184820360a0860152613d7b82826139a8565b91505060c0830151613d9060c0860182613dae565b5060e0830151613da360e0860182613dae565b508091505092915050565b613db78161408a565b82525050565b613dc68161408a565b82525050565b6000602082019050613de16000830184613855565b92915050565b60006020820190508181036000830152613e018184613864565b905092915050565b60006020820190508181036000830152613e228161393f565b9050919050565b60006020820190508181036000830152613e4281613962565b9050919050565b60006020820190508181036000830152613e6281613985565b9050919050565b60006020820190508181036000830152613e838184613c3f565b905092915050565b6000602082019050613ea06000830184613dbd565b92915050565b600060e082019050613ebb600083018a613dbd565b8181036020830152613ecd8189613a0b565b9050613edc6040830188613855565b8181036060830152613eee8187613b05565b9050613efd6080830186613dbd565b613f0a60a08301856138e8565b613f1760c0830184613dbd565b98975050505050505050565b6000613f2d613f3e565b9050613f39828261410b565b919050565b6000604051905090565b600067ffffffffffffffff821115613f6357613f62614241565b5b613f6c8261428e565b9050602081019050919050565b6000819050602082019050919050565b600081519050919050565b600081519050919050565b6000602082019050919050565b600082825260208201905092915050565b600082825260208201905092915050565b600082825260208201905092915050565b6000613fea8261408a565b9150613ff58361408a565b9250817fffffffffffffffffffffffffffffffffffffffffffffffffffffffffffffffff048311821515161561402e5761402d614185565b5b828202905092915050565b60006140448261406a565b9050919050565b60008115159050919050565b60008190506140658261431a565b919050565b600073ffffffffffffffffffffffffffffffffffffffff82169050919050565b6000819050919050565b600061409f82614057565b9050919050565b60005b838110156140c45780820151818401526020810190506140a9565b838111156140d3576000848401525b50505050565b600060028204905060018216806140f157607f821691505b60208210811415614105576141046141e3565b5b50919050565b6141148261428e565b810181811067ffffffffffffffff8211171561413357614132614241565b5b80604052505050565b60006141478261408a565b91507fffffffffffffffffffffffffffffffffffffffffffffffffffffffffffffffff82141561417a57614179614185565b5b600182019050919050565b7f4e487b7100000000000000000000000000000000000000000000000000000000600052601160045260246000fd5b7f4e487b7100000000000000000000000000000000000000000000000000000000600052602160045260246000fd5b7f4e487b7100000000000000000000000000000000000000000000000000000000600052602260045260246000fd5b7f4e487b7100000000000000000000000000000000000000000000000000000000600052603260045260246000fd5b7f4e487b7100000000000000000000000000000000000000000000000000000000600052604160045260246000fd5b600080fd5b600080fd5b600080fd5b600080fd5b600080fd5b600080fd5b6000601f19601f8301169050919050565b7f796f752061726520746865206f776e6572000000000000000000000000000000600082015250565b7f596f7520617265206e6f7420746865206d616e75666163747572657273210000600082015250565b7f696e73756666696369656e74207061796d656e7420616d6f756e740000000000600082015250565b6004811061432b5761432a6141b4565b5b50565b61433781614039565b811461434257600080fd5b50565b6004811061435257600080fd5b50565b61435e8161408a565b811461436957600080fd5b5056fea26469706673582212203efbd619c3f187c7b76f51597a2fe56128757f86213bcea0c6988b22f9c9841264736f6c63430008070033",
  "immutableReferences": {},
  "source": "// SPDX-License-Identifier: MIT\npragma solidity ^0.8.7;\n\nimport \"./CompanyRegistry.sol\";\nimport \"./DiamondRegistry.sol\";\n\ncontract JewelryShop {\n  struct Jewelry {\n    uint256 jewelryId;\n    CompanyRegistry.Company manufacturer;\n    address owner;\n    DiamondRegistry.Diamond diamond;\n    uint256 price;\n    bool beingSold;\n    uint256 designTime;\n  }\n\n  mapping(uint256 => Jewelry) public jewelryItems;\n  uint256 public jewelryCounts;\n\n  CompanyRegistry private companyRegistry;\n  DiamondRegistry private diamondRegistry;\n\n  constructor(address _companyRegistry, address _diamondRegistry) {\n    companyRegistry = CompanyRegistry(_companyRegistry);\n    diamondRegistry = DiamondRegistry(_diamondRegistry);\n  }\n\n  modifier onlyManufacturer() {\n    require(companyRegistry.getCompanyType(msg.sender) == CompanyRegistry.CompanyType.Manufacturer, \"You are not the manufacturers!\");\n    _;\n  }\n\n  function transferTo(uint256 _jewelryId, address _to) public {\n    require(jewelryItems[_jewelryId].owner == msg.sender);\n    require(jewelryItems[_jewelryId].beingSold == false);\n    jewelryItems[_jewelryId].owner = _to;\n    jewelryItems[_jewelryId].beingSold = false;\n  }\n\n  function getAllJewels() public view returns (Jewelry[] memory) {\n    Jewelry[] memory allJewels = new Jewelry[](jewelryCounts);\n    for (uint i = 0; i < jewelryCounts; i++) {\n      allJewels[i] = jewelryItems[i];\n    }\n    return allJewels;\n  }\n\n  function diamondDesigning(uint256 uniqueId, uint256 price) public onlyManufacturer {\n    // todo \n    Jewelry memory newJewelry;\n    newJewelry.diamond = diamondRegistry.getDiamond(uniqueId);\n    CompanyRegistry.Company memory manufacturer = companyRegistry.getCompany(msg.sender);\n    newJewelry.manufacturer = manufacturer;\n    newJewelry.owner = msg.sender;\n    newJewelry.price = price;\n    newJewelry.jewelryId = jewelryCounts;\n    newJewelry.beingSold = true;\n    newJewelry.designTime = block.timestamp;\n    jewelryItems[jewelryCounts++] = newJewelry;\n    \n  }\n\n  function jewelryPurchase(uint256 jewelryId) public payable {\n    // uint256 price = jewelryItems[jewelryId].price;\n    // require(msg.value == price);\n    require(jewelryItems[jewelryId].owner != msg.sender, \"you are the owner\");\n    require(msg.value == jewelryItems[jewelryId].price * 1 ether, \"insufficient payment amount\");\n    payable(jewelryItems[jewelryId].owner).transfer(jewelryItems[jewelryId].price * 1 ether);\n    jewelryItems[jewelryId].beingSold = false;\n    jewelryItems[jewelryId].owner = msg.sender;\n  }\n\n  function sell(uint256 jewelryId) public {\n    require(jewelryItems[jewelryId].owner == msg.sender);\n    jewelryItems[jewelryId].beingSold = true;\n  }\n\n  function getMyJewels() public view returns (Jewelry[] memory) {\n    uint256 count = 0;\n    for (uint256 i = 0; i < jewelryCounts; i++) {\n      if (jewelryItems[i].owner == msg.sender && jewelryItems[i].beingSold == false) {\n        count++;\n      }\n    }\n\n    Jewelry[] memory myJewels = new Jewelry[](count);\n    uint256 index = 0;\n    for (uint256 i = 0; i < jewelryCounts; i++) {\n      if (jewelryItems[i].owner == msg.sender && jewelryItems[i].beingSold == false) {\n        myJewels[index] = jewelryItems[i];\n        index++;\n      }\n    }\n\n    return myJewels;\n  }\n\n  function jewelryVerify(uint256 jewelryId) public view returns (Jewelry memory) {\n    return jewelryItems[jewelryId];\n  }\n}\n",
  "sourcePath": "/Users/huanghongbin/VsCodeProjests/tracing-luxury/src/contracts/JewelryShop.sol",
  "compiler": {
    "name": "solc",
    "version": "0.8.7+commit.e28d00a7.Emscripten.clang"
  },
  "schemaVersion": "3.4.16",
  "updatedAt": "2023-11-27T15:12:47.027Z",
  "networkType": "ethereum",
  "devdoc": {
    "kind": "dev",
    "methods": {},
    "version": 1
  },
  "userdoc": {
    "kind": "user",
    "methods": {},
    "version": 1
  }
}