{
  "contractName": "JewelryShop",
  "abi": [
    {
      "inputs": [
        {
          "internalType": "address",
          "name": "_companyRegistry",
          "type": "address"
        },
        {
          "internalType": "address",
          "name": "_diamondRegistry",
          "type": "address"
        }
      ],
      "stateMutability": "nonpayable",
      "type": "constructor"
    },
    {
      "inputs": [],
      "name": "jewelryCounts",
      "outputs": [
        {
          "internalType": "uint256",
          "name": "",
          "type": "uint256"
        }
      ],
      "stateMutability": "view",
      "type": "function",
      "constant": true
    },
    {
      "inputs": [
        {
          "internalType": "uint256",
          "name": "",
          "type": "uint256"
        }
      ],
      "name": "jewelryItems",
      "outputs": [
        {
          "internalType": "uint256",
          "name": "jewelryId",
          "type": "uint256"
        },
        {
          "components": [
            {
              "internalType": "uint256",
              "name": "companyId",
              "type": "uint256"
            },
            {
              "internalType": "enum CompanyRegistry.CompanyType",
              "name": "companyType",
              "type": "uint8"
            },
            {
              "internalType": "address",
              "name": "addr",
              "type": "address"
            },
            {
              "internalType": "string",
              "name": "companyName",
              "type": "string"
            }
          ],
          "internalType": "struct CompanyRegistry.Company",
          "name": "manufacturer",
          "type": "tuple"
        },
        {
          "internalType": "address",
          "name": "owner",
          "type": "address"
        },
        {
          "components": [
            {
              "internalType": "uint256",
              "name": "uniqueId",
              "type": "uint256"
            },
            {
              "components": [
                {
                  "internalType": "uint256",
                  "name": "companyId",
                  "type": "uint256"
                },
                {
                  "internalType": "enum CompanyRegistry.CompanyType",
                  "name": "companyType",
                  "type": "uint8"
                },
                {
                  "internalType": "address",
                  "name": "addr",
                  "type": "address"
                },
                {
                  "internalType": "string",
                  "name": "companyName",
                  "type": "string"
                }
              ],
              "internalType": "struct CompanyRegistry.Company",
              "name": "gradingLab",
              "type": "tuple"
            },
            {
              "internalType": "string",
              "name": "clarity",
              "type": "string"
            },
            {
              "internalType": "uint256",
              "name": "grade",
              "type": "uint256"
            },
            {
              "components": [
                {
                  "internalType": "uint256",
                  "name": "rawId",
                  "type": "uint256"
                },
                {
                  "internalType": "string",
                  "name": "rawDiamondName",
                  "type": "string"
                },
                {
                  "internalType": "string",
                  "name": "rawDiamondColor",
                  "type": "string"
                },
                {
                  "internalType": "string",
                  "name": "cuttingGrade",
                  "type": "string"
                },
                {
                  "components": [
                    {
                      "internalType": "uint256",
                      "name": "companyId",
                      "type": "uint256"
                    },
                    {
                      "internalType": "enum CompanyRegistry.CompanyType",
                      "name": "companyType",
                      "type": "uint8"
                    },
                    {
                      "internalType": "address",
                      "name": "addr",
                      "type": "address"
                    },
                    {
                      "internalType": "string",
                      "name": "companyName",
                      "type": "string"
                    }
                  ],
                  "internalType": "struct CompanyRegistry.Company",
                  "name": "miningCompany",
                  "type": "tuple"
                },
                {
                  "components": [
                    {
                      "internalType": "uint256",
                      "name": "companyId",
                      "type": "uint256"
                    },
                    {
                      "internalType": "enum CompanyRegistry.CompanyType",
                      "name": "companyType",
                      "type": "uint8"
                    },
                    {
                      "internalType": "address",
                      "name": "addr",
                      "type": "address"
                    },
                    {
                      "internalType": "string",
                      "name": "companyName",
                      "type": "string"
                    }
                  ],
                  "internalType": "struct CompanyRegistry.Company",
                  "name": "cuttingCompany",
                  "type": "tuple"
                }
              ],
              "internalType": "struct RawDiamondRegistry.RawDiamond",
              "name": "rawDiamond",
              "type": "tuple"
            }
          ],
          "internalType": "struct DiamondRegistry.Diamond",
          "name": "diamond",
          "type": "tuple"
        },
        {
          "internalType": "uint256",
          "name": "price",
          "type": "uint256"
        },
        {
          "internalType": "bool",
          "name": "beingSold",
          "type": "bool"
        }
      ],
      "stateMutability": "view",
      "type": "function",
      "constant": true
    },
    {
      "inputs": [
        {
          "internalType": "uint256",
          "name": "_jewelryId",
          "type": "uint256"
        },
        {
          "internalType": "address",
          "name": "_to",
          "type": "address"
        }
      ],
      "name": "transferTo",
      "outputs": [],
      "stateMutability": "nonpayable",
      "type": "function"
    },
    {
      "inputs": [],
      "name": "getAllJewels",
      "outputs": [
        {
          "components": [
            {
              "internalType": "uint256",
              "name": "jewelryId",
              "type": "uint256"
            },
            {
              "components": [
                {
                  "internalType": "uint256",
                  "name": "companyId",
                  "type": "uint256"
                },
                {
                  "internalType": "enum CompanyRegistry.CompanyType",
                  "name": "companyType",
                  "type": "uint8"
                },
                {
                  "internalType": "address",
                  "name": "addr",
                  "type": "address"
                },
                {
                  "internalType": "string",
                  "name": "companyName",
                  "type": "string"
                }
              ],
              "internalType": "struct CompanyRegistry.Company",
              "name": "manufacturer",
              "type": "tuple"
            },
            {
              "internalType": "address",
              "name": "owner",
              "type": "address"
            },
            {
              "components": [
                {
                  "internalType": "uint256",
                  "name": "uniqueId",
                  "type": "uint256"
                },
                {
                  "components": [
                    {
                      "internalType": "uint256",
                      "name": "companyId",
                      "type": "uint256"
                    },
                    {
                      "internalType": "enum CompanyRegistry.CompanyType",
                      "name": "companyType",
                      "type": "uint8"
                    },
                    {
                      "internalType": "address",
                      "name": "addr",
                      "type": "address"
                    },
                    {
                      "internalType": "string",
                      "name": "companyName",
                      "type": "string"
                    }
                  ],
                  "internalType": "struct CompanyRegistry.Company",
                  "name": "gradingLab",
                  "type": "tuple"
                },
                {
                  "internalType": "string",
                  "name": "clarity",
                  "type": "string"
                },
                {
                  "internalType": "uint256",
                  "name": "grade",
                  "type": "uint256"
                },
                {
                  "components": [
                    {
                      "internalType": "uint256",
                      "name": "rawId",
                      "type": "uint256"
                    },
                    {
                      "internalType": "string",
                      "name": "rawDiamondName",
                      "type": "string"
                    },
                    {
                      "internalType": "string",
                      "name": "rawDiamondColor",
                      "type": "string"
                    },
                    {
                      "internalType": "string",
                      "name": "cuttingGrade",
                      "type": "string"
                    },
                    {
                      "components": [
                        {
                          "internalType": "uint256",
                          "name": "companyId",
                          "type": "uint256"
                        },
                        {
                          "internalType": "enum CompanyRegistry.CompanyType",
                          "name": "companyType",
                          "type": "uint8"
                        },
                        {
                          "internalType": "address",
                          "name": "addr",
                          "type": "address"
                        },
                        {
                          "internalType": "string",
                          "name": "companyName",
                          "type": "string"
                        }
                      ],
                      "internalType": "struct CompanyRegistry.Company",
                      "name": "miningCompany",
                      "type": "tuple"
                    },
                    {
                      "components": [
                        {
                          "internalType": "uint256",
                          "name": "companyId",
                          "type": "uint256"
                        },
                        {
                          "internalType": "enum CompanyRegistry.CompanyType",
                          "name": "companyType",
                          "type": "uint8"
                        },
                        {
                          "internalType": "address",
                          "name": "addr",
                          "type": "address"
                        },
                        {
                          "internalType": "string",
                          "name": "companyName",
                          "type": "string"
                        }
                      ],
                      "internalType": "struct CompanyRegistry.Company",
                      "name": "cuttingCompany",
                      "type": "tuple"
                    }
                  ],
                  "internalType": "struct RawDiamondRegistry.RawDiamond",
                  "name": "rawDiamond",
                  "type": "tuple"
                }
              ],
              "internalType": "struct DiamondRegistry.Diamond",
              "name": "diamond",
              "type": "tuple"
            },
            {
              "internalType": "uint256",
              "name": "price",
              "type": "uint256"
            },
            {
              "internalType": "bool",
              "name": "beingSold",
              "type": "bool"
            }
          ],
          "internalType": "struct JewelryShop.Jewelry[]",
          "name": "",
          "type": "tuple[]"
        }
      ],
      "stateMutability": "view",
      "type": "function",
      "constant": true
    },
    {
      "inputs": [
        {
          "internalType": "uint256",
          "name": "uniqueId",
          "type": "uint256"
        },
        {
          "internalType": "uint256",
          "name": "price",
          "type": "uint256"
        }
      ],
      "name": "diamondDesigning",
      "outputs": [],
      "stateMutability": "nonpayable",
      "type": "function"
    },
    {
      "inputs": [
        {
          "internalType": "uint256",
          "name": "jewelryId",
          "type": "uint256"
        }
      ],
      "name": "jewelryPurchase",
      "outputs": [],
      "stateMutability": "payable",
      "type": "function",
      "payable": true
    },
    {
      "inputs": [
        {
          "internalType": "uint256",
          "name": "jewelryId",
          "type": "uint256"
        }
      ],
      "name": "sell",
      "outputs": [],
      "stateMutability": "nonpayable",
      "type": "function"
    },
    {
      "inputs": [],
      "name": "getMyJewels",
      "outputs": [
        {
          "components": [
            {
              "internalType": "uint256",
              "name": "jewelryId",
              "type": "uint256"
            },
            {
              "components": [
                {
                  "internalType": "uint256",
                  "name": "companyId",
                  "type": "uint256"
                },
                {
                  "internalType": "enum CompanyRegistry.CompanyType",
                  "name": "companyType",
                  "type": "uint8"
                },
                {
                  "internalType": "address",
                  "name": "addr",
                  "type": "address"
                },
                {
                  "internalType": "string",
                  "name": "companyName",
                  "type": "string"
                }
              ],
              "internalType": "struct CompanyRegistry.Company",
              "name": "manufacturer",
              "type": "tuple"
            },
            {
              "internalType": "address",
              "name": "owner",
              "type": "address"
            },
            {
              "components": [
                {
                  "internalType": "uint256",
                  "name": "uniqueId",
                  "type": "uint256"
                },
                {
                  "components": [
                    {
                      "internalType": "uint256",
                      "name": "companyId",
                      "type": "uint256"
                    },
                    {
                      "internalType": "enum CompanyRegistry.CompanyType",
                      "name": "companyType",
                      "type": "uint8"
                    },
                    {
                      "internalType": "address",
                      "name": "addr",
                      "type": "address"
                    },
                    {
                      "internalType": "string",
                      "name": "companyName",
                      "type": "string"
                    }
                  ],
                  "internalType": "struct CompanyRegistry.Company",
                  "name": "gradingLab",
                  "type": "tuple"
                },
                {
                  "internalType": "string",
                  "name": "clarity",
                  "type": "string"
                },
                {
                  "internalType": "uint256",
                  "name": "grade",
                  "type": "uint256"
                },
                {
                  "components": [
                    {
                      "internalType": "uint256",
                      "name": "rawId",
                      "type": "uint256"
                    },
                    {
                      "internalType": "string",
                      "name": "rawDiamondName",
                      "type": "string"
                    },
                    {
                      "internalType": "string",
                      "name": "rawDiamondColor",
                      "type": "string"
                    },
                    {
                      "internalType": "string",
                      "name": "cuttingGrade",
                      "type": "string"
                    },
                    {
                      "components": [
                        {
                          "internalType": "uint256",
                          "name": "companyId",
                          "type": "uint256"
                        },
                        {
                          "internalType": "enum CompanyRegistry.CompanyType",
                          "name": "companyType",
                          "type": "uint8"
                        },
                        {
                          "internalType": "address",
                          "name": "addr",
                          "type": "address"
                        },
                        {
                          "internalType": "string",
                          "name": "companyName",
                          "type": "string"
                        }
                      ],
                      "internalType": "struct CompanyRegistry.Company",
                      "name": "miningCompany",
                      "type": "tuple"
                    },
                    {
                      "components": [
                        {
                          "internalType": "uint256",
                          "name": "companyId",
                          "type": "uint256"
                        },
                        {
                          "internalType": "enum CompanyRegistry.CompanyType",
                          "name": "companyType",
                          "type": "uint8"
                        },
                        {
                          "internalType": "address",
                          "name": "addr",
                          "type": "address"
                        },
                        {
                          "internalType": "string",
                          "name": "companyName",
                          "type": "string"
                        }
                      ],
                      "internalType": "struct CompanyRegistry.Company",
                      "name": "cuttingCompany",
                      "type": "tuple"
                    }
                  ],
                  "internalType": "struct RawDiamondRegistry.RawDiamond",
                  "name": "rawDiamond",
                  "type": "tuple"
                }
              ],
              "internalType": "struct DiamondRegistry.Diamond",
              "name": "diamond",
              "type": "tuple"
            },
            {
              "internalType": "uint256",
              "name": "price",
              "type": "uint256"
            },
            {
              "internalType": "bool",
              "name": "beingSold",
              "type": "bool"
            }
          ],
          "internalType": "struct JewelryShop.Jewelry[]",
          "name": "",
          "type": "tuple[]"
        }
      ],
      "stateMutability": "view",
      "type": "function",
      "constant": true
    },
    {
      "inputs": [
        {
          "internalType": "uint256",
          "name": "jewelryId",
          "type": "uint256"
        }
      ],
      "name": "jewelryVerify",
      "outputs": [
        {
          "components": [
            {
              "internalType": "uint256",
              "name": "jewelryId",
              "type": "uint256"
            },
            {
              "components": [
                {
                  "internalType": "uint256",
                  "name": "companyId",
                  "type": "uint256"
                },
                {
                  "internalType": "enum CompanyRegistry.CompanyType",
                  "name": "companyType",
                  "type": "uint8"
                },
                {
                  "internalType": "address",
                  "name": "addr",
                  "type": "address"
                },
                {
                  "internalType": "string",
                  "name": "companyName",
                  "type": "string"
                }
              ],
              "internalType": "struct CompanyRegistry.Company",
              "name": "manufacturer",
              "type": "tuple"
            },
            {
              "internalType": "address",
              "name": "owner",
              "type": "address"
            },
            {
              "components": [
                {
                  "internalType": "uint256",
                  "name": "uniqueId",
                  "type": "uint256"
                },
                {
                  "components": [
                    {
                      "internalType": "uint256",
                      "name": "companyId",
                      "type": "uint256"
                    },
                    {
                      "internalType": "enum CompanyRegistry.CompanyType",
                      "name": "companyType",
                      "type": "uint8"
                    },
                    {
                      "internalType": "address",
                      "name": "addr",
                      "type": "address"
                    },
                    {
                      "internalType": "string",
                      "name": "companyName",
                      "type": "string"
                    }
                  ],
                  "internalType": "struct CompanyRegistry.Company",
                  "name": "gradingLab",
                  "type": "tuple"
                },
                {
                  "internalType": "string",
                  "name": "clarity",
                  "type": "string"
                },
                {
                  "internalType": "uint256",
                  "name": "grade",
                  "type": "uint256"
                },
                {
                  "components": [
                    {
                      "internalType": "uint256",
                      "name": "rawId",
                      "type": "uint256"
                    },
                    {
                      "internalType": "string",
                      "name": "rawDiamondName",
                      "type": "string"
                    },
                    {
                      "internalType": "string",
                      "name": "rawDiamondColor",
                      "type": "string"
                    },
                    {
                      "internalType": "string",
                      "name": "cuttingGrade",
                      "type": "string"
                    },
                    {
                      "components": [
                        {
                          "internalType": "uint256",
                          "name": "companyId",
                          "type": "uint256"
                        },
                        {
                          "internalType": "enum CompanyRegistry.CompanyType",
                          "name": "companyType",
                          "type": "uint8"
                        },
                        {
                          "internalType": "address",
                          "name": "addr",
                          "type": "address"
                        },
                        {
                          "internalType": "string",
                          "name": "companyName",
                          "type": "string"
                        }
                      ],
                      "internalType": "struct CompanyRegistry.Company",
                      "name": "miningCompany",
                      "type": "tuple"
                    },
                    {
                      "components": [
                        {
                          "internalType": "uint256",
                          "name": "companyId",
                          "type": "uint256"
                        },
                        {
                          "internalType": "enum CompanyRegistry.CompanyType",
                          "name": "companyType",
                          "type": "uint8"
                        },
                        {
                          "internalType": "address",
                          "name": "addr",
                          "type": "address"
                        },
                        {
                          "internalType": "string",
                          "name": "companyName",
                          "type": "string"
                        }
                      ],
                      "internalType": "struct CompanyRegistry.Company",
                      "name": "cuttingCompany",
                      "type": "tuple"
                    }
                  ],
                  "internalType": "struct RawDiamondRegistry.RawDiamond",
                  "name": "rawDiamond",
                  "type": "tuple"
                }
              ],
              "internalType": "struct DiamondRegistry.Diamond",
              "name": "diamond",
              "type": "tuple"
            },
            {
              "internalType": "uint256",
              "name": "price",
              "type": "uint256"
            },
            {
              "internalType": "bool",
              "name": "beingSold",
              "type": "bool"
            }
          ],
          "internalType": "struct JewelryShop.Jewelry",
          "name": "",
          "type": "tuple"
        }
      ],
      "stateMutability": "view",
      "type": "function",
      "constant": true
    }
  ],
  "bytecode": "0x60806040523480156200001157600080fd5b5060405162004375380380620043758339818101604052810190620000379190620000d8565b81600260006101000a81548173ffffffffffffffffffffffffffffffffffffffff021916908373ffffffffffffffffffffffffffffffffffffffff16021790555080600360006101000a81548173ffffffffffffffffffffffffffffffffffffffff021916908373ffffffffffffffffffffffffffffffffffffffff160217905550505062000172565b600081519050620000d28162000158565b92915050565b60008060408385031215620000f257620000f162000153565b5b60006200010285828601620000c1565b92505060206200011585828601620000c1565b9150509250929050565b60006200012c8262000133565b9050919050565b600073ffffffffffffffffffffffffffffffffffffffff82169050919050565b600080fd5b62000163816200011f565b81146200016f57600080fd5b50565b6141f380620001826000396000f3fe6080604052600436106100865760003560e01c80638e1f2999116100595780638e1f2999146101355780639cf4dc7014610151578063a23fb7ae1461018e578063d4822fbf146101d0578063e4849b32146101f957610086565b80631648f1e51461008b578063365db402146100b65780634974275c146100e15780637bb87bb31461010c575b600080fd5b34801561009757600080fd5b506100a0610222565b6040516100ad9190613c46565b60405180910390f35b3480156100c257600080fd5b506100cb610c6f565b6040516100d89190613cea565b60405180910390f35b3480156100ed57600080fd5b506100f6610c75565b6040516101039190613c46565b60405180910390f35b34801561011857600080fd5b50610133600480360381019061012e91906136c4565b61154b565b005b61014f600480360381019061014a9190613657565b611c30565b005b34801561015d57600080fd5b5061017860048036038101906101739190613657565b611e67565b6040516101859190613cc8565b60405180910390f35b34801561019a57600080fd5b506101b560048036038101906101b09190613657565b6126aa565b6040516101c796959493929190613d05565b60405180910390f35b3480156101dc57600080fd5b506101f760048036038101906101f29190613684565b612e91565b005b34801561020557600080fd5b50610220600480360381019061021b9190613657565b612fb7565b005b60606000805b6001548110156102ef573373ffffffffffffffffffffffffffffffffffffffff1660008083815260200190815260200160002060040160009054906101000a900473ffffffffffffffffffffffffffffffffffffffff1673ffffffffffffffffffffffffffffffffffffffff161480156102c857506000151560008083815260200190815260200160002060160160009054906101000a900460ff161515145b156102dc5781806102d890613f8d565b9250505b80806102e790613f8d565b915050610228565b5060008167ffffffffffffffff81111561030c5761030b614092565b5b60405190808252806020026020018201604052801561034557816020015b610332613055565b81526020019060019003908161032a5790505b5090506000805b600154811015610c65573373ffffffffffffffffffffffffffffffffffffffff1660008083815260200190815260200160002060040160009054906101000a900473ffffffffffffffffffffffffffffffffffffffff1673ffffffffffffffffffffffffffffffffffffffff161480156103ec57506000151560008083815260200190815260200160002060160160009054906101000a900460ff161515145b15610c52576000808281526020019081526020016000206040518060c00160405290816000820154815260200160018201604051806080016040529081600082015481526020016001820160009054906101000a900460ff16600381111561045757610456614005565b5b600381111561046957610468614005565b5b81526020016001820160019054906101000a900473ffffffffffffffffffffffffffffffffffffffff1673ffffffffffffffffffffffffffffffffffffffff1673ffffffffffffffffffffffffffffffffffffffff1681526020016002820180546104d390613f2a565b80601f01602080910402602001604051908101604052809291908181526020018280546104ff90613f2a565b801561054c5780601f106105215761010080835404028352916020019161054c565b820191906000526020600020905b81548152906001019060200180831161052f57829003601f168201915b50505050508152505081526020016004820160009054906101000a900473ffffffffffffffffffffffffffffffffffffffff1673ffffffffffffffffffffffffffffffffffffffff1673ffffffffffffffffffffffffffffffffffffffff168152602001600582016040518060a00160405290816000820154815260200160018201604051806080016040529081600082015481526020016001820160009054906101000a900460ff16600381111561060857610607614005565b5b600381111561061a57610619614005565b5b81526020016001820160019054906101000a900473ffffffffffffffffffffffffffffffffffffffff1673ffffffffffffffffffffffffffffffffffffffff1673ffffffffffffffffffffffffffffffffffffffff16815260200160028201805461068490613f2a565b80601f01602080910402602001604051908101604052809291908181526020018280546106b090613f2a565b80156106fd5780601f106106d2576101008083540402835291602001916106fd565b820191906000526020600020905b8154815290600101906020018083116106e057829003601f168201915b505050505081525050815260200160048201805461071a90613f2a565b80601f016020809104026020016040519081016040528092919081815260200182805461074690613f2a565b80156107935780601f1061076857610100808354040283529160200191610793565b820191906000526020600020905b81548152906001019060200180831161077657829003601f168201915b5050505050815260200160058201548152602001600682016040518060c0016040529081600082015481526020016001820180546107d090613f2a565b80601f01602080910402602001604051908101604052809291908181526020018280546107fc90613f2a565b80156108495780601f1061081e57610100808354040283529160200191610849565b820191906000526020600020905b81548152906001019060200180831161082c57829003601f168201915b5050505050815260200160028201805461086290613f2a565b80601f016020809104026020016040519081016040528092919081815260200182805461088e90613f2a565b80156108db5780601f106108b0576101008083540402835291602001916108db565b820191906000526020600020905b8154815290600101906020018083116108be57829003601f168201915b505050505081526020016003820180546108f490613f2a565b80601f016020809104026020016040519081016040528092919081815260200182805461092090613f2a565b801561096d5780601f106109425761010080835404028352916020019161096d565b820191906000526020600020905b81548152906001019060200180831161095057829003601f168201915b5050505050815260200160048201604051806080016040529081600082015481526020016001820160009054906101000a900460ff1660038111156109b5576109b4614005565b5b60038111156109c7576109c6614005565b5b81526020016001820160019054906101000a900473ffffffffffffffffffffffffffffffffffffffff1673ffffffffffffffffffffffffffffffffffffffff1673ffffffffffffffffffffffffffffffffffffffff168152602001600282018054610a3190613f2a565b80601f0160208091040260200160405190810160405280929190818152602001828054610a5d90613f2a565b8015610aaa5780601f10610a7f57610100808354040283529160200191610aaa565b820191906000526020600020905b815481529060010190602001808311610a8d57829003601f168201915b505050505081525050815260200160078201604051806080016040529081600082015481526020016001820160009054906101000a900460ff166003811115610af657610af5614005565b5b6003811115610b0857610b07614005565b5b81526020016001820160019054906101000a900473ffffffffffffffffffffffffffffffffffffffff1673ffffffffffffffffffffffffffffffffffffffff1673ffffffffffffffffffffffffffffffffffffffff168152602001600282018054610b7290613f2a565b80601f0160208091040260200160405190810160405280929190818152602001828054610b9e90613f2a565b8015610beb5780601f10610bc057610100808354040283529160200191610beb565b820191906000526020600020905b815481529060010190602001808311610bce57829003601f168201915b50505050508152505081525050815250508152602001601582015481526020016016820160009054906101000a900460ff161515151581525050838381518110610c3857610c37614063565b5b60200260200101819052508180610c4e90613f8d565b9250505b8080610c5d90613f8d565b91505061034c565b5081935050505090565b60015481565b6060600060015467ffffffffffffffff811115610c9557610c94614092565b5b604051908082528060200260200182016040528015610cce57816020015b610cbb613055565b815260200190600190039081610cb35790505b50905060005b600154811015611543576000808281526020019081526020016000206040518060c00160405290816000820154815260200160018201604051806080016040529081600082015481526020016001820160009054906101000a900460ff166003811115610d4457610d43614005565b5b6003811115610d5657610d55614005565b5b81526020016001820160019054906101000a900473ffffffffffffffffffffffffffffffffffffffff1673ffffffffffffffffffffffffffffffffffffffff1673ffffffffffffffffffffffffffffffffffffffff168152602001600282018054610dc090613f2a565b80601f0160208091040260200160405190810160405280929190818152602001828054610dec90613f2a565b8015610e395780601f10610e0e57610100808354040283529160200191610e39565b820191906000526020600020905b815481529060010190602001808311610e1c57829003601f168201915b50505050508152505081526020016004820160009054906101000a900473ffffffffffffffffffffffffffffffffffffffff1673ffffffffffffffffffffffffffffffffffffffff1673ffffffffffffffffffffffffffffffffffffffff168152602001600582016040518060a00160405290816000820154815260200160018201604051806080016040529081600082015481526020016001820160009054906101000a900460ff166003811115610ef557610ef4614005565b5b6003811115610f0757610f06614005565b5b81526020016001820160019054906101000a900473ffffffffffffffffffffffffffffffffffffffff1673ffffffffffffffffffffffffffffffffffffffff1673ffffffffffffffffffffffffffffffffffffffff168152602001600282018054610f7190613f2a565b80601f0160208091040260200160405190810160405280929190818152602001828054610f9d90613f2a565b8015610fea5780601f10610fbf57610100808354040283529160200191610fea565b820191906000526020600020905b815481529060010190602001808311610fcd57829003601f168201915b505050505081525050815260200160048201805461100790613f2a565b80601f016020809104026020016040519081016040528092919081815260200182805461103390613f2a565b80156110805780601f1061105557610100808354040283529160200191611080565b820191906000526020600020905b81548152906001019060200180831161106357829003601f168201915b5050505050815260200160058201548152602001600682016040518060c0016040529081600082015481526020016001820180546110bd90613f2a565b80601f01602080910402602001604051908101604052809291908181526020018280546110e990613f2a565b80156111365780601f1061110b57610100808354040283529160200191611136565b820191906000526020600020905b81548152906001019060200180831161111957829003601f168201915b5050505050815260200160028201805461114f90613f2a565b80601f016020809104026020016040519081016040528092919081815260200182805461117b90613f2a565b80156111c85780601f1061119d576101008083540402835291602001916111c8565b820191906000526020600020905b8154815290600101906020018083116111ab57829003601f168201915b505050505081526020016003820180546111e190613f2a565b80601f016020809104026020016040519081016040528092919081815260200182805461120d90613f2a565b801561125a5780601f1061122f5761010080835404028352916020019161125a565b820191906000526020600020905b81548152906001019060200180831161123d57829003601f168201915b5050505050815260200160048201604051806080016040529081600082015481526020016001820160009054906101000a900460ff1660038111156112a2576112a1614005565b5b60038111156112b4576112b3614005565b5b81526020016001820160019054906101000a900473ffffffffffffffffffffffffffffffffffffffff1673ffffffffffffffffffffffffffffffffffffffff1673ffffffffffffffffffffffffffffffffffffffff16815260200160028201805461131e90613f2a565b80601f016020809104026020016040519081016040528092919081815260200182805461134a90613f2a565b80156113975780601f1061136c57610100808354040283529160200191611397565b820191906000526020600020905b81548152906001019060200180831161137a57829003601f168201915b505050505081525050815260200160078201604051806080016040529081600082015481526020016001820160009054906101000a900460ff1660038111156113e3576113e2614005565b5b60038111156113f5576113f4614005565b5b81526020016001820160019054906101000a900473ffffffffffffffffffffffffffffffffffffffff1673ffffffffffffffffffffffffffffffffffffffff1673ffffffffffffffffffffffffffffffffffffffff16815260200160028201805461145f90613f2a565b80601f016020809104026020016040519081016040528092919081815260200182805461148b90613f2a565b80156114d85780601f106114ad576101008083540402835291602001916114d8565b820191906000526020600020905b8154815290600101906020018083116114bb57829003601f168201915b50505050508152505081525050815250508152602001601582015481526020016016820160009054906101000a900460ff16151515158152505082828151811061152557611524614063565b5b6020026020010181905250808061153b90613f8d565b915050610cd4565b508091505090565b60038081111561155e5761155d614005565b5b600260009054906101000a900473ffffffffffffffffffffffffffffffffffffffff1673ffffffffffffffffffffffffffffffffffffffff1663097bcc1a336040518263ffffffff1660e01b81526004016115b99190613c2b565b60206040518083038186803b1580156115d157600080fd5b505afa1580156115e5573d6000803e3d6000fd5b505050506040513d601f19601f820116820180604052508101906116099190613598565b600381111561161b5761161a614005565b5b1461165b576040517f08c379a000000000000000000000000000000000000000000000000000000000815260040161165290613c88565b60405180910390fd5b611663613055565b600360009054906101000a900473ffffffffffffffffffffffffffffffffffffffff1673ffffffffffffffffffffffffffffffffffffffff1663e3ed14db846040518263ffffffff1660e01b81526004016116be9190613cea565b60006040518083038186803b1580156116d657600080fd5b505afa1580156116ea573d6000803e3d6000fd5b505050506040513d6000823e3d601f19601f82011682018060405250810190611713919061360e565b81606001819052506000600260009054906101000a900473ffffffffffffffffffffffffffffffffffffffff1673ffffffffffffffffffffffffffffffffffffffff166362bc56e6336040518263ffffffff1660e01b81526004016117789190613c2b565b60006040518083038186803b15801561179057600080fd5b505afa1580156117a4573d6000803e3d6000fd5b505050506040513d6000823e3d601f19601f820116820180604052508101906117cd91906135c5565b905080826020018190525033826040019073ffffffffffffffffffffffffffffffffffffffff16908173ffffffffffffffffffffffffffffffffffffffff16815250508282608001818152505060015482600001818152505060018260a0019015159081151581525050816000806001600081548092919061184e90613f8d565b919050558152602001908152602001600020600082015181600001556020820151816001016000820151816000015560208201518160010160006101000a81548160ff021916908360038111156118a8576118a7614005565b5b021790555060408201518160010160016101000a81548173ffffffffffffffffffffffffffffffffffffffff021916908373ffffffffffffffffffffffffffffffffffffffff16021790555060608201518160020190805190602001906119109291906130af565b50505060408201518160040160006101000a81548173ffffffffffffffffffffffffffffffffffffffff021916908373ffffffffffffffffffffffffffffffffffffffff160217905550606082015181600501600082015181600001556020820151816001016000820151816000015560208201518160010160006101000a81548160ff021916908360038111156119ab576119aa614005565b5b021790555060408201518160010160016101000a81548173ffffffffffffffffffffffffffffffffffffffff021916908373ffffffffffffffffffffffffffffffffffffffff1602179055506060820151816002019080519060200190611a139291906130af565b5050506040820151816004019080519060200190611a329291906130af565b5060608201518160050155608082015181600601600082015181600001556020820151816001019080519060200190611a6c9291906130af565b506040820151816002019080519060200190611a899291906130af565b506060820151816003019080519060200190611aa69291906130af565b506080820151816004016000820151816000015560208201518160010160006101000a81548160ff02191690836003811115611ae557611ae4614005565b5b021790555060408201518160010160016101000a81548173ffffffffffffffffffffffffffffffffffffffff021916908373ffffffffffffffffffffffffffffffffffffffff1602179055506060820151816002019080519060200190611b4d9291906130af565b50505060a0820151816007016000820151816000015560208201518160010160006101000a81548160ff02191690836003811115611b8e57611b8d614005565b5b021790555060408201518160010160016101000a81548173ffffffffffffffffffffffffffffffffffffffff021916908373ffffffffffffffffffffffffffffffffffffffff1602179055506060820151816002019080519060200190611bf69291906130af565b505050505050506080820151816015015560a08201518160160160006101000a81548160ff02191690831515021790555090505050505050565b3373ffffffffffffffffffffffffffffffffffffffff1660008083815260200190815260200160002060040160009054906101000a900473ffffffffffffffffffffffffffffffffffffffff1673ffffffffffffffffffffffffffffffffffffffff161415611cd4576040517f08c379a0000000000000000000000000000000000000000000000000000000008152600401611ccb90613c68565b60405180910390fd5b670de0b6b3a764000060008083815260200190815260200160002060150154611cfd9190613e30565b3414611d3e576040517f08c379a0000000000000000000000000000000000000000000000000000000008152600401611d3590613ca8565b60405180910390fd5b60008082815260200190815260200160002060040160009054906101000a900473ffffffffffffffffffffffffffffffffffffffff1673ffffffffffffffffffffffffffffffffffffffff166108fc670de0b6b3a764000060008085815260200190815260200160002060150154611db69190613e30565b9081150290604051600060405180830381858888f19350505050158015611de1573d6000803e3d6000fd5b50600080600083815260200190815260200160002060160160006101000a81548160ff0219169083151502179055503360008083815260200190815260200160002060040160006101000a81548173ffffffffffffffffffffffffffffffffffffffff021916908373ffffffffffffffffffffffffffffffffffffffff16021790555050565b611e6f613055565b6000808381526020019081526020016000206040518060c00160405290816000820154815260200160018201604051806080016040529081600082015481526020016001820160009054906101000a900460ff166003811115611ed557611ed4614005565b5b6003811115611ee757611ee6614005565b5b81526020016001820160019054906101000a900473ffffffffffffffffffffffffffffffffffffffff1673ffffffffffffffffffffffffffffffffffffffff1673ffffffffffffffffffffffffffffffffffffffff168152602001600282018054611f5190613f2a565b80601f0160208091040260200160405190810160405280929190818152602001828054611f7d90613f2a565b8015611fca5780601f10611f9f57610100808354040283529160200191611fca565b820191906000526020600020905b815481529060010190602001808311611fad57829003601f168201915b50505050508152505081526020016004820160009054906101000a900473ffffffffffffffffffffffffffffffffffffffff1673ffffffffffffffffffffffffffffffffffffffff1673ffffffffffffffffffffffffffffffffffffffff168152602001600582016040518060a00160405290816000820154815260200160018201604051806080016040529081600082015481526020016001820160009054906101000a900460ff16600381111561208657612085614005565b5b600381111561209857612097614005565b5b81526020016001820160019054906101000a900473ffffffffffffffffffffffffffffffffffffffff1673ffffffffffffffffffffffffffffffffffffffff1673ffffffffffffffffffffffffffffffffffffffff16815260200160028201805461210290613f2a565b80601f016020809104026020016040519081016040528092919081815260200182805461212e90613f2a565b801561217b5780601f106121505761010080835404028352916020019161217b565b820191906000526020600020905b81548152906001019060200180831161215e57829003601f168201915b505050505081525050815260200160048201805461219890613f2a565b80601f01602080910402602001604051908101604052809291908181526020018280546121c490613f2a565b80156122115780601f106121e657610100808354040283529160200191612211565b820191906000526020600020905b8154815290600101906020018083116121f457829003601f168201915b5050505050815260200160058201548152602001600682016040518060c00160405290816000820154815260200160018201805461224e90613f2a565b80601f016020809104026020016040519081016040528092919081815260200182805461227a90613f2a565b80156122c75780601f1061229c576101008083540402835291602001916122c7565b820191906000526020600020905b8154815290600101906020018083116122aa57829003601f168201915b505050505081526020016002820180546122e090613f2a565b80601f016020809104026020016040519081016040528092919081815260200182805461230c90613f2a565b80156123595780601f1061232e57610100808354040283529160200191612359565b820191906000526020600020905b81548152906001019060200180831161233c57829003601f168201915b5050505050815260200160038201805461237290613f2a565b80601f016020809104026020016040519081016040528092919081815260200182805461239e90613f2a565b80156123eb5780601f106123c0576101008083540402835291602001916123eb565b820191906000526020600020905b8154815290600101906020018083116123ce57829003601f168201915b5050505050815260200160048201604051806080016040529081600082015481526020016001820160009054906101000a900460ff16600381111561243357612432614005565b5b600381111561244557612444614005565b5b81526020016001820160019054906101000a900473ffffffffffffffffffffffffffffffffffffffff1673ffffffffffffffffffffffffffffffffffffffff1673ffffffffffffffffffffffffffffffffffffffff1681526020016002820180546124af90613f2a565b80601f01602080910402602001604051908101604052809291908181526020018280546124db90613f2a565b80156125285780601f106124fd57610100808354040283529160200191612528565b820191906000526020600020905b81548152906001019060200180831161250b57829003601f168201915b505050505081525050815260200160078201604051806080016040529081600082015481526020016001820160009054906101000a900460ff16600381111561257457612573614005565b5b600381111561258657612585614005565b5b81526020016001820160019054906101000a900473ffffffffffffffffffffffffffffffffffffffff1673ffffffffffffffffffffffffffffffffffffffff1673ffffffffffffffffffffffffffffffffffffffff1681526020016002820180546125f090613f2a565b80601f016020809104026020016040519081016040528092919081815260200182805461261c90613f2a565b80156126695780601f1061263e57610100808354040283529160200191612669565b820191906000526020600020905b81548152906001019060200180831161264c57829003601f168201915b50505050508152505081525050815250508152602001601582015481526020016016820160009054906101000a900460ff1615151515815250509050919050565b600060205280600052604060002060009150905080600001549080600101604051806080016040529081600082015481526020016001820160009054906101000a900460ff16600381111561270257612701614005565b5b600381111561271457612713614005565b5b81526020016001820160019054906101000a900473ffffffffffffffffffffffffffffffffffffffff1673ffffffffffffffffffffffffffffffffffffffff1673ffffffffffffffffffffffffffffffffffffffff16815260200160028201805461277e90613f2a565b80601f01602080910402602001604051908101604052809291908181526020018280546127aa90613f2a565b80156127f75780601f106127cc576101008083540402835291602001916127f7565b820191906000526020600020905b8154815290600101906020018083116127da57829003601f168201915b505050505081525050908060040160009054906101000a900473ffffffffffffffffffffffffffffffffffffffff1690806005016040518060a00160405290816000820154815260200160018201604051806080016040529081600082015481526020016001820160009054906101000a900460ff16600381111561287f5761287e614005565b5b600381111561289157612890614005565b5b81526020016001820160019054906101000a900473ffffffffffffffffffffffffffffffffffffffff1673ffffffffffffffffffffffffffffffffffffffff1673ffffffffffffffffffffffffffffffffffffffff1681526020016002820180546128fb90613f2a565b80601f016020809104026020016040519081016040528092919081815260200182805461292790613f2a565b80156129745780601f1061294957610100808354040283529160200191612974565b820191906000526020600020905b81548152906001019060200180831161295757829003601f168201915b505050505081525050815260200160048201805461299190613f2a565b80601f01602080910402602001604051908101604052809291908181526020018280546129bd90613f2a565b8015612a0a5780601f106129df57610100808354040283529160200191612a0a565b820191906000526020600020905b8154815290600101906020018083116129ed57829003601f168201915b5050505050815260200160058201548152602001600682016040518060c001604052908160008201548152602001600182018054612a4790613f2a565b80601f0160208091040260200160405190810160405280929190818152602001828054612a7390613f2a565b8015612ac05780601f10612a9557610100808354040283529160200191612ac0565b820191906000526020600020905b815481529060010190602001808311612aa357829003601f168201915b50505050508152602001600282018054612ad990613f2a565b80601f0160208091040260200160405190810160405280929190818152602001828054612b0590613f2a565b8015612b525780601f10612b2757610100808354040283529160200191612b52565b820191906000526020600020905b815481529060010190602001808311612b3557829003601f168201915b50505050508152602001600382018054612b6b90613f2a565b80601f0160208091040260200160405190810160405280929190818152602001828054612b9790613f2a565b8015612be45780601f10612bb957610100808354040283529160200191612be4565b820191906000526020600020905b815481529060010190602001808311612bc757829003601f168201915b5050505050815260200160048201604051806080016040529081600082015481526020016001820160009054906101000a900460ff166003811115612c2c57612c2b614005565b5b6003811115612c3e57612c3d614005565b5b81526020016001820160019054906101000a900473ffffffffffffffffffffffffffffffffffffffff1673ffffffffffffffffffffffffffffffffffffffff1673ffffffffffffffffffffffffffffffffffffffff168152602001600282018054612ca890613f2a565b80601f0160208091040260200160405190810160405280929190818152602001828054612cd490613f2a565b8015612d215780601f10612cf657610100808354040283529160200191612d21565b820191906000526020600020905b815481529060010190602001808311612d0457829003601f168201915b505050505081525050815260200160078201604051806080016040529081600082015481526020016001820160009054906101000a900460ff166003811115612d6d57612d6c614005565b5b6003811115612d7f57612d7e614005565b5b81526020016001820160019054906101000a900473ffffffffffffffffffffffffffffffffffffffff1673ffffffffffffffffffffffffffffffffffffffff1673ffffffffffffffffffffffffffffffffffffffff168152602001600282018054612de990613f2a565b80601f0160208091040260200160405190810160405280929190818152602001828054612e1590613f2a565b8015612e625780601f10612e3757610100808354040283529160200191612e62565b820191906000526020600020905b815481529060010190602001808311612e4557829003601f168201915b5050505050815250508152505081525050908060150154908060160160009054906101000a900460ff16905086565b3373ffffffffffffffffffffffffffffffffffffffff1660008084815260200190815260200160002060040160009054906101000a900473ffffffffffffffffffffffffffffffffffffffff1673ffffffffffffffffffffffffffffffffffffffff1614612efe57600080fd5b6000151560008084815260200190815260200160002060160160009054906101000a900460ff16151514612f3157600080fd5b8060008084815260200190815260200160002060040160006101000a81548173ffffffffffffffffffffffffffffffffffffffff021916908373ffffffffffffffffffffffffffffffffffffffff160217905550600080600084815260200190815260200160002060160160006101000a81548160ff0219169083151502179055505050565b3373ffffffffffffffffffffffffffffffffffffffff1660008083815260200190815260200160002060040160009054906101000a900473ffffffffffffffffffffffffffffffffffffffff1673ffffffffffffffffffffffffffffffffffffffff161461302457600080fd5b600160008083815260200190815260200160002060160160006101000a81548160ff02191690831515021790555050565b6040518060c001604052806000815260200161306f613135565b8152602001600073ffffffffffffffffffffffffffffffffffffffff168152602001613099613185565b8152602001600081526020016000151581525090565b8280546130bb90613f2a565b90600052602060002090601f0160209004810192826130dd5760008555613124565b82601f106130f657805160ff1916838001178555613124565b82800160010185558215613124579182015b82811115613123578251825591602001919060010190613108565b5b50905061313191906131c0565b5090565b6040518060800160405280600081526020016000600381111561315b5761315a614005565b5b8152602001600073ffffffffffffffffffffffffffffffffffffffff168152602001606081525090565b6040518060a001604052806000815260200161319f613135565b815260200160608152602001600081526020016131ba6131dd565b81525090565b5b808211156131d95760008160009055506001016131c1565b5090565b6040518060c001604052806000815260200160608152602001606081526020016060815260200161320c613135565b8152602001613219613135565b81525090565b600061323261322d84613d99565b613d74565b90508281526020810184848401111561324e5761324d6140d0565b5b613259848285613ef7565b509392505050565b6000813590506132708161417f565b92915050565b6000815190506132858161417f565b92915050565b60008151905061329a81614196565b92915050565b600082601f8301126132b5576132b46140c1565b5b81516132c584826020860161321f565b91505092915050565b6000608082840312156132e4576132e36140c6565b5b6132ee6080613d74565b905060006132fe84828501613583565b60008301525060206133128482850161328b565b602083015250604061332684828501613276565b604083015250606082015167ffffffffffffffff81111561334a576133496140cb565b5b613356848285016132a0565b60608301525092915050565b600060a08284031215613378576133776140c6565b5b61338260a0613d74565b9050600061339284828501613583565b600083015250602082015167ffffffffffffffff8111156133b6576133b56140cb565b5b6133c2848285016132ce565b602083015250604082015167ffffffffffffffff8111156133e6576133e56140cb565b5b6133f2848285016132a0565b604083015250606061340684828501613583565b606083015250608082015167ffffffffffffffff81111561342a576134296140cb565b5b61343684828501613442565b60808301525092915050565b600060c08284031215613458576134576140c6565b5b61346260c0613d74565b9050600061347284828501613583565b600083015250602082015167ffffffffffffffff811115613496576134956140cb565b5b6134a2848285016132a0565b602083015250604082015167ffffffffffffffff8111156134c6576134c56140cb565b5b6134d2848285016132a0565b604083015250606082015167ffffffffffffffff8111156134f6576134f56140cb565b5b613502848285016132a0565b606083015250608082015167ffffffffffffffff811115613526576135256140cb565b5b613532848285016132ce565b60808301525060a082015167ffffffffffffffff811115613556576135556140cb565b5b613562848285016132ce565b60a08301525092915050565b60008135905061357d816141a6565b92915050565b600081519050613592816141a6565b92915050565b6000602082840312156135ae576135ad6140da565b5b60006135bc8482850161328b565b91505092915050565b6000602082840312156135db576135da6140da565b5b600082015167ffffffffffffffff8111156135f9576135f86140d5565b5b613605848285016132ce565b91505092915050565b600060208284031215613624576136236140da565b5b600082015167ffffffffffffffff811115613642576136416140d5565b5b61364e84828501613362565b91505092915050565b60006020828403121561366d5761366c6140da565b5b600061367b8482850161356e565b91505092915050565b6000806040838503121561369b5761369a6140da565b5b60006136a98582860161356e565b92505060206136ba85828601613261565b9150509250929050565b600080604083850312156136db576136da6140da565b5b60006136e98582860161356e565b92505060206136fa8582860161356e565b9150509250929050565b60006137108383613a48565b905092915050565b61372181613e8a565b82525050565b61373081613e8a565b82525050565b600061374182613dda565b61374b8185613dfd565b93508360208202850161375d85613dca565b8060005b85811015613799578484038952815161377a8582613704565b945061378583613df0565b925060208a01995050600181019050613761565b50829750879550505050505092915050565b6137b481613e9c565b82525050565b6137c381613e9c565b82525050565b6137d281613ee5565b82525050565b60006137e382613de5565b6137ed8185613e0e565b93506137fd818560208601613ef7565b613806816140df565b840191505092915050565b600061381e601183613e1f565b9150613829826140f0565b602082019050919050565b6000613841601e83613e1f565b915061384c82614119565b602082019050919050565b6000613864601b83613e1f565b915061386f82614142565b602082019050919050565b60006080830160008301516138926000860182613c0d565b5060208301516138a560208601826137c9565b5060408301516138b86040860182613718565b50606083015184820360608601526138d082826137d8565b9150508091505092915050565b60006080830160008301516138f56000860182613c0d565b50602083015161390860208601826137c9565b50604083015161391b6040860182613718565b506060830151848203606086015261393382826137d8565b9150508091505092915050565b600060a0830160008301516139586000860182613c0d565b5060208301518482036020860152613970828261387a565b9150506040830151848203604086015261398a82826137d8565b915050606083015161399f6060860182613c0d565b50608083015184820360808601526139b78282613b68565b9150508091505092915050565b600060a0830160008301516139dc6000860182613c0d565b50602083015184820360208601526139f4828261387a565b91505060408301518482036040860152613a0e82826137d8565b9150506060830151613a236060860182613c0d565b5060808301518482036080860152613a3b8282613b68565b9150508091505092915050565b600060c083016000830151613a606000860182613c0d565b5060208301518482036020860152613a78828261387a565b9150506040830151613a8d6040860182613718565b5060608301518482036060860152613aa58282613940565b9150506080830151613aba6080860182613c0d565b5060a0830151613acd60a08601826137ab565b508091505092915050565b600060c083016000830151613af06000860182613c0d565b5060208301518482036020860152613b08828261387a565b9150506040830151613b1d6040860182613718565b5060608301518482036060860152613b358282613940565b9150506080830151613b4a6080860182613c0d565b5060a0830151613b5d60a08601826137ab565b508091505092915050565b600060c083016000830151613b806000860182613c0d565b5060208301518482036020860152613b9882826137d8565b91505060408301518482036040860152613bb282826137d8565b91505060608301518482036060860152613bcc82826137d8565b91505060808301518482036080860152613be6828261387a565b91505060a083015184820360a0860152613c00828261387a565b9150508091505092915050565b613c1681613edb565b82525050565b613c2581613edb565b82525050565b6000602082019050613c406000830184613727565b92915050565b60006020820190508181036000830152613c608184613736565b905092915050565b60006020820190508181036000830152613c8181613811565b9050919050565b60006020820190508181036000830152613ca181613834565b9050919050565b60006020820190508181036000830152613cc181613857565b9050919050565b60006020820190508181036000830152613ce28184613ad8565b905092915050565b6000602082019050613cff6000830184613c1c565b92915050565b600060c082019050613d1a6000830189613c1c565b8181036020830152613d2c81886138dd565b9050613d3b6040830187613727565b8181036060830152613d4d81866139c4565b9050613d5c6080830185613c1c565b613d6960a08301846137ba565b979650505050505050565b6000613d7e613d8f565b9050613d8a8282613f5c565b919050565b6000604051905090565b600067ffffffffffffffff821115613db457613db3614092565b5b613dbd826140df565b9050602081019050919050565b6000819050602082019050919050565b600081519050919050565b600081519050919050565b6000602082019050919050565b600082825260208201905092915050565b600082825260208201905092915050565b600082825260208201905092915050565b6000613e3b82613edb565b9150613e4683613edb565b9250817fffffffffffffffffffffffffffffffffffffffffffffffffffffffffffffffff0483118215151615613e7f57613e7e613fd6565b5b828202905092915050565b6000613e9582613ebb565b9050919050565b60008115159050919050565b6000819050613eb68261416b565b919050565b600073ffffffffffffffffffffffffffffffffffffffff82169050919050565b6000819050919050565b6000613ef082613ea8565b9050919050565b60005b83811015613f15578082015181840152602081019050613efa565b83811115613f24576000848401525b50505050565b60006002820490506001821680613f4257607f821691505b60208210811415613f5657613f55614034565b5b50919050565b613f65826140df565b810181811067ffffffffffffffff82111715613f8457613f83614092565b5b80604052505050565b6000613f9882613edb565b91507fffffffffffffffffffffffffffffffffffffffffffffffffffffffffffffffff821415613fcb57613fca613fd6565b5b600182019050919050565b7f4e487b7100000000000000000000000000000000000000000000000000000000600052601160045260246000fd5b7f4e487b7100000000000000000000000000000000000000000000000000000000600052602160045260246000fd5b7f4e487b7100000000000000000000000000000000000000000000000000000000600052602260045260246000fd5b7f4e487b7100000000000000000000000000000000000000000000000000000000600052603260045260246000fd5b7f4e487b7100000000000000000000000000000000000000000000000000000000600052604160045260246000fd5b600080fd5b600080fd5b600080fd5b600080fd5b600080fd5b600080fd5b6000601f19601f8301169050919050565b7f796f752061726520746865206f776e6572000000000000000000000000000000600082015250565b7f596f7520617265206e6f7420746865206d616e75666163747572657273210000600082015250565b7f696e73756666696369656e74207061796d656e7420616d6f756e740000000000600082015250565b6004811061417c5761417b614005565b5b50565b61418881613e8a565b811461419357600080fd5b50565b600481106141a357600080fd5b50565b6141af81613edb565b81146141ba57600080fd5b5056fea2646970667358221220f245d875eafc30e9cef5295d3da33d8e928dae817788f3bf049308cd3ef0cf5b64736f6c63430008070033",
  "immutableReferences": {},
  "source": "// SPDX-License-Identifier: MIT\r\npragma solidity ^0.8.7;\r\n\r\nimport \"./CompanyRegistry.sol\";\r\nimport \"./DiamondRegistry.sol\";\r\n\r\ncontract JewelryShop {\r\n  struct Jewelry {\r\n    uint256 jewelryId;\r\n    CompanyRegistry.Company manufacturer;\r\n    address owner;\r\n    DiamondRegistry.Diamond diamond;\r\n    uint256 price;\r\n    bool beingSold;\r\n  }\r\n\r\n  mapping(uint256 => Jewelry) public jewelryItems;\r\n  uint256 public jewelryCounts;\r\n\r\n  CompanyRegistry private companyRegistry;\r\n  DiamondRegistry private diamondRegistry;\r\n\r\n  constructor(address _companyRegistry, address _diamondRegistry) {\r\n    companyRegistry = CompanyRegistry(_companyRegistry);\r\n    diamondRegistry = DiamondRegistry(_diamondRegistry);\r\n  }\r\n\r\n  modifier onlyManufacturer() {\r\n    require(companyRegistry.getCompanyType(msg.sender) == CompanyRegistry.CompanyType.Manufacturer, \"You are not the manufacturers!\");\r\n    _;\r\n  }\r\n\r\n  function transferTo(uint256 _jewelryId, address _to) public {\r\n    require(jewelryItems[_jewelryId].owner == msg.sender);\r\n    require(jewelryItems[_jewelryId].beingSold == false);\r\n    jewelryItems[_jewelryId].owner = _to;\r\n    jewelryItems[_jewelryId].beingSold = false;\r\n  }\r\n\r\n  function getAllJewels() public view returns (Jewelry[] memory) {\r\n    Jewelry[] memory allJewels = new Jewelry[](jewelryCounts);\r\n    for (uint i = 0; i < jewelryCounts; i++) {\r\n      allJewels[i] = jewelryItems[i];\r\n    }\r\n    return allJewels;\r\n  }\r\n\r\n  function diamondDesigning(uint256 uniqueId, uint256 price) public onlyManufacturer {\r\n    // todo \r\n    Jewelry memory newJewelry;\r\n    newJewelry.diamond = diamondRegistry.getDiamond(uniqueId);\r\n    CompanyRegistry.Company memory manufacturer = companyRegistry.getCompany(msg.sender);\r\n    newJewelry.manufacturer = manufacturer;\r\n    newJewelry.owner = msg.sender;\r\n    newJewelry.price = price;\r\n    newJewelry.jewelryId = jewelryCounts;\r\n    newJewelry.beingSold = true;\r\n    jewelryItems[jewelryCounts++] = newJewelry;\r\n  }\r\n\r\n  function jewelryPurchase(uint256 jewelryId) public payable {\r\n    // uint256 price = jewelryItems[jewelryId].price;\r\n    // require(msg.value == price);\r\n    require(jewelryItems[jewelryId].owner != msg.sender, \"you are the owner\");\r\n    require(msg.value == jewelryItems[jewelryId].price * 1 ether, \"insufficient payment amount\");\r\n    payable(jewelryItems[jewelryId].owner).transfer(jewelryItems[jewelryId].price * 1 ether);\r\n    jewelryItems[jewelryId].beingSold = false;\r\n    jewelryItems[jewelryId].owner = msg.sender;\r\n  }\r\n\r\n  function sell(uint256 jewelryId) public {\r\n    require(jewelryItems[jewelryId].owner == msg.sender);\r\n    jewelryItems[jewelryId].beingSold = true;\r\n  }\r\n\r\n  function getMyJewels() public view returns (Jewelry[] memory) {\r\n    uint256 count = 0;\r\n    for (uint256 i = 0; i < jewelryCounts; i++) {\r\n      if (jewelryItems[i].owner == msg.sender && jewelryItems[i].beingSold == false) {\r\n        count++;\r\n      }\r\n    }\r\n\r\n    Jewelry[] memory myJewels = new Jewelry[](count);\r\n    uint256 index = 0;\r\n    for (uint256 i = 0; i < jewelryCounts; i++) {\r\n      if (jewelryItems[i].owner == msg.sender && jewelryItems[i].beingSold == false) {\r\n        myJewels[index] = jewelryItems[i];\r\n        index++;\r\n      }\r\n    }\r\n\r\n    return myJewels;\r\n  }\r\n\r\n  function jewelryVerify(uint256 jewelryId) public view returns (Jewelry memory) {\r\n    return jewelryItems[jewelryId];\r\n  }\r\n}\r\n",
  "sourcePath": "D:\\master\\dapp\\tracing-luxury-1\\src\\contracts\\JewelryShop.sol",
  "compiler": {
    "name": "solc",
    "version": "0.8.7+commit.e28d00a7.Emscripten.clang"
  },
  "schemaVersion": "3.4.16",
  "updatedAt": "2023-11-23T11:53:50.346Z",
  "networkType": "ethereum",
  "devdoc": {
    "kind": "dev",
    "methods": {},
    "version": 1
  },
  "userdoc": {
    "kind": "user",
    "methods": {},
    "version": 1
  }
}