{
  "contractName": "JewelryShop",
  "abi": [
    {
      "inputs": [
        {
          "internalType": "address",
          "name": "_companyRegistry",
          "type": "address"
        },
        {
          "internalType": "address",
          "name": "_diamondRegistry",
          "type": "address"
        }
      ],
      "stateMutability": "nonpayable",
      "type": "constructor"
    },
    {
      "inputs": [],
      "name": "jewelryCounts",
      "outputs": [
        {
          "internalType": "uint256",
          "name": "",
          "type": "uint256"
        }
      ],
      "stateMutability": "view",
      "type": "function",
      "constant": true
    },
    {
      "inputs": [
        {
          "internalType": "uint256",
          "name": "",
          "type": "uint256"
        }
      ],
      "name": "jewelryItems",
      "outputs": [
        {
          "internalType": "uint256",
          "name": "jewelryId",
          "type": "uint256"
        },
        {
          "internalType": "address",
          "name": "manufacturer",
          "type": "address"
        },
        {
          "internalType": "address",
          "name": "owner",
          "type": "address"
        },
        {
          "components": [
            {
              "internalType": "uint256",
              "name": "uniqueId",
              "type": "uint256"
            },
            {
              "internalType": "address",
              "name": "gradingLab",
              "type": "address"
            },
            {
              "internalType": "uint256",
              "name": "grade",
              "type": "uint256"
            },
            {
              "components": [
                {
                  "internalType": "uint256",
                  "name": "rawId",
                  "type": "uint256"
                },
                {
                  "internalType": "string",
                  "name": "rawDiamondName",
                  "type": "string"
                },
                {
                  "internalType": "string",
                  "name": "rawDiamondColor",
                  "type": "string"
                },
                {
                  "internalType": "string",
                  "name": "cuttingGrade",
                  "type": "string"
                },
                {
                  "components": [
                    {
                      "internalType": "uint256",
                      "name": "companyId",
                      "type": "uint256"
                    },
                    {
                      "internalType": "enum CompanyRegistry.CompanyType",
                      "name": "companyType",
                      "type": "uint8"
                    },
                    {
                      "internalType": "address",
                      "name": "addr",
                      "type": "address"
                    },
                    {
                      "internalType": "string",
                      "name": "companyName",
                      "type": "string"
                    }
                  ],
                  "internalType": "struct CompanyRegistry.Company",
                  "name": "miningCompany",
                  "type": "tuple"
                },
                {
                  "components": [
                    {
                      "internalType": "uint256",
                      "name": "companyId",
                      "type": "uint256"
                    },
                    {
                      "internalType": "enum CompanyRegistry.CompanyType",
                      "name": "companyType",
                      "type": "uint8"
                    },
                    {
                      "internalType": "address",
                      "name": "addr",
                      "type": "address"
                    },
                    {
                      "internalType": "string",
                      "name": "companyName",
                      "type": "string"
                    }
                  ],
                  "internalType": "struct CompanyRegistry.Company",
                  "name": "cuttingCompany",
                  "type": "tuple"
                }
              ],
              "internalType": "struct RawDiamondRegistry.RawDiamond",
              "name": "rawDiamond",
              "type": "tuple"
            }
          ],
          "internalType": "struct DiamondRegistry.Diamond",
          "name": "diamond",
          "type": "tuple"
        },
        {
          "internalType": "uint256",
          "name": "price",
          "type": "uint256"
        }
      ],
      "stateMutability": "view",
      "type": "function",
      "constant": true
    },
    {
      "inputs": [],
      "name": "getAllJewels",
      "outputs": [
        {
          "components": [
            {
              "internalType": "uint256",
              "name": "jewelryId",
              "type": "uint256"
            },
            {
              "internalType": "address",
              "name": "manufacturer",
              "type": "address"
            },
            {
              "internalType": "address",
              "name": "owner",
              "type": "address"
            },
            {
              "components": [
                {
                  "internalType": "uint256",
                  "name": "uniqueId",
                  "type": "uint256"
                },
                {
                  "internalType": "address",
                  "name": "gradingLab",
                  "type": "address"
                },
                {
                  "internalType": "uint256",
                  "name": "grade",
                  "type": "uint256"
                },
                {
                  "components": [
                    {
                      "internalType": "uint256",
                      "name": "rawId",
                      "type": "uint256"
                    },
                    {
                      "internalType": "string",
                      "name": "rawDiamondName",
                      "type": "string"
                    },
                    {
                      "internalType": "string",
                      "name": "rawDiamondColor",
                      "type": "string"
                    },
                    {
                      "internalType": "string",
                      "name": "cuttingGrade",
                      "type": "string"
                    },
                    {
                      "components": [
                        {
                          "internalType": "uint256",
                          "name": "companyId",
                          "type": "uint256"
                        },
                        {
                          "internalType": "enum CompanyRegistry.CompanyType",
                          "name": "companyType",
                          "type": "uint8"
                        },
                        {
                          "internalType": "address",
                          "name": "addr",
                          "type": "address"
                        },
                        {
                          "internalType": "string",
                          "name": "companyName",
                          "type": "string"
                        }
                      ],
                      "internalType": "struct CompanyRegistry.Company",
                      "name": "miningCompany",
                      "type": "tuple"
                    },
                    {
                      "components": [
                        {
                          "internalType": "uint256",
                          "name": "companyId",
                          "type": "uint256"
                        },
                        {
                          "internalType": "enum CompanyRegistry.CompanyType",
                          "name": "companyType",
                          "type": "uint8"
                        },
                        {
                          "internalType": "address",
                          "name": "addr",
                          "type": "address"
                        },
                        {
                          "internalType": "string",
                          "name": "companyName",
                          "type": "string"
                        }
                      ],
                      "internalType": "struct CompanyRegistry.Company",
                      "name": "cuttingCompany",
                      "type": "tuple"
                    }
                  ],
                  "internalType": "struct RawDiamondRegistry.RawDiamond",
                  "name": "rawDiamond",
                  "type": "tuple"
                }
              ],
              "internalType": "struct DiamondRegistry.Diamond",
              "name": "diamond",
              "type": "tuple"
            },
            {
              "internalType": "uint256",
              "name": "price",
              "type": "uint256"
            }
          ],
          "internalType": "struct JewelryShop.Jewelry[]",
          "name": "",
          "type": "tuple[]"
        }
      ],
      "stateMutability": "view",
      "type": "function",
      "constant": true
    },
    {
      "inputs": [
        {
          "internalType": "uint256",
          "name": "uniqueId",
          "type": "uint256"
        },
        {
          "internalType": "uint256",
          "name": "price",
          "type": "uint256"
        }
      ],
      "name": "diamondDesigning",
      "outputs": [],
      "stateMutability": "nonpayable",
      "type": "function"
    },
    {
      "inputs": [
        {
          "internalType": "uint256",
          "name": "jewelryId",
          "type": "uint256"
        }
      ],
      "name": "jewelryPurchase",
      "outputs": [],
      "stateMutability": "payable",
      "type": "function",
      "payable": true
    },
    {
      "inputs": [
        {
          "internalType": "uint256",
          "name": "jewelryId",
          "type": "uint256"
        }
      ],
      "name": "jewelryVerify",
      "outputs": [
        {
          "components": [
            {
              "internalType": "uint256",
              "name": "jewelryId",
              "type": "uint256"
            },
            {
              "internalType": "address",
              "name": "manufacturer",
              "type": "address"
            },
            {
              "internalType": "address",
              "name": "owner",
              "type": "address"
            },
            {
              "components": [
                {
                  "internalType": "uint256",
                  "name": "uniqueId",
                  "type": "uint256"
                },
                {
                  "internalType": "address",
                  "name": "gradingLab",
                  "type": "address"
                },
                {
                  "internalType": "uint256",
                  "name": "grade",
                  "type": "uint256"
                },
                {
                  "components": [
                    {
                      "internalType": "uint256",
                      "name": "rawId",
                      "type": "uint256"
                    },
                    {
                      "internalType": "string",
                      "name": "rawDiamondName",
                      "type": "string"
                    },
                    {
                      "internalType": "string",
                      "name": "rawDiamondColor",
                      "type": "string"
                    },
                    {
                      "internalType": "string",
                      "name": "cuttingGrade",
                      "type": "string"
                    },
                    {
                      "components": [
                        {
                          "internalType": "uint256",
                          "name": "companyId",
                          "type": "uint256"
                        },
                        {
                          "internalType": "enum CompanyRegistry.CompanyType",
                          "name": "companyType",
                          "type": "uint8"
                        },
                        {
                          "internalType": "address",
                          "name": "addr",
                          "type": "address"
                        },
                        {
                          "internalType": "string",
                          "name": "companyName",
                          "type": "string"
                        }
                      ],
                      "internalType": "struct CompanyRegistry.Company",
                      "name": "miningCompany",
                      "type": "tuple"
                    },
                    {
                      "components": [
                        {
                          "internalType": "uint256",
                          "name": "companyId",
                          "type": "uint256"
                        },
                        {
                          "internalType": "enum CompanyRegistry.CompanyType",
                          "name": "companyType",
                          "type": "uint8"
                        },
                        {
                          "internalType": "address",
                          "name": "addr",
                          "type": "address"
                        },
                        {
                          "internalType": "string",
                          "name": "companyName",
                          "type": "string"
                        }
                      ],
                      "internalType": "struct CompanyRegistry.Company",
                      "name": "cuttingCompany",
                      "type": "tuple"
                    }
                  ],
                  "internalType": "struct RawDiamondRegistry.RawDiamond",
                  "name": "rawDiamond",
                  "type": "tuple"
                }
              ],
              "internalType": "struct DiamondRegistry.Diamond",
              "name": "diamond",
              "type": "tuple"
            },
            {
              "internalType": "uint256",
              "name": "price",
              "type": "uint256"
            }
          ],
          "internalType": "struct JewelryShop.Jewelry",
          "name": "",
          "type": "tuple"
        }
      ],
      "stateMutability": "view",
      "type": "function",
      "constant": true
    }
  ],
  "bytecode": "0x60806040523480156200001157600080fd5b506040516200286c3803806200286c8339818101604052810190620000379190620000d8565b81600260006101000a81548173ffffffffffffffffffffffffffffffffffffffff021916908373ffffffffffffffffffffffffffffffffffffffff16021790555080600360006101000a81548173ffffffffffffffffffffffffffffffffffffffff021916908373ffffffffffffffffffffffffffffffffffffffff160217905550505062000172565b600081519050620000d28162000158565b92915050565b60008060408385031215620000f257620000f162000153565b5b60006200010285828601620000c1565b92505060206200011585828601620000c1565b9150509250929050565b60006200012c8262000133565b9050919050565b600073ffffffffffffffffffffffffffffffffffffffff82169050919050565b600080fd5b62000163816200011f565b81146200016f57600080fd5b50565b6126ea80620001826000396000f3fe6080604052600436106100555760003560e01c8063365db4021461005a5780634974275c146100855780637bb87bb3146100b05780638e1f2999146100d95780639cf4dc70146100f5578063a23fb7ae14610132575b600080fd5b34801561006657600080fd5b5061006f610173565b60405161007c91906122ae565b60405180910390f35b34801561009157600080fd5b5061009a610179565b6040516100a7919061224a565b60405180910390f35b3480156100bc57600080fd5b506100d760048036038101906100d29190611e05565b6107cc565b005b6100f360048036038101906100ee9190611dd8565b610d19565b005b34801561010157600080fd5b5061011c60048036038101906101179190611dd8565b610d70565b604051610129919061228c565b60405180910390f35b34801561013e57600080fd5b5061015960048036038101906101549190611dd8565b611330565b60405161016a9594939291906122c9565b60405180910390f35b60015481565b6060600060015467ffffffffffffffff811115610199576101986125db565b5b6040519080825280602002602001820160405280156101d257816020015b6101bf611870565b8152602001906001900390816101b75790505b50905060005b6001548110156107c4576000808281526020019081526020016000206040518060a0016040529081600082015481526020016001820160009054906101000a900473ffffffffffffffffffffffffffffffffffffffff1673ffffffffffffffffffffffffffffffffffffffff1673ffffffffffffffffffffffffffffffffffffffff1681526020016002820160009054906101000a900473ffffffffffffffffffffffffffffffffffffffff1673ffffffffffffffffffffffffffffffffffffffff1673ffffffffffffffffffffffffffffffffffffffff16815260200160038201604051806080016040529081600082015481526020016001820160009054906101000a900473ffffffffffffffffffffffffffffffffffffffff1673ffffffffffffffffffffffffffffffffffffffff1673ffffffffffffffffffffffffffffffffffffffff16815260200160028201548152602001600382016040518060c00160405290816000820154815260200160018201805461035990612473565b80601f016020809104026020016040519081016040528092919081815260200182805461038590612473565b80156103d25780601f106103a7576101008083540402835291602001916103d2565b820191906000526020600020905b8154815290600101906020018083116103b557829003601f168201915b505050505081526020016002820180546103eb90612473565b80601f016020809104026020016040519081016040528092919081815260200182805461041790612473565b80156104645780601f1061043957610100808354040283529160200191610464565b820191906000526020600020905b81548152906001019060200180831161044757829003601f168201915b5050505050815260200160038201805461047d90612473565b80601f01602080910402602001604051908101604052809291908181526020018280546104a990612473565b80156104f65780601f106104cb576101008083540402835291602001916104f6565b820191906000526020600020905b8154815290600101906020018083116104d957829003601f168201915b5050505050815260200160048201604051806080016040529081600082015481526020016001820160009054906101000a900460ff16600381111561053e5761053d61254e565b5b60038111156105505761054f61254e565b5b81526020016001820160019054906101000a900473ffffffffffffffffffffffffffffffffffffffff1673ffffffffffffffffffffffffffffffffffffffff1673ffffffffffffffffffffffffffffffffffffffff1681526020016002820180546105ba90612473565b80601f01602080910402602001604051908101604052809291908181526020018280546105e690612473565b80156106335780601f1061060857610100808354040283529160200191610633565b820191906000526020600020905b81548152906001019060200180831161061657829003601f168201915b505050505081525050815260200160078201604051806080016040529081600082015481526020016001820160009054906101000a900460ff16600381111561067f5761067e61254e565b5b60038111156106915761069061254e565b5b81526020016001820160019054906101000a900473ffffffffffffffffffffffffffffffffffffffff1673ffffffffffffffffffffffffffffffffffffffff1673ffffffffffffffffffffffffffffffffffffffff1681526020016002820180546106fb90612473565b80601f016020809104026020016040519081016040528092919081815260200182805461072790612473565b80156107745780601f1061074957610100808354040283529160200191610774565b820191906000526020600020905b81548152906001019060200180831161075757829003601f168201915b505050505081525050815250508152505081526020016010820154815250508282815181106107a6576107a56125ac565b5b602002602001018190525080806107bc906124d6565b9150506101d8565b508091505090565b6003808111156107df576107de61254e565b5b600260009054906101000a900473ffffffffffffffffffffffffffffffffffffffff1673ffffffffffffffffffffffffffffffffffffffff1663097bcc1a336040518263ffffffff1660e01b815260040161083a919061222f565b60206040518083038186803b15801561085257600080fd5b505afa158015610866573d6000803e3d6000fd5b505050506040513d601f19601f8201168201806040525081019061088a9190611d62565b600381111561089c5761089b61254e565b5b146108dc576040517f08c379a00000000000000000000000000000000000000000000000000000000081526004016108d39061226c565b60405180910390fd5b6108e4611870565b600360009054906101000a900473ffffffffffffffffffffffffffffffffffffffff1673ffffffffffffffffffffffffffffffffffffffff1663e3ed14db846040518263ffffffff1660e01b815260040161093f91906122ae565b60006040518083038186803b15801561095757600080fd5b505afa15801561096b573d6000803e3d6000fd5b505050506040513d6000823e3d601f19601f820116820180604052508101906109949190611d8f565b816060018190525033816020019073ffffffffffffffffffffffffffffffffffffffff16908173ffffffffffffffffffffffffffffffffffffffff168152505033816040019073ffffffffffffffffffffffffffffffffffffffff16908173ffffffffffffffffffffffffffffffffffffffff1681525050818160800181815250506001548160000181815250508060008060016000815480929190610a39906124d6565b9190505581526020019081526020016000206000820151816000015560208201518160010160006101000a81548173ffffffffffffffffffffffffffffffffffffffff021916908373ffffffffffffffffffffffffffffffffffffffff16021790555060408201518160020160006101000a81548173ffffffffffffffffffffffffffffffffffffffff021916908373ffffffffffffffffffffffffffffffffffffffff1602179055506060820151816003016000820151816000015560208201518160010160006101000a81548173ffffffffffffffffffffffffffffffffffffffff021916908373ffffffffffffffffffffffffffffffffffffffff16021790555060408201518160020155606082015181600301600082015181600001556020820151816001019080519060200190610b769291906118d1565b506040820151816002019080519060200190610b939291906118d1565b506060820151816003019080519060200190610bb09291906118d1565b506080820151816004016000820151816000015560208201518160010160006101000a81548160ff02191690836003811115610bef57610bee61254e565b5b021790555060408201518160010160016101000a81548173ffffffffffffffffffffffffffffffffffffffff021916908373ffffffffffffffffffffffffffffffffffffffff1602179055506060820151816002019080519060200190610c579291906118d1565b50505060a0820151816007016000820151816000015560208201518160010160006101000a81548160ff02191690836003811115610c9857610c9761254e565b5b021790555060408201518160010160016101000a81548173ffffffffffffffffffffffffffffffffffffffff021916908373ffffffffffffffffffffffffffffffffffffffff1602179055506060820151816002019080519060200190610d009291906118d1565b5050505050505060808201518160100155905050505050565b3360008083815260200190815260200160002060020160006101000a81548173ffffffffffffffffffffffffffffffffffffffff021916908373ffffffffffffffffffffffffffffffffffffffff16021790555050565b610d78611870565b6000808381526020019081526020016000206040518060a0016040529081600082015481526020016001820160009054906101000a900473ffffffffffffffffffffffffffffffffffffffff1673ffffffffffffffffffffffffffffffffffffffff1673ffffffffffffffffffffffffffffffffffffffff1681526020016002820160009054906101000a900473ffffffffffffffffffffffffffffffffffffffff1673ffffffffffffffffffffffffffffffffffffffff1673ffffffffffffffffffffffffffffffffffffffff16815260200160038201604051806080016040529081600082015481526020016001820160009054906101000a900473ffffffffffffffffffffffffffffffffffffffff1673ffffffffffffffffffffffffffffffffffffffff1673ffffffffffffffffffffffffffffffffffffffff16815260200160028201548152602001600382016040518060c001604052908160008201548152602001600182018054610eef90612473565b80601f0160208091040260200160405190810160405280929190818152602001828054610f1b90612473565b8015610f685780601f10610f3d57610100808354040283529160200191610f68565b820191906000526020600020905b815481529060010190602001808311610f4b57829003601f168201915b50505050508152602001600282018054610f8190612473565b80601f0160208091040260200160405190810160405280929190818152602001828054610fad90612473565b8015610ffa5780601f10610fcf57610100808354040283529160200191610ffa565b820191906000526020600020905b815481529060010190602001808311610fdd57829003601f168201915b5050505050815260200160038201805461101390612473565b80601f016020809104026020016040519081016040528092919081815260200182805461103f90612473565b801561108c5780601f106110615761010080835404028352916020019161108c565b820191906000526020600020905b81548152906001019060200180831161106f57829003601f168201915b5050505050815260200160048201604051806080016040529081600082015481526020016001820160009054906101000a900460ff1660038111156110d4576110d361254e565b5b60038111156110e6576110e561254e565b5b81526020016001820160019054906101000a900473ffffffffffffffffffffffffffffffffffffffff1673ffffffffffffffffffffffffffffffffffffffff1673ffffffffffffffffffffffffffffffffffffffff16815260200160028201805461115090612473565b80601f016020809104026020016040519081016040528092919081815260200182805461117c90612473565b80156111c95780601f1061119e576101008083540402835291602001916111c9565b820191906000526020600020905b8154815290600101906020018083116111ac57829003601f168201915b505050505081525050815260200160078201604051806080016040529081600082015481526020016001820160009054906101000a900460ff1660038111156112155761121461254e565b5b60038111156112275761122661254e565b5b81526020016001820160019054906101000a900473ffffffffffffffffffffffffffffffffffffffff1673ffffffffffffffffffffffffffffffffffffffff1673ffffffffffffffffffffffffffffffffffffffff16815260200160028201805461129190612473565b80601f01602080910402602001604051908101604052809291908181526020018280546112bd90612473565b801561130a5780601f106112df5761010080835404028352916020019161130a565b820191906000526020600020905b8154815290600101906020018083116112ed57829003601f168201915b505050505081525050815250508152505081526020016010820154815250509050919050565b60006020528060005260406000206000915090508060000154908060010160009054906101000a900473ffffffffffffffffffffffffffffffffffffffff16908060020160009054906101000a900473ffffffffffffffffffffffffffffffffffffffff169080600301604051806080016040529081600082015481526020016001820160009054906101000a900473ffffffffffffffffffffffffffffffffffffffff1673ffffffffffffffffffffffffffffffffffffffff1673ffffffffffffffffffffffffffffffffffffffff16815260200160028201548152602001600382016040518060c00160405290816000820154815260200160018201805461143990612473565b80601f016020809104026020016040519081016040528092919081815260200182805461146590612473565b80156114b25780601f10611487576101008083540402835291602001916114b2565b820191906000526020600020905b81548152906001019060200180831161149557829003601f168201915b505050505081526020016002820180546114cb90612473565b80601f01602080910402602001604051908101604052809291908181526020018280546114f790612473565b80156115445780601f1061151957610100808354040283529160200191611544565b820191906000526020600020905b81548152906001019060200180831161152757829003601f168201915b5050505050815260200160038201805461155d90612473565b80601f016020809104026020016040519081016040528092919081815260200182805461158990612473565b80156115d65780601f106115ab576101008083540402835291602001916115d6565b820191906000526020600020905b8154815290600101906020018083116115b957829003601f168201915b5050505050815260200160048201604051806080016040529081600082015481526020016001820160009054906101000a900460ff16600381111561161e5761161d61254e565b5b60038111156116305761162f61254e565b5b81526020016001820160019054906101000a900473ffffffffffffffffffffffffffffffffffffffff1673ffffffffffffffffffffffffffffffffffffffff1673ffffffffffffffffffffffffffffffffffffffff16815260200160028201805461169a90612473565b80601f01602080910402602001604051908101604052809291908181526020018280546116c690612473565b80156117135780601f106116e857610100808354040283529160200191611713565b820191906000526020600020905b8154815290600101906020018083116116f657829003601f168201915b505050505081525050815260200160078201604051806080016040529081600082015481526020016001820160009054906101000a900460ff16600381111561175f5761175e61254e565b5b60038111156117715761177061254e565b5b81526020016001820160019054906101000a900473ffffffffffffffffffffffffffffffffffffffff1673ffffffffffffffffffffffffffffffffffffffff1673ffffffffffffffffffffffffffffffffffffffff1681526020016002820180546117db90612473565b80601f016020809104026020016040519081016040528092919081815260200182805461180790612473565b80156118545780601f1061182957610100808354040283529160200191611854565b820191906000526020600020905b81548152906001019060200180831161183757829003601f168201915b5050505050815250508152505081525050908060100154905085565b6040518060a0016040528060008152602001600073ffffffffffffffffffffffffffffffffffffffff168152602001600073ffffffffffffffffffffffffffffffffffffffff1681526020016118c4611957565b8152602001600081525090565b8280546118dd90612473565b90600052602060002090601f0160209004810192826118ff5760008555611946565b82601f1061191857805160ff1916838001178555611946565b82800160010185558215611946579182015b8281111561194557825182559160200191906001019061192a565b5b509050611953919061199b565b5090565b604051806080016040528060008152602001600073ffffffffffffffffffffffffffffffffffffffff168152602001600081526020016119956119b8565b81525090565b5b808211156119b457600081600090555060010161199c565b5090565b6040518060c00160405280600081526020016060815260200160608152602001606081526020016119e76119fa565b81526020016119f46119fa565b81525090565b60405180608001604052806000815260200160006003811115611a2057611a1f61254e565b5b8152602001600073ffffffffffffffffffffffffffffffffffffffff168152602001606081525090565b6000611a5d611a5884612348565b612323565b905082815260208101848484011115611a7957611a78612619565b5b611a84848285612440565b509392505050565b600081519050611a9b81612676565b92915050565b600081519050611ab08161268d565b92915050565b600082601f830112611acb57611aca61260a565b5b8151611adb848260208601611a4a565b91505092915050565b600060808284031215611afa57611af961260f565b5b611b046080612323565b90506000611b1484828501611d4d565b6000830152506020611b2884828501611aa1565b6020830152506040611b3c84828501611a8c565b604083015250606082015167ffffffffffffffff811115611b6057611b5f612614565b5b611b6c84828501611ab6565b60608301525092915050565b600060808284031215611b8e57611b8d61260f565b5b611b986080612323565b90506000611ba884828501611d4d565b6000830152506020611bbc84828501611a8c565b6020830152506040611bd084828501611d4d565b604083015250606082015167ffffffffffffffff811115611bf457611bf3612614565b5b611c0084828501611c0c565b60608301525092915050565b600060c08284031215611c2257611c2161260f565b5b611c2c60c0612323565b90506000611c3c84828501611d4d565b600083015250602082015167ffffffffffffffff811115611c6057611c5f612614565b5b611c6c84828501611ab6565b602083015250604082015167ffffffffffffffff811115611c9057611c8f612614565b5b611c9c84828501611ab6565b604083015250606082015167ffffffffffffffff811115611cc057611cbf612614565b5b611ccc84828501611ab6565b606083015250608082015167ffffffffffffffff811115611cf057611cef612614565b5b611cfc84828501611ae4565b60808301525060a082015167ffffffffffffffff811115611d2057611d1f612614565b5b611d2c84828501611ae4565b60a08301525092915050565b600081359050611d478161269d565b92915050565b600081519050611d5c8161269d565b92915050565b600060208284031215611d7857611d77612623565b5b6000611d8684828501611aa1565b91505092915050565b600060208284031215611da557611da4612623565b5b600082015167ffffffffffffffff811115611dc357611dc261261e565b5b611dcf84828501611b78565b91505092915050565b600060208284031215611dee57611ded612623565b5b6000611dfc84828501611d38565b91505092915050565b60008060408385031215611e1c57611e1b612623565b5b6000611e2a85828601611d38565b9250506020611e3b85828601611d38565b9150509250929050565b6000611e518383612080565b905092915050565b611e62816123df565b82525050565b611e71816123df565b82525050565b6000611e8282612389565b611e8c81856123ac565b935083602082028501611e9e85612379565b8060005b85811015611eda5784840389528151611ebb8582611e45565b9450611ec68361239f565b925060208a01995050600181019050611ea2565b50829750879550505050505092915050565b611ef58161242e565b82525050565b6000611f0682612394565b611f1081856123bd565b9350611f20818560208601612440565b611f2981612628565b840191505092915050565b6000611f41601e836123ce565b9150611f4c82612639565b602082019050919050565b6000608083016000830151611f6f6000860182612211565b506020830151611f826020860182611eec565b506040830151611f956040860182611e59565b5060608301518482036060860152611fad8282611efb565b9150508091505092915050565b6000608083016000830151611fd26000860182612211565b506020830151611fe56020860182611e59565b506040830151611ff86040860182612211565b5060608301518482036060860152612010828261216c565b9150508091505092915050565b60006080830160008301516120356000860182612211565b5060208301516120486020860182611e59565b50604083015161205b6040860182612211565b5060608301518482036060860152612073828261216c565b9150508091505092915050565b600060a0830160008301516120986000860182612211565b5060208301516120ab6020860182611e59565b5060408301516120be6040860182611e59565b50606083015184820360608601526120d68282611fba565b91505060808301516120eb6080860182612211565b508091505092915050565b600060a08301600083015161210e6000860182612211565b5060208301516121216020860182611e59565b5060408301516121346040860182611e59565b506060830151848203606086015261214c8282611fba565b91505060808301516121616080860182612211565b508091505092915050565b600060c0830160008301516121846000860182612211565b506020830151848203602086015261219c8282611efb565b915050604083015184820360408601526121b68282611efb565b915050606083015184820360608601526121d08282611efb565b915050608083015184820360808601526121ea8282611f57565b91505060a083015184820360a08601526122048282611f57565b9150508091505092915050565b61221a81612424565b82525050565b61222981612424565b82525050565b60006020820190506122446000830184611e68565b92915050565b600060208201905081810360008301526122648184611e77565b905092915050565b6000602082019050818103600083015261228581611f34565b9050919050565b600060208201905081810360008301526122a681846120f6565b905092915050565b60006020820190506122c36000830184612220565b92915050565b600060a0820190506122de6000830188612220565b6122eb6020830187611e68565b6122f86040830186611e68565b818103606083015261230a818561201d565b90506123196080830184612220565b9695505050505050565b600061232d61233e565b905061233982826124a5565b919050565b6000604051905090565b600067ffffffffffffffff821115612363576123626125db565b5b61236c82612628565b9050602081019050919050565b6000819050602082019050919050565b600081519050919050565b600081519050919050565b6000602082019050919050565b600082825260208201905092915050565b600082825260208201905092915050565b600082825260208201905092915050565b60006123ea82612404565b9050919050565b60008190506123ff82612662565b919050565b600073ffffffffffffffffffffffffffffffffffffffff82169050919050565b6000819050919050565b6000612439826123f1565b9050919050565b60005b8381101561245e578082015181840152602081019050612443565b8381111561246d576000848401525b50505050565b6000600282049050600182168061248b57607f821691505b6020821081141561249f5761249e61257d565b5b50919050565b6124ae82612628565b810181811067ffffffffffffffff821117156124cd576124cc6125db565b5b80604052505050565b60006124e182612424565b91507fffffffffffffffffffffffffffffffffffffffffffffffffffffffffffffffff8214156125145761251361251f565b5b600182019050919050565b7f4e487b7100000000000000000000000000000000000000000000000000000000600052601160045260246000fd5b7f4e487b7100000000000000000000000000000000000000000000000000000000600052602160045260246000fd5b7f4e487b7100000000000000000000000000000000000000000000000000000000600052602260045260246000fd5b7f4e487b7100000000000000000000000000000000000000000000000000000000600052603260045260246000fd5b7f4e487b7100000000000000000000000000000000000000000000000000000000600052604160045260246000fd5b600080fd5b600080fd5b600080fd5b600080fd5b600080fd5b600080fd5b6000601f19601f8301169050919050565b7f596f7520617265206e6f7420746865206d616e75666163747572657273210000600082015250565b600481106126735761267261254e565b5b50565b61267f816123df565b811461268a57600080fd5b50565b6004811061269a57600080fd5b50565b6126a681612424565b81146126b157600080fd5b5056fea2646970667358221220219a96d68d6ae88ac99f6171f7599217615ac61ebbc063cacf54aa34ee24edee64736f6c63430008070033",
  "immutableReferences": {},
  "source": "// SPDX-License-Identifier: MIT\npragma solidity ^0.8.7;\n\nimport \"./CompanyRegistry.sol\";\nimport \"./DiamondRegistry.sol\";\n\ncontract JewelryShop {\n    struct Jewelry {\n        uint256 jewelryId;\n        address manufacturer;\n        address owner;\n        DiamondRegistry.Diamond diamond;\n        uint256 price;\n    }\n\n    mapping(uint256 => Jewelry) public jewelryItems;\n    uint256 public jewelryCounts;\n\n    CompanyRegistry private companyRegistry;\n    DiamondRegistry private diamondRegistry;\n\n    constructor(address _companyRegistry, address _diamondRegistry) {\n        companyRegistry = CompanyRegistry(_companyRegistry);\n        diamondRegistry = DiamondRegistry(_diamondRegistry);\n    }\n\n    modifier onlyManufacturer() {\n        require(\n            companyRegistry.getCompanyType(msg.sender) ==\n                CompanyRegistry.CompanyType.Manufacturer,\n            \"You are not the manufacturers!\"\n        );\n        _;\n    }\n\n    function getAllJewels() public view returns (Jewelry[] memory) {\n        Jewelry[] memory allJewels = new Jewelry[](jewelryCounts);\n        for (uint i = 0; i < jewelryCounts; i++) {\n            allJewels[i] = jewelryItems[i];\n        }\n        return allJewels;\n    }\n\n    function diamondDesigning(\n        uint256 uniqueId,\n        uint256 price\n    ) public onlyManufacturer {\n        // todo \n        Jewelry memory newJewelry;\n        newJewelry.diamond = diamondRegistry.getDiamond(uniqueId);\n        newJewelry.manufacturer = msg.sender;\n        newJewelry.owner = msg.sender;\n        newJewelry.price = price;\n        newJewelry.jewelryId = jewelryCounts;\n        jewelryItems[jewelryCounts++] = newJewelry;\n    }\n\n    function jewelryPurchase(uint256 jewelryId) public payable {\n        // uint256 price = jewelryItems[jewelryId].price;\n        // require(msg.value == price);\n        jewelryItems[jewelryId].owner = msg.sender;\n    }\n\n    function jewelryVerify(\n        uint256 jewelryId\n    ) public view returns (Jewelry memory) {\n        return jewelryItems[jewelryId];\n    }\n}\n",
  "sourcePath": "/Users/huanghongbin/VsCodeProjests/tracing-luxury/src/contracts/JewelryShop.sol",
  "compiler": {
    "name": "solc",
    "version": "0.8.7+commit.e28d00a7.Emscripten.clang"
  },
  "schemaVersion": "3.4.16",
  "updatedAt": "2023-11-20T17:22:26.134Z",
  "networkType": "ethereum",
  "devdoc": {
    "kind": "dev",
    "methods": {},
    "version": 1
  },
  "userdoc": {
    "kind": "user",
    "methods": {},
    "version": 1
  }
}