{
  "contractName": "JewelryShop",
  "abi": [
    {
      "inputs": [
        {
          "internalType": "address",
          "name": "_companyRegistry",
          "type": "address"
        },
        {
          "internalType": "address",
          "name": "_diamondRegistry",
          "type": "address"
        }
      ],
      "stateMutability": "nonpayable",
      "type": "constructor"
    },
    {
      "inputs": [],
      "name": "jewelryCounts",
      "outputs": [
        {
          "internalType": "uint256",
          "name": "",
          "type": "uint256"
        }
      ],
      "stateMutability": "view",
      "type": "function",
      "constant": true
    },
    {
      "inputs": [
        {
          "internalType": "uint256",
          "name": "",
          "type": "uint256"
        }
      ],
      "name": "jewelryItems",
      "outputs": [
        {
          "internalType": "uint256",
          "name": "jewelryId",
          "type": "uint256"
        },
        {
          "internalType": "address",
          "name": "manufacturer",
          "type": "address"
        },
        {
          "internalType": "address",
          "name": "owner",
          "type": "address"
        },
        {
          "components": [
            {
              "internalType": "uint256",
              "name": "uniqueId",
              "type": "uint256"
            },
            {
              "components": [
                {
                  "internalType": "uint256",
                  "name": "companyId",
                  "type": "uint256"
                },
                {
                  "internalType": "enum CompanyRegistry.CompanyType",
                  "name": "companyType",
                  "type": "uint8"
                },
                {
                  "internalType": "address",
                  "name": "addr",
                  "type": "address"
                },
                {
                  "internalType": "string",
                  "name": "companyName",
                  "type": "string"
                }
              ],
              "internalType": "struct CompanyRegistry.Company",
              "name": "gradingLab",
              "type": "tuple"
            },
            {
              "internalType": "string",
              "name": "clarity",
              "type": "string"
            },
            {
              "internalType": "uint256",
              "name": "grade",
              "type": "uint256"
            },
            {
              "components": [
                {
                  "internalType": "uint256",
                  "name": "rawId",
                  "type": "uint256"
                },
                {
                  "internalType": "string",
                  "name": "rawDiamondName",
                  "type": "string"
                },
                {
                  "internalType": "string",
                  "name": "rawDiamondColor",
                  "type": "string"
                },
                {
                  "internalType": "string",
                  "name": "cuttingGrade",
                  "type": "string"
                },
                {
                  "components": [
                    {
                      "internalType": "uint256",
                      "name": "companyId",
                      "type": "uint256"
                    },
                    {
                      "internalType": "enum CompanyRegistry.CompanyType",
                      "name": "companyType",
                      "type": "uint8"
                    },
                    {
                      "internalType": "address",
                      "name": "addr",
                      "type": "address"
                    },
                    {
                      "internalType": "string",
                      "name": "companyName",
                      "type": "string"
                    }
                  ],
                  "internalType": "struct CompanyRegistry.Company",
                  "name": "miningCompany",
                  "type": "tuple"
                },
                {
                  "components": [
                    {
                      "internalType": "uint256",
                      "name": "companyId",
                      "type": "uint256"
                    },
                    {
                      "internalType": "enum CompanyRegistry.CompanyType",
                      "name": "companyType",
                      "type": "uint8"
                    },
                    {
                      "internalType": "address",
                      "name": "addr",
                      "type": "address"
                    },
                    {
                      "internalType": "string",
                      "name": "companyName",
                      "type": "string"
                    }
                  ],
                  "internalType": "struct CompanyRegistry.Company",
                  "name": "cuttingCompany",
                  "type": "tuple"
                }
              ],
              "internalType": "struct RawDiamondRegistry.RawDiamond",
              "name": "rawDiamond",
              "type": "tuple"
            }
          ],
          "internalType": "struct DiamondRegistry.Diamond",
          "name": "diamond",
          "type": "tuple"
        },
        {
          "internalType": "uint256",
          "name": "price",
          "type": "uint256"
        }
      ],
      "stateMutability": "view",
      "type": "function",
      "constant": true
    },
    {
      "inputs": [
        {
          "internalType": "uint256",
          "name": "_jewelryId",
          "type": "uint256"
        },
        {
          "internalType": "address",
          "name": "_to",
          "type": "address"
        }
      ],
      "name": "transferTo",
      "outputs": [],
      "stateMutability": "nonpayable",
      "type": "function"
    },
    {
      "inputs": [],
      "name": "getAllJewels",
      "outputs": [
        {
          "components": [
            {
              "internalType": "uint256",
              "name": "jewelryId",
              "type": "uint256"
            },
            {
              "internalType": "address",
              "name": "manufacturer",
              "type": "address"
            },
            {
              "internalType": "address",
              "name": "owner",
              "type": "address"
            },
            {
              "components": [
                {
                  "internalType": "uint256",
                  "name": "uniqueId",
                  "type": "uint256"
                },
                {
                  "components": [
                    {
                      "internalType": "uint256",
                      "name": "companyId",
                      "type": "uint256"
                    },
                    {
                      "internalType": "enum CompanyRegistry.CompanyType",
                      "name": "companyType",
                      "type": "uint8"
                    },
                    {
                      "internalType": "address",
                      "name": "addr",
                      "type": "address"
                    },
                    {
                      "internalType": "string",
                      "name": "companyName",
                      "type": "string"
                    }
                  ],
                  "internalType": "struct CompanyRegistry.Company",
                  "name": "gradingLab",
                  "type": "tuple"
                },
                {
                  "internalType": "string",
                  "name": "clarity",
                  "type": "string"
                },
                {
                  "internalType": "uint256",
                  "name": "grade",
                  "type": "uint256"
                },
                {
                  "components": [
                    {
                      "internalType": "uint256",
                      "name": "rawId",
                      "type": "uint256"
                    },
                    {
                      "internalType": "string",
                      "name": "rawDiamondName",
                      "type": "string"
                    },
                    {
                      "internalType": "string",
                      "name": "rawDiamondColor",
                      "type": "string"
                    },
                    {
                      "internalType": "string",
                      "name": "cuttingGrade",
                      "type": "string"
                    },
                    {
                      "components": [
                        {
                          "internalType": "uint256",
                          "name": "companyId",
                          "type": "uint256"
                        },
                        {
                          "internalType": "enum CompanyRegistry.CompanyType",
                          "name": "companyType",
                          "type": "uint8"
                        },
                        {
                          "internalType": "address",
                          "name": "addr",
                          "type": "address"
                        },
                        {
                          "internalType": "string",
                          "name": "companyName",
                          "type": "string"
                        }
                      ],
                      "internalType": "struct CompanyRegistry.Company",
                      "name": "miningCompany",
                      "type": "tuple"
                    },
                    {
                      "components": [
                        {
                          "internalType": "uint256",
                          "name": "companyId",
                          "type": "uint256"
                        },
                        {
                          "internalType": "enum CompanyRegistry.CompanyType",
                          "name": "companyType",
                          "type": "uint8"
                        },
                        {
                          "internalType": "address",
                          "name": "addr",
                          "type": "address"
                        },
                        {
                          "internalType": "string",
                          "name": "companyName",
                          "type": "string"
                        }
                      ],
                      "internalType": "struct CompanyRegistry.Company",
                      "name": "cuttingCompany",
                      "type": "tuple"
                    }
                  ],
                  "internalType": "struct RawDiamondRegistry.RawDiamond",
                  "name": "rawDiamond",
                  "type": "tuple"
                }
              ],
              "internalType": "struct DiamondRegistry.Diamond",
              "name": "diamond",
              "type": "tuple"
            },
            {
              "internalType": "uint256",
              "name": "price",
              "type": "uint256"
            }
          ],
          "internalType": "struct JewelryShop.Jewelry[]",
          "name": "",
          "type": "tuple[]"
        }
      ],
      "stateMutability": "view",
      "type": "function",
      "constant": true
    },
    {
      "inputs": [
        {
          "internalType": "uint256",
          "name": "uniqueId",
          "type": "uint256"
        },
        {
          "internalType": "uint256",
          "name": "price",
          "type": "uint256"
        }
      ],
      "name": "diamondDesigning",
      "outputs": [],
      "stateMutability": "nonpayable",
      "type": "function"
    },
    {
      "inputs": [
        {
          "internalType": "uint256",
          "name": "jewelryId",
          "type": "uint256"
        }
      ],
      "name": "jewelryPurchase",
      "outputs": [],
      "stateMutability": "payable",
      "type": "function",
      "payable": true
    },
    {
      "inputs": [
        {
          "internalType": "uint256",
          "name": "jewelryId",
          "type": "uint256"
        }
      ],
      "name": "jewelryVerify",
      "outputs": [
        {
          "components": [
            {
              "internalType": "uint256",
              "name": "jewelryId",
              "type": "uint256"
            },
            {
              "internalType": "address",
              "name": "manufacturer",
              "type": "address"
            },
            {
              "internalType": "address",
              "name": "owner",
              "type": "address"
            },
            {
              "components": [
                {
                  "internalType": "uint256",
                  "name": "uniqueId",
                  "type": "uint256"
                },
                {
                  "components": [
                    {
                      "internalType": "uint256",
                      "name": "companyId",
                      "type": "uint256"
                    },
                    {
                      "internalType": "enum CompanyRegistry.CompanyType",
                      "name": "companyType",
                      "type": "uint8"
                    },
                    {
                      "internalType": "address",
                      "name": "addr",
                      "type": "address"
                    },
                    {
                      "internalType": "string",
                      "name": "companyName",
                      "type": "string"
                    }
                  ],
                  "internalType": "struct CompanyRegistry.Company",
                  "name": "gradingLab",
                  "type": "tuple"
                },
                {
                  "internalType": "string",
                  "name": "clarity",
                  "type": "string"
                },
                {
                  "internalType": "uint256",
                  "name": "grade",
                  "type": "uint256"
                },
                {
                  "components": [
                    {
                      "internalType": "uint256",
                      "name": "rawId",
                      "type": "uint256"
                    },
                    {
                      "internalType": "string",
                      "name": "rawDiamondName",
                      "type": "string"
                    },
                    {
                      "internalType": "string",
                      "name": "rawDiamondColor",
                      "type": "string"
                    },
                    {
                      "internalType": "string",
                      "name": "cuttingGrade",
                      "type": "string"
                    },
                    {
                      "components": [
                        {
                          "internalType": "uint256",
                          "name": "companyId",
                          "type": "uint256"
                        },
                        {
                          "internalType": "enum CompanyRegistry.CompanyType",
                          "name": "companyType",
                          "type": "uint8"
                        },
                        {
                          "internalType": "address",
                          "name": "addr",
                          "type": "address"
                        },
                        {
                          "internalType": "string",
                          "name": "companyName",
                          "type": "string"
                        }
                      ],
                      "internalType": "struct CompanyRegistry.Company",
                      "name": "miningCompany",
                      "type": "tuple"
                    },
                    {
                      "components": [
                        {
                          "internalType": "uint256",
                          "name": "companyId",
                          "type": "uint256"
                        },
                        {
                          "internalType": "enum CompanyRegistry.CompanyType",
                          "name": "companyType",
                          "type": "uint8"
                        },
                        {
                          "internalType": "address",
                          "name": "addr",
                          "type": "address"
                        },
                        {
                          "internalType": "string",
                          "name": "companyName",
                          "type": "string"
                        }
                      ],
                      "internalType": "struct CompanyRegistry.Company",
                      "name": "cuttingCompany",
                      "type": "tuple"
                    }
                  ],
                  "internalType": "struct RawDiamondRegistry.RawDiamond",
                  "name": "rawDiamond",
                  "type": "tuple"
                }
              ],
              "internalType": "struct DiamondRegistry.Diamond",
              "name": "diamond",
              "type": "tuple"
            },
            {
              "internalType": "uint256",
              "name": "price",
              "type": "uint256"
            }
          ],
          "internalType": "struct JewelryShop.Jewelry",
          "name": "",
          "type": "tuple"
        }
      ],
      "stateMutability": "view",
      "type": "function",
      "constant": true
    }
  ],
  "bytecode": "0x60806040523480156200001157600080fd5b5060405162002f4538038062002f458339818101604052810190620000379190620000d8565b81600260006101000a81548173ffffffffffffffffffffffffffffffffffffffff021916908373ffffffffffffffffffffffffffffffffffffffff16021790555080600360006101000a81548173ffffffffffffffffffffffffffffffffffffffff021916908373ffffffffffffffffffffffffffffffffffffffff160217905550505062000172565b600081519050620000d28162000158565b92915050565b60008060408385031215620000f257620000f162000153565b5b60006200010285828601620000c1565b92505060206200011585828601620000c1565b9150509250929050565b60006200012c8262000133565b9050919050565b600073ffffffffffffffffffffffffffffffffffffffff82169050919050565b600080fd5b62000163816200011f565b81146200016f57600080fd5b50565b612dc380620001826000396000f3fe6080604052600436106100705760003560e01c80638e1f29991161004e5780638e1f2999146100f45780639cf4dc7014610110578063a23fb7ae1461014d578063d4822fbf1461018e57610070565b8063365db402146100755780634974275c146100a05780637bb87bb3146100cb575b600080fd5b34801561008157600080fd5b5061008a6101b7565b6040516100979190612987565b60405180910390f35b3480156100ac57600080fd5b506100b56101bd565b6040516100c29190612923565b60405180910390f35b3480156100d757600080fd5b506100f260048036038101906100ed919061249c565b61098d565b005b61010e6004803603810190610109919061242f565b610f59565b005b34801561011c57600080fd5b506101376004803603810190610132919061242f565b610fb0565b6040516101449190612965565b60405180910390f35b34801561015957600080fd5b50610174600480360381019061016f919061242f565b6116ed565b6040516101859594939291906129a2565b60405180910390f35b34801561019a57600080fd5b506101b560048036038101906101b0919061245c565b611daa565b005b60015481565b6060600060015467ffffffffffffffff8111156101dd576101dc612cb4565b5b60405190808252806020026020018201604052801561021657816020015b610203611e6f565b8152602001906001900390816101fb5790505b50905060005b600154811015610985576000808281526020019081526020016000206040518060a0016040529081600082015481526020016001820160009054906101000a900473ffffffffffffffffffffffffffffffffffffffff1673ffffffffffffffffffffffffffffffffffffffff1673ffffffffffffffffffffffffffffffffffffffff1681526020016002820160009054906101000a900473ffffffffffffffffffffffffffffffffffffffff1673ffffffffffffffffffffffffffffffffffffffff1673ffffffffffffffffffffffffffffffffffffffff168152602001600382016040518060a00160405290816000820154815260200160018201604051806080016040529081600082015481526020016001820160009054906101000a900460ff16600381111561035257610351612c27565b5b600381111561036457610363612c27565b5b81526020016001820160019054906101000a900473ffffffffffffffffffffffffffffffffffffffff1673ffffffffffffffffffffffffffffffffffffffff1673ffffffffffffffffffffffffffffffffffffffff1681526020016002820180546103ce90612b4c565b80601f01602080910402602001604051908101604052809291908181526020018280546103fa90612b4c565b80156104475780601f1061041c57610100808354040283529160200191610447565b820191906000526020600020905b81548152906001019060200180831161042a57829003601f168201915b505050505081525050815260200160048201805461046490612b4c565b80601f016020809104026020016040519081016040528092919081815260200182805461049090612b4c565b80156104dd5780601f106104b2576101008083540402835291602001916104dd565b820191906000526020600020905b8154815290600101906020018083116104c057829003601f168201915b5050505050815260200160058201548152602001600682016040518060c00160405290816000820154815260200160018201805461051a90612b4c565b80601f016020809104026020016040519081016040528092919081815260200182805461054690612b4c565b80156105935780601f1061056857610100808354040283529160200191610593565b820191906000526020600020905b81548152906001019060200180831161057657829003601f168201915b505050505081526020016002820180546105ac90612b4c565b80601f01602080910402602001604051908101604052809291908181526020018280546105d890612b4c565b80156106255780601f106105fa57610100808354040283529160200191610625565b820191906000526020600020905b81548152906001019060200180831161060857829003601f168201915b5050505050815260200160038201805461063e90612b4c565b80601f016020809104026020016040519081016040528092919081815260200182805461066a90612b4c565b80156106b75780601f1061068c576101008083540402835291602001916106b7565b820191906000526020600020905b81548152906001019060200180831161069a57829003601f168201915b5050505050815260200160048201604051806080016040529081600082015481526020016001820160009054906101000a900460ff1660038111156106ff576106fe612c27565b5b600381111561071157610710612c27565b5b81526020016001820160019054906101000a900473ffffffffffffffffffffffffffffffffffffffff1673ffffffffffffffffffffffffffffffffffffffff1673ffffffffffffffffffffffffffffffffffffffff16815260200160028201805461077b90612b4c565b80601f01602080910402602001604051908101604052809291908181526020018280546107a790612b4c565b80156107f45780601f106107c9576101008083540402835291602001916107f4565b820191906000526020600020905b8154815290600101906020018083116107d757829003601f168201915b505050505081525050815260200160078201604051806080016040529081600082015481526020016001820160009054906101000a900460ff1660038111156108405761083f612c27565b5b600381111561085257610851612c27565b5b81526020016001820160019054906101000a900473ffffffffffffffffffffffffffffffffffffffff1673ffffffffffffffffffffffffffffffffffffffff1673ffffffffffffffffffffffffffffffffffffffff1681526020016002820180546108bc90612b4c565b80601f01602080910402602001604051908101604052809291908181526020018280546108e890612b4c565b80156109355780601f1061090a57610100808354040283529160200191610935565b820191906000526020600020905b81548152906001019060200180831161091857829003601f168201915b5050505050815250508152505081525050815260200160138201548152505082828151811061096757610966612c85565b5b6020026020010181905250808061097d90612baf565b91505061021c565b508091505090565b6003808111156109a05761099f612c27565b5b600260009054906101000a900473ffffffffffffffffffffffffffffffffffffffff1673ffffffffffffffffffffffffffffffffffffffff1663097bcc1a336040518263ffffffff1660e01b81526004016109fb9190612908565b60206040518083038186803b158015610a1357600080fd5b505afa158015610a27573d6000803e3d6000fd5b505050506040513d601f19601f82011682018060405250810190610a4b91906123b9565b6003811115610a5d57610a5c612c27565b5b14610a9d576040517f08c379a0000000000000000000000000000000000000000000000000000000008152600401610a9490612945565b60405180910390fd5b610aa5611e6f565b600360009054906101000a900473ffffffffffffffffffffffffffffffffffffffff1673ffffffffffffffffffffffffffffffffffffffff1663e3ed14db846040518263ffffffff1660e01b8152600401610b009190612987565b60006040518083038186803b158015610b1857600080fd5b505afa158015610b2c573d6000803e3d6000fd5b505050506040513d6000823e3d601f19601f82011682018060405250810190610b5591906123e6565b816060018190525033816020019073ffffffffffffffffffffffffffffffffffffffff16908173ffffffffffffffffffffffffffffffffffffffff168152505033816040019073ffffffffffffffffffffffffffffffffffffffff16908173ffffffffffffffffffffffffffffffffffffffff1681525050818160800181815250506001548160000181815250508060008060016000815480929190610bfa90612baf565b9190505581526020019081526020016000206000820151816000015560208201518160010160006101000a81548173ffffffffffffffffffffffffffffffffffffffff021916908373ffffffffffffffffffffffffffffffffffffffff16021790555060408201518160020160006101000a81548173ffffffffffffffffffffffffffffffffffffffff021916908373ffffffffffffffffffffffffffffffffffffffff160217905550606082015181600301600082015181600001556020820151816001016000820151816000015560208201518160010160006101000a81548160ff02191690836003811115610cf557610cf4612c27565b5b021790555060408201518160010160016101000a81548173ffffffffffffffffffffffffffffffffffffffff021916908373ffffffffffffffffffffffffffffffffffffffff1602179055506060820151816002019080519060200190610d5d929190611ed0565b5050506040820151816004019080519060200190610d7c929190611ed0565b5060608201518160050155608082015181600601600082015181600001556020820151816001019080519060200190610db6929190611ed0565b506040820151816002019080519060200190610dd3929190611ed0565b506060820151816003019080519060200190610df0929190611ed0565b506080820151816004016000820151816000015560208201518160010160006101000a81548160ff02191690836003811115610e2f57610e2e612c27565b5b021790555060408201518160010160016101000a81548173ffffffffffffffffffffffffffffffffffffffff021916908373ffffffffffffffffffffffffffffffffffffffff1602179055506060820151816002019080519060200190610e97929190611ed0565b50505060a0820151816007016000820151816000015560208201518160010160006101000a81548160ff02191690836003811115610ed857610ed7612c27565b5b021790555060408201518160010160016101000a81548173ffffffffffffffffffffffffffffffffffffffff021916908373ffffffffffffffffffffffffffffffffffffffff1602179055506060820151816002019080519060200190610f40929190611ed0565b5050505050505060808201518160130155905050505050565b3360008083815260200190815260200160002060020160006101000a81548173ffffffffffffffffffffffffffffffffffffffff021916908373ffffffffffffffffffffffffffffffffffffffff16021790555050565b610fb8611e6f565b6000808381526020019081526020016000206040518060a0016040529081600082015481526020016001820160009054906101000a900473ffffffffffffffffffffffffffffffffffffffff1673ffffffffffffffffffffffffffffffffffffffff1673ffffffffffffffffffffffffffffffffffffffff1681526020016002820160009054906101000a900473ffffffffffffffffffffffffffffffffffffffff1673ffffffffffffffffffffffffffffffffffffffff1673ffffffffffffffffffffffffffffffffffffffff168152602001600382016040518060a00160405290816000820154815260200160018201604051806080016040529081600082015481526020016001820160009054906101000a900460ff1660038111156110e4576110e3612c27565b5b60038111156110f6576110f5612c27565b5b81526020016001820160019054906101000a900473ffffffffffffffffffffffffffffffffffffffff1673ffffffffffffffffffffffffffffffffffffffff1673ffffffffffffffffffffffffffffffffffffffff16815260200160028201805461116090612b4c565b80601f016020809104026020016040519081016040528092919081815260200182805461118c90612b4c565b80156111d95780601f106111ae576101008083540402835291602001916111d9565b820191906000526020600020905b8154815290600101906020018083116111bc57829003601f168201915b50505050508152505081526020016004820180546111f690612b4c565b80601f016020809104026020016040519081016040528092919081815260200182805461122290612b4c565b801561126f5780601f106112445761010080835404028352916020019161126f565b820191906000526020600020905b81548152906001019060200180831161125257829003601f168201915b5050505050815260200160058201548152602001600682016040518060c0016040529081600082015481526020016001820180546112ac90612b4c565b80601f01602080910402602001604051908101604052809291908181526020018280546112d890612b4c565b80156113255780601f106112fa57610100808354040283529160200191611325565b820191906000526020600020905b81548152906001019060200180831161130857829003601f168201915b5050505050815260200160028201805461133e90612b4c565b80601f016020809104026020016040519081016040528092919081815260200182805461136a90612b4c565b80156113b75780601f1061138c576101008083540402835291602001916113b7565b820191906000526020600020905b81548152906001019060200180831161139a57829003601f168201915b505050505081526020016003820180546113d090612b4c565b80601f01602080910402602001604051908101604052809291908181526020018280546113fc90612b4c565b80156114495780601f1061141e57610100808354040283529160200191611449565b820191906000526020600020905b81548152906001019060200180831161142c57829003601f168201915b5050505050815260200160048201604051806080016040529081600082015481526020016001820160009054906101000a900460ff16600381111561149157611490612c27565b5b60038111156114a3576114a2612c27565b5b81526020016001820160019054906101000a900473ffffffffffffffffffffffffffffffffffffffff1673ffffffffffffffffffffffffffffffffffffffff1673ffffffffffffffffffffffffffffffffffffffff16815260200160028201805461150d90612b4c565b80601f016020809104026020016040519081016040528092919081815260200182805461153990612b4c565b80156115865780601f1061155b57610100808354040283529160200191611586565b820191906000526020600020905b81548152906001019060200180831161156957829003601f168201915b505050505081525050815260200160078201604051806080016040529081600082015481526020016001820160009054906101000a900460ff1660038111156115d2576115d1612c27565b5b60038111156115e4576115e3612c27565b5b81526020016001820160019054906101000a900473ffffffffffffffffffffffffffffffffffffffff1673ffffffffffffffffffffffffffffffffffffffff1673ffffffffffffffffffffffffffffffffffffffff16815260200160028201805461164e90612b4c565b80601f016020809104026020016040519081016040528092919081815260200182805461167a90612b4c565b80156116c75780601f1061169c576101008083540402835291602001916116c7565b820191906000526020600020905b8154815290600101906020018083116116aa57829003601f168201915b505050505081525050815250508152505081526020016013820154815250509050919050565b60006020528060005260406000206000915090508060000154908060010160009054906101000a900473ffffffffffffffffffffffffffffffffffffffff16908060020160009054906101000a900473ffffffffffffffffffffffffffffffffffffffff1690806003016040518060a00160405290816000820154815260200160018201604051806080016040529081600082015481526020016001820160009054906101000a900460ff1660038111156117ab576117aa612c27565b5b60038111156117bd576117bc612c27565b5b81526020016001820160019054906101000a900473ffffffffffffffffffffffffffffffffffffffff1673ffffffffffffffffffffffffffffffffffffffff1673ffffffffffffffffffffffffffffffffffffffff16815260200160028201805461182790612b4c565b80601f016020809104026020016040519081016040528092919081815260200182805461185390612b4c565b80156118a05780601f10611875576101008083540402835291602001916118a0565b820191906000526020600020905b81548152906001019060200180831161188357829003601f168201915b50505050508152505081526020016004820180546118bd90612b4c565b80601f01602080910402602001604051908101604052809291908181526020018280546118e990612b4c565b80156119365780601f1061190b57610100808354040283529160200191611936565b820191906000526020600020905b81548152906001019060200180831161191957829003601f168201915b5050505050815260200160058201548152602001600682016040518060c00160405290816000820154815260200160018201805461197390612b4c565b80601f016020809104026020016040519081016040528092919081815260200182805461199f90612b4c565b80156119ec5780601f106119c1576101008083540402835291602001916119ec565b820191906000526020600020905b8154815290600101906020018083116119cf57829003601f168201915b50505050508152602001600282018054611a0590612b4c565b80601f0160208091040260200160405190810160405280929190818152602001828054611a3190612b4c565b8015611a7e5780601f10611a5357610100808354040283529160200191611a7e565b820191906000526020600020905b815481529060010190602001808311611a6157829003601f168201915b50505050508152602001600382018054611a9790612b4c565b80601f0160208091040260200160405190810160405280929190818152602001828054611ac390612b4c565b8015611b105780601f10611ae557610100808354040283529160200191611b10565b820191906000526020600020905b815481529060010190602001808311611af357829003601f168201915b5050505050815260200160048201604051806080016040529081600082015481526020016001820160009054906101000a900460ff166003811115611b5857611b57612c27565b5b6003811115611b6a57611b69612c27565b5b81526020016001820160019054906101000a900473ffffffffffffffffffffffffffffffffffffffff1673ffffffffffffffffffffffffffffffffffffffff1673ffffffffffffffffffffffffffffffffffffffff168152602001600282018054611bd490612b4c565b80601f0160208091040260200160405190810160405280929190818152602001828054611c0090612b4c565b8015611c4d5780601f10611c2257610100808354040283529160200191611c4d565b820191906000526020600020905b815481529060010190602001808311611c3057829003601f168201915b505050505081525050815260200160078201604051806080016040529081600082015481526020016001820160009054906101000a900460ff166003811115611c9957611c98612c27565b5b6003811115611cab57611caa612c27565b5b81526020016001820160019054906101000a900473ffffffffffffffffffffffffffffffffffffffff1673ffffffffffffffffffffffffffffffffffffffff1673ffffffffffffffffffffffffffffffffffffffff168152602001600282018054611d1590612b4c565b80601f0160208091040260200160405190810160405280929190818152602001828054611d4190612b4c565b8015611d8e5780601f10611d6357610100808354040283529160200191611d8e565b820191906000526020600020905b815481529060010190602001808311611d7157829003601f168201915b5050505050815250508152505081525050908060130154905085565b3373ffffffffffffffffffffffffffffffffffffffff1660008084815260200190815260200160002060020160009054906101000a900473ffffffffffffffffffffffffffffffffffffffff1673ffffffffffffffffffffffffffffffffffffffff1614611e1757600080fd5b8060008084815260200190815260200160002060020160006101000a81548173ffffffffffffffffffffffffffffffffffffffff021916908373ffffffffffffffffffffffffffffffffffffffff1602179055505050565b6040518060a0016040528060008152602001600073ffffffffffffffffffffffffffffffffffffffff168152602001600073ffffffffffffffffffffffffffffffffffffffff168152602001611ec3611f56565b8152602001600081525090565b828054611edc90612b4c565b90600052602060002090601f016020900481019282611efe5760008555611f45565b82601f10611f1757805160ff1916838001178555611f45565b82800160010185558215611f45579182015b82811115611f44578251825591602001919060010190611f29565b5b509050611f529190611f91565b5090565b6040518060a0016040528060008152602001611f70611fae565b81526020016060815260200160008152602001611f8b611ffe565b81525090565b5b80821115611faa576000816000905550600101611f92565b5090565b60405180608001604052806000815260200160006003811115611fd457611fd3612c27565b5b8152602001600073ffffffffffffffffffffffffffffffffffffffff168152602001606081525090565b6040518060c001604052806000815260200160608152602001606081526020016060815260200161202d611fae565b815260200161203a611fae565b81525090565b600061205361204e84612a21565b6129fc565b90508281526020810184848401111561206f5761206e612cf2565b5b61207a848285612b19565b509392505050565b60008135905061209181612d4f565b92915050565b6000815190506120a681612d4f565b92915050565b6000815190506120bb81612d66565b92915050565b600082601f8301126120d6576120d5612ce3565b5b81516120e6848260208601612040565b91505092915050565b60006080828403121561210557612104612ce8565b5b61210f60806129fc565b9050600061211f848285016123a4565b6000830152506020612133848285016120ac565b602083015250604061214784828501612097565b604083015250606082015167ffffffffffffffff81111561216b5761216a612ced565b5b612177848285016120c1565b60608301525092915050565b600060a0828403121561219957612198612ce8565b5b6121a360a06129fc565b905060006121b3848285016123a4565b600083015250602082015167ffffffffffffffff8111156121d7576121d6612ced565b5b6121e3848285016120ef565b602083015250604082015167ffffffffffffffff81111561220757612206612ced565b5b612213848285016120c1565b6040830152506060612227848285016123a4565b606083015250608082015167ffffffffffffffff81111561224b5761224a612ced565b5b61225784828501612263565b60808301525092915050565b600060c0828403121561227957612278612ce8565b5b61228360c06129fc565b90506000612293848285016123a4565b600083015250602082015167ffffffffffffffff8111156122b7576122b6612ced565b5b6122c3848285016120c1565b602083015250604082015167ffffffffffffffff8111156122e7576122e6612ced565b5b6122f3848285016120c1565b604083015250606082015167ffffffffffffffff81111561231757612316612ced565b5b612323848285016120c1565b606083015250608082015167ffffffffffffffff81111561234757612346612ced565b5b612353848285016120ef565b60808301525060a082015167ffffffffffffffff81111561237757612376612ced565b5b612383848285016120ef565b60a08301525092915050565b60008135905061239e81612d76565b92915050565b6000815190506123b381612d76565b92915050565b6000602082840312156123cf576123ce612cfc565b5b60006123dd848285016120ac565b91505092915050565b6000602082840312156123fc576123fb612cfc565b5b600082015167ffffffffffffffff81111561241a57612419612cf7565b5b61242684828501612183565b91505092915050565b60006020828403121561244557612444612cfc565b5b60006124538482850161238f565b91505092915050565b6000806040838503121561247357612472612cfc565b5b60006124818582860161238f565b925050602061249285828601612082565b9150509250929050565b600080604083850312156124b3576124b2612cfc565b5b60006124c18582860161238f565b92505060206124d28582860161238f565b9150509250929050565b60006124e88383612759565b905092915050565b6124f981612ab8565b82525050565b61250881612ab8565b82525050565b600061251982612a62565b6125238185612a85565b93508360208202850161253585612a52565b8060005b85811015612571578484038952815161255285826124dc565b945061255d83612a78565b925060208a01995050600181019050612539565b50829750879550505050505092915050565b61258c81612b07565b82525050565b600061259d82612a6d565b6125a78185612a96565b93506125b7818560208601612b19565b6125c081612d01565b840191505092915050565b60006125d8601e83612aa7565b91506125e382612d12565b602082019050919050565b600060808301600083015161260660008601826128ea565b5060208301516126196020860182612583565b50604083015161262c60408601826124f0565b50606083015184820360608601526126448282612592565b9150508091505092915050565b600060a08301600083015161266960008601826128ea565b506020830151848203602086015261268182826125ee565b9150506040830151848203604086015261269b8282612592565b91505060608301516126b060608601826128ea565b50608083015184820360808601526126c88282612845565b9150508091505092915050565b600060a0830160008301516126ed60008601826128ea565b506020830151848203602086015261270582826125ee565b9150506040830151848203604086015261271f8282612592565b915050606083015161273460608601826128ea565b506080830151848203608086015261274c8282612845565b9150508091505092915050565b600060a08301600083015161277160008601826128ea565b50602083015161278460208601826124f0565b50604083015161279760408601826124f0565b50606083015184820360608601526127af8282612651565b91505060808301516127c460808601826128ea565b508091505092915050565b600060a0830160008301516127e760008601826128ea565b5060208301516127fa60208601826124f0565b50604083015161280d60408601826124f0565b50606083015184820360608601526128258282612651565b915050608083015161283a60808601826128ea565b508091505092915050565b600060c08301600083015161285d60008601826128ea565b50602083015184820360208601526128758282612592565b9150506040830151848203604086015261288f8282612592565b915050606083015184820360608601526128a98282612592565b915050608083015184820360808601526128c382826125ee565b91505060a083015184820360a08601526128dd82826125ee565b9150508091505092915050565b6128f381612afd565b82525050565b61290281612afd565b82525050565b600060208201905061291d60008301846124ff565b92915050565b6000602082019050818103600083015261293d818461250e565b905092915050565b6000602082019050818103600083015261295e816125cb565b9050919050565b6000602082019050818103600083015261297f81846127cf565b905092915050565b600060208201905061299c60008301846128f9565b92915050565b600060a0820190506129b760008301886128f9565b6129c460208301876124ff565b6129d160408301866124ff565b81810360608301526129e381856126d5565b90506129f260808301846128f9565b9695505050505050565b6000612a06612a17565b9050612a128282612b7e565b919050565b6000604051905090565b600067ffffffffffffffff821115612a3c57612a3b612cb4565b5b612a4582612d01565b9050602081019050919050565b6000819050602082019050919050565b600081519050919050565b600081519050919050565b6000602082019050919050565b600082825260208201905092915050565b600082825260208201905092915050565b600082825260208201905092915050565b6000612ac382612add565b9050919050565b6000819050612ad882612d3b565b919050565b600073ffffffffffffffffffffffffffffffffffffffff82169050919050565b6000819050919050565b6000612b1282612aca565b9050919050565b60005b83811015612b37578082015181840152602081019050612b1c565b83811115612b46576000848401525b50505050565b60006002820490506001821680612b6457607f821691505b60208210811415612b7857612b77612c56565b5b50919050565b612b8782612d01565b810181811067ffffffffffffffff82111715612ba657612ba5612cb4565b5b80604052505050565b6000612bba82612afd565b91507fffffffffffffffffffffffffffffffffffffffffffffffffffffffffffffffff821415612bed57612bec612bf8565b5b600182019050919050565b7f4e487b7100000000000000000000000000000000000000000000000000000000600052601160045260246000fd5b7f4e487b7100000000000000000000000000000000000000000000000000000000600052602160045260246000fd5b7f4e487b7100000000000000000000000000000000000000000000000000000000600052602260045260246000fd5b7f4e487b7100000000000000000000000000000000000000000000000000000000600052603260045260246000fd5b7f4e487b7100000000000000000000000000000000000000000000000000000000600052604160045260246000fd5b600080fd5b600080fd5b600080fd5b600080fd5b600080fd5b600080fd5b6000601f19601f8301169050919050565b7f596f7520617265206e6f7420746865206d616e75666163747572657273210000600082015250565b60048110612d4c57612d4b612c27565b5b50565b612d5881612ab8565b8114612d6357600080fd5b50565b60048110612d7357600080fd5b50565b612d7f81612afd565b8114612d8a57600080fd5b5056fea2646970667358221220f65e3544fc9980304e3d88b8549631d5aa9c52b3fc8217123d79226d554e138b64736f6c63430008070033",
  "immutableReferences": {},
  "source": "// SPDX-License-Identifier: MIT\npragma solidity ^0.8.7;\n\nimport \"./CompanyRegistry.sol\";\nimport \"./DiamondRegistry.sol\";\n\ncontract JewelryShop {\n    struct Jewelry {\n        uint256 jewelryId;\n        address manufacturer;\n        address owner;\n        DiamondRegistry.Diamond diamond;\n        uint256 price;\n    }\n\n    mapping(uint256 => Jewelry) public jewelryItems;\n    uint256 public jewelryCounts;\n\n    CompanyRegistry private companyRegistry;\n    DiamondRegistry private diamondRegistry;\n\n    constructor(address _companyRegistry, address _diamondRegistry) {\n        companyRegistry = CompanyRegistry(_companyRegistry);\n        diamondRegistry = DiamondRegistry(_diamondRegistry);\n    }\n\n    modifier onlyManufacturer() {\n        require(\n            companyRegistry.getCompanyType(msg.sender) ==\n                CompanyRegistry.CompanyType.Manufacturer,\n            \"You are not the manufacturers!\"\n        );\n        _;\n    }\n\n    function transferTo(uint256 _jewelryId, address _to) public {\n        require(jewelryItems[_jewelryId].owner == msg.sender);\n        jewelryItems[_jewelryId].owner = _to;\n    }\n\n    function getAllJewels() public view returns (Jewelry[] memory) {\n        Jewelry[] memory allJewels = new Jewelry[](jewelryCounts);\n        for (uint i = 0; i < jewelryCounts; i++) {\n            allJewels[i] = jewelryItems[i];\n        }\n        return allJewels;\n    }\n\n    function diamondDesigning(\n        uint256 uniqueId,\n        uint256 price\n    ) public onlyManufacturer {\n        // todo \n        Jewelry memory newJewelry;\n        newJewelry.diamond = diamondRegistry.getDiamond(uniqueId);\n        newJewelry.manufacturer = msg.sender;\n        newJewelry.owner = msg.sender;\n        newJewelry.price = price;\n        newJewelry.jewelryId = jewelryCounts;\n        jewelryItems[jewelryCounts++] = newJewelry;\n    }\n\n    function jewelryPurchase(uint256 jewelryId) public payable {\n        // uint256 price = jewelryItems[jewelryId].price;\n        // require(msg.value == price);\n        jewelryItems[jewelryId].owner = msg.sender;\n    }\n\n    function jewelryVerify(\n        uint256 jewelryId\n    ) public view returns (Jewelry memory) {\n        return jewelryItems[jewelryId];\n    }\n}\n",
  "sourcePath": "/Users/huanghongbin/VsCodeProjests/tracing-luxury/src/contracts/JewelryShop.sol",
  "compiler": {
    "name": "solc",
    "version": "0.8.7+commit.e28d00a7.Emscripten.clang"
  },
  "schemaVersion": "3.4.16",
  "updatedAt": "2023-11-21T10:37:36.952Z",
  "networkType": "ethereum",
  "devdoc": {
    "kind": "dev",
    "methods": {},
    "version": 1
  },
  "userdoc": {
    "kind": "user",
    "methods": {},
    "version": 1
  }
}