{
  "contractName": "JewelryShop",
  "abi": [
    {
      "inputs": [
        {
          "internalType": "address",
          "name": "_companyRegistry",
          "type": "address"
        },
        {
          "internalType": "address",
          "name": "_diamondRegistry",
          "type": "address"
        }
      ],
      "stateMutability": "nonpayable",
      "type": "constructor"
    },
    {
      "inputs": [],
      "name": "jewelryCounts",
      "outputs": [
        {
          "internalType": "uint256",
          "name": "",
          "type": "uint256"
        }
      ],
      "stateMutability": "view",
      "type": "function",
      "constant": true
    },
    {
      "inputs": [
        {
          "internalType": "uint256",
          "name": "",
          "type": "uint256"
        }
      ],
      "name": "jewelryItems",
      "outputs": [
        {
          "internalType": "uint256",
          "name": "jewelryId",
          "type": "uint256"
        },
        {
          "internalType": "address",
          "name": "manufacturer",
          "type": "address"
        },
        {
          "internalType": "address",
          "name": "owner",
          "type": "address"
        },
        {
          "components": [
            {
              "internalType": "uint256",
              "name": "uniqueId",
              "type": "uint256"
            },
            {
              "internalType": "address",
              "name": "gradingLab",
              "type": "address"
            },
            {
              "components": [
                {
                  "internalType": "uint256",
                  "name": "rawId",
                  "type": "uint256"
                },
                {
                  "internalType": "address",
                  "name": "miningCompany",
                  "type": "address"
                },
                {
                  "internalType": "address",
                  "name": "cuttingCompany",
                  "type": "address"
                }
              ],
              "internalType": "struct RawDiamondRegistry.RawDiamond",
              "name": "rawDiamond",
              "type": "tuple"
            }
          ],
          "internalType": "struct DiamondRegistry.Diamond",
          "name": "diamond",
          "type": "tuple"
        },
        {
          "internalType": "uint256",
          "name": "price",
          "type": "uint256"
        }
      ],
      "stateMutability": "view",
      "type": "function",
      "constant": true
    },
    {
      "inputs": [
        {
          "internalType": "uint256",
          "name": "uniqueId",
          "type": "uint256"
        }
      ],
      "name": "diamondDesigning",
      "outputs": [],
      "stateMutability": "nonpayable",
      "type": "function"
    },
    {
      "inputs": [
        {
          "internalType": "uint256",
          "name": "jewelryId",
          "type": "uint256"
        }
      ],
      "name": "jewelryPurchase",
      "outputs": [],
      "stateMutability": "payable",
      "type": "function",
      "payable": true
    },
    {
      "inputs": [
        {
          "internalType": "uint256",
          "name": "jewelryId",
          "type": "uint256"
        }
      ],
      "name": "jewelryVerify",
      "outputs": [
        {
          "components": [
            {
              "internalType": "uint256",
              "name": "jewelryId",
              "type": "uint256"
            },
            {
              "internalType": "address",
              "name": "manufacturer",
              "type": "address"
            },
            {
              "internalType": "address",
              "name": "owner",
              "type": "address"
            },
            {
              "components": [
                {
                  "internalType": "uint256",
                  "name": "uniqueId",
                  "type": "uint256"
                },
                {
                  "internalType": "address",
                  "name": "gradingLab",
                  "type": "address"
                },
                {
                  "components": [
                    {
                      "internalType": "uint256",
                      "name": "rawId",
                      "type": "uint256"
                    },
                    {
                      "internalType": "address",
                      "name": "miningCompany",
                      "type": "address"
                    },
                    {
                      "internalType": "address",
                      "name": "cuttingCompany",
                      "type": "address"
                    }
                  ],
                  "internalType": "struct RawDiamondRegistry.RawDiamond",
                  "name": "rawDiamond",
                  "type": "tuple"
                }
              ],
              "internalType": "struct DiamondRegistry.Diamond",
              "name": "diamond",
              "type": "tuple"
            },
            {
              "internalType": "uint256",
              "name": "price",
              "type": "uint256"
            }
          ],
          "internalType": "struct JewelryShop.Jewelry",
          "name": "",
          "type": "tuple"
        }
      ],
      "stateMutability": "view",
      "type": "function",
      "constant": true
    }
  ],
  "bytecode": "0x60806040523480156200001157600080fd5b5060405162001206380380620012068339818101604052810190620000379190620000d8565b81600260006101000a81548173ffffffffffffffffffffffffffffffffffffffff021916908373ffffffffffffffffffffffffffffffffffffffff16021790555080600360006101000a81548173ffffffffffffffffffffffffffffffffffffffff021916908373ffffffffffffffffffffffffffffffffffffffff160217905550505062000172565b600081519050620000d28162000158565b92915050565b60008060408385031215620000f257620000f162000153565b5b60006200010285828601620000c1565b92505060206200011585828601620000c1565b9150509250929050565b60006200012c8262000133565b9050919050565b600073ffffffffffffffffffffffffffffffffffffffff82169050919050565b600080fd5b62000163816200011f565b81146200016f57600080fd5b50565b61108480620001826000396000f3fe60806040526004361061004a5760003560e01c8063365db4021461004f5780637a7c150b1461007a5780638e1f2999146100a35780639cf4dc70146100bf578063a23fb7ae146100fc575b600080fd5b34801561005b57600080fd5b5061006461013d565b6040516100719190610de3565b60405180910390f35b34801561008657600080fd5b506100a1600480360381019061009c9190610bd0565b610143565b005b6100bd60048036038101906100b89190610bd0565b61051d565b005b3480156100cb57600080fd5b506100e660048036038101906100e19190610bd0565b61059b565b6040516100f39190610dc7565b60405180910390f35b34801561010857600080fd5b50610123600480360381019061011e9190610bd0565b6107c5565b604051610134959493929190610dfe565b60405180910390f35b60015481565b60038081111561015657610155610f6e565b5b600260009054906101000a900473ffffffffffffffffffffffffffffffffffffffff1673ffffffffffffffffffffffffffffffffffffffff1663097bcc1a336040518263ffffffff1660e01b81526004016101b19190610d8c565b60206040518083038186803b1580156101c957600080fd5b505afa1580156101dd573d6000803e3d6000fd5b505050506040513d601f19601f820116820180604052508101906102019190610b76565b600381111561021357610212610f6e565b5b14610253576040517f08c379a000000000000000000000000000000000000000000000000000000000815260040161024a90610da7565b60405180910390fd5b61025b61096f565b600360009054906101000a900473ffffffffffffffffffffffffffffffffffffffff1673ffffffffffffffffffffffffffffffffffffffff1663e3ed14db836040518263ffffffff1660e01b81526004016102b69190610de3565b60a06040518083038186803b1580156102ce57600080fd5b505afa1580156102e2573d6000803e3d6000fd5b505050506040513d601f19601f820116820180604052508101906103069190610ba3565b816060018190525033816020019073ffffffffffffffffffffffffffffffffffffffff16908173ffffffffffffffffffffffffffffffffffffffff168152505060006001600081548092919061035b90610ef6565b919050559050816000808381526020019081526020016000206000820151816000015560208201518160010160006101000a81548173ffffffffffffffffffffffffffffffffffffffff021916908373ffffffffffffffffffffffffffffffffffffffff16021790555060408201518160020160006101000a81548173ffffffffffffffffffffffffffffffffffffffff021916908373ffffffffffffffffffffffffffffffffffffffff1602179055506060820151816003016000820151816000015560208201518160010160006101000a81548173ffffffffffffffffffffffffffffffffffffffff021916908373ffffffffffffffffffffffffffffffffffffffff1602179055506040820151816002016000820151816000015560208201518160010160006101000a81548173ffffffffffffffffffffffffffffffffffffffff021916908373ffffffffffffffffffffffffffffffffffffffff16021790555060408201518160020160006101000a81548173ffffffffffffffffffffffffffffffffffffffff021916908373ffffffffffffffffffffffffffffffffffffffff1602179055505050505060808201518160080155905050505050565b600080600083815260200190815260200160002060080154905080341461054357600080fd5b3360008084815260200190815260200160002060020160006101000a81548173ffffffffffffffffffffffffffffffffffffffff021916908373ffffffffffffffffffffffffffffffffffffffff1602179055505050565b6105a361096f565b6000808381526020019081526020016000206040518060a0016040529081600082015481526020016001820160009054906101000a900473ffffffffffffffffffffffffffffffffffffffff1673ffffffffffffffffffffffffffffffffffffffff1673ffffffffffffffffffffffffffffffffffffffff1681526020016002820160009054906101000a900473ffffffffffffffffffffffffffffffffffffffff1673ffffffffffffffffffffffffffffffffffffffff1673ffffffffffffffffffffffffffffffffffffffff16815260200160038201604051806060016040529081600082015481526020016001820160009054906101000a900473ffffffffffffffffffffffffffffffffffffffff1673ffffffffffffffffffffffffffffffffffffffff1673ffffffffffffffffffffffffffffffffffffffff16815260200160028201604051806060016040529081600082015481526020016001820160009054906101000a900473ffffffffffffffffffffffffffffffffffffffff1673ffffffffffffffffffffffffffffffffffffffff1673ffffffffffffffffffffffffffffffffffffffff1681526020016002820160009054906101000a900473ffffffffffffffffffffffffffffffffffffffff1673ffffffffffffffffffffffffffffffffffffffff1673ffffffffffffffffffffffffffffffffffffffff16815250508152505081526020016008820154815250509050919050565b60006020528060005260406000206000915090508060000154908060010160009054906101000a900473ffffffffffffffffffffffffffffffffffffffff16908060020160009054906101000a900473ffffffffffffffffffffffffffffffffffffffff169080600301604051806060016040529081600082015481526020016001820160009054906101000a900473ffffffffffffffffffffffffffffffffffffffff1673ffffffffffffffffffffffffffffffffffffffff1673ffffffffffffffffffffffffffffffffffffffff16815260200160028201604051806060016040529081600082015481526020016001820160009054906101000a900473ffffffffffffffffffffffffffffffffffffffff1673ffffffffffffffffffffffffffffffffffffffff1673ffffffffffffffffffffffffffffffffffffffff1681526020016002820160009054906101000a900473ffffffffffffffffffffffffffffffffffffffff1673ffffffffffffffffffffffffffffffffffffffff1673ffffffffffffffffffffffffffffffffffffffff168152505081525050908060080154905085565b6040518060a0016040528060008152602001600073ffffffffffffffffffffffffffffffffffffffff168152602001600073ffffffffffffffffffffffffffffffffffffffff1681526020016109c36109d0565b8152602001600081525090565b604051806060016040528060008152602001600073ffffffffffffffffffffffffffffffffffffffff168152602001610a07610a0d565b81525090565b604051806060016040528060008152602001600073ffffffffffffffffffffffffffffffffffffffff168152602001600073ffffffffffffffffffffffffffffffffffffffff1681525090565b600081519050610a6981611010565b92915050565b600081519050610a7e81611027565b92915050565b600060a08284031215610a9a57610a99610fcc565b5b610aa46060610e53565b90506000610ab484828501610b61565b6000830152506020610ac884828501610a5a565b6020830152506040610adc84828501610ae8565b60408301525092915050565b600060608284031215610afe57610afd610fcc565b5b610b086060610e53565b90506000610b1884828501610b61565b6000830152506020610b2c84828501610a5a565b6020830152506040610b4084828501610a5a565b60408301525092915050565b600081359050610b5b81611037565b92915050565b600081519050610b7081611037565b92915050565b600060208284031215610b8c57610b8b610fd1565b5b6000610b9a84828501610a6f565b91505092915050565b600060a08284031215610bb957610bb8610fd1565b5b6000610bc784828501610a84565b91505092915050565b600060208284031215610be657610be5610fd1565b5b6000610bf484828501610b4c565b91505092915050565b610c0681610e89565b82525050565b610c1581610e89565b82525050565b6000610c28601e83610e78565b9150610c3382610fe7565b602082019050919050565b60a082016000820151610c546000850182610d6e565b506020820151610c676020850182610bfd565b506040820151610c7a6040850182610d2c565b50505050565b60a082016000820151610c966000850182610d6e565b506020820151610ca96020850182610bfd565b506040820151610cbc6040850182610d2c565b50505050565b61012082016000820151610cd96000850182610d6e565b506020820151610cec6020850182610bfd565b506040820151610cff6040850182610bfd565b506060820151610d126060850182610c3e565b506080820151610d26610100850182610d6e565b50505050565b606082016000820151610d426000850182610d6e565b506020820151610d556020850182610bfd565b506040820151610d686040850182610bfd565b50505050565b610d7781610ebb565b82525050565b610d8681610ebb565b82525050565b6000602082019050610da16000830184610c0c565b92915050565b60006020820190508181036000830152610dc081610c1b565b9050919050565b600061012082019050610ddd6000830184610cc2565b92915050565b6000602082019050610df86000830184610d7d565b92915050565b600061012082019050610e146000830188610d7d565b610e216020830187610c0c565b610e2e6040830186610c0c565b610e3b6060830185610c80565b610e49610100830184610d7d565b9695505050505050565b6000610e5d610e6e565b9050610e698282610ec5565b919050565b6000604051905090565b600082825260208201905092915050565b6000610e9482610e9b565b9050919050565b600073ffffffffffffffffffffffffffffffffffffffff82169050919050565b6000819050919050565b610ece82610fd6565b810181811067ffffffffffffffff82111715610eed57610eec610f9d565b5b80604052505050565b6000610f0182610ebb565b91507fffffffffffffffffffffffffffffffffffffffffffffffffffffffffffffffff821415610f3457610f33610f3f565b5b600182019050919050565b7f4e487b7100000000000000000000000000000000000000000000000000000000600052601160045260246000fd5b7f4e487b7100000000000000000000000000000000000000000000000000000000600052602160045260246000fd5b7f4e487b7100000000000000000000000000000000000000000000000000000000600052604160045260246000fd5b600080fd5b600080fd5b6000601f19601f8301169050919050565b7f596f7520617265206e6f7420746865206d616e75666163747572657273210000600082015250565b61101981610e89565b811461102457600080fd5b50565b6004811061103457600080fd5b50565b61104081610ebb565b811461104b57600080fd5b5056fea26469706673582212209572298924af228861ba659ac1989214bc1bead6bc21c8c13c1f0a32a06fec3c64736f6c63430008070033",
  "immutableReferences": {},
  "source": "// SPDX-License-Identifier: MIT\npragma solidity ^0.8.7;\n\nimport \"./CompanyRegistry.sol\";\nimport \"./DiamondRegistry.sol\";\n\ncontract JewelryShop {\n    struct Jewelry {\n        uint256 jewelryId;\n        address manufacturer;\n        address owner;\n        DiamondRegistry.Diamond diamond;\n        uint256 price;\n    }\n\n    mapping(uint256 => Jewelry) public jewelryItems;\n    uint256 public jewelryCounts;\n\n    CompanyRegistry private companyRegistry;\n    DiamondRegistry private diamondRegistry;\n\n    constructor(address _companyRegistry, address _diamondRegistry) {\n        companyRegistry = CompanyRegistry(_companyRegistry);\n        diamondRegistry = DiamondRegistry(_diamondRegistry);\n    }\n\n    modifier onlyManufacturer() {\n        require(\n            companyRegistry.getCompanyType(msg.sender) == CompanyRegistry.CompanyType.Manufacturer,\n            \"You are not the manufacturers!\"\n        );\n        _;\n    }\n\n    function diamondDesigning(uint256 uniqueId) public onlyManufacturer { // todo \n        Jewelry memory newJewelry;\n        newJewelry.diamond = diamondRegistry.getDiamond(uniqueId);\n        newJewelry.manufacturer = msg.sender;\n        uint256 jewelryId = jewelryCounts++;\n        jewelryItems[jewelryId] = newJewelry;\n    }\n\n    function jewelryPurchase(uint256 jewelryId) public payable {\n        uint256 price = jewelryItems[jewelryId].price;\n        require(msg.value == price);\n        jewelryItems[jewelryId].owner = msg.sender;\n    }\n\n    function jewelryVerify(uint256 jewelryId) public view returns (Jewelry memory) {\n        return jewelryItems[jewelryId];\n    }\n}",
  "sourcePath": "/Users/huanghongbin/VsCodeProjests/tracing-luxury/src/contracts/JewelryShop.sol",
  "compiler": {
    "name": "solc",
    "version": "0.8.7+commit.e28d00a7.Emscripten.clang"
  },
  "schemaVersion": "3.4.16",
  "updatedAt": "2023-11-11T07:57:23.627Z",
  "networkType": "ethereum",
  "devdoc": {
    "kind": "dev",
    "methods": {},
    "version": 1
  },
  "userdoc": {
    "kind": "user",
    "methods": {},
    "version": 1
  }
}