{
  "contractName": "JewelryShop",
  "abi": [
    {
      "inputs": [
        {
          "internalType": "address",
          "name": "_companyRegistry",
          "type": "address"
        },
        {
          "internalType": "address",
          "name": "_diamondRegistry",
          "type": "address"
        }
      ],
      "stateMutability": "nonpayable",
      "type": "constructor"
    },
    {
      "inputs": [],
      "name": "jewelryCounts",
      "outputs": [
        {
          "internalType": "uint256",
          "name": "",
          "type": "uint256"
        }
      ],
      "stateMutability": "view",
      "type": "function",
      "constant": true
    },
    {
      "inputs": [
        {
          "internalType": "uint256",
          "name": "",
          "type": "uint256"
        }
      ],
      "name": "jewelryItems",
      "outputs": [
        {
          "internalType": "uint256",
          "name": "jewelryId",
          "type": "uint256"
        },
        {
          "internalType": "address",
          "name": "manufacturer",
          "type": "address"
        },
        {
          "internalType": "address",
          "name": "owner",
          "type": "address"
        },
        {
          "components": [
            {
              "internalType": "uint256",
              "name": "uniqueId",
              "type": "uint256"
            },
            {
              "internalType": "address",
              "name": "gradingLab",
              "type": "address"
            },
            {
              "internalType": "uint256",
              "name": "grade",
              "type": "uint256"
            },
            {
              "components": [
                {
                  "internalType": "uint256",
                  "name": "rawId",
                  "type": "uint256"
                },
                {
                  "internalType": "address",
                  "name": "miningCompany",
                  "type": "address"
                },
                {
                  "internalType": "address",
                  "name": "cuttingCompany",
                  "type": "address"
                }
              ],
              "internalType": "struct RawDiamondRegistry.RawDiamond",
              "name": "rawDiamond",
              "type": "tuple"
            }
          ],
          "internalType": "struct DiamondRegistry.Diamond",
          "name": "diamond",
          "type": "tuple"
        },
        {
          "internalType": "uint256",
          "name": "price",
          "type": "uint256"
        }
      ],
      "stateMutability": "view",
      "type": "function",
      "constant": true
    },
    {
      "inputs": [],
      "name": "getAllJewels",
      "outputs": [
        {
          "components": [
            {
              "internalType": "uint256",
              "name": "jewelryId",
              "type": "uint256"
            },
            {
              "internalType": "address",
              "name": "manufacturer",
              "type": "address"
            },
            {
              "internalType": "address",
              "name": "owner",
              "type": "address"
            },
            {
              "components": [
                {
                  "internalType": "uint256",
                  "name": "uniqueId",
                  "type": "uint256"
                },
                {
                  "internalType": "address",
                  "name": "gradingLab",
                  "type": "address"
                },
                {
                  "internalType": "uint256",
                  "name": "grade",
                  "type": "uint256"
                },
                {
                  "components": [
                    {
                      "internalType": "uint256",
                      "name": "rawId",
                      "type": "uint256"
                    },
                    {
                      "internalType": "address",
                      "name": "miningCompany",
                      "type": "address"
                    },
                    {
                      "internalType": "address",
                      "name": "cuttingCompany",
                      "type": "address"
                    }
                  ],
                  "internalType": "struct RawDiamondRegistry.RawDiamond",
                  "name": "rawDiamond",
                  "type": "tuple"
                }
              ],
              "internalType": "struct DiamondRegistry.Diamond",
              "name": "diamond",
              "type": "tuple"
            },
            {
              "internalType": "uint256",
              "name": "price",
              "type": "uint256"
            }
          ],
          "internalType": "struct JewelryShop.Jewelry[]",
          "name": "",
          "type": "tuple[]"
        }
      ],
      "stateMutability": "view",
      "type": "function",
      "constant": true
    },
    {
      "inputs": [
        {
          "internalType": "uint256",
          "name": "uniqueId",
          "type": "uint256"
        }
      ],
      "name": "diamondDesigning",
      "outputs": [],
      "stateMutability": "nonpayable",
      "type": "function"
    },
    {
      "inputs": [
        {
          "internalType": "uint256",
          "name": "jewelryId",
          "type": "uint256"
        }
      ],
      "name": "jewelryPurchase",
      "outputs": [],
      "stateMutability": "payable",
      "type": "function",
      "payable": true
    },
    {
      "inputs": [
        {
          "internalType": "uint256",
          "name": "jewelryId",
          "type": "uint256"
        }
      ],
      "name": "jewelryVerify",
      "outputs": [
        {
          "components": [
            {
              "internalType": "uint256",
              "name": "jewelryId",
              "type": "uint256"
            },
            {
              "internalType": "address",
              "name": "manufacturer",
              "type": "address"
            },
            {
              "internalType": "address",
              "name": "owner",
              "type": "address"
            },
            {
              "components": [
                {
                  "internalType": "uint256",
                  "name": "uniqueId",
                  "type": "uint256"
                },
                {
                  "internalType": "address",
                  "name": "gradingLab",
                  "type": "address"
                },
                {
                  "internalType": "uint256",
                  "name": "grade",
                  "type": "uint256"
                },
                {
                  "components": [
                    {
                      "internalType": "uint256",
                      "name": "rawId",
                      "type": "uint256"
                    },
                    {
                      "internalType": "address",
                      "name": "miningCompany",
                      "type": "address"
                    },
                    {
                      "internalType": "address",
                      "name": "cuttingCompany",
                      "type": "address"
                    }
                  ],
                  "internalType": "struct RawDiamondRegistry.RawDiamond",
                  "name": "rawDiamond",
                  "type": "tuple"
                }
              ],
              "internalType": "struct DiamondRegistry.Diamond",
              "name": "diamond",
              "type": "tuple"
            },
            {
              "internalType": "uint256",
              "name": "price",
              "type": "uint256"
            }
          ],
          "internalType": "struct JewelryShop.Jewelry",
          "name": "",
          "type": "tuple"
        }
      ],
      "stateMutability": "view",
      "type": "function",
      "constant": true
    }
  ],
  "bytecode": "0x60806040523480156200001157600080fd5b50604051620016cd380380620016cd8339818101604052810190620000379190620000d8565b81600260006101000a81548173ffffffffffffffffffffffffffffffffffffffff021916908373ffffffffffffffffffffffffffffffffffffffff16021790555080600360006101000a81548173ffffffffffffffffffffffffffffffffffffffff021916908373ffffffffffffffffffffffffffffffffffffffff160217905550505062000172565b600081519050620000d28162000158565b92915050565b60008060408385031215620000f257620000f162000153565b5b60006200010285828601620000c1565b92505060206200011585828601620000c1565b9150509250929050565b60006200012c8262000133565b9050919050565b600073ffffffffffffffffffffffffffffffffffffffff82169050919050565b600080fd5b62000163816200011f565b81146200016f57600080fd5b50565b61154b80620001826000396000f3fe6080604052600436106100555760003560e01c8063365db4021461005a5780634974275c146100855780637a7c150b146100b05780638e1f2999146100d95780639cf4dc70146100f5578063a23fb7ae14610132575b600080fd5b34801561006657600080fd5b5061006f610173565b60405161007c9190611242565b60405180910390f35b34801561009157600080fd5b5061009a610179565b6040516100a791906111e4565b60405180910390f35b3480156100bc57600080fd5b506100d760048036038101906100d29190610f06565b610440565b005b6100f360048036038101906100ee9190610f06565b610824565b005b34801561010157600080fd5b5061011c60048036038101906101179190610f06565b6108a2565b6040516101299190611226565b60405180910390f35b34801561013e57600080fd5b5061015960048036038101906101549190610f06565b610ad6565b60405161016a95949392919061125d565b60405180910390f35b60015481565b6060600060015467ffffffffffffffff81111561019957610198611464565b5b6040519080825280602002602001820160405280156101d257816020015b6101bf610c8a565b8152602001906001900390816101b75790505b50905060005b600154811015610438576000808281526020019081526020016000206040518060a0016040529081600082015481526020016001820160009054906101000a900473ffffffffffffffffffffffffffffffffffffffff1673ffffffffffffffffffffffffffffffffffffffff1673ffffffffffffffffffffffffffffffffffffffff1681526020016002820160009054906101000a900473ffffffffffffffffffffffffffffffffffffffff1673ffffffffffffffffffffffffffffffffffffffff1673ffffffffffffffffffffffffffffffffffffffff16815260200160038201604051806080016040529081600082015481526020016001820160009054906101000a900473ffffffffffffffffffffffffffffffffffffffff1673ffffffffffffffffffffffffffffffffffffffff1673ffffffffffffffffffffffffffffffffffffffff1681526020016002820154815260200160038201604051806060016040529081600082015481526020016001820160009054906101000a900473ffffffffffffffffffffffffffffffffffffffff1673ffffffffffffffffffffffffffffffffffffffff1673ffffffffffffffffffffffffffffffffffffffff1681526020016002820160009054906101000a900473ffffffffffffffffffffffffffffffffffffffff1673ffffffffffffffffffffffffffffffffffffffff1673ffffffffffffffffffffffffffffffffffffffff168152505081525050815260200160098201548152505082828151811061041a57610419611435565b5b602002602001018190525080806104309061138e565b9150506101d8565b508091505090565b60038081111561045357610452611406565b5b600260009054906101000a900473ffffffffffffffffffffffffffffffffffffffff1673ffffffffffffffffffffffffffffffffffffffff1663097bcc1a336040518263ffffffff1660e01b81526004016104ae91906111c9565b60206040518083038186803b1580156104c657600080fd5b505afa1580156104da573d6000803e3d6000fd5b505050506040513d601f19601f820116820180604052508101906104fe9190610eac565b60038111156105105761050f611406565b5b14610550576040517f08c379a000000000000000000000000000000000000000000000000000000000815260040161054790611206565b60405180910390fd5b610558610c8a565b600360009054906101000a900473ffffffffffffffffffffffffffffffffffffffff1673ffffffffffffffffffffffffffffffffffffffff1663e3ed14db836040518263ffffffff1660e01b81526004016105b39190611242565b60c06040518083038186803b1580156105cb57600080fd5b505afa1580156105df573d6000803e3d6000fd5b505050506040513d601f19601f820116820180604052508101906106039190610ed9565b816060018190525033816020019073ffffffffffffffffffffffffffffffffffffffff16908173ffffffffffffffffffffffffffffffffffffffff16815250506000600160008154809291906106589061138e565b919050559050816000808381526020019081526020016000206000820151816000015560208201518160010160006101000a81548173ffffffffffffffffffffffffffffffffffffffff021916908373ffffffffffffffffffffffffffffffffffffffff16021790555060408201518160020160006101000a81548173ffffffffffffffffffffffffffffffffffffffff021916908373ffffffffffffffffffffffffffffffffffffffff1602179055506060820151816003016000820151816000015560208201518160010160006101000a81548173ffffffffffffffffffffffffffffffffffffffff021916908373ffffffffffffffffffffffffffffffffffffffff160217905550604082015181600201556060820151816003016000820151816000015560208201518160010160006101000a81548173ffffffffffffffffffffffffffffffffffffffff021916908373ffffffffffffffffffffffffffffffffffffffff16021790555060408201518160020160006101000a81548173ffffffffffffffffffffffffffffffffffffffff021916908373ffffffffffffffffffffffffffffffffffffffff1602179055505050505060808201518160090155905050505050565b600080600083815260200190815260200160002060090154905080341461084a57600080fd5b3360008084815260200190815260200160002060020160006101000a81548173ffffffffffffffffffffffffffffffffffffffff021916908373ffffffffffffffffffffffffffffffffffffffff1602179055505050565b6108aa610c8a565b6000808381526020019081526020016000206040518060a0016040529081600082015481526020016001820160009054906101000a900473ffffffffffffffffffffffffffffffffffffffff1673ffffffffffffffffffffffffffffffffffffffff1673ffffffffffffffffffffffffffffffffffffffff1681526020016002820160009054906101000a900473ffffffffffffffffffffffffffffffffffffffff1673ffffffffffffffffffffffffffffffffffffffff1673ffffffffffffffffffffffffffffffffffffffff16815260200160038201604051806080016040529081600082015481526020016001820160009054906101000a900473ffffffffffffffffffffffffffffffffffffffff1673ffffffffffffffffffffffffffffffffffffffff1673ffffffffffffffffffffffffffffffffffffffff1681526020016002820154815260200160038201604051806060016040529081600082015481526020016001820160009054906101000a900473ffffffffffffffffffffffffffffffffffffffff1673ffffffffffffffffffffffffffffffffffffffff1673ffffffffffffffffffffffffffffffffffffffff1681526020016002820160009054906101000a900473ffffffffffffffffffffffffffffffffffffffff1673ffffffffffffffffffffffffffffffffffffffff1673ffffffffffffffffffffffffffffffffffffffff16815250508152505081526020016009820154815250509050919050565b60006020528060005260406000206000915090508060000154908060010160009054906101000a900473ffffffffffffffffffffffffffffffffffffffff16908060020160009054906101000a900473ffffffffffffffffffffffffffffffffffffffff169080600301604051806080016040529081600082015481526020016001820160009054906101000a900473ffffffffffffffffffffffffffffffffffffffff1673ffffffffffffffffffffffffffffffffffffffff1673ffffffffffffffffffffffffffffffffffffffff1681526020016002820154815260200160038201604051806060016040529081600082015481526020016001820160009054906101000a900473ffffffffffffffffffffffffffffffffffffffff1673ffffffffffffffffffffffffffffffffffffffff1673ffffffffffffffffffffffffffffffffffffffff1681526020016002820160009054906101000a900473ffffffffffffffffffffffffffffffffffffffff1673ffffffffffffffffffffffffffffffffffffffff1673ffffffffffffffffffffffffffffffffffffffff168152505081525050908060090154905085565b6040518060a0016040528060008152602001600073ffffffffffffffffffffffffffffffffffffffff168152602001600073ffffffffffffffffffffffffffffffffffffffff168152602001610cde610ceb565b8152602001600081525090565b604051806080016040528060008152602001600073ffffffffffffffffffffffffffffffffffffffff16815260200160008152602001610d29610d2f565b81525090565b604051806060016040528060008152602001600073ffffffffffffffffffffffffffffffffffffffff168152602001600073ffffffffffffffffffffffffffffffffffffffff1681525090565b600081519050610d8b816114d7565b92915050565b600081519050610da0816114ee565b92915050565b600060c08284031215610dbc57610dbb611493565b5b610dc660806112b2565b90506000610dd684828501610e97565b6000830152506020610dea84828501610d7c565b6020830152506040610dfe84828501610e97565b6040830152506060610e1284828501610e1e565b60608301525092915050565b600060608284031215610e3457610e33611493565b5b610e3e60606112b2565b90506000610e4e84828501610e97565b6000830152506020610e6284828501610d7c565b6020830152506040610e7684828501610d7c565b60408301525092915050565b600081359050610e91816114fe565b92915050565b600081519050610ea6816114fe565b92915050565b600060208284031215610ec257610ec1611498565b5b6000610ed084828501610d91565b91505092915050565b600060c08284031215610eef57610eee611498565b5b6000610efd84828501610da6565b91505092915050565b600060208284031215610f1c57610f1b611498565b5b6000610f2a84828501610e82565b91505092915050565b6000610f3f8383611095565b6101408301905092915050565b610f5581611321565b82525050565b610f6481611321565b82525050565b6000610f75826112e7565b610f7f81856112ff565b9350610f8a836112d7565b8060005b83811015610fbb578151610fa28882610f33565b9750610fad836112f2565b925050600181019050610f8e565b5085935050505092915050565b6000610fd5601e83611310565b9150610fe0826114ae565b602082019050919050565b60c08201600082015161100160008501826111ab565b5060208201516110146020850182610f4c565b50604082015161102760408501826111ab565b50606082015161103a6060850182611169565b50505050565b60c08201600082015161105660008501826111ab565b5060208201516110696020850182610f4c565b50604082015161107c60408501826111ab565b50606082015161108f6060850182611169565b50505050565b610140820160008201516110ac60008501826111ab565b5060208201516110bf6020850182610f4c565b5060408201516110d26040850182610f4c565b5060608201516110e56060850182610feb565b5060808201516110f96101208501826111ab565b50505050565b6101408201600082015161111660008501826111ab565b5060208201516111296020850182610f4c565b50604082015161113c6040850182610f4c565b50606082015161114f6060850182610feb565b5060808201516111636101208501826111ab565b50505050565b60608201600082015161117f60008501826111ab565b5060208201516111926020850182610f4c565b5060408201516111a56040850182610f4c565b50505050565b6111b481611353565b82525050565b6111c381611353565b82525050565b60006020820190506111de6000830184610f5b565b92915050565b600060208201905081810360008301526111fe8184610f6a565b905092915050565b6000602082019050818103600083015261121f81610fc8565b9050919050565b60006101408201905061123c60008301846110ff565b92915050565b600060208201905061125760008301846111ba565b92915050565b60006101408201905061127360008301886111ba565b6112806020830187610f5b565b61128d6040830186610f5b565b61129a6060830185611040565b6112a86101208301846111ba565b9695505050505050565b60006112bc6112cd565b90506112c8828261135d565b919050565b6000604051905090565b6000819050602082019050919050565b600081519050919050565b6000602082019050919050565b600082825260208201905092915050565b600082825260208201905092915050565b600061132c82611333565b9050919050565b600073ffffffffffffffffffffffffffffffffffffffff82169050919050565b6000819050919050565b6113668261149d565b810181811067ffffffffffffffff8211171561138557611384611464565b5b80604052505050565b600061139982611353565b91507fffffffffffffffffffffffffffffffffffffffffffffffffffffffffffffffff8214156113cc576113cb6113d7565b5b600182019050919050565b7f4e487b7100000000000000000000000000000000000000000000000000000000600052601160045260246000fd5b7f4e487b7100000000000000000000000000000000000000000000000000000000600052602160045260246000fd5b7f4e487b7100000000000000000000000000000000000000000000000000000000600052603260045260246000fd5b7f4e487b7100000000000000000000000000000000000000000000000000000000600052604160045260246000fd5b600080fd5b600080fd5b6000601f19601f8301169050919050565b7f596f7520617265206e6f7420746865206d616e75666163747572657273210000600082015250565b6114e081611321565b81146114eb57600080fd5b50565b600481106114fb57600080fd5b50565b61150781611353565b811461151257600080fd5b5056fea26469706673582212208c6c843a1b2c28a97343f256bcbea07918708412231df85829690f7099cbeeed64736f6c63430008070033",
  "immutableReferences": {},
  "source": "// SPDX-License-Identifier: MIT\npragma solidity ^0.8.7;\n\nimport \"./CompanyRegistry.sol\";\nimport \"./DiamondRegistry.sol\";\n\ncontract JewelryShop {\n    struct Jewelry {\n        uint256 jewelryId;\n        address manufacturer;\n        address owner;\n        DiamondRegistry.Diamond diamond;\n        uint256 price;\n    }\n\n    mapping(uint256 => Jewelry) public jewelryItems;\n    uint256 public jewelryCounts;\n\n    CompanyRegistry private companyRegistry;\n    DiamondRegistry private diamondRegistry;\n\n    constructor(address _companyRegistry, address _diamondRegistry) {\n        companyRegistry = CompanyRegistry(_companyRegistry);\n        diamondRegistry = DiamondRegistry(_diamondRegistry);\n    }\n\n    modifier onlyManufacturer() {\n        require(\n            companyRegistry.getCompanyType(msg.sender) == CompanyRegistry.CompanyType.Manufacturer,\n            \"You are not the manufacturers!\"\n        );\n        _;\n    }\n    function getAllJewels() public view returns (Jewelry[] memory) {\n        Jewelry[] memory allJewels = new Jewelry[](jewelryCounts);\n        for (uint i = 0; i < jewelryCounts; i++) {\n            allJewels[i] = jewelryItems[i];\n        }\n        return allJewels;\n    }\n\n    function diamondDesigning(uint256 uniqueId) public onlyManufacturer { // todo \n        Jewelry memory newJewelry;\n        newJewelry.diamond = diamondRegistry.getDiamond(uniqueId);\n        newJewelry.manufacturer = msg.sender;\n        uint256 jewelryId = jewelryCounts++;\n        jewelryItems[jewelryId] = newJewelry;\n    }\n\n    function jewelryPurchase(uint256 jewelryId) public payable {\n        uint256 price = jewelryItems[jewelryId].price;\n        require(msg.value == price);\n        jewelryItems[jewelryId].owner = msg.sender;\n    }\n\n    function jewelryVerify(uint256 jewelryId) public view returns (Jewelry memory) {\n        return jewelryItems[jewelryId];\n    }\n}",
  "sourcePath": "/Users/huanghongbin/VsCodeProjests/tracing-luxury/src/contracts/JewelryShop.sol",
  "compiler": {
    "name": "solc",
    "version": "0.8.7+commit.e28d00a7.Emscripten.clang"
  },
  "schemaVersion": "3.4.16",
  "updatedAt": "2023-11-14T13:51:58.440Z",
  "networkType": "ethereum",
  "devdoc": {
    "kind": "dev",
    "methods": {},
    "version": 1
  },
  "userdoc": {
    "kind": "user",
    "methods": {},
    "version": 1
  }
}