{
  "contractName": "JewelryShop",
  "abi": [
    {
      "inputs": [
        {
          "internalType": "address",
          "name": "_companyRegistry",
          "type": "address"
        },
        {
          "internalType": "address",
          "name": "_diamondRegistry",
          "type": "address"
        }
      ],
      "stateMutability": "nonpayable",
      "type": "constructor"
    },
    {
      "inputs": [],
      "name": "jewelryCounts",
      "outputs": [
        {
          "internalType": "uint256",
          "name": "",
          "type": "uint256"
        }
      ],
      "stateMutability": "view",
      "type": "function",
      "constant": true
    },
    {
      "inputs": [
        {
          "internalType": "uint256",
          "name": "",
          "type": "uint256"
        }
      ],
      "name": "jewelryItems",
      "outputs": [
        {
          "internalType": "uint256",
          "name": "jewelryId",
          "type": "uint256"
        },
        {
          "internalType": "address",
          "name": "manufacturer",
          "type": "address"
        },
        {
          "internalType": "address",
          "name": "owner",
          "type": "address"
        },
        {
          "components": [
            {
              "internalType": "uint256",
              "name": "uniqueId",
              "type": "uint256"
            },
            {
              "internalType": "address",
              "name": "gradingLab",
              "type": "address"
            },
            {
              "internalType": "uint256",
              "name": "grade",
              "type": "uint256"
            },
            {
              "components": [
                {
                  "internalType": "uint256",
                  "name": "rawId",
                  "type": "uint256"
                },
                {
                  "internalType": "address",
                  "name": "miningCompany",
                  "type": "address"
                },
                {
                  "internalType": "address",
                  "name": "cuttingCompany",
                  "type": "address"
                }
              ],
              "internalType": "struct RawDiamondRegistry.RawDiamond",
              "name": "rawDiamond",
              "type": "tuple"
            }
          ],
          "internalType": "struct DiamondRegistry.Diamond",
          "name": "diamond",
          "type": "tuple"
        },
        {
          "internalType": "uint256",
          "name": "price",
          "type": "uint256"
        }
      ],
      "stateMutability": "view",
      "type": "function",
      "constant": true
    },
    {
      "inputs": [],
      "name": "getAllJewels",
      "outputs": [
        {
          "components": [
            {
              "internalType": "uint256",
              "name": "jewelryId",
              "type": "uint256"
            },
            {
              "internalType": "address",
              "name": "manufacturer",
              "type": "address"
            },
            {
              "internalType": "address",
              "name": "owner",
              "type": "address"
            },
            {
              "components": [
                {
                  "internalType": "uint256",
                  "name": "uniqueId",
                  "type": "uint256"
                },
                {
                  "internalType": "address",
                  "name": "gradingLab",
                  "type": "address"
                },
                {
                  "internalType": "uint256",
                  "name": "grade",
                  "type": "uint256"
                },
                {
                  "components": [
                    {
                      "internalType": "uint256",
                      "name": "rawId",
                      "type": "uint256"
                    },
                    {
                      "internalType": "address",
                      "name": "miningCompany",
                      "type": "address"
                    },
                    {
                      "internalType": "address",
                      "name": "cuttingCompany",
                      "type": "address"
                    }
                  ],
                  "internalType": "struct RawDiamondRegistry.RawDiamond",
                  "name": "rawDiamond",
                  "type": "tuple"
                }
              ],
              "internalType": "struct DiamondRegistry.Diamond",
              "name": "diamond",
              "type": "tuple"
            },
            {
              "internalType": "uint256",
              "name": "price",
              "type": "uint256"
            }
          ],
          "internalType": "struct JewelryShop.Jewelry[]",
          "name": "",
          "type": "tuple[]"
        }
      ],
      "stateMutability": "view",
      "type": "function",
      "constant": true
    },
    {
      "inputs": [
        {
          "internalType": "uint256",
          "name": "uniqueId",
          "type": "uint256"
        },
        {
          "internalType": "uint256",
          "name": "price",
          "type": "uint256"
        }
      ],
      "name": "diamondDesigning",
      "outputs": [],
      "stateMutability": "nonpayable",
      "type": "function"
    },
    {
      "inputs": [
        {
          "internalType": "uint256",
          "name": "jewelryId",
          "type": "uint256"
        }
      ],
      "name": "jewelryPurchase",
      "outputs": [],
      "stateMutability": "payable",
      "type": "function",
      "payable": true
    },
    {
      "inputs": [
        {
          "internalType": "uint256",
          "name": "jewelryId",
          "type": "uint256"
        }
      ],
      "name": "jewelryVerify",
      "outputs": [
        {
          "components": [
            {
              "internalType": "uint256",
              "name": "jewelryId",
              "type": "uint256"
            },
            {
              "internalType": "address",
              "name": "manufacturer",
              "type": "address"
            },
            {
              "internalType": "address",
              "name": "owner",
              "type": "address"
            },
            {
              "components": [
                {
                  "internalType": "uint256",
                  "name": "uniqueId",
                  "type": "uint256"
                },
                {
                  "internalType": "address",
                  "name": "gradingLab",
                  "type": "address"
                },
                {
                  "internalType": "uint256",
                  "name": "grade",
                  "type": "uint256"
                },
                {
                  "components": [
                    {
                      "internalType": "uint256",
                      "name": "rawId",
                      "type": "uint256"
                    },
                    {
                      "internalType": "address",
                      "name": "miningCompany",
                      "type": "address"
                    },
                    {
                      "internalType": "address",
                      "name": "cuttingCompany",
                      "type": "address"
                    }
                  ],
                  "internalType": "struct RawDiamondRegistry.RawDiamond",
                  "name": "rawDiamond",
                  "type": "tuple"
                }
              ],
              "internalType": "struct DiamondRegistry.Diamond",
              "name": "diamond",
              "type": "tuple"
            },
            {
              "internalType": "uint256",
              "name": "price",
              "type": "uint256"
            }
          ],
          "internalType": "struct JewelryShop.Jewelry",
          "name": "",
          "type": "tuple"
        }
      ],
      "stateMutability": "view",
      "type": "function",
      "constant": true
    }
  ],
  "bytecode": "0x60806040523480156200001157600080fd5b506040516200172f3803806200172f8339818101604052810190620000379190620000d8565b81600260006101000a81548173ffffffffffffffffffffffffffffffffffffffff021916908373ffffffffffffffffffffffffffffffffffffffff16021790555080600360006101000a81548173ffffffffffffffffffffffffffffffffffffffff021916908373ffffffffffffffffffffffffffffffffffffffff160217905550505062000172565b600081519050620000d28162000158565b92915050565b60008060408385031215620000f257620000f162000153565b5b60006200010285828601620000c1565b92505060206200011585828601620000c1565b9150509250929050565b60006200012c8262000133565b9050919050565b600073ffffffffffffffffffffffffffffffffffffffff82169050919050565b600080fd5b62000163816200011f565b81146200016f57600080fd5b50565b6115ad80620001826000396000f3fe6080604052600436106100555760003560e01c8063365db4021461005a5780634974275c146100855780637bb87bb3146100b05780638e1f2999146100d95780639cf4dc70146100f5578063a23fb7ae14610132575b600080fd5b34801561006657600080fd5b5061006f610173565b60405161007c91906112a4565b60405180910390f35b34801561009157600080fd5b5061009a610179565b6040516100a79190611246565b60405180910390f35b3480156100bc57600080fd5b506100d760048036038101906100d29190610f55565b610440565b005b6100f360048036038101906100ee9190610f28565b61086d565b005b34801561010157600080fd5b5061011c60048036038101906101179190610f28565b6108c4565b6040516101299190611288565b60405180910390f35b34801561013e57600080fd5b5061015960048036038101906101549190610f28565b610af8565b60405161016a9594939291906112bf565b60405180910390f35b60015481565b6060600060015467ffffffffffffffff811115610199576101986114c6565b5b6040519080825280602002602001820160405280156101d257816020015b6101bf610cac565b8152602001906001900390816101b75790505b50905060005b600154811015610438576000808281526020019081526020016000206040518060a0016040529081600082015481526020016001820160009054906101000a900473ffffffffffffffffffffffffffffffffffffffff1673ffffffffffffffffffffffffffffffffffffffff1673ffffffffffffffffffffffffffffffffffffffff1681526020016002820160009054906101000a900473ffffffffffffffffffffffffffffffffffffffff1673ffffffffffffffffffffffffffffffffffffffff1673ffffffffffffffffffffffffffffffffffffffff16815260200160038201604051806080016040529081600082015481526020016001820160009054906101000a900473ffffffffffffffffffffffffffffffffffffffff1673ffffffffffffffffffffffffffffffffffffffff1673ffffffffffffffffffffffffffffffffffffffff1681526020016002820154815260200160038201604051806060016040529081600082015481526020016001820160009054906101000a900473ffffffffffffffffffffffffffffffffffffffff1673ffffffffffffffffffffffffffffffffffffffff1673ffffffffffffffffffffffffffffffffffffffff1681526020016002820160009054906101000a900473ffffffffffffffffffffffffffffffffffffffff1673ffffffffffffffffffffffffffffffffffffffff1673ffffffffffffffffffffffffffffffffffffffff168152505081525050815260200160098201548152505082828151811061041a57610419611497565b5b60200260200101819052508080610430906113f0565b9150506101d8565b508091505090565b60038081111561045357610452611468565b5b600260009054906101000a900473ffffffffffffffffffffffffffffffffffffffff1673ffffffffffffffffffffffffffffffffffffffff1663097bcc1a336040518263ffffffff1660e01b81526004016104ae919061122b565b60206040518083038186803b1580156104c657600080fd5b505afa1580156104da573d6000803e3d6000fd5b505050506040513d601f19601f820116820180604052508101906104fe9190610ece565b60038111156105105761050f611468565b5b14610550576040517f08c379a000000000000000000000000000000000000000000000000000000000815260040161054790611268565b60405180910390fd5b610558610cac565b600360009054906101000a900473ffffffffffffffffffffffffffffffffffffffff1673ffffffffffffffffffffffffffffffffffffffff1663e3ed14db846040518263ffffffff1660e01b81526004016105b391906112a4565b60c06040518083038186803b1580156105cb57600080fd5b505afa1580156105df573d6000803e3d6000fd5b505050506040513d601f19601f820116820180604052508101906106039190610efb565b816060018190525033816020019073ffffffffffffffffffffffffffffffffffffffff16908173ffffffffffffffffffffffffffffffffffffffff168152505033816040019073ffffffffffffffffffffffffffffffffffffffff16908173ffffffffffffffffffffffffffffffffffffffff16815250508181608001818152505060015481600001818152505080600080600160008154809291906106a8906113f0565b9190505581526020019081526020016000206000820151816000015560208201518160010160006101000a81548173ffffffffffffffffffffffffffffffffffffffff021916908373ffffffffffffffffffffffffffffffffffffffff16021790555060408201518160020160006101000a81548173ffffffffffffffffffffffffffffffffffffffff021916908373ffffffffffffffffffffffffffffffffffffffff1602179055506060820151816003016000820151816000015560208201518160010160006101000a81548173ffffffffffffffffffffffffffffffffffffffff021916908373ffffffffffffffffffffffffffffffffffffffff160217905550604082015181600201556060820151816003016000820151816000015560208201518160010160006101000a81548173ffffffffffffffffffffffffffffffffffffffff021916908373ffffffffffffffffffffffffffffffffffffffff16021790555060408201518160020160006101000a81548173ffffffffffffffffffffffffffffffffffffffff021916908373ffffffffffffffffffffffffffffffffffffffff1602179055505050505060808201518160090155905050505050565b3360008083815260200190815260200160002060020160006101000a81548173ffffffffffffffffffffffffffffffffffffffff021916908373ffffffffffffffffffffffffffffffffffffffff16021790555050565b6108cc610cac565b6000808381526020019081526020016000206040518060a0016040529081600082015481526020016001820160009054906101000a900473ffffffffffffffffffffffffffffffffffffffff1673ffffffffffffffffffffffffffffffffffffffff1673ffffffffffffffffffffffffffffffffffffffff1681526020016002820160009054906101000a900473ffffffffffffffffffffffffffffffffffffffff1673ffffffffffffffffffffffffffffffffffffffff1673ffffffffffffffffffffffffffffffffffffffff16815260200160038201604051806080016040529081600082015481526020016001820160009054906101000a900473ffffffffffffffffffffffffffffffffffffffff1673ffffffffffffffffffffffffffffffffffffffff1673ffffffffffffffffffffffffffffffffffffffff1681526020016002820154815260200160038201604051806060016040529081600082015481526020016001820160009054906101000a900473ffffffffffffffffffffffffffffffffffffffff1673ffffffffffffffffffffffffffffffffffffffff1673ffffffffffffffffffffffffffffffffffffffff1681526020016002820160009054906101000a900473ffffffffffffffffffffffffffffffffffffffff1673ffffffffffffffffffffffffffffffffffffffff1673ffffffffffffffffffffffffffffffffffffffff16815250508152505081526020016009820154815250509050919050565b60006020528060005260406000206000915090508060000154908060010160009054906101000a900473ffffffffffffffffffffffffffffffffffffffff16908060020160009054906101000a900473ffffffffffffffffffffffffffffffffffffffff169080600301604051806080016040529081600082015481526020016001820160009054906101000a900473ffffffffffffffffffffffffffffffffffffffff1673ffffffffffffffffffffffffffffffffffffffff1673ffffffffffffffffffffffffffffffffffffffff1681526020016002820154815260200160038201604051806060016040529081600082015481526020016001820160009054906101000a900473ffffffffffffffffffffffffffffffffffffffff1673ffffffffffffffffffffffffffffffffffffffff1673ffffffffffffffffffffffffffffffffffffffff1681526020016002820160009054906101000a900473ffffffffffffffffffffffffffffffffffffffff1673ffffffffffffffffffffffffffffffffffffffff1673ffffffffffffffffffffffffffffffffffffffff168152505081525050908060090154905085565b6040518060a0016040528060008152602001600073ffffffffffffffffffffffffffffffffffffffff168152602001600073ffffffffffffffffffffffffffffffffffffffff168152602001610d00610d0d565b8152602001600081525090565b604051806080016040528060008152602001600073ffffffffffffffffffffffffffffffffffffffff16815260200160008152602001610d4b610d51565b81525090565b604051806060016040528060008152602001600073ffffffffffffffffffffffffffffffffffffffff168152602001600073ffffffffffffffffffffffffffffffffffffffff1681525090565b600081519050610dad81611539565b92915050565b600081519050610dc281611550565b92915050565b600060c08284031215610dde57610ddd6114f5565b5b610de86080611314565b90506000610df884828501610eb9565b6000830152506020610e0c84828501610d9e565b6020830152506040610e2084828501610eb9565b6040830152506060610e3484828501610e40565b60608301525092915050565b600060608284031215610e5657610e556114f5565b5b610e606060611314565b90506000610e7084828501610eb9565b6000830152506020610e8484828501610d9e565b6020830152506040610e9884828501610d9e565b60408301525092915050565b600081359050610eb381611560565b92915050565b600081519050610ec881611560565b92915050565b600060208284031215610ee457610ee36114fa565b5b6000610ef284828501610db3565b91505092915050565b600060c08284031215610f1157610f106114fa565b5b6000610f1f84828501610dc8565b91505092915050565b600060208284031215610f3e57610f3d6114fa565b5b6000610f4c84828501610ea4565b91505092915050565b60008060408385031215610f6c57610f6b6114fa565b5b6000610f7a85828601610ea4565b9250506020610f8b85828601610ea4565b9150509250929050565b6000610fa183836110f7565b6101408301905092915050565b610fb781611383565b82525050565b610fc681611383565b82525050565b6000610fd782611349565b610fe18185611361565b9350610fec83611339565b8060005b8381101561101d5781516110048882610f95565b975061100f83611354565b925050600181019050610ff0565b5085935050505092915050565b6000611037601e83611372565b915061104282611510565b602082019050919050565b60c082016000820151611063600085018261120d565b5060208201516110766020850182610fae565b506040820151611089604085018261120d565b50606082015161109c60608501826111cb565b50505050565b60c0820160008201516110b8600085018261120d565b5060208201516110cb6020850182610fae565b5060408201516110de604085018261120d565b5060608201516110f160608501826111cb565b50505050565b6101408201600082015161110e600085018261120d565b5060208201516111216020850182610fae565b5060408201516111346040850182610fae565b506060820151611147606085018261104d565b50608082015161115b61012085018261120d565b50505050565b61014082016000820151611178600085018261120d565b50602082015161118b6020850182610fae565b50604082015161119e6040850182610fae565b5060608201516111b1606085018261104d565b5060808201516111c561012085018261120d565b50505050565b6060820160008201516111e1600085018261120d565b5060208201516111f46020850182610fae565b5060408201516112076040850182610fae565b50505050565b611216816113b5565b82525050565b611225816113b5565b82525050565b60006020820190506112406000830184610fbd565b92915050565b600060208201905081810360008301526112608184610fcc565b905092915050565b600060208201905081810360008301526112818161102a565b9050919050565b60006101408201905061129e6000830184611161565b92915050565b60006020820190506112b9600083018461121c565b92915050565b6000610140820190506112d5600083018861121c565b6112e26020830187610fbd565b6112ef6040830186610fbd565b6112fc60608301856110a2565b61130a61012083018461121c565b9695505050505050565b600061131e61132f565b905061132a82826113bf565b919050565b6000604051905090565b6000819050602082019050919050565b600081519050919050565b6000602082019050919050565b600082825260208201905092915050565b600082825260208201905092915050565b600061138e82611395565b9050919050565b600073ffffffffffffffffffffffffffffffffffffffff82169050919050565b6000819050919050565b6113c8826114ff565b810181811067ffffffffffffffff821117156113e7576113e66114c6565b5b80604052505050565b60006113fb826113b5565b91507fffffffffffffffffffffffffffffffffffffffffffffffffffffffffffffffff82141561142e5761142d611439565b5b600182019050919050565b7f4e487b7100000000000000000000000000000000000000000000000000000000600052601160045260246000fd5b7f4e487b7100000000000000000000000000000000000000000000000000000000600052602160045260246000fd5b7f4e487b7100000000000000000000000000000000000000000000000000000000600052603260045260246000fd5b7f4e487b7100000000000000000000000000000000000000000000000000000000600052604160045260246000fd5b600080fd5b600080fd5b6000601f19601f8301169050919050565b7f596f7520617265206e6f7420746865206d616e75666163747572657273210000600082015250565b61154281611383565b811461154d57600080fd5b50565b6004811061155d57600080fd5b50565b611569816113b5565b811461157457600080fd5b5056fea2646970667358221220ecdf0e358679fd56a4fbc5f928732edeab42b25afc7047d21fae555c5734896564736f6c63430008070033",
  "immutableReferences": {},
  "source": "// SPDX-License-Identifier: MIT\r\npragma solidity ^0.8.7;\r\n\r\nimport \"./CompanyRegistry.sol\";\r\nimport \"./DiamondRegistry.sol\";\r\n\r\ncontract JewelryShop {\r\n    struct Jewelry {\r\n        uint256 jewelryId;\r\n        address manufacturer;\r\n        address owner;\r\n        DiamondRegistry.Diamond diamond;\r\n        uint256 price;\r\n    }\r\n\r\n    mapping(uint256 => Jewelry) public jewelryItems;\r\n    uint256 public jewelryCounts;\r\n\r\n    CompanyRegistry private companyRegistry;\r\n    DiamondRegistry private diamondRegistry;\r\n\r\n    constructor(address _companyRegistry, address _diamondRegistry) {\r\n        companyRegistry = CompanyRegistry(_companyRegistry);\r\n        diamondRegistry = DiamondRegistry(_diamondRegistry);\r\n    }\r\n\r\n    modifier onlyManufacturer() {\r\n        require(\r\n            companyRegistry.getCompanyType(msg.sender) ==\r\n                CompanyRegistry.CompanyType.Manufacturer,\r\n            \"You are not the manufacturers!\"\r\n        );\r\n        _;\r\n    }\r\n\r\n    function getAllJewels() public view returns (Jewelry[] memory) {\r\n        Jewelry[] memory allJewels = new Jewelry[](jewelryCounts);\r\n        for (uint i = 0; i < jewelryCounts; i++) {\r\n            allJewels[i] = jewelryItems[i];\r\n        }\r\n        return allJewels;\r\n    }\r\n\r\n    function diamondDesigning(\r\n        uint256 uniqueId,\r\n        uint256 price\r\n    ) public onlyManufacturer {\r\n        // todo \r\n        Jewelry memory newJewelry;\r\n        newJewelry.diamond = diamondRegistry.getDiamond(uniqueId);\r\n        newJewelry.manufacturer = msg.sender;\r\n        newJewelry.owner = msg.sender;\r\n        newJewelry.price = price;\r\n        newJewelry.jewelryId = jewelryCounts;\r\n        jewelryItems[jewelryCounts++] = newJewelry;\r\n    }\r\n\r\n    function jewelryPurchase(uint256 jewelryId) public payable {\r\n        // uint256 price = jewelryItems[jewelryId].price;\r\n        // require(msg.value == price);\r\n        jewelryItems[jewelryId].owner = msg.sender;\r\n    }\r\n\r\n    function jewelryVerify(\r\n        uint256 jewelryId\r\n    ) public view returns (Jewelry memory) {\r\n        return jewelryItems[jewelryId];\r\n    }\r\n}\r\n",
  "sourcePath": "D:\\master\\dapp\\tracing-luxury\\src\\contracts\\JewelryShop.sol",
  "compiler": {
    "name": "solc",
    "version": "0.8.7+commit.e28d00a7.Emscripten.clang"
  },
  "schemaVersion": "3.4.16",
  "updatedAt": "2023-11-20T11:51:37.964Z",
  "networkType": "ethereum",
  "devdoc": {
    "kind": "dev",
    "methods": {},
    "version": 1
  },
  "userdoc": {
    "kind": "user",
    "methods": {},
    "version": 1
  }
}