{
  "contractName": "JewelryShop",
  "abi": [
    {
      "inputs": [
        {
          "internalType": "address",
          "name": "_companyRegistry",
          "type": "address"
        },
        {
          "internalType": "address",
          "name": "_diamondRegistry",
          "type": "address"
        }
      ],
      "stateMutability": "nonpayable",
      "type": "constructor"
    },
    {
      "inputs": [],
      "name": "jewelryCounts",
      "outputs": [
        {
          "internalType": "uint256",
          "name": "",
          "type": "uint256"
        }
      ],
      "stateMutability": "view",
      "type": "function",
      "constant": true
    },
    {
      "inputs": [
        {
          "internalType": "uint256",
          "name": "",
          "type": "uint256"
        }
      ],
      "name": "jewelryItems",
      "outputs": [
        {
          "internalType": "uint256",
          "name": "jewelryId",
          "type": "uint256"
        },
        {
          "components": [
            {
              "internalType": "uint256",
              "name": "companyId",
              "type": "uint256"
            },
            {
              "internalType": "enum CompanyRegistry.CompanyType",
              "name": "companyType",
              "type": "uint8"
            },
            {
              "internalType": "address",
              "name": "addr",
              "type": "address"
            },
            {
              "internalType": "string",
              "name": "companyName",
              "type": "string"
            }
          ],
          "internalType": "struct CompanyRegistry.Company",
          "name": "manufacturer",
          "type": "tuple"
        },
        {
          "internalType": "address",
          "name": "owner",
          "type": "address"
        },
        {
          "components": [
            {
              "internalType": "uint256",
              "name": "uniqueId",
              "type": "uint256"
            },
            {
              "components": [
                {
                  "internalType": "uint256",
                  "name": "companyId",
                  "type": "uint256"
                },
                {
                  "internalType": "enum CompanyRegistry.CompanyType",
                  "name": "companyType",
                  "type": "uint8"
                },
                {
                  "internalType": "address",
                  "name": "addr",
                  "type": "address"
                },
                {
                  "internalType": "string",
                  "name": "companyName",
                  "type": "string"
                }
              ],
              "internalType": "struct CompanyRegistry.Company",
              "name": "gradingLab",
              "type": "tuple"
            },
            {
              "internalType": "string",
              "name": "clarity",
              "type": "string"
            },
            {
              "internalType": "uint256",
              "name": "grade",
              "type": "uint256"
            },
            {
              "components": [
                {
                  "internalType": "uint256",
                  "name": "rawId",
                  "type": "uint256"
                },
                {
                  "internalType": "string",
                  "name": "rawDiamondName",
                  "type": "string"
                },
                {
                  "internalType": "string",
                  "name": "rawDiamondColor",
                  "type": "string"
                },
                {
                  "internalType": "string",
                  "name": "cuttingGrade",
                  "type": "string"
                },
                {
                  "components": [
                    {
                      "internalType": "uint256",
                      "name": "companyId",
                      "type": "uint256"
                    },
                    {
                      "internalType": "enum CompanyRegistry.CompanyType",
                      "name": "companyType",
                      "type": "uint8"
                    },
                    {
                      "internalType": "address",
                      "name": "addr",
                      "type": "address"
                    },
                    {
                      "internalType": "string",
                      "name": "companyName",
                      "type": "string"
                    }
                  ],
                  "internalType": "struct CompanyRegistry.Company",
                  "name": "miningCompany",
                  "type": "tuple"
                },
                {
                  "components": [
                    {
                      "internalType": "uint256",
                      "name": "companyId",
                      "type": "uint256"
                    },
                    {
                      "internalType": "enum CompanyRegistry.CompanyType",
                      "name": "companyType",
                      "type": "uint8"
                    },
                    {
                      "internalType": "address",
                      "name": "addr",
                      "type": "address"
                    },
                    {
                      "internalType": "string",
                      "name": "companyName",
                      "type": "string"
                    }
                  ],
                  "internalType": "struct CompanyRegistry.Company",
                  "name": "cuttingCompany",
                  "type": "tuple"
                }
              ],
              "internalType": "struct RawDiamondRegistry.RawDiamond",
              "name": "rawDiamond",
              "type": "tuple"
            }
          ],
          "internalType": "struct DiamondRegistry.Diamond",
          "name": "diamond",
          "type": "tuple"
        },
        {
          "internalType": "uint256",
          "name": "price",
          "type": "uint256"
        }
      ],
      "stateMutability": "view",
      "type": "function",
      "constant": true
    },
    {
      "inputs": [
        {
          "internalType": "uint256",
          "name": "_jewelryId",
          "type": "uint256"
        },
        {
          "internalType": "address",
          "name": "_to",
          "type": "address"
        }
      ],
      "name": "transferTo",
      "outputs": [],
      "stateMutability": "nonpayable",
      "type": "function"
    },
    {
      "inputs": [],
      "name": "getAllJewels",
      "outputs": [
        {
          "components": [
            {
              "internalType": "uint256",
              "name": "jewelryId",
              "type": "uint256"
            },
            {
              "components": [
                {
                  "internalType": "uint256",
                  "name": "companyId",
                  "type": "uint256"
                },
                {
                  "internalType": "enum CompanyRegistry.CompanyType",
                  "name": "companyType",
                  "type": "uint8"
                },
                {
                  "internalType": "address",
                  "name": "addr",
                  "type": "address"
                },
                {
                  "internalType": "string",
                  "name": "companyName",
                  "type": "string"
                }
              ],
              "internalType": "struct CompanyRegistry.Company",
              "name": "manufacturer",
              "type": "tuple"
            },
            {
              "internalType": "address",
              "name": "owner",
              "type": "address"
            },
            {
              "components": [
                {
                  "internalType": "uint256",
                  "name": "uniqueId",
                  "type": "uint256"
                },
                {
                  "components": [
                    {
                      "internalType": "uint256",
                      "name": "companyId",
                      "type": "uint256"
                    },
                    {
                      "internalType": "enum CompanyRegistry.CompanyType",
                      "name": "companyType",
                      "type": "uint8"
                    },
                    {
                      "internalType": "address",
                      "name": "addr",
                      "type": "address"
                    },
                    {
                      "internalType": "string",
                      "name": "companyName",
                      "type": "string"
                    }
                  ],
                  "internalType": "struct CompanyRegistry.Company",
                  "name": "gradingLab",
                  "type": "tuple"
                },
                {
                  "internalType": "string",
                  "name": "clarity",
                  "type": "string"
                },
                {
                  "internalType": "uint256",
                  "name": "grade",
                  "type": "uint256"
                },
                {
                  "components": [
                    {
                      "internalType": "uint256",
                      "name": "rawId",
                      "type": "uint256"
                    },
                    {
                      "internalType": "string",
                      "name": "rawDiamondName",
                      "type": "string"
                    },
                    {
                      "internalType": "string",
                      "name": "rawDiamondColor",
                      "type": "string"
                    },
                    {
                      "internalType": "string",
                      "name": "cuttingGrade",
                      "type": "string"
                    },
                    {
                      "components": [
                        {
                          "internalType": "uint256",
                          "name": "companyId",
                          "type": "uint256"
                        },
                        {
                          "internalType": "enum CompanyRegistry.CompanyType",
                          "name": "companyType",
                          "type": "uint8"
                        },
                        {
                          "internalType": "address",
                          "name": "addr",
                          "type": "address"
                        },
                        {
                          "internalType": "string",
                          "name": "companyName",
                          "type": "string"
                        }
                      ],
                      "internalType": "struct CompanyRegistry.Company",
                      "name": "miningCompany",
                      "type": "tuple"
                    },
                    {
                      "components": [
                        {
                          "internalType": "uint256",
                          "name": "companyId",
                          "type": "uint256"
                        },
                        {
                          "internalType": "enum CompanyRegistry.CompanyType",
                          "name": "companyType",
                          "type": "uint8"
                        },
                        {
                          "internalType": "address",
                          "name": "addr",
                          "type": "address"
                        },
                        {
                          "internalType": "string",
                          "name": "companyName",
                          "type": "string"
                        }
                      ],
                      "internalType": "struct CompanyRegistry.Company",
                      "name": "cuttingCompany",
                      "type": "tuple"
                    }
                  ],
                  "internalType": "struct RawDiamondRegistry.RawDiamond",
                  "name": "rawDiamond",
                  "type": "tuple"
                }
              ],
              "internalType": "struct DiamondRegistry.Diamond",
              "name": "diamond",
              "type": "tuple"
            },
            {
              "internalType": "uint256",
              "name": "price",
              "type": "uint256"
            }
          ],
          "internalType": "struct JewelryShop.Jewelry[]",
          "name": "",
          "type": "tuple[]"
        }
      ],
      "stateMutability": "view",
      "type": "function",
      "constant": true
    },
    {
      "inputs": [
        {
          "internalType": "uint256",
          "name": "uniqueId",
          "type": "uint256"
        },
        {
          "internalType": "uint256",
          "name": "price",
          "type": "uint256"
        }
      ],
      "name": "diamondDesigning",
      "outputs": [],
      "stateMutability": "nonpayable",
      "type": "function"
    },
    {
      "inputs": [
        {
          "internalType": "uint256",
          "name": "jewelryId",
          "type": "uint256"
        }
      ],
      "name": "jewelryPurchase",
      "outputs": [],
      "stateMutability": "payable",
      "type": "function",
      "payable": true
    },
    {
      "inputs": [],
      "name": "getMyJewels",
      "outputs": [
        {
          "components": [
            {
              "internalType": "uint256",
              "name": "jewelryId",
              "type": "uint256"
            },
            {
              "components": [
                {
                  "internalType": "uint256",
                  "name": "companyId",
                  "type": "uint256"
                },
                {
                  "internalType": "enum CompanyRegistry.CompanyType",
                  "name": "companyType",
                  "type": "uint8"
                },
                {
                  "internalType": "address",
                  "name": "addr",
                  "type": "address"
                },
                {
                  "internalType": "string",
                  "name": "companyName",
                  "type": "string"
                }
              ],
              "internalType": "struct CompanyRegistry.Company",
              "name": "manufacturer",
              "type": "tuple"
            },
            {
              "internalType": "address",
              "name": "owner",
              "type": "address"
            },
            {
              "components": [
                {
                  "internalType": "uint256",
                  "name": "uniqueId",
                  "type": "uint256"
                },
                {
                  "components": [
                    {
                      "internalType": "uint256",
                      "name": "companyId",
                      "type": "uint256"
                    },
                    {
                      "internalType": "enum CompanyRegistry.CompanyType",
                      "name": "companyType",
                      "type": "uint8"
                    },
                    {
                      "internalType": "address",
                      "name": "addr",
                      "type": "address"
                    },
                    {
                      "internalType": "string",
                      "name": "companyName",
                      "type": "string"
                    }
                  ],
                  "internalType": "struct CompanyRegistry.Company",
                  "name": "gradingLab",
                  "type": "tuple"
                },
                {
                  "internalType": "string",
                  "name": "clarity",
                  "type": "string"
                },
                {
                  "internalType": "uint256",
                  "name": "grade",
                  "type": "uint256"
                },
                {
                  "components": [
                    {
                      "internalType": "uint256",
                      "name": "rawId",
                      "type": "uint256"
                    },
                    {
                      "internalType": "string",
                      "name": "rawDiamondName",
                      "type": "string"
                    },
                    {
                      "internalType": "string",
                      "name": "rawDiamondColor",
                      "type": "string"
                    },
                    {
                      "internalType": "string",
                      "name": "cuttingGrade",
                      "type": "string"
                    },
                    {
                      "components": [
                        {
                          "internalType": "uint256",
                          "name": "companyId",
                          "type": "uint256"
                        },
                        {
                          "internalType": "enum CompanyRegistry.CompanyType",
                          "name": "companyType",
                          "type": "uint8"
                        },
                        {
                          "internalType": "address",
                          "name": "addr",
                          "type": "address"
                        },
                        {
                          "internalType": "string",
                          "name": "companyName",
                          "type": "string"
                        }
                      ],
                      "internalType": "struct CompanyRegistry.Company",
                      "name": "miningCompany",
                      "type": "tuple"
                    },
                    {
                      "components": [
                        {
                          "internalType": "uint256",
                          "name": "companyId",
                          "type": "uint256"
                        },
                        {
                          "internalType": "enum CompanyRegistry.CompanyType",
                          "name": "companyType",
                          "type": "uint8"
                        },
                        {
                          "internalType": "address",
                          "name": "addr",
                          "type": "address"
                        },
                        {
                          "internalType": "string",
                          "name": "companyName",
                          "type": "string"
                        }
                      ],
                      "internalType": "struct CompanyRegistry.Company",
                      "name": "cuttingCompany",
                      "type": "tuple"
                    }
                  ],
                  "internalType": "struct RawDiamondRegistry.RawDiamond",
                  "name": "rawDiamond",
                  "type": "tuple"
                }
              ],
              "internalType": "struct DiamondRegistry.Diamond",
              "name": "diamond",
              "type": "tuple"
            },
            {
              "internalType": "uint256",
              "name": "price",
              "type": "uint256"
            }
          ],
          "internalType": "struct JewelryShop.Jewelry[]",
          "name": "",
          "type": "tuple[]"
        }
      ],
      "stateMutability": "view",
      "type": "function",
      "constant": true
    },
    {
      "inputs": [
        {
          "internalType": "uint256",
          "name": "jewelryId",
          "type": "uint256"
        }
      ],
      "name": "jewelryVerify",
      "outputs": [
        {
          "components": [
            {
              "internalType": "uint256",
              "name": "jewelryId",
              "type": "uint256"
            },
            {
              "components": [
                {
                  "internalType": "uint256",
                  "name": "companyId",
                  "type": "uint256"
                },
                {
                  "internalType": "enum CompanyRegistry.CompanyType",
                  "name": "companyType",
                  "type": "uint8"
                },
                {
                  "internalType": "address",
                  "name": "addr",
                  "type": "address"
                },
                {
                  "internalType": "string",
                  "name": "companyName",
                  "type": "string"
                }
              ],
              "internalType": "struct CompanyRegistry.Company",
              "name": "manufacturer",
              "type": "tuple"
            },
            {
              "internalType": "address",
              "name": "owner",
              "type": "address"
            },
            {
              "components": [
                {
                  "internalType": "uint256",
                  "name": "uniqueId",
                  "type": "uint256"
                },
                {
                  "components": [
                    {
                      "internalType": "uint256",
                      "name": "companyId",
                      "type": "uint256"
                    },
                    {
                      "internalType": "enum CompanyRegistry.CompanyType",
                      "name": "companyType",
                      "type": "uint8"
                    },
                    {
                      "internalType": "address",
                      "name": "addr",
                      "type": "address"
                    },
                    {
                      "internalType": "string",
                      "name": "companyName",
                      "type": "string"
                    }
                  ],
                  "internalType": "struct CompanyRegistry.Company",
                  "name": "gradingLab",
                  "type": "tuple"
                },
                {
                  "internalType": "string",
                  "name": "clarity",
                  "type": "string"
                },
                {
                  "internalType": "uint256",
                  "name": "grade",
                  "type": "uint256"
                },
                {
                  "components": [
                    {
                      "internalType": "uint256",
                      "name": "rawId",
                      "type": "uint256"
                    },
                    {
                      "internalType": "string",
                      "name": "rawDiamondName",
                      "type": "string"
                    },
                    {
                      "internalType": "string",
                      "name": "rawDiamondColor",
                      "type": "string"
                    },
                    {
                      "internalType": "string",
                      "name": "cuttingGrade",
                      "type": "string"
                    },
                    {
                      "components": [
                        {
                          "internalType": "uint256",
                          "name": "companyId",
                          "type": "uint256"
                        },
                        {
                          "internalType": "enum CompanyRegistry.CompanyType",
                          "name": "companyType",
                          "type": "uint8"
                        },
                        {
                          "internalType": "address",
                          "name": "addr",
                          "type": "address"
                        },
                        {
                          "internalType": "string",
                          "name": "companyName",
                          "type": "string"
                        }
                      ],
                      "internalType": "struct CompanyRegistry.Company",
                      "name": "miningCompany",
                      "type": "tuple"
                    },
                    {
                      "components": [
                        {
                          "internalType": "uint256",
                          "name": "companyId",
                          "type": "uint256"
                        },
                        {
                          "internalType": "enum CompanyRegistry.CompanyType",
                          "name": "companyType",
                          "type": "uint8"
                        },
                        {
                          "internalType": "address",
                          "name": "addr",
                          "type": "address"
                        },
                        {
                          "internalType": "string",
                          "name": "companyName",
                          "type": "string"
                        }
                      ],
                      "internalType": "struct CompanyRegistry.Company",
                      "name": "cuttingCompany",
                      "type": "tuple"
                    }
                  ],
                  "internalType": "struct RawDiamondRegistry.RawDiamond",
                  "name": "rawDiamond",
                  "type": "tuple"
                }
              ],
              "internalType": "struct DiamondRegistry.Diamond",
              "name": "diamond",
              "type": "tuple"
            },
            {
              "internalType": "uint256",
              "name": "price",
              "type": "uint256"
            }
          ],
          "internalType": "struct JewelryShop.Jewelry",
          "name": "",
          "type": "tuple"
        }
      ],
      "stateMutability": "view",
      "type": "function",
      "constant": true
    }
  ],
  "bytecode": "0x60806040523480156200001157600080fd5b5060405162003dcf38038062003dcf8339818101604052810190620000379190620000d8565b81600260006101000a81548173ffffffffffffffffffffffffffffffffffffffff021916908373ffffffffffffffffffffffffffffffffffffffff16021790555080600360006101000a81548173ffffffffffffffffffffffffffffffffffffffff021916908373ffffffffffffffffffffffffffffffffffffffff160217905550505062000172565b600081519050620000d28162000158565b92915050565b60008060408385031215620000f257620000f162000153565b5b60006200010285828601620000c1565b92505060206200011585828601620000c1565b9150509250929050565b60006200012c8262000133565b9050919050565b600073ffffffffffffffffffffffffffffffffffffffff82169050919050565b600080fd5b62000163816200011f565b81146200016f57600080fd5b50565b613c4d80620001826000396000f3fe60806040526004361061007b5760003560e01c80638e1f29991161004e5780638e1f29991461012a5780639cf4dc7014610146578063a23fb7ae14610183578063d4822fbf146101c45761007b565b80631648f1e514610080578063365db402146100ab5780634974275c146100d65780637bb87bb314610101575b600080fd5b34801561008c57600080fd5b506100956101ed565b6040516100a291906137a6565b60405180910390f35b3480156100b757600080fd5b506100c0610bbb565b6040516100cd919061380a565b60405180910390f35b3480156100e257600080fd5b506100eb610bc1565b6040516100f891906137a6565b60405180910390f35b34801561010d57600080fd5b50610128600480360381019061012391906132ae565b61147c565b005b610144600480360381019061013f9190613241565b611b30565b005b34801561015257600080fd5b5061016d60048036038101906101689190613241565b611b87565b60405161017a91906137e8565b60405180910390f35b34801561018f57600080fd5b506101aa60048036038101906101a59190613241565b6123af565b6040516101bb959493929190613825565b60405180910390f35b3480156101d057600080fd5b506101eb60048036038101906101e6919061326e565b612b83565b005b60606000805b600154811015610288573373ffffffffffffffffffffffffffffffffffffffff1660008083815260200190815260200160002060040160009054906101000a900473ffffffffffffffffffffffffffffffffffffffff1673ffffffffffffffffffffffffffffffffffffffff16141561027557818061027190613a39565b9250505b808061028090613a39565b9150506101f3565b5060008167ffffffffffffffff8111156102a5576102a4613b3e565b5b6040519080825280602002602001820160405280156102de57816020015b6102cb612c48565b8152602001906001900390816102c35790505b5090506000805b600154811015610bb1573373ffffffffffffffffffffffffffffffffffffffff1660008083815260200190815260200160002060040160009054906101000a900473ffffffffffffffffffffffffffffffffffffffff1673ffffffffffffffffffffffffffffffffffffffff161415610b9e576000808281526020019081526020016000206040518060a00160405290816000820154815260200160018201604051806080016040529081600082015481526020016001820160009054906101000a900460ff1660038111156103be576103bd613ab1565b5b60038111156103d0576103cf613ab1565b5b81526020016001820160019054906101000a900473ffffffffffffffffffffffffffffffffffffffff1673ffffffffffffffffffffffffffffffffffffffff1673ffffffffffffffffffffffffffffffffffffffff16815260200160028201805461043a906139d6565b80601f0160208091040260200160405190810160405280929190818152602001828054610466906139d6565b80156104b35780601f10610488576101008083540402835291602001916104b3565b820191906000526020600020905b81548152906001019060200180831161049657829003601f168201915b50505050508152505081526020016004820160009054906101000a900473ffffffffffffffffffffffffffffffffffffffff1673ffffffffffffffffffffffffffffffffffffffff1673ffffffffffffffffffffffffffffffffffffffff168152602001600582016040518060a00160405290816000820154815260200160018201604051806080016040529081600082015481526020016001820160009054906101000a900460ff16600381111561056f5761056e613ab1565b5b600381111561058157610580613ab1565b5b81526020016001820160019054906101000a900473ffffffffffffffffffffffffffffffffffffffff1673ffffffffffffffffffffffffffffffffffffffff1673ffffffffffffffffffffffffffffffffffffffff1681526020016002820180546105eb906139d6565b80601f0160208091040260200160405190810160405280929190818152602001828054610617906139d6565b80156106645780601f1061063957610100808354040283529160200191610664565b820191906000526020600020905b81548152906001019060200180831161064757829003601f168201915b5050505050815250508152602001600482018054610681906139d6565b80601f01602080910402602001604051908101604052809291908181526020018280546106ad906139d6565b80156106fa5780601f106106cf576101008083540402835291602001916106fa565b820191906000526020600020905b8154815290600101906020018083116106dd57829003601f168201915b5050505050815260200160058201548152602001600682016040518060c001604052908160008201548152602001600182018054610737906139d6565b80601f0160208091040260200160405190810160405280929190818152602001828054610763906139d6565b80156107b05780601f10610785576101008083540402835291602001916107b0565b820191906000526020600020905b81548152906001019060200180831161079357829003601f168201915b505050505081526020016002820180546107c9906139d6565b80601f01602080910402602001604051908101604052809291908181526020018280546107f5906139d6565b80156108425780601f1061081757610100808354040283529160200191610842565b820191906000526020600020905b81548152906001019060200180831161082557829003601f168201915b5050505050815260200160038201805461085b906139d6565b80601f0160208091040260200160405190810160405280929190818152602001828054610887906139d6565b80156108d45780601f106108a9576101008083540402835291602001916108d4565b820191906000526020600020905b8154815290600101906020018083116108b757829003601f168201915b5050505050815260200160048201604051806080016040529081600082015481526020016001820160009054906101000a900460ff16600381111561091c5761091b613ab1565b5b600381111561092e5761092d613ab1565b5b81526020016001820160019054906101000a900473ffffffffffffffffffffffffffffffffffffffff1673ffffffffffffffffffffffffffffffffffffffff1673ffffffffffffffffffffffffffffffffffffffff168152602001600282018054610998906139d6565b80601f01602080910402602001604051908101604052809291908181526020018280546109c4906139d6565b8015610a115780601f106109e657610100808354040283529160200191610a11565b820191906000526020600020905b8154815290600101906020018083116109f457829003601f168201915b505050505081525050815260200160078201604051806080016040529081600082015481526020016001820160009054906101000a900460ff166003811115610a5d57610a5c613ab1565b5b6003811115610a6f57610a6e613ab1565b5b81526020016001820160019054906101000a900473ffffffffffffffffffffffffffffffffffffffff1673ffffffffffffffffffffffffffffffffffffffff1673ffffffffffffffffffffffffffffffffffffffff168152602001600282018054610ad9906139d6565b80601f0160208091040260200160405190810160405280929190818152602001828054610b05906139d6565b8015610b525780601f10610b2757610100808354040283529160200191610b52565b820191906000526020600020905b815481529060010190602001808311610b3557829003601f168201915b50505050508152505081525050815250508152602001601582015481525050838381518110610b8457610b83613b0f565b5b60200260200101819052508180610b9a90613a39565b9250505b8080610ba990613a39565b9150506102e5565b5081935050505090565b60015481565b6060600060015467ffffffffffffffff811115610be157610be0613b3e565b5b604051908082528060200260200182016040528015610c1a57816020015b610c07612c48565b815260200190600190039081610bff5790505b50905060005b600154811015611474576000808281526020019081526020016000206040518060a00160405290816000820154815260200160018201604051806080016040529081600082015481526020016001820160009054906101000a900460ff166003811115610c9057610c8f613ab1565b5b6003811115610ca257610ca1613ab1565b5b81526020016001820160019054906101000a900473ffffffffffffffffffffffffffffffffffffffff1673ffffffffffffffffffffffffffffffffffffffff1673ffffffffffffffffffffffffffffffffffffffff168152602001600282018054610d0c906139d6565b80601f0160208091040260200160405190810160405280929190818152602001828054610d38906139d6565b8015610d855780601f10610d5a57610100808354040283529160200191610d85565b820191906000526020600020905b815481529060010190602001808311610d6857829003601f168201915b50505050508152505081526020016004820160009054906101000a900473ffffffffffffffffffffffffffffffffffffffff1673ffffffffffffffffffffffffffffffffffffffff1673ffffffffffffffffffffffffffffffffffffffff168152602001600582016040518060a00160405290816000820154815260200160018201604051806080016040529081600082015481526020016001820160009054906101000a900460ff166003811115610e4157610e40613ab1565b5b6003811115610e5357610e52613ab1565b5b81526020016001820160019054906101000a900473ffffffffffffffffffffffffffffffffffffffff1673ffffffffffffffffffffffffffffffffffffffff1673ffffffffffffffffffffffffffffffffffffffff168152602001600282018054610ebd906139d6565b80601f0160208091040260200160405190810160405280929190818152602001828054610ee9906139d6565b8015610f365780601f10610f0b57610100808354040283529160200191610f36565b820191906000526020600020905b815481529060010190602001808311610f1957829003601f168201915b5050505050815250508152602001600482018054610f53906139d6565b80601f0160208091040260200160405190810160405280929190818152602001828054610f7f906139d6565b8015610fcc5780601f10610fa157610100808354040283529160200191610fcc565b820191906000526020600020905b815481529060010190602001808311610faf57829003601f168201915b5050505050815260200160058201548152602001600682016040518060c001604052908160008201548152602001600182018054611009906139d6565b80601f0160208091040260200160405190810160405280929190818152602001828054611035906139d6565b80156110825780601f1061105757610100808354040283529160200191611082565b820191906000526020600020905b81548152906001019060200180831161106557829003601f168201915b5050505050815260200160028201805461109b906139d6565b80601f01602080910402602001604051908101604052809291908181526020018280546110c7906139d6565b80156111145780601f106110e957610100808354040283529160200191611114565b820191906000526020600020905b8154815290600101906020018083116110f757829003601f168201915b5050505050815260200160038201805461112d906139d6565b80601f0160208091040260200160405190810160405280929190818152602001828054611159906139d6565b80156111a65780601f1061117b576101008083540402835291602001916111a6565b820191906000526020600020905b81548152906001019060200180831161118957829003601f168201915b5050505050815260200160048201604051806080016040529081600082015481526020016001820160009054906101000a900460ff1660038111156111ee576111ed613ab1565b5b6003811115611200576111ff613ab1565b5b81526020016001820160019054906101000a900473ffffffffffffffffffffffffffffffffffffffff1673ffffffffffffffffffffffffffffffffffffffff1673ffffffffffffffffffffffffffffffffffffffff16815260200160028201805461126a906139d6565b80601f0160208091040260200160405190810160405280929190818152602001828054611296906139d6565b80156112e35780601f106112b8576101008083540402835291602001916112e3565b820191906000526020600020905b8154815290600101906020018083116112c657829003601f168201915b505050505081525050815260200160078201604051806080016040529081600082015481526020016001820160009054906101000a900460ff16600381111561132f5761132e613ab1565b5b600381111561134157611340613ab1565b5b81526020016001820160019054906101000a900473ffffffffffffffffffffffffffffffffffffffff1673ffffffffffffffffffffffffffffffffffffffff1673ffffffffffffffffffffffffffffffffffffffff1681526020016002820180546113ab906139d6565b80601f01602080910402602001604051908101604052809291908181526020018280546113d7906139d6565b80156114245780601f106113f957610100808354040283529160200191611424565b820191906000526020600020905b81548152906001019060200180831161140757829003601f168201915b5050505050815250508152505081525050815260200160158201548152505082828151811061145657611455613b0f565b5b6020026020010181905250808061146c90613a39565b915050610c20565b508091505090565b60038081111561148f5761148e613ab1565b5b600260009054906101000a900473ffffffffffffffffffffffffffffffffffffffff1673ffffffffffffffffffffffffffffffffffffffff1663097bcc1a336040518263ffffffff1660e01b81526004016114ea919061378b565b60206040518083038186803b15801561150257600080fd5b505afa158015611516573d6000803e3d6000fd5b505050506040513d601f19601f8201168201806040525081019061153a9190613182565b600381111561154c5761154b613ab1565b5b1461158c576040517f08c379a0000000000000000000000000000000000000000000000000000000008152600401611583906137c8565b60405180910390fd5b611594612c48565b600360009054906101000a900473ffffffffffffffffffffffffffffffffffffffff1673ffffffffffffffffffffffffffffffffffffffff1663e3ed14db846040518263ffffffff1660e01b81526004016115ef919061380a565b60006040518083038186803b15801561160757600080fd5b505afa15801561161b573d6000803e3d6000fd5b505050506040513d6000823e3d601f19601f8201168201806040525081019061164491906131f8565b81606001819052506000600260009054906101000a900473ffffffffffffffffffffffffffffffffffffffff1673ffffffffffffffffffffffffffffffffffffffff166362bc56e6336040518263ffffffff1660e01b81526004016116a9919061378b565b60006040518083038186803b1580156116c157600080fd5b505afa1580156116d5573d6000803e3d6000fd5b505050506040513d6000823e3d601f19601f820116820180604052508101906116fe91906131af565b905080826020018190525033826040019073ffffffffffffffffffffffffffffffffffffffff16908173ffffffffffffffffffffffffffffffffffffffff168152505082826080018181525050600154826000018181525050816000806001600081548092919061176e90613a39565b919050558152602001908152602001600020600082015181600001556020820151816001016000820151816000015560208201518160010160006101000a81548160ff021916908360038111156117c8576117c7613ab1565b5b021790555060408201518160010160016101000a81548173ffffffffffffffffffffffffffffffffffffffff021916908373ffffffffffffffffffffffffffffffffffffffff1602179055506060820151816002019080519060200190611830929190612c99565b50505060408201518160040160006101000a81548173ffffffffffffffffffffffffffffffffffffffff021916908373ffffffffffffffffffffffffffffffffffffffff160217905550606082015181600501600082015181600001556020820151816001016000820151816000015560208201518160010160006101000a81548160ff021916908360038111156118cb576118ca613ab1565b5b021790555060408201518160010160016101000a81548173ffffffffffffffffffffffffffffffffffffffff021916908373ffffffffffffffffffffffffffffffffffffffff1602179055506060820151816002019080519060200190611933929190612c99565b5050506040820151816004019080519060200190611952929190612c99565b506060820151816005015560808201518160060160008201518160000155602082015181600101908051906020019061198c929190612c99565b5060408201518160020190805190602001906119a9929190612c99565b5060608201518160030190805190602001906119c6929190612c99565b506080820151816004016000820151816000015560208201518160010160006101000a81548160ff02191690836003811115611a0557611a04613ab1565b5b021790555060408201518160010160016101000a81548173ffffffffffffffffffffffffffffffffffffffff021916908373ffffffffffffffffffffffffffffffffffffffff1602179055506060820151816002019080519060200190611a6d929190612c99565b50505060a0820151816007016000820151816000015560208201518160010160006101000a81548160ff02191690836003811115611aae57611aad613ab1565b5b021790555060408201518160010160016101000a81548173ffffffffffffffffffffffffffffffffffffffff021916908373ffffffffffffffffffffffffffffffffffffffff1602179055506060820151816002019080519060200190611b16929190612c99565b505050505050506080820151816015015590505050505050565b3360008083815260200190815260200160002060040160006101000a81548173ffffffffffffffffffffffffffffffffffffffff021916908373ffffffffffffffffffffffffffffffffffffffff16021790555050565b611b8f612c48565b6000808381526020019081526020016000206040518060a00160405290816000820154815260200160018201604051806080016040529081600082015481526020016001820160009054906101000a900460ff166003811115611bf557611bf4613ab1565b5b6003811115611c0757611c06613ab1565b5b81526020016001820160019054906101000a900473ffffffffffffffffffffffffffffffffffffffff1673ffffffffffffffffffffffffffffffffffffffff1673ffffffffffffffffffffffffffffffffffffffff168152602001600282018054611c71906139d6565b80601f0160208091040260200160405190810160405280929190818152602001828054611c9d906139d6565b8015611cea5780601f10611cbf57610100808354040283529160200191611cea565b820191906000526020600020905b815481529060010190602001808311611ccd57829003601f168201915b50505050508152505081526020016004820160009054906101000a900473ffffffffffffffffffffffffffffffffffffffff1673ffffffffffffffffffffffffffffffffffffffff1673ffffffffffffffffffffffffffffffffffffffff168152602001600582016040518060a00160405290816000820154815260200160018201604051806080016040529081600082015481526020016001820160009054906101000a900460ff166003811115611da657611da5613ab1565b5b6003811115611db857611db7613ab1565b5b81526020016001820160019054906101000a900473ffffffffffffffffffffffffffffffffffffffff1673ffffffffffffffffffffffffffffffffffffffff1673ffffffffffffffffffffffffffffffffffffffff168152602001600282018054611e22906139d6565b80601f0160208091040260200160405190810160405280929190818152602001828054611e4e906139d6565b8015611e9b5780601f10611e7057610100808354040283529160200191611e9b565b820191906000526020600020905b815481529060010190602001808311611e7e57829003601f168201915b5050505050815250508152602001600482018054611eb8906139d6565b80601f0160208091040260200160405190810160405280929190818152602001828054611ee4906139d6565b8015611f315780601f10611f0657610100808354040283529160200191611f31565b820191906000526020600020905b815481529060010190602001808311611f1457829003601f168201915b5050505050815260200160058201548152602001600682016040518060c001604052908160008201548152602001600182018054611f6e906139d6565b80601f0160208091040260200160405190810160405280929190818152602001828054611f9a906139d6565b8015611fe75780601f10611fbc57610100808354040283529160200191611fe7565b820191906000526020600020905b815481529060010190602001808311611fca57829003601f168201915b50505050508152602001600282018054612000906139d6565b80601f016020809104026020016040519081016040528092919081815260200182805461202c906139d6565b80156120795780601f1061204e57610100808354040283529160200191612079565b820191906000526020600020905b81548152906001019060200180831161205c57829003601f168201915b50505050508152602001600382018054612092906139d6565b80601f01602080910402602001604051908101604052809291908181526020018280546120be906139d6565b801561210b5780601f106120e05761010080835404028352916020019161210b565b820191906000526020600020905b8154815290600101906020018083116120ee57829003601f168201915b5050505050815260200160048201604051806080016040529081600082015481526020016001820160009054906101000a900460ff16600381111561215357612152613ab1565b5b600381111561216557612164613ab1565b5b81526020016001820160019054906101000a900473ffffffffffffffffffffffffffffffffffffffff1673ffffffffffffffffffffffffffffffffffffffff1673ffffffffffffffffffffffffffffffffffffffff1681526020016002820180546121cf906139d6565b80601f01602080910402602001604051908101604052809291908181526020018280546121fb906139d6565b80156122485780601f1061221d57610100808354040283529160200191612248565b820191906000526020600020905b81548152906001019060200180831161222b57829003601f168201915b505050505081525050815260200160078201604051806080016040529081600082015481526020016001820160009054906101000a900460ff16600381111561229457612293613ab1565b5b60038111156122a6576122a5613ab1565b5b81526020016001820160019054906101000a900473ffffffffffffffffffffffffffffffffffffffff1673ffffffffffffffffffffffffffffffffffffffff1673ffffffffffffffffffffffffffffffffffffffff168152602001600282018054612310906139d6565b80601f016020809104026020016040519081016040528092919081815260200182805461233c906139d6565b80156123895780601f1061235e57610100808354040283529160200191612389565b820191906000526020600020905b81548152906001019060200180831161236c57829003601f168201915b505050505081525050815250508152505081526020016015820154815250509050919050565b600060205280600052604060002060009150905080600001549080600101604051806080016040529081600082015481526020016001820160009054906101000a900460ff16600381111561240757612406613ab1565b5b600381111561241957612418613ab1565b5b81526020016001820160019054906101000a900473ffffffffffffffffffffffffffffffffffffffff1673ffffffffffffffffffffffffffffffffffffffff1673ffffffffffffffffffffffffffffffffffffffff168152602001600282018054612483906139d6565b80601f01602080910402602001604051908101604052809291908181526020018280546124af906139d6565b80156124fc5780601f106124d1576101008083540402835291602001916124fc565b820191906000526020600020905b8154815290600101906020018083116124df57829003601f168201915b505050505081525050908060040160009054906101000a900473ffffffffffffffffffffffffffffffffffffffff1690806005016040518060a00160405290816000820154815260200160018201604051806080016040529081600082015481526020016001820160009054906101000a900460ff16600381111561258457612583613ab1565b5b600381111561259657612595613ab1565b5b81526020016001820160019054906101000a900473ffffffffffffffffffffffffffffffffffffffff1673ffffffffffffffffffffffffffffffffffffffff1673ffffffffffffffffffffffffffffffffffffffff168152602001600282018054612600906139d6565b80601f016020809104026020016040519081016040528092919081815260200182805461262c906139d6565b80156126795780601f1061264e57610100808354040283529160200191612679565b820191906000526020600020905b81548152906001019060200180831161265c57829003601f168201915b5050505050815250508152602001600482018054612696906139d6565b80601f01602080910402602001604051908101604052809291908181526020018280546126c2906139d6565b801561270f5780601f106126e45761010080835404028352916020019161270f565b820191906000526020600020905b8154815290600101906020018083116126f257829003601f168201915b5050505050815260200160058201548152602001600682016040518060c00160405290816000820154815260200160018201805461274c906139d6565b80601f0160208091040260200160405190810160405280929190818152602001828054612778906139d6565b80156127c55780601f1061279a576101008083540402835291602001916127c5565b820191906000526020600020905b8154815290600101906020018083116127a857829003601f168201915b505050505081526020016002820180546127de906139d6565b80601f016020809104026020016040519081016040528092919081815260200182805461280a906139d6565b80156128575780601f1061282c57610100808354040283529160200191612857565b820191906000526020600020905b81548152906001019060200180831161283a57829003601f168201915b50505050508152602001600382018054612870906139d6565b80601f016020809104026020016040519081016040528092919081815260200182805461289c906139d6565b80156128e95780601f106128be576101008083540402835291602001916128e9565b820191906000526020600020905b8154815290600101906020018083116128cc57829003601f168201915b5050505050815260200160048201604051806080016040529081600082015481526020016001820160009054906101000a900460ff16600381111561293157612930613ab1565b5b600381111561294357612942613ab1565b5b81526020016001820160019054906101000a900473ffffffffffffffffffffffffffffffffffffffff1673ffffffffffffffffffffffffffffffffffffffff1673ffffffffffffffffffffffffffffffffffffffff1681526020016002820180546129ad906139d6565b80601f01602080910402602001604051908101604052809291908181526020018280546129d9906139d6565b8015612a265780601f106129fb57610100808354040283529160200191612a26565b820191906000526020600020905b815481529060010190602001808311612a0957829003601f168201915b505050505081525050815260200160078201604051806080016040529081600082015481526020016001820160009054906101000a900460ff166003811115612a7257612a71613ab1565b5b6003811115612a8457612a83613ab1565b5b81526020016001820160019054906101000a900473ffffffffffffffffffffffffffffffffffffffff1673ffffffffffffffffffffffffffffffffffffffff1673ffffffffffffffffffffffffffffffffffffffff168152602001600282018054612aee906139d6565b80601f0160208091040260200160405190810160405280929190818152602001828054612b1a906139d6565b8015612b675780601f10612b3c57610100808354040283529160200191612b67565b820191906000526020600020905b815481529060010190602001808311612b4a57829003601f168201915b5050505050815250508152505081525050908060150154905085565b3373ffffffffffffffffffffffffffffffffffffffff1660008084815260200190815260200160002060040160009054906101000a900473ffffffffffffffffffffffffffffffffffffffff1673ffffffffffffffffffffffffffffffffffffffff1614612bf057600080fd5b8060008084815260200190815260200160002060040160006101000a81548173ffffffffffffffffffffffffffffffffffffffff021916908373ffffffffffffffffffffffffffffffffffffffff1602179055505050565b6040518060a0016040528060008152602001612c62612d1f565b8152602001600073ffffffffffffffffffffffffffffffffffffffff168152602001612c8c612d6f565b8152602001600081525090565b828054612ca5906139d6565b90600052602060002090601f016020900481019282612cc75760008555612d0e565b82601f10612ce057805160ff1916838001178555612d0e565b82800160010185558215612d0e579182015b82811115612d0d578251825591602001919060010190612cf2565b5b509050612d1b9190612daa565b5090565b60405180608001604052806000815260200160006003811115612d4557612d44613ab1565b5b8152602001600073ffffffffffffffffffffffffffffffffffffffff168152602001606081525090565b6040518060a0016040528060008152602001612d89612d1f565b81526020016060815260200160008152602001612da4612dc7565b81525090565b5b80821115612dc3576000816000905550600101612dab565b5090565b6040518060c0016040528060008152602001606081526020016060815260200160608152602001612df6612d1f565b8152602001612e03612d1f565b81525090565b6000612e1c612e17846138ab565b613886565b905082815260208101848484011115612e3857612e37613b7c565b5b612e438482856139a3565b509392505050565b600081359050612e5a81613bd9565b92915050565b600081519050612e6f81613bd9565b92915050565b600081519050612e8481613bf0565b92915050565b600082601f830112612e9f57612e9e613b6d565b5b8151612eaf848260208601612e09565b91505092915050565b600060808284031215612ece57612ecd613b72565b5b612ed86080613886565b90506000612ee88482850161316d565b6000830152506020612efc84828501612e75565b6020830152506040612f1084828501612e60565b604083015250606082015167ffffffffffffffff811115612f3457612f33613b77565b5b612f4084828501612e8a565b60608301525092915050565b600060a08284031215612f6257612f61613b72565b5b612f6c60a0613886565b90506000612f7c8482850161316d565b600083015250602082015167ffffffffffffffff811115612fa057612f9f613b77565b5b612fac84828501612eb8565b602083015250604082015167ffffffffffffffff811115612fd057612fcf613b77565b5b612fdc84828501612e8a565b6040830152506060612ff08482850161316d565b606083015250608082015167ffffffffffffffff81111561301457613013613b77565b5b6130208482850161302c565b60808301525092915050565b600060c0828403121561304257613041613b72565b5b61304c60c0613886565b9050600061305c8482850161316d565b600083015250602082015167ffffffffffffffff8111156130805761307f613b77565b5b61308c84828501612e8a565b602083015250604082015167ffffffffffffffff8111156130b0576130af613b77565b5b6130bc84828501612e8a565b604083015250606082015167ffffffffffffffff8111156130e0576130df613b77565b5b6130ec84828501612e8a565b606083015250608082015167ffffffffffffffff8111156131105761310f613b77565b5b61311c84828501612eb8565b60808301525060a082015167ffffffffffffffff8111156131405761313f613b77565b5b61314c84828501612eb8565b60a08301525092915050565b60008135905061316781613c00565b92915050565b60008151905061317c81613c00565b92915050565b60006020828403121561319857613197613b86565b5b60006131a684828501612e75565b91505092915050565b6000602082840312156131c5576131c4613b86565b5b600082015167ffffffffffffffff8111156131e3576131e2613b81565b5b6131ef84828501612eb8565b91505092915050565b60006020828403121561320e5761320d613b86565b5b600082015167ffffffffffffffff81111561322c5761322b613b81565b5b61323884828501612f4c565b91505092915050565b60006020828403121561325757613256613b86565b5b600061326584828501613158565b91505092915050565b6000806040838503121561328557613284613b86565b5b600061329385828601613158565b92505060206132a485828601612e4b565b9150509250929050565b600080604083850312156132c5576132c4613b86565b5b60006132d385828601613158565b92505060206132e485828601613158565b9150509250929050565b60006132fa83836135ce565b905092915050565b61330b81613942565b82525050565b61331a81613942565b82525050565b600061332b826138ec565b613335818561390f565b935083602082028501613347856138dc565b8060005b85811015613383578484038952815161336485826132ee565b945061336f83613902565b925060208a0199505060018101905061334b565b50829750879550505050505092915050565b61339e81613991565b82525050565b60006133af826138f7565b6133b98185613920565b93506133c98185602086016139a3565b6133d281613b8b565b840191505092915050565b60006133ea601e83613931565b91506133f582613b9c565b602082019050919050565b6000608083016000830151613418600086018261376d565b50602083015161342b6020860182613395565b50604083015161343e6040860182613302565b506060830151848203606086015261345682826133a4565b9150508091505092915050565b600060808301600083015161347b600086018261376d565b50602083015161348e6020860182613395565b5060408301516134a16040860182613302565b50606083015184820360608601526134b982826133a4565b9150508091505092915050565b600060a0830160008301516134de600086018261376d565b50602083015184820360208601526134f68282613400565b9150506040830151848203604086015261351082826133a4565b9150506060830151613525606086018261376d565b506080830151848203608086015261353d82826136c8565b9150508091505092915050565b600060a083016000830151613562600086018261376d565b506020830151848203602086015261357a8282613400565b9150506040830151848203604086015261359482826133a4565b91505060608301516135a9606086018261376d565b50608083015184820360808601526135c182826136c8565b9150508091505092915050565b600060a0830160008301516135e6600086018261376d565b50602083015184820360208601526135fe8282613400565b91505060408301516136136040860182613302565b506060830151848203606086015261362b82826134c6565b9150506080830151613640608086018261376d565b508091505092915050565b600060a083016000830151613663600086018261376d565b506020830151848203602086015261367b8282613400565b91505060408301516136906040860182613302565b50606083015184820360608601526136a882826134c6565b91505060808301516136bd608086018261376d565b508091505092915050565b600060c0830160008301516136e0600086018261376d565b50602083015184820360208601526136f882826133a4565b9150506040830151848203604086015261371282826133a4565b9150506060830151848203606086015261372c82826133a4565b915050608083015184820360808601526137468282613400565b91505060a083015184820360a08601526137608282613400565b9150508091505092915050565b61377681613987565b82525050565b61378581613987565b82525050565b60006020820190506137a06000830184613311565b92915050565b600060208201905081810360008301526137c08184613320565b905092915050565b600060208201905081810360008301526137e1816133dd565b9050919050565b60006020820190508181036000830152613802818461364b565b905092915050565b600060208201905061381f600083018461377c565b92915050565b600060a08201905061383a600083018861377c565b818103602083015261384c8187613463565b905061385b6040830186613311565b818103606083015261386d818561354a565b905061387c608083018461377c565b9695505050505050565b60006138906138a1565b905061389c8282613a08565b919050565b6000604051905090565b600067ffffffffffffffff8211156138c6576138c5613b3e565b5b6138cf82613b8b565b9050602081019050919050565b6000819050602082019050919050565b600081519050919050565b600081519050919050565b6000602082019050919050565b600082825260208201905092915050565b600082825260208201905092915050565b600082825260208201905092915050565b600061394d82613967565b9050919050565b600081905061396282613bc5565b919050565b600073ffffffffffffffffffffffffffffffffffffffff82169050919050565b6000819050919050565b600061399c82613954565b9050919050565b60005b838110156139c15780820151818401526020810190506139a6565b838111156139d0576000848401525b50505050565b600060028204905060018216806139ee57607f821691505b60208210811415613a0257613a01613ae0565b5b50919050565b613a1182613b8b565b810181811067ffffffffffffffff82111715613a3057613a2f613b3e565b5b80604052505050565b6000613a4482613987565b91507fffffffffffffffffffffffffffffffffffffffffffffffffffffffffffffffff821415613a7757613a76613a82565b5b600182019050919050565b7f4e487b7100000000000000000000000000000000000000000000000000000000600052601160045260246000fd5b7f4e487b7100000000000000000000000000000000000000000000000000000000600052602160045260246000fd5b7f4e487b7100000000000000000000000000000000000000000000000000000000600052602260045260246000fd5b7f4e487b7100000000000000000000000000000000000000000000000000000000600052603260045260246000fd5b7f4e487b7100000000000000000000000000000000000000000000000000000000600052604160045260246000fd5b600080fd5b600080fd5b600080fd5b600080fd5b600080fd5b600080fd5b6000601f19601f8301169050919050565b7f596f7520617265206e6f7420746865206d616e75666163747572657273210000600082015250565b60048110613bd657613bd5613ab1565b5b50565b613be281613942565b8114613bed57600080fd5b50565b60048110613bfd57600080fd5b50565b613c0981613987565b8114613c1457600080fd5b5056fea2646970667358221220c1f8b33f849447dab8dc6f35d0e500d01aaa551573e0d62d6477b71dc260addc64736f6c63430008070033",
  "immutableReferences": {},
  "source": "// SPDX-License-Identifier: MIT\r\npragma solidity ^0.8.7;\r\n\r\nimport \"./CompanyRegistry.sol\";\r\nimport \"./DiamondRegistry.sol\";\r\n\r\ncontract JewelryShop {\r\n    struct Jewelry {\r\n        uint256 jewelryId;\r\n        CompanyRegistry.Company manufacturer;\r\n        address owner;\r\n        DiamondRegistry.Diamond diamond;\r\n        uint256 price;\r\n    }\r\n\r\n    mapping(uint256 => Jewelry) public jewelryItems;\r\n    uint256 public jewelryCounts;\r\n\r\n    CompanyRegistry private companyRegistry;\r\n    DiamondRegistry private diamondRegistry;\r\n\r\n    constructor(address _companyRegistry, address _diamondRegistry) {\r\n        companyRegistry = CompanyRegistry(_companyRegistry);\r\n        diamondRegistry = DiamondRegistry(_diamondRegistry);\r\n    }\r\n\r\n    modifier onlyManufacturer() {\r\n        require(\r\n            companyRegistry.getCompanyType(msg.sender) ==\r\n                CompanyRegistry.CompanyType.Manufacturer,\r\n            \"You are not the manufacturers!\"\r\n        );\r\n        _;\r\n    }\r\n\r\n    function transferTo(uint256 _jewelryId, address _to) public {\r\n        require(jewelryItems[_jewelryId].owner == msg.sender);\r\n        jewelryItems[_jewelryId].owner = _to;\r\n    }\r\n\r\n    function getAllJewels() public view returns (Jewelry[] memory) {\r\n        Jewelry[] memory allJewels = new Jewelry[](jewelryCounts);\r\n        for (uint i = 0; i < jewelryCounts; i++) {\r\n            allJewels[i] = jewelryItems[i];\r\n        }\r\n        return allJewels;\r\n    }\r\n\r\n    function diamondDesigning(\r\n        uint256 uniqueId,\r\n        uint256 price\r\n    ) public onlyManufacturer {\r\n        // todo \r\n        Jewelry memory newJewelry;\r\n        newJewelry.diamond = diamondRegistry.getDiamond(uniqueId);\r\n        CompanyRegistry.Company memory manufacturer = companyRegistry.getCompany(msg.sender);\r\n        newJewelry.manufacturer = manufacturer;\r\n        newJewelry.owner = msg.sender;\r\n        newJewelry.price = price;\r\n        newJewelry.jewelryId = jewelryCounts;\r\n        jewelryItems[jewelryCounts++] = newJewelry;\r\n    }\r\n\r\n    function jewelryPurchase(uint256 jewelryId) public payable {\r\n        // uint256 price = jewelryItems[jewelryId].price;\r\n        // require(msg.value == price);\r\n        jewelryItems[jewelryId].owner = msg.sender;\r\n    }\r\n\r\n    function getMyJewels() public view returns (Jewelry[] memory) {\r\n        uint256 count = 0;\r\n        for (uint256 i = 0; i < jewelryCounts; i++) {\r\n            if (jewelryItems[i].owner == msg.sender) {\r\n                count++;\r\n            }\r\n        }\r\n\r\n        Jewelry[] memory myJewels = new Jewelry[](count);\r\n        uint256 index = 0;\r\n        for (uint256 i = 0; i < jewelryCounts; i++) {\r\n            if (jewelryItems[i].owner == msg.sender) {\r\n                myJewels[index] = jewelryItems[i];\r\n                index++;\r\n            }\r\n        }\r\n\r\n        return myJewels;\r\n    }\r\n\r\n    function jewelryVerify(\r\n        uint256 jewelryId\r\n    ) public view returns (Jewelry memory) {\r\n        return jewelryItems[jewelryId];\r\n    }\r\n}\r\n",
  "sourcePath": "D:\\master\\dapp\\tracing-luxury-1\\src\\contracts\\JewelryShop.sol",
  "compiler": {
    "name": "solc",
    "version": "0.8.7+commit.e28d00a7.Emscripten.clang"
  },
  "schemaVersion": "3.4.16",
  "updatedAt": "2023-11-22T14:39:31.690Z",
  "networkType": "ethereum",
  "devdoc": {
    "kind": "dev",
    "methods": {},
    "version": 1
  },
  "userdoc": {
    "kind": "user",
    "methods": {},
    "version": 1
  }
}