{
  "contractName": "JewelryShop",
  "abi": [
    {
      "inputs": [
        {
          "internalType": "address",
          "name": "_companyRegistry",
          "type": "address"
        },
        {
          "internalType": "address",
          "name": "_diamondRegistry",
          "type": "address"
        }
      ],
      "stateMutability": "nonpayable",
      "type": "constructor"
    },
    {
      "inputs": [],
      "name": "jewelryCounts",
      "outputs": [
        {
          "internalType": "uint256",
          "name": "",
          "type": "uint256"
        }
      ],
      "stateMutability": "view",
      "type": "function",
      "constant": true
    },
    {
      "inputs": [
        {
          "internalType": "uint256",
          "name": "",
          "type": "uint256"
        }
      ],
      "name": "jewelryItems",
      "outputs": [
        {
          "internalType": "uint256",
          "name": "jewelryId",
          "type": "uint256"
        },
        {
          "internalType": "address",
          "name": "manufacturer",
          "type": "address"
        },
        {
          "internalType": "address",
          "name": "owner",
          "type": "address"
        },
        {
          "components": [
            {
              "internalType": "uint256",
              "name": "uniqueId",
              "type": "uint256"
            },
            {
              "components": [
                {
                  "internalType": "uint256",
                  "name": "rawId",
                  "type": "uint256"
                },
                {
                  "internalType": "address",
                  "name": "miningCompany",
                  "type": "address"
                },
                {
                  "internalType": "address",
                  "name": "cuttingCompany",
                  "type": "address"
                },
                {
                  "internalType": "address",
                  "name": "gradingLab",
                  "type": "address"
                }
              ],
              "internalType": "struct RawDiamondRegistry.RawDiamond",
              "name": "rawDiamond",
              "type": "tuple"
            }
          ],
          "internalType": "struct DiamondRegistry.Diamond",
          "name": "diamond",
          "type": "tuple"
        },
        {
          "internalType": "uint256",
          "name": "price",
          "type": "uint256"
        }
      ],
      "stateMutability": "view",
      "type": "function",
      "constant": true
    },
    {
      "inputs": [
        {
          "internalType": "uint256",
          "name": "uniqueId",
          "type": "uint256"
        }
      ],
      "name": "diamondDesigning",
      "outputs": [],
      "stateMutability": "nonpayable",
      "type": "function"
    },
    {
      "inputs": [
        {
          "internalType": "uint256",
          "name": "jewelryId",
          "type": "uint256"
        }
      ],
      "name": "jewelryPurchase",
      "outputs": [],
      "stateMutability": "payable",
      "type": "function",
      "payable": true
    },
    {
      "inputs": [
        {
          "internalType": "uint256",
          "name": "jewelryId",
          "type": "uint256"
        }
      ],
      "name": "jewelryVerify",
      "outputs": [
        {
          "components": [
            {
              "internalType": "uint256",
              "name": "jewelryId",
              "type": "uint256"
            },
            {
              "internalType": "address",
              "name": "manufacturer",
              "type": "address"
            },
            {
              "internalType": "address",
              "name": "owner",
              "type": "address"
            },
            {
              "components": [
                {
                  "internalType": "uint256",
                  "name": "uniqueId",
                  "type": "uint256"
                },
                {
                  "components": [
                    {
                      "internalType": "uint256",
                      "name": "rawId",
                      "type": "uint256"
                    },
                    {
                      "internalType": "address",
                      "name": "miningCompany",
                      "type": "address"
                    },
                    {
                      "internalType": "address",
                      "name": "cuttingCompany",
                      "type": "address"
                    },
                    {
                      "internalType": "address",
                      "name": "gradingLab",
                      "type": "address"
                    }
                  ],
                  "internalType": "struct RawDiamondRegistry.RawDiamond",
                  "name": "rawDiamond",
                  "type": "tuple"
                }
              ],
              "internalType": "struct DiamondRegistry.Diamond",
              "name": "diamond",
              "type": "tuple"
            },
            {
              "internalType": "uint256",
              "name": "price",
              "type": "uint256"
            }
          ],
          "internalType": "struct JewelryShop.Jewelry",
          "name": "",
          "type": "tuple"
        }
      ],
      "stateMutability": "view",
      "type": "function",
      "constant": true
    }
  ],
  "bytecode": "0x60806040523480156200001157600080fd5b50604051620011f3380380620011f38339818101604052810190620000379190620000d8565b81600260006101000a81548173ffffffffffffffffffffffffffffffffffffffff021916908373ffffffffffffffffffffffffffffffffffffffff16021790555080600360006101000a81548173ffffffffffffffffffffffffffffffffffffffff021916908373ffffffffffffffffffffffffffffffffffffffff160217905550505062000172565b600081519050620000d28162000158565b92915050565b60008060408385031215620000f257620000f162000153565b5b60006200010285828601620000c1565b92505060206200011585828601620000c1565b9150509250929050565b60006200012c8262000133565b9050919050565b600073ffffffffffffffffffffffffffffffffffffffff82169050919050565b600080fd5b62000163816200011f565b81146200016f57600080fd5b50565b61107180620001826000396000f3fe60806040526004361061004a5760003560e01c8063365db4021461004f5780637a7c150b1461007a5780638e1f2999146100a35780639cf4dc70146100bf578063a23fb7ae146100fc575b600080fd5b34801561005b57600080fd5b5061006461013d565b6040516100719190610dd0565b60405180910390f35b34801561008657600080fd5b506100a1600480360381019061009c9190610bd0565b610143565b005b6100bd60048036038101906100b89190610bd0565b61051d565b005b3480156100cb57600080fd5b506100e660048036038101906100e19190610bd0565b61059b565b6040516100f39190610db4565b60405180910390f35b34801561010857600080fd5b50610123600480360381019061011e9190610bd0565b6107c5565b604051610134959493929190610deb565b60405180910390f35b60015481565b60038081111561015657610155610f5b565b5b600260009054906101000a900473ffffffffffffffffffffffffffffffffffffffff1673ffffffffffffffffffffffffffffffffffffffff1663097bcc1a336040518263ffffffff1660e01b81526004016101b19190610d79565b60206040518083038186803b1580156101c957600080fd5b505afa1580156101dd573d6000803e3d6000fd5b505050506040513d601f19601f820116820180604052508101906102019190610b76565b600381111561021357610212610f5b565b5b14610253576040517f08c379a000000000000000000000000000000000000000000000000000000000815260040161024a90610d94565b60405180910390fd5b61025b61096f565b600360009054906101000a900473ffffffffffffffffffffffffffffffffffffffff1673ffffffffffffffffffffffffffffffffffffffff1663e3ed14db836040518263ffffffff1660e01b81526004016102b69190610dd0565b60a06040518083038186803b1580156102ce57600080fd5b505afa1580156102e2573d6000803e3d6000fd5b505050506040513d601f19601f820116820180604052508101906103069190610ba3565b816060018190525033816020019073ffffffffffffffffffffffffffffffffffffffff16908173ffffffffffffffffffffffffffffffffffffffff168152505060006001600081548092919061035b90610ee3565b919050559050816000808381526020019081526020016000206000820151816000015560208201518160010160006101000a81548173ffffffffffffffffffffffffffffffffffffffff021916908373ffffffffffffffffffffffffffffffffffffffff16021790555060408201518160020160006101000a81548173ffffffffffffffffffffffffffffffffffffffff021916908373ffffffffffffffffffffffffffffffffffffffff160217905550606082015181600301600082015181600001556020820151816001016000820151816000015560208201518160010160006101000a81548173ffffffffffffffffffffffffffffffffffffffff021916908373ffffffffffffffffffffffffffffffffffffffff16021790555060408201518160020160006101000a81548173ffffffffffffffffffffffffffffffffffffffff021916908373ffffffffffffffffffffffffffffffffffffffff16021790555060608201518160030160006101000a81548173ffffffffffffffffffffffffffffffffffffffff021916908373ffffffffffffffffffffffffffffffffffffffff1602179055505050505060808201518160080155905050505050565b600080600083815260200190815260200160002060080154905080341461054357600080fd5b3360008084815260200190815260200160002060020160006101000a81548173ffffffffffffffffffffffffffffffffffffffff021916908373ffffffffffffffffffffffffffffffffffffffff1602179055505050565b6105a361096f565b6000808381526020019081526020016000206040518060a0016040529081600082015481526020016001820160009054906101000a900473ffffffffffffffffffffffffffffffffffffffff1673ffffffffffffffffffffffffffffffffffffffff1673ffffffffffffffffffffffffffffffffffffffff1681526020016002820160009054906101000a900473ffffffffffffffffffffffffffffffffffffffff1673ffffffffffffffffffffffffffffffffffffffff1673ffffffffffffffffffffffffffffffffffffffff168152602001600382016040518060400160405290816000820154815260200160018201604051806080016040529081600082015481526020016001820160009054906101000a900473ffffffffffffffffffffffffffffffffffffffff1673ffffffffffffffffffffffffffffffffffffffff1673ffffffffffffffffffffffffffffffffffffffff1681526020016002820160009054906101000a900473ffffffffffffffffffffffffffffffffffffffff1673ffffffffffffffffffffffffffffffffffffffff1673ffffffffffffffffffffffffffffffffffffffff1681526020016003820160009054906101000a900473ffffffffffffffffffffffffffffffffffffffff1673ffffffffffffffffffffffffffffffffffffffff1673ffffffffffffffffffffffffffffffffffffffff16815250508152505081526020016008820154815250509050919050565b60006020528060005260406000206000915090508060000154908060010160009054906101000a900473ffffffffffffffffffffffffffffffffffffffff16908060020160009054906101000a900473ffffffffffffffffffffffffffffffffffffffff1690806003016040518060400160405290816000820154815260200160018201604051806080016040529081600082015481526020016001820160009054906101000a900473ffffffffffffffffffffffffffffffffffffffff1673ffffffffffffffffffffffffffffffffffffffff1673ffffffffffffffffffffffffffffffffffffffff1681526020016002820160009054906101000a900473ffffffffffffffffffffffffffffffffffffffff1673ffffffffffffffffffffffffffffffffffffffff1673ffffffffffffffffffffffffffffffffffffffff1681526020016003820160009054906101000a900473ffffffffffffffffffffffffffffffffffffffff1673ffffffffffffffffffffffffffffffffffffffff1673ffffffffffffffffffffffffffffffffffffffff168152505081525050908060080154905085565b6040518060a0016040528060008152602001600073ffffffffffffffffffffffffffffffffffffffff168152602001600073ffffffffffffffffffffffffffffffffffffffff1681526020016109c36109d0565b8152602001600081525090565b6040518060400160405280600081526020016109ea6109f0565b81525090565b604051806080016040528060008152602001600073ffffffffffffffffffffffffffffffffffffffff168152602001600073ffffffffffffffffffffffffffffffffffffffff168152602001600073ffffffffffffffffffffffffffffffffffffffff1681525090565b600081519050610a6981610ffd565b92915050565b600081519050610a7e81611014565b92915050565b600060a08284031215610a9a57610a99610fb9565b5b610aa46040610e40565b90506000610ab484828501610b61565b6000830152506020610ac884828501610ad4565b60208301525092915050565b600060808284031215610aea57610ae9610fb9565b5b610af46080610e40565b90506000610b0484828501610b61565b6000830152506020610b1884828501610a5a565b6020830152506040610b2c84828501610a5a565b6040830152506060610b4084828501610a5a565b60608301525092915050565b600081359050610b5b81611024565b92915050565b600081519050610b7081611024565b92915050565b600060208284031215610b8c57610b8b610fbe565b5b6000610b9a84828501610a6f565b91505092915050565b600060a08284031215610bb957610bb8610fbe565b5b6000610bc784828501610a84565b91505092915050565b600060208284031215610be657610be5610fbe565b5b6000610bf484828501610b4c565b91505092915050565b610c0681610e76565b82525050565b610c1581610e76565b82525050565b6000610c28601e83610e65565b9150610c3382610fd4565b602082019050919050565b60a082016000820151610c546000850182610d5b565b506020820151610c676020850182610d06565b50505050565b60a082016000820151610c836000850182610d5b565b506020820151610c966020850182610d06565b50505050565b61012082016000820151610cb36000850182610d5b565b506020820151610cc66020850182610bfd565b506040820151610cd96040850182610bfd565b506060820151610cec6060850182610c3e565b506080820151610d00610100850182610d5b565b50505050565b608082016000820151610d1c6000850182610d5b565b506020820151610d2f6020850182610bfd565b506040820151610d426040850182610bfd565b506060820151610d556060850182610bfd565b50505050565b610d6481610ea8565b82525050565b610d7381610ea8565b82525050565b6000602082019050610d8e6000830184610c0c565b92915050565b60006020820190508181036000830152610dad81610c1b565b9050919050565b600061012082019050610dca6000830184610c9c565b92915050565b6000602082019050610de56000830184610d6a565b92915050565b600061012082019050610e016000830188610d6a565b610e0e6020830187610c0c565b610e1b6040830186610c0c565b610e286060830185610c6d565b610e36610100830184610d6a565b9695505050505050565b6000610e4a610e5b565b9050610e568282610eb2565b919050565b6000604051905090565b600082825260208201905092915050565b6000610e8182610e88565b9050919050565b600073ffffffffffffffffffffffffffffffffffffffff82169050919050565b6000819050919050565b610ebb82610fc3565b810181811067ffffffffffffffff82111715610eda57610ed9610f8a565b5b80604052505050565b6000610eee82610ea8565b91507fffffffffffffffffffffffffffffffffffffffffffffffffffffffffffffffff821415610f2157610f20610f2c565b5b600182019050919050565b7f4e487b7100000000000000000000000000000000000000000000000000000000600052601160045260246000fd5b7f4e487b7100000000000000000000000000000000000000000000000000000000600052602160045260246000fd5b7f4e487b7100000000000000000000000000000000000000000000000000000000600052604160045260246000fd5b600080fd5b600080fd5b6000601f19601f8301169050919050565b7f596f7520617265206e6f7420746865206d616e75666163747572657273210000600082015250565b61100681610e76565b811461101157600080fd5b50565b6004811061102157600080fd5b50565b61102d81610ea8565b811461103857600080fd5b5056fea26469706673582212207c2160776d458d66d765fce614c086a5e912bbc5d70db983ccd2086c93f2b51e64736f6c63430008070033",
  "immutableReferences": {},
  "source": "// SPDX-License-Identifier: MIT\npragma solidity ^0.8.7;\n\nimport \"./CompanyRegistry.sol\";\nimport \"./DiamondRegistry.sol\";\n\ncontract JewelryShop {\n    struct Jewelry {\n        uint256 jewelryId;\n        address manufacturer;\n        address owner;\n        DiamondRegistry.Diamond diamond;\n        uint256 price;\n    }\n\n    mapping(uint256 => Jewelry) public jewelryItems;\n    uint256 public jewelryCounts;\n\n    CompanyRegistry private companyRegistry;\n    DiamondRegistry private diamondRegistry;\n\n    constructor(address _companyRegistry, address _diamondRegistry) {\n        companyRegistry = CompanyRegistry(_companyRegistry);\n        diamondRegistry = DiamondRegistry(_diamondRegistry);\n    }\n\n    modifier onlyManufacturer() {\n        require(\n            companyRegistry.getCompanyType(msg.sender) == CompanyRegistry.CompanyType.Manufacturer,\n            \"You are not the manufacturers!\"\n        );\n        _;\n    }\n\n    function diamondDesigning(uint256 uniqueId) public onlyManufacturer {\n        Jewelry memory newJewelry;\n        newJewelry.diamond = diamondRegistry.getDiamond(uniqueId);\n        newJewelry.manufacturer = msg.sender;\n        uint256 jewelryId = jewelryCounts++;\n        jewelryItems[jewelryId] = newJewelry;\n    }\n\n    function jewelryPurchase(uint256 jewelryId) public payable {\n        uint256 price = jewelryItems[jewelryId].price;\n        require(msg.value == price);\n        jewelryItems[jewelryId].owner = msg.sender;\n    }\n\n    function jewelryVerify(uint256 jewelryId) public view returns (Jewelry memory) {\n        return jewelryItems[jewelryId];\n    }\n}",
  "sourcePath": "/Users/huanghongbin/VsCodeProjests/tracing-luxury/src/contracts/JewelryShop.sol",
  "compiler": {
    "name": "solc",
    "version": "0.8.7+commit.e28d00a7.Emscripten.clang"
  },
  "schemaVersion": "3.4.16",
  "updatedAt": "2023-11-10T11:04:52.246Z",
  "networkType": "ethereum",
  "devdoc": {
    "kind": "dev",
    "methods": {},
    "version": 1
  },
  "userdoc": {
    "kind": "user",
    "methods": {},
    "version": 1
  }
}