{
  "contractName": "JewelryShop",
  "abi": [
    {
      "inputs": [
        {
          "internalType": "address",
          "name": "_companyRegistry",
          "type": "address"
        },
        {
          "internalType": "address",
          "name": "_diamondRegistry",
          "type": "address"
        }
      ],
      "stateMutability": "nonpayable",
      "type": "constructor"
    },
    {
      "inputs": [],
      "name": "jewelryCounts",
      "outputs": [
        {
          "internalType": "uint256",
          "name": "",
          "type": "uint256"
        }
      ],
      "stateMutability": "view",
      "type": "function",
      "constant": true
    },
    {
      "inputs": [
        {
          "internalType": "uint256",
          "name": "",
          "type": "uint256"
        }
      ],
      "name": "jewelryItems",
      "outputs": [
        {
          "internalType": "uint256",
          "name": "jewelryId",
          "type": "uint256"
        },
        {
          "internalType": "address",
          "name": "manufacturer",
          "type": "address"
        },
        {
          "internalType": "address",
          "name": "owner",
          "type": "address"
        },
        {
          "components": [
            {
              "internalType": "uint256",
              "name": "uniqueId",
              "type": "uint256"
            },
            {
              "internalType": "address",
              "name": "gradingLab",
              "type": "address"
            },
            {
              "components": [
                {
                  "internalType": "uint256",
                  "name": "rawId",
                  "type": "uint256"
                },
                {
                  "internalType": "address",
                  "name": "miningCompany",
                  "type": "address"
                },
                {
                  "internalType": "address",
                  "name": "cuttingCompany",
                  "type": "address"
                }
              ],
              "internalType": "struct RawDiamondRegistry.RawDiamond",
              "name": "rawDiamond",
              "type": "tuple"
            }
          ],
          "internalType": "struct DiamondRegistry.Diamond",
          "name": "diamond",
          "type": "tuple"
        },
        {
          "internalType": "uint256",
          "name": "price",
          "type": "uint256"
        }
      ],
      "stateMutability": "view",
      "type": "function",
      "constant": true
    },
    {
      "inputs": [],
      "name": "getAllJewels",
      "outputs": [
        {
          "components": [
            {
              "internalType": "uint256",
              "name": "jewelryId",
              "type": "uint256"
            },
            {
              "internalType": "address",
              "name": "manufacturer",
              "type": "address"
            },
            {
              "internalType": "address",
              "name": "owner",
              "type": "address"
            },
            {
              "components": [
                {
                  "internalType": "uint256",
                  "name": "uniqueId",
                  "type": "uint256"
                },
                {
                  "internalType": "address",
                  "name": "gradingLab",
                  "type": "address"
                },
                {
                  "components": [
                    {
                      "internalType": "uint256",
                      "name": "rawId",
                      "type": "uint256"
                    },
                    {
                      "internalType": "address",
                      "name": "miningCompany",
                      "type": "address"
                    },
                    {
                      "internalType": "address",
                      "name": "cuttingCompany",
                      "type": "address"
                    }
                  ],
                  "internalType": "struct RawDiamondRegistry.RawDiamond",
                  "name": "rawDiamond",
                  "type": "tuple"
                }
              ],
              "internalType": "struct DiamondRegistry.Diamond",
              "name": "diamond",
              "type": "tuple"
            },
            {
              "internalType": "uint256",
              "name": "price",
              "type": "uint256"
            }
          ],
          "internalType": "struct JewelryShop.Jewelry[]",
          "name": "",
          "type": "tuple[]"
        }
      ],
      "stateMutability": "view",
      "type": "function",
      "constant": true
    },
    {
      "inputs": [
        {
          "internalType": "uint256",
          "name": "uniqueId",
          "type": "uint256"
        }
      ],
      "name": "diamondDesigning",
      "outputs": [],
      "stateMutability": "nonpayable",
      "type": "function"
    },
    {
      "inputs": [
        {
          "internalType": "uint256",
          "name": "jewelryId",
          "type": "uint256"
        }
      ],
      "name": "jewelryPurchase",
      "outputs": [],
      "stateMutability": "payable",
      "type": "function",
      "payable": true
    },
    {
      "inputs": [
        {
          "internalType": "uint256",
          "name": "jewelryId",
          "type": "uint256"
        }
      ],
      "name": "jewelryVerify",
      "outputs": [
        {
          "components": [
            {
              "internalType": "uint256",
              "name": "jewelryId",
              "type": "uint256"
            },
            {
              "internalType": "address",
              "name": "manufacturer",
              "type": "address"
            },
            {
              "internalType": "address",
              "name": "owner",
              "type": "address"
            },
            {
              "components": [
                {
                  "internalType": "uint256",
                  "name": "uniqueId",
                  "type": "uint256"
                },
                {
                  "internalType": "address",
                  "name": "gradingLab",
                  "type": "address"
                },
                {
                  "components": [
                    {
                      "internalType": "uint256",
                      "name": "rawId",
                      "type": "uint256"
                    },
                    {
                      "internalType": "address",
                      "name": "miningCompany",
                      "type": "address"
                    },
                    {
                      "internalType": "address",
                      "name": "cuttingCompany",
                      "type": "address"
                    }
                  ],
                  "internalType": "struct RawDiamondRegistry.RawDiamond",
                  "name": "rawDiamond",
                  "type": "tuple"
                }
              ],
              "internalType": "struct DiamondRegistry.Diamond",
              "name": "diamond",
              "type": "tuple"
            },
            {
              "internalType": "uint256",
              "name": "price",
              "type": "uint256"
            }
          ],
          "internalType": "struct JewelryShop.Jewelry",
          "name": "",
          "type": "tuple"
        }
      ],
      "stateMutability": "view",
      "type": "function",
      "constant": true
    }
  ],
  "bytecode": "0x60806040523480156200001157600080fd5b5060405162001664380380620016648339818101604052810190620000379190620000d8565b81600260006101000a81548173ffffffffffffffffffffffffffffffffffffffff021916908373ffffffffffffffffffffffffffffffffffffffff16021790555080600360006101000a81548173ffffffffffffffffffffffffffffffffffffffff021916908373ffffffffffffffffffffffffffffffffffffffff160217905550505062000172565b600081519050620000d28162000158565b92915050565b60008060408385031215620000f257620000f162000153565b5b60006200010285828601620000c1565b92505060206200011585828601620000c1565b9150509250929050565b60006200012c8262000133565b9050919050565b600073ffffffffffffffffffffffffffffffffffffffff82169050919050565b600080fd5b62000163816200011f565b81146200016f57600080fd5b50565b6114e280620001826000396000f3fe6080604052600436106100555760003560e01c8063365db4021461005a5780634974275c146100855780637a7c150b146100b05780638e1f2999146100d95780639cf4dc70146100f5578063a23fb7ae14610132575b600080fd5b34801561006657600080fd5b5061006f610173565b60405161007c91906111d9565b60405180910390f35b34801561009157600080fd5b5061009a610179565b6040516100a7919061117b565b60405180910390f35b3480156100bc57600080fd5b506100d760048036038101906100d29190610ec3565b610436565b005b6100f360048036038101906100ee9190610ec3565b610810565b005b34801561010157600080fd5b5061011c60048036038101906101179190610ec3565b61088e565b60405161012991906111bd565b60405180910390f35b34801561013e57600080fd5b5061015960048036038101906101549190610ec3565b610ab8565b60405161016a9594939291906111f4565b60405180910390f35b60015481565b6060600060015467ffffffffffffffff811115610199576101986113fb565b5b6040519080825280602002602001820160405280156101d257816020015b6101bf610c62565b8152602001906001900390816101b75790505b50905060005b60015481101561042e576000808281526020019081526020016000206040518060a0016040529081600082015481526020016001820160009054906101000a900473ffffffffffffffffffffffffffffffffffffffff1673ffffffffffffffffffffffffffffffffffffffff1673ffffffffffffffffffffffffffffffffffffffff1681526020016002820160009054906101000a900473ffffffffffffffffffffffffffffffffffffffff1673ffffffffffffffffffffffffffffffffffffffff1673ffffffffffffffffffffffffffffffffffffffff16815260200160038201604051806060016040529081600082015481526020016001820160009054906101000a900473ffffffffffffffffffffffffffffffffffffffff1673ffffffffffffffffffffffffffffffffffffffff1673ffffffffffffffffffffffffffffffffffffffff16815260200160028201604051806060016040529081600082015481526020016001820160009054906101000a900473ffffffffffffffffffffffffffffffffffffffff1673ffffffffffffffffffffffffffffffffffffffff1673ffffffffffffffffffffffffffffffffffffffff1681526020016002820160009054906101000a900473ffffffffffffffffffffffffffffffffffffffff1673ffffffffffffffffffffffffffffffffffffffff1673ffffffffffffffffffffffffffffffffffffffff16815250508152505081526020016008820154815250508282815181106104105761040f6113cc565b5b6020026020010181905250808061042690611325565b9150506101d8565b508091505090565b6003808111156104495761044861139d565b5b600260009054906101000a900473ffffffffffffffffffffffffffffffffffffffff1673ffffffffffffffffffffffffffffffffffffffff1663097bcc1a336040518263ffffffff1660e01b81526004016104a49190611160565b60206040518083038186803b1580156104bc57600080fd5b505afa1580156104d0573d6000803e3d6000fd5b505050506040513d601f19601f820116820180604052508101906104f49190610e69565b60038111156105065761050561139d565b5b14610546576040517f08c379a000000000000000000000000000000000000000000000000000000000815260040161053d9061119d565b60405180910390fd5b61054e610c62565b600360009054906101000a900473ffffffffffffffffffffffffffffffffffffffff1673ffffffffffffffffffffffffffffffffffffffff1663e3ed14db836040518263ffffffff1660e01b81526004016105a991906111d9565b60a06040518083038186803b1580156105c157600080fd5b505afa1580156105d5573d6000803e3d6000fd5b505050506040513d601f19601f820116820180604052508101906105f99190610e96565b816060018190525033816020019073ffffffffffffffffffffffffffffffffffffffff16908173ffffffffffffffffffffffffffffffffffffffff168152505060006001600081548092919061064e90611325565b919050559050816000808381526020019081526020016000206000820151816000015560208201518160010160006101000a81548173ffffffffffffffffffffffffffffffffffffffff021916908373ffffffffffffffffffffffffffffffffffffffff16021790555060408201518160020160006101000a81548173ffffffffffffffffffffffffffffffffffffffff021916908373ffffffffffffffffffffffffffffffffffffffff1602179055506060820151816003016000820151816000015560208201518160010160006101000a81548173ffffffffffffffffffffffffffffffffffffffff021916908373ffffffffffffffffffffffffffffffffffffffff1602179055506040820151816002016000820151816000015560208201518160010160006101000a81548173ffffffffffffffffffffffffffffffffffffffff021916908373ffffffffffffffffffffffffffffffffffffffff16021790555060408201518160020160006101000a81548173ffffffffffffffffffffffffffffffffffffffff021916908373ffffffffffffffffffffffffffffffffffffffff1602179055505050505060808201518160080155905050505050565b600080600083815260200190815260200160002060080154905080341461083657600080fd5b3360008084815260200190815260200160002060020160006101000a81548173ffffffffffffffffffffffffffffffffffffffff021916908373ffffffffffffffffffffffffffffffffffffffff1602179055505050565b610896610c62565b6000808381526020019081526020016000206040518060a0016040529081600082015481526020016001820160009054906101000a900473ffffffffffffffffffffffffffffffffffffffff1673ffffffffffffffffffffffffffffffffffffffff1673ffffffffffffffffffffffffffffffffffffffff1681526020016002820160009054906101000a900473ffffffffffffffffffffffffffffffffffffffff1673ffffffffffffffffffffffffffffffffffffffff1673ffffffffffffffffffffffffffffffffffffffff16815260200160038201604051806060016040529081600082015481526020016001820160009054906101000a900473ffffffffffffffffffffffffffffffffffffffff1673ffffffffffffffffffffffffffffffffffffffff1673ffffffffffffffffffffffffffffffffffffffff16815260200160028201604051806060016040529081600082015481526020016001820160009054906101000a900473ffffffffffffffffffffffffffffffffffffffff1673ffffffffffffffffffffffffffffffffffffffff1673ffffffffffffffffffffffffffffffffffffffff1681526020016002820160009054906101000a900473ffffffffffffffffffffffffffffffffffffffff1673ffffffffffffffffffffffffffffffffffffffff1673ffffffffffffffffffffffffffffffffffffffff16815250508152505081526020016008820154815250509050919050565b60006020528060005260406000206000915090508060000154908060010160009054906101000a900473ffffffffffffffffffffffffffffffffffffffff16908060020160009054906101000a900473ffffffffffffffffffffffffffffffffffffffff169080600301604051806060016040529081600082015481526020016001820160009054906101000a900473ffffffffffffffffffffffffffffffffffffffff1673ffffffffffffffffffffffffffffffffffffffff1673ffffffffffffffffffffffffffffffffffffffff16815260200160028201604051806060016040529081600082015481526020016001820160009054906101000a900473ffffffffffffffffffffffffffffffffffffffff1673ffffffffffffffffffffffffffffffffffffffff1673ffffffffffffffffffffffffffffffffffffffff1681526020016002820160009054906101000a900473ffffffffffffffffffffffffffffffffffffffff1673ffffffffffffffffffffffffffffffffffffffff1673ffffffffffffffffffffffffffffffffffffffff168152505081525050908060080154905085565b6040518060a0016040528060008152602001600073ffffffffffffffffffffffffffffffffffffffff168152602001600073ffffffffffffffffffffffffffffffffffffffff168152602001610cb6610cc3565b8152602001600081525090565b604051806060016040528060008152602001600073ffffffffffffffffffffffffffffffffffffffff168152602001610cfa610d00565b81525090565b604051806060016040528060008152602001600073ffffffffffffffffffffffffffffffffffffffff168152602001600073ffffffffffffffffffffffffffffffffffffffff1681525090565b600081519050610d5c8161146e565b92915050565b600081519050610d7181611485565b92915050565b600060a08284031215610d8d57610d8c61142a565b5b610d976060611249565b90506000610da784828501610e54565b6000830152506020610dbb84828501610d4d565b6020830152506040610dcf84828501610ddb565b60408301525092915050565b600060608284031215610df157610df061142a565b5b610dfb6060611249565b90506000610e0b84828501610e54565b6000830152506020610e1f84828501610d4d565b6020830152506040610e3384828501610d4d565b60408301525092915050565b600081359050610e4e81611495565b92915050565b600081519050610e6381611495565b92915050565b600060208284031215610e7f57610e7e61142f565b5b6000610e8d84828501610d62565b91505092915050565b600060a08284031215610eac57610eab61142f565b5b6000610eba84828501610d77565b91505092915050565b600060208284031215610ed957610ed861142f565b5b6000610ee784828501610e3f565b91505092915050565b6000610efc838361102c565b6101208301905092915050565b610f12816112b8565b82525050565b610f21816112b8565b82525050565b6000610f328261127e565b610f3c8185611296565b9350610f478361126e565b8060005b83811015610f78578151610f5f8882610ef0565b9750610f6a83611289565b925050600181019050610f4b565b5085935050505092915050565b6000610f92601e836112a7565b9150610f9d82611445565b602082019050919050565b60a082016000820151610fbe6000850182611142565b506020820151610fd16020850182610f09565b506040820151610fe46040850182611100565b50505050565b60a0820160008201516110006000850182611142565b5060208201516110136020850182610f09565b5060408201516110266040850182611100565b50505050565b610120820160008201516110436000850182611142565b5060208201516110566020850182610f09565b5060408201516110696040850182610f09565b50606082015161107c6060850182610fa8565b506080820151611090610100850182611142565b50505050565b610120820160008201516110ad6000850182611142565b5060208201516110c06020850182610f09565b5060408201516110d36040850182610f09565b5060608201516110e66060850182610fa8565b5060808201516110fa610100850182611142565b50505050565b6060820160008201516111166000850182611142565b5060208201516111296020850182610f09565b50604082015161113c6040850182610f09565b50505050565b61114b816112ea565b82525050565b61115a816112ea565b82525050565b60006020820190506111756000830184610f18565b92915050565b600060208201905081810360008301526111958184610f27565b905092915050565b600060208201905081810360008301526111b681610f85565b9050919050565b6000610120820190506111d36000830184611096565b92915050565b60006020820190506111ee6000830184611151565b92915050565b60006101208201905061120a6000830188611151565b6112176020830187610f18565b6112246040830186610f18565b6112316060830185610fea565b61123f610100830184611151565b9695505050505050565b6000611253611264565b905061125f82826112f4565b919050565b6000604051905090565b6000819050602082019050919050565b600081519050919050565b6000602082019050919050565b600082825260208201905092915050565b600082825260208201905092915050565b60006112c3826112ca565b9050919050565b600073ffffffffffffffffffffffffffffffffffffffff82169050919050565b6000819050919050565b6112fd82611434565b810181811067ffffffffffffffff8211171561131c5761131b6113fb565b5b80604052505050565b6000611330826112ea565b91507fffffffffffffffffffffffffffffffffffffffffffffffffffffffffffffffff8214156113635761136261136e565b5b600182019050919050565b7f4e487b7100000000000000000000000000000000000000000000000000000000600052601160045260246000fd5b7f4e487b7100000000000000000000000000000000000000000000000000000000600052602160045260246000fd5b7f4e487b7100000000000000000000000000000000000000000000000000000000600052603260045260246000fd5b7f4e487b7100000000000000000000000000000000000000000000000000000000600052604160045260246000fd5b600080fd5b600080fd5b6000601f19601f8301169050919050565b7f596f7520617265206e6f7420746865206d616e75666163747572657273210000600082015250565b611477816112b8565b811461148257600080fd5b50565b6004811061149257600080fd5b50565b61149e816112ea565b81146114a957600080fd5b5056fea2646970667358221220a5b784c22031db633455cc8548de59b115abc944646c227a628ee6f02ef8858864736f6c63430008070033",
  "immutableReferences": {},
  "source": "// SPDX-License-Identifier: MIT\npragma solidity ^0.8.7;\n\nimport \"./CompanyRegistry.sol\";\nimport \"./DiamondRegistry.sol\";\n\ncontract JewelryShop {\n    struct Jewelry {\n        uint256 jewelryId;\n        address manufacturer;\n        address owner;\n        DiamondRegistry.Diamond diamond;\n        uint256 price;\n    }\n\n    mapping(uint256 => Jewelry) public jewelryItems;\n    uint256 public jewelryCounts;\n\n    CompanyRegistry private companyRegistry;\n    DiamondRegistry private diamondRegistry;\n\n    constructor(address _companyRegistry, address _diamondRegistry) {\n        companyRegistry = CompanyRegistry(_companyRegistry);\n        diamondRegistry = DiamondRegistry(_diamondRegistry);\n    }\n\n    modifier onlyManufacturer() {\n        require(\n            companyRegistry.getCompanyType(msg.sender) == CompanyRegistry.CompanyType.Manufacturer,\n            \"You are not the manufacturers!\"\n        );\n        _;\n    }\n    function getAllJewels() public view returns (Jewelry[] memory) {\n        Jewelry[] memory allJewels = new Jewelry[](jewelryCounts);\n        for (uint i = 0; i < jewelryCounts; i++) {\n            allJewels[i] = jewelryItems[i];\n        }\n        return allJewels;\n    }\n\n    function diamondDesigning(uint256 uniqueId) public onlyManufacturer { // todo \n        Jewelry memory newJewelry;\n        newJewelry.diamond = diamondRegistry.getDiamond(uniqueId);\n        newJewelry.manufacturer = msg.sender;\n        uint256 jewelryId = jewelryCounts++;\n        jewelryItems[jewelryId] = newJewelry;\n    }\n\n    function jewelryPurchase(uint256 jewelryId) public payable {\n        uint256 price = jewelryItems[jewelryId].price;\n        require(msg.value == price);\n        jewelryItems[jewelryId].owner = msg.sender;\n    }\n\n    function jewelryVerify(uint256 jewelryId) public view returns (Jewelry memory) {\n        return jewelryItems[jewelryId];\n    }\n}",
  "sourcePath": "/Users/huanghongbin/VsCodeProjests/tracing-luxury/src/contracts/JewelryShop.sol",
  "compiler": {
    "name": "solc",
    "version": "0.8.7+commit.e28d00a7.Emscripten.clang"
  },
  "schemaVersion": "3.4.16",
  "updatedAt": "2023-11-13T18:20:45.214Z",
  "networkType": "ethereum",
  "devdoc": {
    "kind": "dev",
    "methods": {},
    "version": 1
  },
  "userdoc": {
    "kind": "user",
    "methods": {},
    "version": 1
  }
}