{
  "contractName": "RawDiamondRegistry",
  "abi": [
    {
      "inputs": [
        {
          "internalType": "address",
          "name": "_companyRegistry",
          "type": "address"
        }
      ],
      "stateMutability": "nonpayable",
      "type": "constructor"
    },
    {
      "inputs": [],
      "name": "rawDiamondCounts",
      "outputs": [
        {
          "internalType": "uint256",
          "name": "",
          "type": "uint256"
        }
      ],
      "stateMutability": "view",
      "type": "function",
      "constant": true
    },
    {
      "inputs": [
        {
          "internalType": "uint256",
          "name": "",
          "type": "uint256"
        }
      ],
      "name": "rawDiamondItems",
      "outputs": [
        {
          "internalType": "uint256",
          "name": "rawId",
          "type": "uint256"
        },
        {
          "internalType": "string",
          "name": "rawDiamondName",
          "type": "string"
        },
        {
          "internalType": "string",
          "name": "rawDiamondColor",
          "type": "string"
        },
        {
          "internalType": "string",
          "name": "cuttingGrade",
          "type": "string"
        },
        {
          "components": [
            {
              "internalType": "uint256",
              "name": "companyId",
              "type": "uint256"
            },
            {
              "internalType": "enum CompanyRegistry.CompanyType",
              "name": "companyType",
              "type": "uint8"
            },
            {
              "internalType": "address",
              "name": "addr",
              "type": "address"
            },
            {
              "internalType": "string",
              "name": "companyName",
              "type": "string"
            }
          ],
          "internalType": "struct CompanyRegistry.Company",
          "name": "miningCompany",
          "type": "tuple"
        },
        {
          "components": [
            {
              "internalType": "uint256",
              "name": "companyId",
              "type": "uint256"
            },
            {
              "internalType": "enum CompanyRegistry.CompanyType",
              "name": "companyType",
              "type": "uint8"
            },
            {
              "internalType": "address",
              "name": "addr",
              "type": "address"
            },
            {
              "internalType": "string",
              "name": "companyName",
              "type": "string"
            }
          ],
          "internalType": "struct CompanyRegistry.Company",
          "name": "cuttingCompany",
          "type": "tuple"
        }
      ],
      "stateMutability": "view",
      "type": "function",
      "constant": true
    },
    {
      "inputs": [],
      "name": "getAllRawDiamonds",
      "outputs": [
        {
          "components": [
            {
              "internalType": "uint256",
              "name": "rawId",
              "type": "uint256"
            },
            {
              "internalType": "string",
              "name": "rawDiamondName",
              "type": "string"
            },
            {
              "internalType": "string",
              "name": "rawDiamondColor",
              "type": "string"
            },
            {
              "internalType": "string",
              "name": "cuttingGrade",
              "type": "string"
            },
            {
              "components": [
                {
                  "internalType": "uint256",
                  "name": "companyId",
                  "type": "uint256"
                },
                {
                  "internalType": "enum CompanyRegistry.CompanyType",
                  "name": "companyType",
                  "type": "uint8"
                },
                {
                  "internalType": "address",
                  "name": "addr",
                  "type": "address"
                },
                {
                  "internalType": "string",
                  "name": "companyName",
                  "type": "string"
                }
              ],
              "internalType": "struct CompanyRegistry.Company",
              "name": "miningCompany",
              "type": "tuple"
            },
            {
              "components": [
                {
                  "internalType": "uint256",
                  "name": "companyId",
                  "type": "uint256"
                },
                {
                  "internalType": "enum CompanyRegistry.CompanyType",
                  "name": "companyType",
                  "type": "uint8"
                },
                {
                  "internalType": "address",
                  "name": "addr",
                  "type": "address"
                },
                {
                  "internalType": "string",
                  "name": "companyName",
                  "type": "string"
                }
              ],
              "internalType": "struct CompanyRegistry.Company",
              "name": "cuttingCompany",
              "type": "tuple"
            }
          ],
          "internalType": "struct RawDiamondRegistry.RawDiamond[]",
          "name": "",
          "type": "tuple[]"
        }
      ],
      "stateMutability": "view",
      "type": "function",
      "constant": true
    },
    {
      "inputs": [
        {
          "internalType": "uint256",
          "name": "rawId",
          "type": "uint256"
        }
      ],
      "name": "getRawDiamond",
      "outputs": [
        {
          "components": [
            {
              "internalType": "uint256",
              "name": "rawId",
              "type": "uint256"
            },
            {
              "internalType": "string",
              "name": "rawDiamondName",
              "type": "string"
            },
            {
              "internalType": "string",
              "name": "rawDiamondColor",
              "type": "string"
            },
            {
              "internalType": "string",
              "name": "cuttingGrade",
              "type": "string"
            },
            {
              "components": [
                {
                  "internalType": "uint256",
                  "name": "companyId",
                  "type": "uint256"
                },
                {
                  "internalType": "enum CompanyRegistry.CompanyType",
                  "name": "companyType",
                  "type": "uint8"
                },
                {
                  "internalType": "address",
                  "name": "addr",
                  "type": "address"
                },
                {
                  "internalType": "string",
                  "name": "companyName",
                  "type": "string"
                }
              ],
              "internalType": "struct CompanyRegistry.Company",
              "name": "miningCompany",
              "type": "tuple"
            },
            {
              "components": [
                {
                  "internalType": "uint256",
                  "name": "companyId",
                  "type": "uint256"
                },
                {
                  "internalType": "enum CompanyRegistry.CompanyType",
                  "name": "companyType",
                  "type": "uint8"
                },
                {
                  "internalType": "address",
                  "name": "addr",
                  "type": "address"
                },
                {
                  "internalType": "string",
                  "name": "companyName",
                  "type": "string"
                }
              ],
              "internalType": "struct CompanyRegistry.Company",
              "name": "cuttingCompany",
              "type": "tuple"
            }
          ],
          "internalType": "struct RawDiamondRegistry.RawDiamond",
          "name": "",
          "type": "tuple"
        }
      ],
      "stateMutability": "view",
      "type": "function",
      "constant": true
    },
    {
      "inputs": [
        {
          "internalType": "string",
          "name": "_rawDiamondName",
          "type": "string"
        },
        {
          "internalType": "string",
          "name": "_rawDiamondColor",
          "type": "string"
        }
      ],
      "name": "rawDiamondRegister",
      "outputs": [
        {
          "internalType": "uint256",
          "name": "",
          "type": "uint256"
        }
      ],
      "stateMutability": "nonpayable",
      "type": "function"
    },
    {
      "inputs": [
        {
          "internalType": "uint256",
          "name": "_rawId",
          "type": "uint256"
        },
        {
          "internalType": "string",
          "name": "_cuttingGrade",
          "type": "string"
        }
      ],
      "name": "rawDiamondCutting",
      "outputs": [
        {
          "internalType": "uint256",
          "name": "",
          "type": "uint256"
        }
      ],
      "stateMutability": "nonpayable",
      "type": "function"
    }
  ],
  "bytecode": "0x60806040523480156200001157600080fd5b506040516200252838038062002528833981810160405281019062000037919062000096565b80600260006101000a81548173ffffffffffffffffffffffffffffffffffffffff021916908373ffffffffffffffffffffffffffffffffffffffff160217905550506200011b565b600081519050620000908162000101565b92915050565b600060208284031215620000af57620000ae620000fc565b5b6000620000bf848285016200007f565b91505092915050565b6000620000d582620000dc565b9050919050565b600073ffffffffffffffffffffffffffffffffffffffff82169050919050565b600080fd5b6200010c81620000c8565b81146200011857600080fd5b50565b6123fd806200012b6000396000f3fe608060405234801561001057600080fd5b50600436106100625760003560e01c806320c9e11b146100675780632e78c4fb1461009c5780636c1256f6146100cc5780638d281fd2146100fc578063e669ab2d1461011a578063ef1b21c714610138575b600080fd5b610081600480360381019061007c9190611a9c565b610168565b60405161009396959493929190611f7f565b60405180910390f35b6100b660048036038101906100b19190611a9c565b6105aa565b6040516100c39190611f42565b60405180910390f35b6100e660048036038101906100e19190611ac9565b610a18565b6040516100f39190611f64565b60405180910390f35b610104610cc6565b6040516101119190611f64565b60405180910390f35b610122610ccc565b60405161012f9190611ee0565b60405180910390f35b610152600480360381019061014d91906119d2565b6111cd565b60405161015f9190611f64565b60405180910390f35b600060205280600052604060002060009150905080600001549080600101805461019190612153565b80601f01602080910402602001604051908101604052809291908181526020018280546101bd90612153565b801561020a5780601f106101df5761010080835404028352916020019161020a565b820191906000526020600020905b8154815290600101906020018083116101ed57829003601f168201915b50505050509080600201805461021f90612153565b80601f016020809104026020016040519081016040528092919081815260200182805461024b90612153565b80156102985780601f1061026d57610100808354040283529160200191610298565b820191906000526020600020905b81548152906001019060200180831161027b57829003601f168201915b5050505050908060030180546102ad90612153565b80601f01602080910402602001604051908101604052809291908181526020018280546102d990612153565b80156103265780601f106102fb57610100808354040283529160200191610326565b820191906000526020600020905b81548152906001019060200180831161030957829003601f168201915b50505050509080600401604051806080016040529081600082015481526020016001820160009054906101000a900460ff16600381111561036a5761036961222e565b5b600381111561037c5761037b61222e565b5b81526020016001820160019054906101000a900473ffffffffffffffffffffffffffffffffffffffff1673ffffffffffffffffffffffffffffffffffffffff1673ffffffffffffffffffffffffffffffffffffffff1681526020016002820180546103e690612153565b80601f016020809104026020016040519081016040528092919081815260200182805461041290612153565b801561045f5780601f106104345761010080835404028352916020019161045f565b820191906000526020600020905b81548152906001019060200180831161044257829003601f168201915b5050505050815250509080600701604051806080016040529081600082015481526020016001820160009054906101000a900460ff1660038111156104a7576104a661222e565b5b60038111156104b9576104b861222e565b5b81526020016001820160019054906101000a900473ffffffffffffffffffffffffffffffffffffffff1673ffffffffffffffffffffffffffffffffffffffff1673ffffffffffffffffffffffffffffffffffffffff16815260200160028201805461052390612153565b80601f016020809104026020016040519081016040528092919081815260200182805461054f90612153565b801561059c5780601f106105715761010080835404028352916020019161059c565b820191906000526020600020905b81548152906001019060200180831161057f57829003601f168201915b505050505081525050905086565b6105b261163c565b6000808381526020019081526020016000206040518060c0016040529081600082015481526020016001820180546105e990612153565b80601f016020809104026020016040519081016040528092919081815260200182805461061590612153565b80156106625780601f1061063757610100808354040283529160200191610662565b820191906000526020600020905b81548152906001019060200180831161064557829003601f168201915b5050505050815260200160028201805461067b90612153565b80601f01602080910402602001604051908101604052809291908181526020018280546106a790612153565b80156106f45780601f106106c9576101008083540402835291602001916106f4565b820191906000526020600020905b8154815290600101906020018083116106d757829003601f168201915b5050505050815260200160038201805461070d90612153565b80601f016020809104026020016040519081016040528092919081815260200182805461073990612153565b80156107865780601f1061075b57610100808354040283529160200191610786565b820191906000526020600020905b81548152906001019060200180831161076957829003601f168201915b5050505050815260200160048201604051806080016040529081600082015481526020016001820160009054906101000a900460ff1660038111156107ce576107cd61222e565b5b60038111156107e0576107df61222e565b5b81526020016001820160019054906101000a900473ffffffffffffffffffffffffffffffffffffffff1673ffffffffffffffffffffffffffffffffffffffff1673ffffffffffffffffffffffffffffffffffffffff16815260200160028201805461084a90612153565b80601f016020809104026020016040519081016040528092919081815260200182805461087690612153565b80156108c35780601f10610898576101008083540402835291602001916108c3565b820191906000526020600020905b8154815290600101906020018083116108a657829003601f168201915b505050505081525050815260200160078201604051806080016040529081600082015481526020016001820160009054906101000a900460ff16600381111561090f5761090e61222e565b5b60038111156109215761092061222e565b5b81526020016001820160019054906101000a900473ffffffffffffffffffffffffffffffffffffffff1673ffffffffffffffffffffffffffffffffffffffff1673ffffffffffffffffffffffffffffffffffffffff16815260200160028201805461098b90612153565b80601f01602080910402602001604051908101604052809291908181526020018280546109b790612153565b8015610a045780601f106109d957610100808354040283529160200191610a04565b820191906000526020600020905b8154815290600101906020018083116109e757829003601f168201915b505050505081525050815250509050919050565b600060016003811115610a2e57610a2d61222e565b5b600260009054906101000a900473ffffffffffffffffffffffffffffffffffffffff1673ffffffffffffffffffffffffffffffffffffffff1663097bcc1a336040518263ffffffff1660e01b8152600401610a899190611ec5565b60206040518083038186803b158015610aa157600080fd5b505afa158015610ab5573d6000803e3d6000fd5b505050506040513d601f19601f82011682018060405250810190610ad991906119a5565b6003811115610aeb57610aea61222e565b5b14610b2b576040517f08c379a0000000000000000000000000000000000000000000000000000000008152600401610b2290611f02565b60405180910390fd5b6000600260009054906101000a900473ffffffffffffffffffffffffffffffffffffffff1673ffffffffffffffffffffffffffffffffffffffff166362bc56e6336040518263ffffffff1660e01b8152600401610b889190611ec5565b60006040518083038186803b158015610ba057600080fd5b505afa158015610bb4573d6000803e3d6000fd5b505050506040513d6000823e3d601f19601f82011682018060405250810190610bdd9190611a53565b9050806000808781526020019081526020016000206007016000820151816000015560208201518160010160006101000a81548160ff02191690836003811115610c2a57610c2961222e565b5b021790555060408201518160010160016101000a81548173ffffffffffffffffffffffffffffffffffffffff021916908373ffffffffffffffffffffffffffffffffffffffff1602179055506060820151816002019080519060200190610c9292919061167e565b5090505083836000808881526020019081526020016000206003019190610cba929190611704565b50849150509392505050565b60015481565b6060600060015467ffffffffffffffff811115610cec57610ceb6122bb565b5b604051908082528060200260200182016040528015610d2557816020015b610d1261163c565b815260200190600190039081610d0a5790505b50905060005b6001548110156111c5576000808281526020019081526020016000206040518060c001604052908160008201548152602001600182018054610d6c90612153565b80601f0160208091040260200160405190810160405280929190818152602001828054610d9890612153565b8015610de55780601f10610dba57610100808354040283529160200191610de5565b820191906000526020600020905b815481529060010190602001808311610dc857829003601f168201915b50505050508152602001600282018054610dfe90612153565b80601f0160208091040260200160405190810160405280929190818152602001828054610e2a90612153565b8015610e775780601f10610e4c57610100808354040283529160200191610e77565b820191906000526020600020905b815481529060010190602001808311610e5a57829003601f168201915b50505050508152602001600382018054610e9090612153565b80601f0160208091040260200160405190810160405280929190818152602001828054610ebc90612153565b8015610f095780601f10610ede57610100808354040283529160200191610f09565b820191906000526020600020905b815481529060010190602001808311610eec57829003601f168201915b5050505050815260200160048201604051806080016040529081600082015481526020016001820160009054906101000a900460ff166003811115610f5157610f5061222e565b5b6003811115610f6357610f6261222e565b5b81526020016001820160019054906101000a900473ffffffffffffffffffffffffffffffffffffffff1673ffffffffffffffffffffffffffffffffffffffff1673ffffffffffffffffffffffffffffffffffffffff168152602001600282018054610fcd90612153565b80601f0160208091040260200160405190810160405280929190818152602001828054610ff990612153565b80156110465780601f1061101b57610100808354040283529160200191611046565b820191906000526020600020905b81548152906001019060200180831161102957829003601f168201915b505050505081525050815260200160078201604051806080016040529081600082015481526020016001820160009054906101000a900460ff1660038111156110925761109161222e565b5b60038111156110a4576110a361222e565b5b81526020016001820160019054906101000a900473ffffffffffffffffffffffffffffffffffffffff1673ffffffffffffffffffffffffffffffffffffffff1673ffffffffffffffffffffffffffffffffffffffff16815260200160028201805461110e90612153565b80601f016020809104026020016040519081016040528092919081815260200182805461113a90612153565b80156111875780601f1061115c57610100808354040283529160200191611187565b820191906000526020600020905b81548152906001019060200180831161116a57829003601f168201915b505050505081525050815250508282815181106111a7576111a661228c565b5b602002602001018190525080806111bd906121b6565b915050610d2b565b508091505090565b60008060038111156111e2576111e161222e565b5b600260009054906101000a900473ffffffffffffffffffffffffffffffffffffffff1673ffffffffffffffffffffffffffffffffffffffff1663097bcc1a336040518263ffffffff1660e01b815260040161123d9190611ec5565b60206040518083038186803b15801561125557600080fd5b505afa158015611269573d6000803e3d6000fd5b505050506040513d601f19601f8201168201806040525081019061128d91906119a5565b600381111561129f5761129e61222e565b5b146112df576040517f08c379a00000000000000000000000000000000000000000000000000000000081526004016112d690611f22565b60405180910390fd5b6112e761163c565b60015481600001818152505085858080601f016020809104026020016040519081016040528093929190818152602001838380828437600081840152601f19601f82011690508083019250505050505050816020018190525083838080601f016020809104026020016040519081016040528093929190818152602001838380828437600081840152601f19601f8201169050808301925050505050505081604001819052506000600260009054906101000a900473ffffffffffffffffffffffffffffffffffffffff1673ffffffffffffffffffffffffffffffffffffffff166362bc56e6336040518263ffffffff1660e01b81526004016113ea9190611ec5565b60006040518083038186803b15801561140257600080fd5b505afa158015611416573d6000803e3d6000fd5b505050506040513d6000823e3d601f19601f8201168201806040525081019061143f9190611a53565b905080826080018190525060006001600081548092919061145f906121b6565b9190505590508260008083815260200190815260200160002060008201518160000155602082015181600101908051906020019061149e92919061167e565b5060408201518160020190805190602001906114bb92919061167e565b5060608201518160030190805190602001906114d892919061167e565b506080820151816004016000820151816000015560208201518160010160006101000a81548160ff021916908360038111156115175761151661222e565b5b021790555060408201518160010160016101000a81548173ffffffffffffffffffffffffffffffffffffffff021916908373ffffffffffffffffffffffffffffffffffffffff160217905550606082015181600201908051906020019061157f92919061167e565b50505060a0820151816007016000820151816000015560208201518160010160006101000a81548160ff021916908360038111156115c0576115bf61222e565b5b021790555060408201518160010160016101000a81548173ffffffffffffffffffffffffffffffffffffffff021916908373ffffffffffffffffffffffffffffffffffffffff160217905550606082015181600201908051906020019061162892919061167e565b505050905050809350505050949350505050565b6040518060c001604052806000815260200160608152602001606081526020016060815260200161166b61178a565b815260200161167861178a565b81525090565b82805461168a90612153565b90600052602060002090601f0160209004810192826116ac57600085556116f3565b82601f106116c557805160ff19168380011785556116f3565b828001600101855582156116f3579182015b828111156116f25782518255916020019190600101906116d7565b5b50905061170091906117da565b5090565b82805461171090612153565b90600052602060002090601f0160209004810192826117325760008555611779565b82601f1061174b57803560ff1916838001178555611779565b82800160010185558215611779579182015b8281111561177857823582559160200191906001019061175d565b5b50905061178691906117da565b5090565b604051806080016040528060008152602001600060038111156117b0576117af61222e565b5b8152602001600073ffffffffffffffffffffffffffffffffffffffff168152602001606081525090565b5b808211156117f35760008160009055506001016117db565b5090565b600061180a61180584612028565b612003565b90508281526020810184848401111561182657611825612303565b5b611831848285612120565b509392505050565b60008151905061184881612389565b92915050565b60008151905061185d816123a0565b92915050565b60008083601f840112611879576118786122ef565b5b8235905067ffffffffffffffff811115611896576118956122ea565b5b6020830191508360018202830111156118b2576118b16122fe565b5b9250929050565b600082601f8301126118ce576118cd6122ef565b5b81516118de8482602086016117f7565b91505092915050565b6000608082840312156118fd576118fc6122f4565b5b6119076080612003565b9050600061191784828501611990565b600083015250602061192b8482850161184e565b602083015250604061193f84828501611839565b604083015250606082015167ffffffffffffffff811115611963576119626122f9565b5b61196f848285016118b9565b60608301525092915050565b60008135905061198a816123b0565b92915050565b60008151905061199f816123b0565b92915050565b6000602082840312156119bb576119ba61230d565b5b60006119c98482850161184e565b91505092915050565b600080600080604085870312156119ec576119eb61230d565b5b600085013567ffffffffffffffff811115611a0a57611a09612308565b5b611a1687828801611863565b9450945050602085013567ffffffffffffffff811115611a3957611a38612308565b5b611a4587828801611863565b925092505092959194509250565b600060208284031215611a6957611a6861230d565b5b600082015167ffffffffffffffff811115611a8757611a86612308565b5b611a93848285016118e7565b91505092915050565b600060208284031215611ab257611ab161230d565b5b6000611ac08482850161197b565b91505092915050565b600080600060408486031215611ae257611ae161230d565b5b6000611af08682870161197b565b935050602084013567ffffffffffffffff811115611b1157611b10612308565b5b611b1d86828701611863565b92509250509250925092565b6000611b358383611d5d565b905092915050565b611b46816120bf565b82525050565b611b55816120bf565b82525050565b6000611b6682612069565b611b70818561208c565b935083602082028501611b8285612059565b8060005b85811015611bbe5784840389528151611b9f8582611b29565b9450611baa8361207f565b925060208a01995050600181019050611b86565b50829750879550505050505092915050565b611bd98161210e565b82525050565b6000611bea82612074565b611bf4818561209d565b9350611c04818560208601612120565b611c0d81612312565b840191505092915050565b6000611c2382612074565b611c2d81856120ae565b9350611c3d818560208601612120565b611c4681612312565b840191505092915050565b6000611c5e6018836120ae565b9150611c6982612323565b602082019050919050565b6000611c816017836120ae565b9150611c8c8261234c565b602082019050919050565b6000608083016000830151611caf6000860182611ea7565b506020830151611cc26020860182611bd0565b506040830151611cd56040860182611b3d565b5060608301518482036060860152611ced8282611bdf565b9150508091505092915050565b6000608083016000830151611d126000860182611ea7565b506020830151611d256020860182611bd0565b506040830151611d386040860182611b3d565b5060608301518482036060860152611d508282611bdf565b9150508091505092915050565b600060c083016000830151611d756000860182611ea7565b5060208301518482036020860152611d8d8282611bdf565b91505060408301518482036040860152611da78282611bdf565b91505060608301518482036060860152611dc18282611bdf565b91505060808301518482036080860152611ddb8282611c97565b91505060a083015184820360a0860152611df58282611c97565b9150508091505092915050565b600060c083016000830151611e1a6000860182611ea7565b5060208301518482036020860152611e328282611bdf565b91505060408301518482036040860152611e4c8282611bdf565b91505060608301518482036060860152611e668282611bdf565b91505060808301518482036080860152611e808282611c97565b91505060a083015184820360a0860152611e9a8282611c97565b9150508091505092915050565b611eb081612104565b82525050565b611ebf81612104565b82525050565b6000602082019050611eda6000830184611b4c565b92915050565b60006020820190508181036000830152611efa8184611b5b565b905092915050565b60006020820190508181036000830152611f1b81611c51565b9050919050565b60006020820190508181036000830152611f3b81611c74565b9050919050565b60006020820190508181036000830152611f5c8184611e02565b905092915050565b6000602082019050611f796000830184611eb6565b92915050565b600060c082019050611f946000830189611eb6565b8181036020830152611fa68188611c18565b90508181036040830152611fba8187611c18565b90508181036060830152611fce8186611c18565b90508181036080830152611fe28185611cfa565b905081810360a0830152611ff68184611cfa565b9050979650505050505050565b600061200d61201e565b90506120198282612185565b919050565b6000604051905090565b600067ffffffffffffffff821115612043576120426122bb565b5b61204c82612312565b9050602081019050919050565b6000819050602082019050919050565b600081519050919050565b600081519050919050565b6000602082019050919050565b600082825260208201905092915050565b600082825260208201905092915050565b600082825260208201905092915050565b60006120ca826120e4565b9050919050565b60008190506120df82612375565b919050565b600073ffffffffffffffffffffffffffffffffffffffff82169050919050565b6000819050919050565b6000612119826120d1565b9050919050565b60005b8381101561213e578082015181840152602081019050612123565b8381111561214d576000848401525b50505050565b6000600282049050600182168061216b57607f821691505b6020821081141561217f5761217e61225d565b5b50919050565b61218e82612312565b810181811067ffffffffffffffff821117156121ad576121ac6122bb565b5b80604052505050565b60006121c182612104565b91507fffffffffffffffffffffffffffffffffffffffffffffffffffffffffffffffff8214156121f4576121f36121ff565b5b600182019050919050565b7f4e487b7100000000000000000000000000000000000000000000000000000000600052601160045260246000fd5b7f4e487b7100000000000000000000000000000000000000000000000000000000600052602160045260246000fd5b7f4e487b7100000000000000000000000000000000000000000000000000000000600052602260045260246000fd5b7f4e487b7100000000000000000000000000000000000000000000000000000000600052603260045260246000fd5b7f4e487b7100000000000000000000000000000000000000000000000000000000600052604160045260246000fd5b600080fd5b600080fd5b600080fd5b600080fd5b600080fd5b600080fd5b600080fd5b600080fd5b6000601f19601f8301169050919050565b7f596f7520617265206e6f74207468652043757474657273210000000000000000600082015250565b7f596f7520617265206e6f7420746865206d696e65727321000000000000000000600082015250565b600481106123865761238561222e565b5b50565b612392816120bf565b811461239d57600080fd5b50565b600481106123ad57600080fd5b50565b6123b981612104565b81146123c457600080fd5b5056fea2646970667358221220366546cf8af2a1f12a0f49c7521417bd81c2e38c9cbd5d5385e801d25d3458f164736f6c63430008070033",
  "immutableReferences": {},
  "source": "// SPDX-License-Identifier: MIT\npragma solidity ^0.8.7;\n\nimport \"./CompanyRegistry.sol\";\n\ncontract RawDiamondRegistry {\n    struct RawDiamond {\n        uint256 rawId;\n        string rawDiamondName;\n        string rawDiamondColor;\n        string cuttingGrade;\n        CompanyRegistry.Company miningCompany;\n        CompanyRegistry.Company cuttingCompany;\n    }\n\n    mapping(uint256 => RawDiamond) public rawDiamondItems;\n    uint256 public rawDiamondCounts;\n\n    CompanyRegistry private companyRegistry;\n\n    constructor(address _companyRegistry) {\n        companyRegistry = CompanyRegistry(_companyRegistry);\n    }\n\n    function getAllRawDiamonds() public view returns (RawDiamond[] memory) {\n        RawDiamond[] memory allRawDiamonds = new RawDiamond[](rawDiamondCounts);\n        for (uint i = 0; i < rawDiamondCounts; i++) {\n            allRawDiamonds[i] = rawDiamondItems[i];\n        }\n        return allRawDiamonds;\n    }\n\n    function getRawDiamond(\n        uint256 rawId\n    ) public view returns (RawDiamond memory) {\n        return rawDiamondItems[rawId];\n    }\n\n    function rawDiamondRegister(string calldata _rawDiamondName,string calldata _rawDiamondColor) public onlyMiningCompany returns (uint256) {\n        RawDiamond memory newRawDiamond;\n        newRawDiamond.rawId = rawDiamondCounts;\n        newRawDiamond.rawDiamondName = _rawDiamondName;\n        newRawDiamond.rawDiamondColor = _rawDiamondColor;\n        CompanyRegistry.Company memory miningCompany = companyRegistry.getCompany(msg.sender);\n        newRawDiamond.miningCompany = miningCompany;\n        uint256 rawId = rawDiamondCounts++;\n        rawDiamondItems[rawId] = newRawDiamond;\n        return rawId;\n    }\n\n    function rawDiamondCutting(\n        uint256 _rawId,string calldata  _cuttingGrade\n    ) public onlyCuttingCompany returns (uint256) {\n        CompanyRegistry.Company memory cuttingCompany = companyRegistry.getCompany(msg.sender);\n        rawDiamondItems[_rawId].cuttingCompany = cuttingCompany;\n        rawDiamondItems[_rawId].cuttingGrade = _cuttingGrade;\n        return _rawId;\n    }\n\n    modifier onlyMiningCompany() {\n        require(\n            companyRegistry.getCompanyType(msg.sender) ==\n                CompanyRegistry.CompanyType.Mining,\n            \"You are not the miners!\"\n        );\n        _;\n    }\n\n    modifier onlyCuttingCompany() {\n        require(\n            companyRegistry.getCompanyType(msg.sender) ==\n                CompanyRegistry.CompanyType.Cutting,\n            \"You are not the Cutters!\"\n        );\n        _;\n    }\n}\n",
  "sourcePath": "/Users/huanghongbin/VsCodeProjests/tracing-luxury/src/contracts/RawDiamondRegistry.sol",
  "compiler": {
    "name": "solc",
    "version": "0.8.7+commit.e28d00a7.Emscripten.clang"
  },
  "schemaVersion": "3.4.16",
  "updatedAt": "2023-11-23T05:45:41.350Z",
  "networkType": "ethereum",
  "devdoc": {
    "kind": "dev",
    "methods": {},
    "version": 1
  },
  "userdoc": {
    "kind": "user",
    "methods": {},
    "version": 1
  }
}