{
  "contractName": "RawDiamondRegistry",
  "abi": [
    {
      "inputs": [
        {
          "internalType": "address",
          "name": "_companyRegistry",
          "type": "address"
        }
      ],
      "stateMutability": "nonpayable",
      "type": "constructor"
    },
    {
      "inputs": [],
      "name": "rawDiamondCounts",
      "outputs": [
        {
          "internalType": "uint256",
          "name": "",
          "type": "uint256"
        }
      ],
      "stateMutability": "view",
      "type": "function",
      "constant": true
    },
    {
      "inputs": [
        {
          "internalType": "uint256",
          "name": "",
          "type": "uint256"
        }
      ],
      "name": "rawDiamondItems",
      "outputs": [
        {
          "internalType": "uint256",
          "name": "rawId",
          "type": "uint256"
        },
        {
          "internalType": "string",
          "name": "rawDiamondName",
          "type": "string"
        },
        {
          "internalType": "string",
          "name": "rawDiamondColor",
          "type": "string"
        },
        {
          "internalType": "string",
          "name": "cuttingGrade",
          "type": "string"
        },
        {
          "components": [
            {
              "internalType": "uint256",
              "name": "companyId",
              "type": "uint256"
            },
            {
              "internalType": "enum CompanyRegistry.CompanyType",
              "name": "companyType",
              "type": "uint8"
            },
            {
              "internalType": "address",
              "name": "addr",
              "type": "address"
            },
            {
              "internalType": "string",
              "name": "companyName",
              "type": "string"
            }
          ],
          "internalType": "struct CompanyRegistry.Company",
          "name": "miningCompany",
          "type": "tuple"
        },
        {
          "components": [
            {
              "internalType": "uint256",
              "name": "companyId",
              "type": "uint256"
            },
            {
              "internalType": "enum CompanyRegistry.CompanyType",
              "name": "companyType",
              "type": "uint8"
            },
            {
              "internalType": "address",
              "name": "addr",
              "type": "address"
            },
            {
              "internalType": "string",
              "name": "companyName",
              "type": "string"
            }
          ],
          "internalType": "struct CompanyRegistry.Company",
          "name": "cuttingCompany",
          "type": "tuple"
        },
        {
          "internalType": "uint256",
          "name": "minedTime",
          "type": "uint256"
        },
        {
          "internalType": "uint256",
          "name": "cuttingTime",
          "type": "uint256"
        }
      ],
      "stateMutability": "view",
      "type": "function",
      "constant": true
    },
    {
      "inputs": [],
      "name": "getAllRawDiamonds",
      "outputs": [
        {
          "components": [
            {
              "internalType": "uint256",
              "name": "rawId",
              "type": "uint256"
            },
            {
              "internalType": "string",
              "name": "rawDiamondName",
              "type": "string"
            },
            {
              "internalType": "string",
              "name": "rawDiamondColor",
              "type": "string"
            },
            {
              "internalType": "string",
              "name": "cuttingGrade",
              "type": "string"
            },
            {
              "components": [
                {
                  "internalType": "uint256",
                  "name": "companyId",
                  "type": "uint256"
                },
                {
                  "internalType": "enum CompanyRegistry.CompanyType",
                  "name": "companyType",
                  "type": "uint8"
                },
                {
                  "internalType": "address",
                  "name": "addr",
                  "type": "address"
                },
                {
                  "internalType": "string",
                  "name": "companyName",
                  "type": "string"
                }
              ],
              "internalType": "struct CompanyRegistry.Company",
              "name": "miningCompany",
              "type": "tuple"
            },
            {
              "components": [
                {
                  "internalType": "uint256",
                  "name": "companyId",
                  "type": "uint256"
                },
                {
                  "internalType": "enum CompanyRegistry.CompanyType",
                  "name": "companyType",
                  "type": "uint8"
                },
                {
                  "internalType": "address",
                  "name": "addr",
                  "type": "address"
                },
                {
                  "internalType": "string",
                  "name": "companyName",
                  "type": "string"
                }
              ],
              "internalType": "struct CompanyRegistry.Company",
              "name": "cuttingCompany",
              "type": "tuple"
            },
            {
              "internalType": "uint256",
              "name": "minedTime",
              "type": "uint256"
            },
            {
              "internalType": "uint256",
              "name": "cuttingTime",
              "type": "uint256"
            }
          ],
          "internalType": "struct RawDiamondRegistry.RawDiamond[]",
          "name": "",
          "type": "tuple[]"
        }
      ],
      "stateMutability": "view",
      "type": "function",
      "constant": true
    },
    {
      "inputs": [
        {
          "internalType": "uint256",
          "name": "rawId",
          "type": "uint256"
        }
      ],
      "name": "getRawDiamond",
      "outputs": [
        {
          "components": [
            {
              "internalType": "uint256",
              "name": "rawId",
              "type": "uint256"
            },
            {
              "internalType": "string",
              "name": "rawDiamondName",
              "type": "string"
            },
            {
              "internalType": "string",
              "name": "rawDiamondColor",
              "type": "string"
            },
            {
              "internalType": "string",
              "name": "cuttingGrade",
              "type": "string"
            },
            {
              "components": [
                {
                  "internalType": "uint256",
                  "name": "companyId",
                  "type": "uint256"
                },
                {
                  "internalType": "enum CompanyRegistry.CompanyType",
                  "name": "companyType",
                  "type": "uint8"
                },
                {
                  "internalType": "address",
                  "name": "addr",
                  "type": "address"
                },
                {
                  "internalType": "string",
                  "name": "companyName",
                  "type": "string"
                }
              ],
              "internalType": "struct CompanyRegistry.Company",
              "name": "miningCompany",
              "type": "tuple"
            },
            {
              "components": [
                {
                  "internalType": "uint256",
                  "name": "companyId",
                  "type": "uint256"
                },
                {
                  "internalType": "enum CompanyRegistry.CompanyType",
                  "name": "companyType",
                  "type": "uint8"
                },
                {
                  "internalType": "address",
                  "name": "addr",
                  "type": "address"
                },
                {
                  "internalType": "string",
                  "name": "companyName",
                  "type": "string"
                }
              ],
              "internalType": "struct CompanyRegistry.Company",
              "name": "cuttingCompany",
              "type": "tuple"
            },
            {
              "internalType": "uint256",
              "name": "minedTime",
              "type": "uint256"
            },
            {
              "internalType": "uint256",
              "name": "cuttingTime",
              "type": "uint256"
            }
          ],
          "internalType": "struct RawDiamondRegistry.RawDiamond",
          "name": "",
          "type": "tuple"
        }
      ],
      "stateMutability": "view",
      "type": "function",
      "constant": true
    },
    {
      "inputs": [
        {
          "internalType": "string",
          "name": "_rawDiamondName",
          "type": "string"
        },
        {
          "internalType": "string",
          "name": "_rawDiamondColor",
          "type": "string"
        }
      ],
      "name": "rawDiamondRegister",
      "outputs": [
        {
          "internalType": "uint256",
          "name": "",
          "type": "uint256"
        }
      ],
      "stateMutability": "nonpayable",
      "type": "function"
    },
    {
      "inputs": [
        {
          "internalType": "uint256",
          "name": "_rawId",
          "type": "uint256"
        },
        {
          "internalType": "string",
          "name": "_cuttingGrade",
          "type": "string"
        }
      ],
      "name": "rawDiamondCutting",
      "outputs": [
        {
          "internalType": "uint256",
          "name": "",
          "type": "uint256"
        }
      ],
      "stateMutability": "nonpayable",
      "type": "function"
    }
  ],
  "bytecode": "0x60806040523480156200001157600080fd5b506040516200261238038062002612833981810160405281019062000037919062000096565b80600260006101000a81548173ffffffffffffffffffffffffffffffffffffffff021916908373ffffffffffffffffffffffffffffffffffffffff160217905550506200011b565b600081519050620000908162000101565b92915050565b600060208284031215620000af57620000ae620000fc565b5b6000620000bf848285016200007f565b91505092915050565b6000620000d582620000dc565b9050919050565b600073ffffffffffffffffffffffffffffffffffffffff82169050919050565b600080fd5b6200010c81620000c8565b81146200011857600080fd5b50565b6124e7806200012b6000396000f3fe608060405234801561001057600080fd5b50600436106100625760003560e01c806320c9e11b146100675780632e78c4fb1461009e5780636c1256f6146100ce5780638d281fd2146100fe578063e669ab2d1461011c578063ef1b21c71461013a575b600080fd5b610081600480360381019061007c9190611b1b565b61016a565b60405161009598979695949392919061204c565b60405180910390f35b6100b860048036038101906100b39190611b1b565b6105b8565b6040516100c5919061200f565b60405180910390f35b6100e860048036038101906100e39190611b48565b610a3b565b6040516100f59190612031565b60405180910390f35b610106610d03565b6040516101139190612031565b60405180910390f35b610124610d09565b6040516101319190611fad565b60405180910390f35b610154600480360381019061014f9190611a51565b61121f565b6040516101619190612031565b60405180910390f35b60006020528060005260406000206000915090508060000154908060010180546101939061223d565b80601f01602080910402602001604051908101604052809291908181526020018280546101bf9061223d565b801561020c5780601f106101e15761010080835404028352916020019161020c565b820191906000526020600020905b8154815290600101906020018083116101ef57829003601f168201915b5050505050908060020180546102219061223d565b80601f016020809104026020016040519081016040528092919081815260200182805461024d9061223d565b801561029a5780601f1061026f5761010080835404028352916020019161029a565b820191906000526020600020905b81548152906001019060200180831161027d57829003601f168201915b5050505050908060030180546102af9061223d565b80601f01602080910402602001604051908101604052809291908181526020018280546102db9061223d565b80156103285780601f106102fd57610100808354040283529160200191610328565b820191906000526020600020905b81548152906001019060200180831161030b57829003601f168201915b50505050509080600401604051806080016040529081600082015481526020016001820160009054906101000a900460ff16600381111561036c5761036b612318565b5b600381111561037e5761037d612318565b5b81526020016001820160019054906101000a900473ffffffffffffffffffffffffffffffffffffffff1673ffffffffffffffffffffffffffffffffffffffff1673ffffffffffffffffffffffffffffffffffffffff1681526020016002820180546103e89061223d565b80601f01602080910402602001604051908101604052809291908181526020018280546104149061223d565b80156104615780601f1061043657610100808354040283529160200191610461565b820191906000526020600020905b81548152906001019060200180831161044457829003601f168201915b5050505050815250509080600701604051806080016040529081600082015481526020016001820160009054906101000a900460ff1660038111156104a9576104a8612318565b5b60038111156104bb576104ba612318565b5b81526020016001820160019054906101000a900473ffffffffffffffffffffffffffffffffffffffff1673ffffffffffffffffffffffffffffffffffffffff1673ffffffffffffffffffffffffffffffffffffffff1681526020016002820180546105259061223d565b80601f01602080910402602001604051908101604052809291908181526020018280546105519061223d565b801561059e5780601f106105735761010080835404028352916020019161059e565b820191906000526020600020905b81548152906001019060200180831161058157829003601f168201915b5050505050815250509080600a01549080600b0154905088565b6105c06116ac565b60008083815260200190815260200160002060405180610100016040529081600082015481526020016001820180546105f89061223d565b80601f01602080910402602001604051908101604052809291908181526020018280546106249061223d565b80156106715780601f1061064657610100808354040283529160200191610671565b820191906000526020600020905b81548152906001019060200180831161065457829003601f168201915b5050505050815260200160028201805461068a9061223d565b80601f01602080910402602001604051908101604052809291908181526020018280546106b69061223d565b80156107035780601f106106d857610100808354040283529160200191610703565b820191906000526020600020905b8154815290600101906020018083116106e657829003601f168201915b5050505050815260200160038201805461071c9061223d565b80601f01602080910402602001604051908101604052809291908181526020018280546107489061223d565b80156107955780601f1061076a57610100808354040283529160200191610795565b820191906000526020600020905b81548152906001019060200180831161077857829003601f168201915b5050505050815260200160048201604051806080016040529081600082015481526020016001820160009054906101000a900460ff1660038111156107dd576107dc612318565b5b60038111156107ef576107ee612318565b5b81526020016001820160019054906101000a900473ffffffffffffffffffffffffffffffffffffffff1673ffffffffffffffffffffffffffffffffffffffff1673ffffffffffffffffffffffffffffffffffffffff1681526020016002820180546108599061223d565b80601f01602080910402602001604051908101604052809291908181526020018280546108859061223d565b80156108d25780601f106108a7576101008083540402835291602001916108d2565b820191906000526020600020905b8154815290600101906020018083116108b557829003601f168201915b505050505081525050815260200160078201604051806080016040529081600082015481526020016001820160009054906101000a900460ff16600381111561091e5761091d612318565b5b60038111156109305761092f612318565b5b81526020016001820160019054906101000a900473ffffffffffffffffffffffffffffffffffffffff1673ffffffffffffffffffffffffffffffffffffffff1673ffffffffffffffffffffffffffffffffffffffff16815260200160028201805461099a9061223d565b80601f01602080910402602001604051908101604052809291908181526020018280546109c69061223d565b8015610a135780601f106109e857610100808354040283529160200191610a13565b820191906000526020600020905b8154815290600101906020018083116109f657829003601f168201915b5050505050815250508152602001600a8201548152602001600b820154815250509050919050565b600060016003811115610a5157610a50612318565b5b600260009054906101000a900473ffffffffffffffffffffffffffffffffffffffff1673ffffffffffffffffffffffffffffffffffffffff1663097bcc1a336040518263ffffffff1660e01b8152600401610aac9190611f92565b60206040518083038186803b158015610ac457600080fd5b505afa158015610ad8573d6000803e3d6000fd5b505050506040513d601f19601f82011682018060405250810190610afc9190611a24565b6003811115610b0e57610b0d612318565b5b14610b4e576040517f08c379a0000000000000000000000000000000000000000000000000000000008152600401610b4590611fcf565b60405180910390fd5b6000600260009054906101000a900473ffffffffffffffffffffffffffffffffffffffff1673ffffffffffffffffffffffffffffffffffffffff166362bc56e6336040518263ffffffff1660e01b8152600401610bab9190611f92565b60006040518083038186803b158015610bc357600080fd5b505afa158015610bd7573d6000803e3d6000fd5b505050506040513d6000823e3d601f19601f82011682018060405250810190610c009190611ad2565b9050806000808781526020019081526020016000206007016000820151816000015560208201518160010160006101000a81548160ff02191690836003811115610c4d57610c4c612318565b5b021790555060408201518160010160016101000a81548173ffffffffffffffffffffffffffffffffffffffff021916908373ffffffffffffffffffffffffffffffffffffffff1602179055506060820151816002019080519060200190610cb59291906116fd565b5090505083836000808881526020019081526020016000206003019190610cdd929190611783565b5042600080878152602001908152602001600020600b0181905550849150509392505050565b60015481565b6060600060015467ffffffffffffffff811115610d2957610d286123a5565b5b604051908082528060200260200182016040528015610d6257816020015b610d4f6116ac565b815260200190600190039081610d475790505b50905060005b600154811015611217576000808281526020019081526020016000206040518061010001604052908160008201548152602001600182018054610daa9061223d565b80601f0160208091040260200160405190810160405280929190818152602001828054610dd69061223d565b8015610e235780601f10610df857610100808354040283529160200191610e23565b820191906000526020600020905b815481529060010190602001808311610e0657829003601f168201915b50505050508152602001600282018054610e3c9061223d565b80601f0160208091040260200160405190810160405280929190818152602001828054610e689061223d565b8015610eb55780601f10610e8a57610100808354040283529160200191610eb5565b820191906000526020600020905b815481529060010190602001808311610e9857829003601f168201915b50505050508152602001600382018054610ece9061223d565b80601f0160208091040260200160405190810160405280929190818152602001828054610efa9061223d565b8015610f475780601f10610f1c57610100808354040283529160200191610f47565b820191906000526020600020905b815481529060010190602001808311610f2a57829003601f168201915b5050505050815260200160048201604051806080016040529081600082015481526020016001820160009054906101000a900460ff166003811115610f8f57610f8e612318565b5b6003811115610fa157610fa0612318565b5b81526020016001820160019054906101000a900473ffffffffffffffffffffffffffffffffffffffff1673ffffffffffffffffffffffffffffffffffffffff1673ffffffffffffffffffffffffffffffffffffffff16815260200160028201805461100b9061223d565b80601f01602080910402602001604051908101604052809291908181526020018280546110379061223d565b80156110845780601f1061105957610100808354040283529160200191611084565b820191906000526020600020905b81548152906001019060200180831161106757829003601f168201915b505050505081525050815260200160078201604051806080016040529081600082015481526020016001820160009054906101000a900460ff1660038111156110d0576110cf612318565b5b60038111156110e2576110e1612318565b5b81526020016001820160019054906101000a900473ffffffffffffffffffffffffffffffffffffffff1673ffffffffffffffffffffffffffffffffffffffff1673ffffffffffffffffffffffffffffffffffffffff16815260200160028201805461114c9061223d565b80601f01602080910402602001604051908101604052809291908181526020018280546111789061223d565b80156111c55780601f1061119a576101008083540402835291602001916111c5565b820191906000526020600020905b8154815290600101906020018083116111a857829003601f168201915b5050505050815250508152602001600a8201548152602001600b820154815250508282815181106111f9576111f8612376565b5b6020026020010181905250808061120f906122a0565b915050610d68565b508091505090565b600080600381111561123457611233612318565b5b600260009054906101000a900473ffffffffffffffffffffffffffffffffffffffff1673ffffffffffffffffffffffffffffffffffffffff1663097bcc1a336040518263ffffffff1660e01b815260040161128f9190611f92565b60206040518083038186803b1580156112a757600080fd5b505afa1580156112bb573d6000803e3d6000fd5b505050506040513d601f19601f820116820180604052508101906112df9190611a24565b60038111156112f1576112f0612318565b5b14611331576040517f08c379a000000000000000000000000000000000000000000000000000000000815260040161132890611fef565b60405180910390fd5b6113396116ac565b60015481600001818152505085858080601f016020809104026020016040519081016040528093929190818152602001838380828437600081840152601f19601f82011690508083019250505050505050816020018190525083838080601f016020809104026020016040519081016040528093929190818152602001838380828437600081840152601f19601f8201169050808301925050505050505081604001819052506000600260009054906101000a900473ffffffffffffffffffffffffffffffffffffffff1673ffffffffffffffffffffffffffffffffffffffff166362bc56e6336040518263ffffffff1660e01b815260040161143c9190611f92565b60006040518083038186803b15801561145457600080fd5b505afa158015611468573d6000803e3d6000fd5b505050506040513d6000823e3d601f19601f820116820180604052508101906114919190611ad2565b90508082608001819052506000600160008154809291906114b1906122a0565b919050559050428360c0018181525050826000808381526020019081526020016000206000820151816000015560208201518160010190805190602001906114fa9291906116fd565b5060408201518160020190805190602001906115179291906116fd565b5060608201518160030190805190602001906115349291906116fd565b506080820151816004016000820151816000015560208201518160010160006101000a81548160ff0219169083600381111561157357611572612318565b5b021790555060408201518160010160016101000a81548173ffffffffffffffffffffffffffffffffffffffff021916908373ffffffffffffffffffffffffffffffffffffffff16021790555060608201518160020190805190602001906115db9291906116fd565b50505060a0820151816007016000820151816000015560208201518160010160006101000a81548160ff0219169083600381111561161c5761161b612318565b5b021790555060408201518160010160016101000a81548173ffffffffffffffffffffffffffffffffffffffff021916908373ffffffffffffffffffffffffffffffffffffffff16021790555060608201518160020190805190602001906116849291906116fd565b50505060c082015181600a015560e082015181600b0155905050809350505050949350505050565b604051806101000160405280600081526020016060815260200160608152602001606081526020016116dc611809565b81526020016116e9611809565b815260200160008152602001600081525090565b8280546117099061223d565b90600052602060002090601f01602090048101928261172b5760008555611772565b82601f1061174457805160ff1916838001178555611772565b82800160010185558215611772579182015b82811115611771578251825591602001919060010190611756565b5b50905061177f9190611859565b5090565b82805461178f9061223d565b90600052602060002090601f0160209004810192826117b157600085556117f8565b82601f106117ca57803560ff19168380011785556117f8565b828001600101855582156117f8579182015b828111156117f75782358255916020019190600101906117dc565b5b5090506118059190611859565b5090565b6040518060800160405280600081526020016000600381111561182f5761182e612318565b5b8152602001600073ffffffffffffffffffffffffffffffffffffffff168152602001606081525090565b5b8082111561187257600081600090555060010161185a565b5090565b600061188961188484612112565b6120ed565b9050828152602081018484840111156118a5576118a46123ed565b5b6118b084828561220a565b509392505050565b6000815190506118c781612473565b92915050565b6000815190506118dc8161248a565b92915050565b60008083601f8401126118f8576118f76123d9565b5b8235905067ffffffffffffffff811115611915576119146123d4565b5b602083019150836001820283011115611931576119306123e8565b5b9250929050565b600082601f83011261194d5761194c6123d9565b5b815161195d848260208601611876565b91505092915050565b60006080828403121561197c5761197b6123de565b5b61198660806120ed565b9050600061199684828501611a0f565b60008301525060206119aa848285016118cd565b60208301525060406119be848285016118b8565b604083015250606082015167ffffffffffffffff8111156119e2576119e16123e3565b5b6119ee84828501611938565b60608301525092915050565b600081359050611a098161249a565b92915050565b600081519050611a1e8161249a565b92915050565b600060208284031215611a3a57611a396123f7565b5b6000611a48848285016118cd565b91505092915050565b60008060008060408587031215611a6b57611a6a6123f7565b5b600085013567ffffffffffffffff811115611a8957611a886123f2565b5b611a95878288016118e2565b9450945050602085013567ffffffffffffffff811115611ab857611ab76123f2565b5b611ac4878288016118e2565b925092505092959194509250565b600060208284031215611ae857611ae76123f7565b5b600082015167ffffffffffffffff811115611b0657611b056123f2565b5b611b1284828501611966565b91505092915050565b600060208284031215611b3157611b306123f7565b5b6000611b3f848285016119fa565b91505092915050565b600080600060408486031215611b6157611b606123f7565b5b6000611b6f868287016119fa565b935050602084013567ffffffffffffffff811115611b9057611b8f6123f2565b5b611b9c868287016118e2565b92509250509250925092565b6000611bb48383611ddc565b905092915050565b611bc5816121a9565b82525050565b611bd4816121a9565b82525050565b6000611be582612153565b611bef8185612176565b935083602082028501611c0185612143565b8060005b85811015611c3d5784840389528151611c1e8582611ba8565b9450611c2983612169565b925060208a01995050600181019050611c05565b50829750879550505050505092915050565b611c58816121f8565b82525050565b6000611c698261215e565b611c738185612187565b9350611c8381856020860161220a565b611c8c816123fc565b840191505092915050565b6000611ca28261215e565b611cac8185612198565b9350611cbc81856020860161220a565b611cc5816123fc565b840191505092915050565b6000611cdd601883612198565b9150611ce88261240d565b602082019050919050565b6000611d00601783612198565b9150611d0b82612436565b602082019050919050565b6000608083016000830151611d2e6000860182611f74565b506020830151611d416020860182611c4f565b506040830151611d546040860182611bbc565b5060608301518482036060860152611d6c8282611c5e565b9150508091505092915050565b6000608083016000830151611d916000860182611f74565b506020830151611da46020860182611c4f565b506040830151611db76040860182611bbc565b5060608301518482036060860152611dcf8282611c5e565b9150508091505092915050565b600061010083016000830151611df56000860182611f74565b5060208301518482036020860152611e0d8282611c5e565b91505060408301518482036040860152611e278282611c5e565b91505060608301518482036060860152611e418282611c5e565b91505060808301518482036080860152611e5b8282611d16565b91505060a083015184820360a0860152611e758282611d16565b91505060c0830151611e8a60c0860182611f74565b5060e0830151611e9d60e0860182611f74565b508091505092915050565b600061010083016000830151611ec16000860182611f74565b5060208301518482036020860152611ed98282611c5e565b91505060408301518482036040860152611ef38282611c5e565b91505060608301518482036060860152611f0d8282611c5e565b91505060808301518482036080860152611f278282611d16565b91505060a083015184820360a0860152611f418282611d16565b91505060c0830151611f5660c0860182611f74565b5060e0830151611f6960e0860182611f74565b508091505092915050565b611f7d816121ee565b82525050565b611f8c816121ee565b82525050565b6000602082019050611fa76000830184611bcb565b92915050565b60006020820190508181036000830152611fc78184611bda565b905092915050565b60006020820190508181036000830152611fe881611cd0565b9050919050565b6000602082019050818103600083015261200881611cf3565b9050919050565b600060208201905081810360008301526120298184611ea8565b905092915050565b60006020820190506120466000830184611f83565b92915050565b600061010082019050612062600083018b611f83565b8181036020830152612074818a611c97565b905081810360408301526120888189611c97565b9050818103606083015261209c8188611c97565b905081810360808301526120b08187611d79565b905081810360a08301526120c48186611d79565b90506120d360c0830185611f83565b6120e060e0830184611f83565b9998505050505050505050565b60006120f7612108565b9050612103828261226f565b919050565b6000604051905090565b600067ffffffffffffffff82111561212d5761212c6123a5565b5b612136826123fc565b9050602081019050919050565b6000819050602082019050919050565b600081519050919050565b600081519050919050565b6000602082019050919050565b600082825260208201905092915050565b600082825260208201905092915050565b600082825260208201905092915050565b60006121b4826121ce565b9050919050565b60008190506121c98261245f565b919050565b600073ffffffffffffffffffffffffffffffffffffffff82169050919050565b6000819050919050565b6000612203826121bb565b9050919050565b60005b8381101561222857808201518184015260208101905061220d565b83811115612237576000848401525b50505050565b6000600282049050600182168061225557607f821691505b6020821081141561226957612268612347565b5b50919050565b612278826123fc565b810181811067ffffffffffffffff82111715612297576122966123a5565b5b80604052505050565b60006122ab826121ee565b91507fffffffffffffffffffffffffffffffffffffffffffffffffffffffffffffffff8214156122de576122dd6122e9565b5b600182019050919050565b7f4e487b7100000000000000000000000000000000000000000000000000000000600052601160045260246000fd5b7f4e487b7100000000000000000000000000000000000000000000000000000000600052602160045260246000fd5b7f4e487b7100000000000000000000000000000000000000000000000000000000600052602260045260246000fd5b7f4e487b7100000000000000000000000000000000000000000000000000000000600052603260045260246000fd5b7f4e487b7100000000000000000000000000000000000000000000000000000000600052604160045260246000fd5b600080fd5b600080fd5b600080fd5b600080fd5b600080fd5b600080fd5b600080fd5b600080fd5b6000601f19601f8301169050919050565b7f596f7520617265206e6f74207468652043757474657273210000000000000000600082015250565b7f596f7520617265206e6f7420746865206d696e65727321000000000000000000600082015250565b600481106124705761246f612318565b5b50565b61247c816121a9565b811461248757600080fd5b50565b6004811061249757600080fd5b50565b6124a3816121ee565b81146124ae57600080fd5b5056fea2646970667358221220855866d53214a8dfdf206c95e8906813f1d9376e8003d84979c646daf1af6d9564736f6c63430008070033",
  "immutableReferences": {},
  "source": "// SPDX-License-Identifier: MIT\npragma solidity ^0.8.7;\n\nimport \"./CompanyRegistry.sol\";\n\ncontract RawDiamondRegistry {\n    struct RawDiamond {\n        uint256 rawId;\n        string rawDiamondName;\n        string rawDiamondColor;\n        string cuttingGrade;\n        CompanyRegistry.Company miningCompany;\n        CompanyRegistry.Company cuttingCompany;\n        //time\n        uint256 minedTime;\n        uint256 cuttingTime; \n    }\n\n    mapping(uint256 => RawDiamond) public rawDiamondItems;\n    uint256 public rawDiamondCounts;\n\n    CompanyRegistry private companyRegistry;\n\n    constructor(address _companyRegistry) {\n        companyRegistry = CompanyRegistry(_companyRegistry);\n    }\n\n    function getAllRawDiamonds() public view returns (RawDiamond[] memory) {\n        RawDiamond[] memory allRawDiamonds = new RawDiamond[](rawDiamondCounts);\n        for (uint i = 0; i < rawDiamondCounts; i++) {\n            allRawDiamonds[i] = rawDiamondItems[i];\n        }\n        return allRawDiamonds;\n    }\n\n    function getRawDiamond(\n        uint256 rawId\n    ) public view returns (RawDiamond memory) {\n        return rawDiamondItems[rawId];\n    }\n\n    function rawDiamondRegister(string calldata _rawDiamondName,string calldata _rawDiamondColor) public onlyMiningCompany returns (uint256) {\n        RawDiamond memory newRawDiamond;\n        newRawDiamond.rawId = rawDiamondCounts;\n        newRawDiamond.rawDiamondName = _rawDiamondName;\n        newRawDiamond.rawDiamondColor = _rawDiamondColor;\n        CompanyRegistry.Company memory miningCompany = companyRegistry.getCompany(msg.sender);\n        newRawDiamond.miningCompany = miningCompany;\n        uint256 rawId = rawDiamondCounts++;\n        newRawDiamond.minedTime = block.timestamp;\n        rawDiamondItems[rawId] = newRawDiamond;\n        return rawId;\n    }\n\n    function rawDiamondCutting(\n        uint256 _rawId,string calldata  _cuttingGrade\n    ) public onlyCuttingCompany returns (uint256) {\n        CompanyRegistry.Company memory cuttingCompany = companyRegistry.getCompany(msg.sender);\n        rawDiamondItems[_rawId].cuttingCompany = cuttingCompany;\n        rawDiamondItems[_rawId].cuttingGrade = _cuttingGrade;\n        rawDiamondItems[_rawId].cuttingTime = block.timestamp;\n        return _rawId;\n    }\n\n    modifier onlyMiningCompany() {\n        require(\n            companyRegistry.getCompanyType(msg.sender) ==\n                CompanyRegistry.CompanyType.Mining,\n            \"You are not the miners!\"\n        );\n        _;\n    }\n\n    modifier onlyCuttingCompany() {\n        require(\n            companyRegistry.getCompanyType(msg.sender) ==\n                CompanyRegistry.CompanyType.Cutting,\n            \"You are not the Cutters!\"\n        );\n        _;\n    }\n}\n",
  "sourcePath": "/Users/huanghongbin/VsCodeProjests/tracing-luxury/src/contracts/RawDiamondRegistry.sol",
  "compiler": {
    "name": "solc",
    "version": "0.8.7+commit.e28d00a7.Emscripten.clang"
  },
  "schemaVersion": "3.4.16",
  "updatedAt": "2023-11-27T15:12:47.015Z",
  "networkType": "ethereum",
  "devdoc": {
    "kind": "dev",
    "methods": {},
    "version": 1
  },
  "userdoc": {
    "kind": "user",
    "methods": {},
    "version": 1
  }
}