{
  "contractName": "RawDiamondRegistry",
  "abi": [
    {
      "inputs": [
        {
          "internalType": "address",
          "name": "_companyRegistry",
          "type": "address"
        }
      ],
      "stateMutability": "nonpayable",
      "type": "constructor"
    },
    {
      "inputs": [
        {
          "internalType": "uint256",
          "name": "",
          "type": "uint256"
        }
      ],
      "name": "rawDiamondItems",
      "outputs": [
        {
          "internalType": "uint256",
          "name": "rawId",
          "type": "uint256"
        },
        {
          "internalType": "address",
          "name": "miningCompany",
          "type": "address"
        },
        {
          "internalType": "address",
          "name": "cuttingCompany",
          "type": "address"
        }
      ],
      "stateMutability": "view",
      "type": "function",
      "constant": true
    },
    {
      "inputs": [],
      "name": "rowDiamondCounts",
      "outputs": [
        {
          "internalType": "uint256",
          "name": "",
          "type": "uint256"
        }
      ],
      "stateMutability": "view",
      "type": "function",
      "constant": true
    },
    {
      "inputs": [
        {
          "internalType": "uint256",
          "name": "rawId",
          "type": "uint256"
        }
      ],
      "name": "getRawDiamond",
      "outputs": [
        {
          "components": [
            {
              "internalType": "uint256",
              "name": "rawId",
              "type": "uint256"
            },
            {
              "internalType": "address",
              "name": "miningCompany",
              "type": "address"
            },
            {
              "internalType": "address",
              "name": "cuttingCompany",
              "type": "address"
            }
          ],
          "internalType": "struct RawDiamondRegistry.RawDiamond",
          "name": "",
          "type": "tuple"
        }
      ],
      "stateMutability": "view",
      "type": "function",
      "constant": true
    },
    {
      "inputs": [],
      "name": "rawDiamondRegister",
      "outputs": [
        {
          "internalType": "uint256",
          "name": "",
          "type": "uint256"
        }
      ],
      "stateMutability": "nonpayable",
      "type": "function"
    },
    {
      "inputs": [
        {
          "internalType": "uint256",
          "name": "rowId",
          "type": "uint256"
        }
      ],
      "name": "rawDiamondCutting",
      "outputs": [
        {
          "internalType": "uint256",
          "name": "",
          "type": "uint256"
        }
      ],
      "stateMutability": "nonpayable",
      "type": "function"
    }
  ],
  "bytecode": "0x608060405234801561001057600080fd5b50604051610b37380380610b378339818101604052810190610032919061008e565b80600260006101000a81548173ffffffffffffffffffffffffffffffffffffffff021916908373ffffffffffffffffffffffffffffffffffffffff16021790555050610109565b600081519050610088816100f2565b92915050565b6000602082840312156100a4576100a36100ed565b5b60006100b284828501610079565b91505092915050565b60006100c6826100cd565b9050919050565b600073ffffffffffffffffffffffffffffffffffffffff82169050919050565b600080fd5b6100fb816100bb565b811461010657600080fd5b50565b610a1f806101186000396000f3fe608060405234801561001057600080fd5b50600436106100575760003560e01c80630778d80a1461005c57806320c9e11b1461007a5780632e78c4fb146100ac578063ee8431f4146100dc578063f71d60f2146100fa575b600080fd5b61006461012a565b6040516100719190610825565b60405180910390f35b610094600480360381019061008f91906106be565b610130565b6040516100a393929190610840565b60405180910390f35b6100c660048036038101906100c191906106be565b61019a565b6040516100d3919061080a565b60405180910390f35b6100e461027c565b6040516100f19190610825565b60405180910390f35b610114600480360381019061010f91906106be565b6104ab565b6040516101219190610825565b60405180910390f35b60015481565b60006020528060005260406000206000915090508060000154908060010160009054906101000a900473ffffffffffffffffffffffffffffffffffffffff16908060020160009054906101000a900473ffffffffffffffffffffffffffffffffffffffff16905083565b6101a261061a565b600080838152602001908152602001600020604051806060016040529081600082015481526020016001820160009054906101000a900473ffffffffffffffffffffffffffffffffffffffff1673ffffffffffffffffffffffffffffffffffffffff1673ffffffffffffffffffffffffffffffffffffffff1681526020016002820160009054906101000a900473ffffffffffffffffffffffffffffffffffffffff1673ffffffffffffffffffffffffffffffffffffffff1673ffffffffffffffffffffffffffffffffffffffff16815250509050919050565b60008060038111156102915761029061093c565b5b600260009054906101000a900473ffffffffffffffffffffffffffffffffffffffff1673ffffffffffffffffffffffffffffffffffffffff1663097bcc1a336040518263ffffffff1660e01b81526004016102ec91906107af565b60206040518083038186803b15801561030457600080fd5b505afa158015610318573d6000803e3d6000fd5b505050506040513d601f19601f8201168201806040525081019061033c9190610691565b600381111561034e5761034d61093c565b5b1461038e576040517f08c379a0000000000000000000000000000000000000000000000000000000008152600401610385906107ea565b60405180910390fd5b61039661061a565b60015481600001818152505033816020019073ffffffffffffffffffffffffffffffffffffffff16908173ffffffffffffffffffffffffffffffffffffffff16815250506000600160008154809291906103ef906108c4565b919050559050816000808381526020019081526020016000206000820151816000015560208201518160010160006101000a81548173ffffffffffffffffffffffffffffffffffffffff021916908373ffffffffffffffffffffffffffffffffffffffff16021790555060408201518160020160006101000a81548173ffffffffffffffffffffffffffffffffffffffff021916908373ffffffffffffffffffffffffffffffffffffffff160217905550905050809250505090565b6000600160038111156104c1576104c061093c565b5b600260009054906101000a900473ffffffffffffffffffffffffffffffffffffffff1673ffffffffffffffffffffffffffffffffffffffff1663097bcc1a336040518263ffffffff1660e01b815260040161051c91906107af565b60206040518083038186803b15801561053457600080fd5b505afa158015610548573d6000803e3d6000fd5b505050506040513d601f19601f8201168201806040525081019061056c9190610691565b600381111561057e5761057d61093c565b5b146105be576040517f08c379a00000000000000000000000000000000000000000000000000000000081526004016105b5906107ca565b60405180910390fd5b3360008084815260200190815260200160002060020160006101000a81548173ffffffffffffffffffffffffffffffffffffffff021916908373ffffffffffffffffffffffffffffffffffffffff160217905550819050919050565b604051806060016040528060008152602001600073ffffffffffffffffffffffffffffffffffffffff168152602001600073ffffffffffffffffffffffffffffffffffffffff1681525090565b600081519050610676816109c2565b92915050565b60008135905061068b816109d2565b92915050565b6000602082840312156106a7576106a661096b565b5b60006106b584828501610667565b91505092915050565b6000602082840312156106d4576106d361096b565b5b60006106e28482850161067c565b91505092915050565b6106f481610888565b82525050565b61070381610888565b82525050565b6000610716601883610877565b915061072182610970565b602082019050919050565b6000610739601783610877565b915061074482610999565b602082019050919050565b6060820160008201516107656000850182610791565b50602082015161077860208501826106eb565b50604082015161078b60408501826106eb565b50505050565b61079a816108ba565b82525050565b6107a9816108ba565b82525050565b60006020820190506107c460008301846106fa565b92915050565b600060208201905081810360008301526107e381610709565b9050919050565b600060208201905081810360008301526108038161072c565b9050919050565b600060608201905061081f600083018461074f565b92915050565b600060208201905061083a60008301846107a0565b92915050565b600060608201905061085560008301866107a0565b61086260208301856106fa565b61086f60408301846106fa565b949350505050565b600082825260208201905092915050565b60006108938261089a565b9050919050565b600073ffffffffffffffffffffffffffffffffffffffff82169050919050565b6000819050919050565b60006108cf826108ba565b91507fffffffffffffffffffffffffffffffffffffffffffffffffffffffffffffffff8214156109025761090161090d565b5b600182019050919050565b7f4e487b7100000000000000000000000000000000000000000000000000000000600052601160045260246000fd5b7f4e487b7100000000000000000000000000000000000000000000000000000000600052602160045260246000fd5b600080fd5b7f596f7520617265206e6f74207468652043757474657273210000000000000000600082015250565b7f596f7520617265206e6f7420746865206d696e65727321000000000000000000600082015250565b600481106109cf57600080fd5b50565b6109db816108ba565b81146109e657600080fd5b5056fea2646970667358221220b246659faec9cdca12e37283b940b0e7c3014f4e92249d1ce4ee9ab849dc473b64736f6c63430008070033",
  "immutableReferences": {},
  "source": "// SPDX-License-Identifier: MIT\npragma solidity ^0.8.7;\n\nimport \"./CompanyRegistry.sol\";\n\ncontract RawDiamondRegistry {\n    struct RawDiamond {\n        uint256 rawId;\n        address miningCompany;\n        address cuttingCompany;\n        // address gradingLab;\n    }\n\n    mapping(uint256 => RawDiamond) public rawDiamondItems;\n    uint256 public rowDiamondCounts;\n\n    CompanyRegistry private companyRegistry;\n\n    constructor(address _companyRegistry) {\n        companyRegistry = CompanyRegistry(_companyRegistry);\n    }\n\n    function getRawDiamond(uint256 rawId) public view returns(RawDiamond memory){\n        return rawDiamondItems[rawId];\n    }\n    function rawDiamondRegister() public onlyMiningCompany returns (uint256) {\n        RawDiamond memory newRawDiamond;\n        newRawDiamond.rawId = rowDiamondCounts;\n        newRawDiamond.miningCompany = msg.sender;\n        uint256 rowId = rowDiamondCounts++;\n        rawDiamondItems[rowId] = newRawDiamond;\n        return rowId;\n    }\n\n    function rawDiamondCutting(uint256 rowId) public onlyCuttingCompany returns (uint256) {\n        rawDiamondItems[rowId].cuttingCompany = msg.sender;\n        return rowId;\n    }\n\n\n\n    modifier onlyMiningCompany() {\n        require(\n            companyRegistry.getCompanyType(msg.sender) == CompanyRegistry.CompanyType.Mining,\n            \"You are not the miners!\"\n        );\n        _;\n    }\n\n    modifier onlyCuttingCompany() {\n        require(\n            companyRegistry.getCompanyType(msg.sender) == CompanyRegistry.CompanyType.Cutting,\n            \"You are not the Cutters!\"\n        );\n        _;\n    }\n}",
  "sourcePath": "/Users/huanghongbin/VsCodeProjests/tracing-luxury/src/contracts/RawDiamondRegistry.sol",
  "compiler": {
    "name": "solc",
    "version": "0.8.7+commit.e28d00a7.Emscripten.clang"
  },
  "schemaVersion": "3.4.16",
  "updatedAt": "2023-11-11T07:57:23.633Z",
  "networkType": "ethereum",
  "devdoc": {
    "kind": "dev",
    "methods": {},
    "version": 1
  },
  "userdoc": {
    "kind": "user",
    "methods": {},
    "version": 1
  }
}