{
  "contractName": "RawDiamondRegistry",
  "abi": [
    {
      "inputs": [
        {
          "internalType": "address",
          "name": "_companyRegistry",
          "type": "address"
        }
      ],
      "stateMutability": "nonpayable",
      "type": "constructor"
    },
    {
      "inputs": [
        {
          "internalType": "uint256",
          "name": "",
          "type": "uint256"
        }
      ],
      "name": "rawDiamondItems",
      "outputs": [
        {
          "internalType": "uint256",
          "name": "rawId",
          "type": "uint256"
        },
        {
          "internalType": "address",
          "name": "miningCompany",
          "type": "address"
        },
        {
          "internalType": "address",
          "name": "cuttingCompany",
          "type": "address"
        },
        {
          "internalType": "address",
          "name": "gradingLab",
          "type": "address"
        }
      ],
      "stateMutability": "view",
      "type": "function",
      "constant": true
    },
    {
      "inputs": [],
      "name": "rowDiamondCounts",
      "outputs": [
        {
          "internalType": "uint256",
          "name": "",
          "type": "uint256"
        }
      ],
      "stateMutability": "view",
      "type": "function",
      "constant": true
    },
    {
      "inputs": [
        {
          "internalType": "uint256",
          "name": "rawId",
          "type": "uint256"
        }
      ],
      "name": "getRawDiamond",
      "outputs": [
        {
          "components": [
            {
              "internalType": "uint256",
              "name": "rawId",
              "type": "uint256"
            },
            {
              "internalType": "address",
              "name": "miningCompany",
              "type": "address"
            },
            {
              "internalType": "address",
              "name": "cuttingCompany",
              "type": "address"
            },
            {
              "internalType": "address",
              "name": "gradingLab",
              "type": "address"
            }
          ],
          "internalType": "struct RawDiamondRegistry.RawDiamond",
          "name": "",
          "type": "tuple"
        }
      ],
      "stateMutability": "view",
      "type": "function",
      "constant": true
    },
    {
      "inputs": [],
      "name": "rawDiamondRegister",
      "outputs": [
        {
          "internalType": "uint256",
          "name": "",
          "type": "uint256"
        }
      ],
      "stateMutability": "nonpayable",
      "type": "function"
    },
    {
      "inputs": [
        {
          "internalType": "uint256",
          "name": "rowId",
          "type": "uint256"
        }
      ],
      "name": "rawDiamondCutting",
      "outputs": [
        {
          "internalType": "uint256",
          "name": "",
          "type": "uint256"
        }
      ],
      "stateMutability": "nonpayable",
      "type": "function"
    },
    {
      "inputs": [
        {
          "internalType": "uint256",
          "name": "rowId",
          "type": "uint256"
        }
      ],
      "name": "diamondGrading",
      "outputs": [
        {
          "internalType": "uint256",
          "name": "",
          "type": "uint256"
        }
      ],
      "stateMutability": "nonpayable",
      "type": "function"
    }
  ],
  "bytecode": "0x608060405234801561001057600080fd5b50604051610e4f380380610e4f8339818101604052810190610032919061008e565b80600260006101000a81548173ffffffffffffffffffffffffffffffffffffffff021916908373ffffffffffffffffffffffffffffffffffffffff16021790555050610109565b600081519050610088816100f2565b92915050565b6000602082840312156100a4576100a36100ed565b5b60006100b284828501610079565b91505092915050565b60006100c6826100cd565b9050919050565b600073ffffffffffffffffffffffffffffffffffffffff82169050919050565b600080fd5b6100fb816100bb565b811461010657600080fd5b50565b610d37806101186000396000f3fe608060405234801561001057600080fd5b50600436106100625760003560e01c80630778d80a1461006757806320c9e11b146100855780632e78c4fb146100b85780638b1afb28146100e8578063ee8431f414610118578063f71d60f214610136575b600080fd5b61006f610166565b60405161007c9190610b06565b60405180910390f35b61009f600480360381019061009a9190610949565b61016c565b6040516100af9493929190610b21565b60405180910390f35b6100d260048036038101906100cd9190610949565b6101fc565b6040516100df9190610aeb565b60405180910390f35b61010260048036038101906100fd9190610949565b610334565b60405161010f9190610b06565b60405180910390f35b6101206104a3565b60405161012d9190610b06565b60405180910390f35b610150600480360381019061014b9190610949565b610719565b60405161015d9190610b06565b60405180910390f35b60015481565b60006020528060005260406000206000915090508060000154908060010160009054906101000a900473ffffffffffffffffffffffffffffffffffffffff16908060020160009054906101000a900473ffffffffffffffffffffffffffffffffffffffff16908060030160009054906101000a900473ffffffffffffffffffffffffffffffffffffffff16905084565b610204610888565b600080838152602001908152602001600020604051806080016040529081600082015481526020016001820160009054906101000a900473ffffffffffffffffffffffffffffffffffffffff1673ffffffffffffffffffffffffffffffffffffffff1673ffffffffffffffffffffffffffffffffffffffff1681526020016002820160009054906101000a900473ffffffffffffffffffffffffffffffffffffffff1673ffffffffffffffffffffffffffffffffffffffff1673ffffffffffffffffffffffffffffffffffffffff1681526020016003820160009054906101000a900473ffffffffffffffffffffffffffffffffffffffff1673ffffffffffffffffffffffffffffffffffffffff1673ffffffffffffffffffffffffffffffffffffffff16815250509050919050565b60006002600381111561034a57610349610c2b565b5b600260009054906101000a900473ffffffffffffffffffffffffffffffffffffffff1673ffffffffffffffffffffffffffffffffffffffff1663097bcc1a336040518263ffffffff1660e01b81526004016103a59190610a70565b60206040518083038186803b1580156103bd57600080fd5b505afa1580156103d1573d6000803e3d6000fd5b505050506040513d601f19601f820116820180604052508101906103f5919061091c565b600381111561040757610406610c2b565b5b14610447576040517f08c379a000000000000000000000000000000000000000000000000000000000815260040161043e90610aab565b60405180910390fd5b3360008084815260200190815260200160002060030160006101000a81548173ffffffffffffffffffffffffffffffffffffffff021916908373ffffffffffffffffffffffffffffffffffffffff160217905550819050919050565b60008060038111156104b8576104b7610c2b565b5b600260009054906101000a900473ffffffffffffffffffffffffffffffffffffffff1673ffffffffffffffffffffffffffffffffffffffff1663097bcc1a336040518263ffffffff1660e01b81526004016105139190610a70565b60206040518083038186803b15801561052b57600080fd5b505afa15801561053f573d6000803e3d6000fd5b505050506040513d601f19601f82011682018060405250810190610563919061091c565b600381111561057557610574610c2b565b5b146105b5576040517f08c379a00000000000000000000000000000000000000000000000000000000081526004016105ac90610acb565b60405180910390fd5b6105bd610888565b60015481600001818152505033816020019073ffffffffffffffffffffffffffffffffffffffff16908173ffffffffffffffffffffffffffffffffffffffff168152505060006001600081548092919061061690610bb3565b919050559050816000808381526020019081526020016000206000820151816000015560208201518160010160006101000a81548173ffffffffffffffffffffffffffffffffffffffff021916908373ffffffffffffffffffffffffffffffffffffffff16021790555060408201518160020160006101000a81548173ffffffffffffffffffffffffffffffffffffffff021916908373ffffffffffffffffffffffffffffffffffffffff16021790555060608201518160030160006101000a81548173ffffffffffffffffffffffffffffffffffffffff021916908373ffffffffffffffffffffffffffffffffffffffff160217905550905050809250505090565b60006001600381111561072f5761072e610c2b565b5b600260009054906101000a900473ffffffffffffffffffffffffffffffffffffffff1673ffffffffffffffffffffffffffffffffffffffff1663097bcc1a336040518263ffffffff1660e01b815260040161078a9190610a70565b60206040518083038186803b1580156107a257600080fd5b505afa1580156107b6573d6000803e3d6000fd5b505050506040513d601f19601f820116820180604052508101906107da919061091c565b60038111156107ec576107eb610c2b565b5b1461082c576040517f08c379a000000000000000000000000000000000000000000000000000000000815260040161082390610a8b565b60405180910390fd5b3360008084815260200190815260200160002060020160006101000a81548173ffffffffffffffffffffffffffffffffffffffff021916908373ffffffffffffffffffffffffffffffffffffffff160217905550819050919050565b604051806080016040528060008152602001600073ffffffffffffffffffffffffffffffffffffffff168152602001600073ffffffffffffffffffffffffffffffffffffffff168152602001600073ffffffffffffffffffffffffffffffffffffffff1681525090565b60008151905061090181610cda565b92915050565b60008135905061091681610cea565b92915050565b60006020828403121561093257610931610c5a565b5b6000610940848285016108f2565b91505092915050565b60006020828403121561095f5761095e610c5a565b5b600061096d84828501610907565b91505092915050565b61097f81610b77565b82525050565b61098e81610b77565b82525050565b60006109a1601883610b66565b91506109ac82610c5f565b602082019050919050565b60006109c4601883610b66565b91506109cf82610c88565b602082019050919050565b60006109e7601783610b66565b91506109f282610cb1565b602082019050919050565b608082016000820151610a136000850182610a52565b506020820151610a266020850182610976565b506040820151610a396040850182610976565b506060820151610a4c6060850182610976565b50505050565b610a5b81610ba9565b82525050565b610a6a81610ba9565b82525050565b6000602082019050610a856000830184610985565b92915050565b60006020820190508181036000830152610aa481610994565b9050919050565b60006020820190508181036000830152610ac4816109b7565b9050919050565b60006020820190508181036000830152610ae4816109da565b9050919050565b6000608082019050610b0060008301846109fd565b92915050565b6000602082019050610b1b6000830184610a61565b92915050565b6000608082019050610b366000830187610a61565b610b436020830186610985565b610b506040830185610985565b610b5d6060830184610985565b95945050505050565b600082825260208201905092915050565b6000610b8282610b89565b9050919050565b600073ffffffffffffffffffffffffffffffffffffffff82169050919050565b6000819050919050565b6000610bbe82610ba9565b91507fffffffffffffffffffffffffffffffffffffffffffffffffffffffffffffffff821415610bf157610bf0610bfc565b5b600182019050919050565b7f4e487b7100000000000000000000000000000000000000000000000000000000600052601160045260246000fd5b7f4e487b7100000000000000000000000000000000000000000000000000000000600052602160045260246000fd5b600080fd5b7f596f7520617265206e6f74207468652043757474657273210000000000000000600082015250565b7f596f7520617265206e6f74207468652067726164657273210000000000000000600082015250565b7f596f7520617265206e6f7420746865206d696e65727321000000000000000000600082015250565b60048110610ce757600080fd5b50565b610cf381610ba9565b8114610cfe57600080fd5b5056fea2646970667358221220ffa81f27d5fc58a9d7bb69e953900e2b2d0a1173317773722be19505abb6251e64736f6c63430008070033",
  "immutableReferences": {},
  "source": "// SPDX-License-Identifier: MIT\npragma solidity ^0.8.7;\n\nimport \"./CompanyRegistry.sol\";\n\ncontract RawDiamondRegistry {\n    struct RawDiamond {\n        uint256 rawId;\n        address miningCompany;\n        address cuttingCompany;\n        address gradingLab;\n    }\n\n    mapping(uint256 => RawDiamond) public rawDiamondItems;\n    uint256 public rowDiamondCounts;\n\n    CompanyRegistry private companyRegistry;\n\n    constructor(address _companyRegistry) {\n        companyRegistry = CompanyRegistry(_companyRegistry);\n    }\n\n    function getRawDiamond(uint256 rawId) public view returns(RawDiamond memory){\n        return rawDiamondItems[rawId];\n    }\n    function rawDiamondRegister() public onlyMiningCompany returns (uint256) {\n        RawDiamond memory newRawDiamond;\n        newRawDiamond.rawId = rowDiamondCounts;\n        newRawDiamond.miningCompany = msg.sender;\n        uint256 rowId = rowDiamondCounts++;\n        rawDiamondItems[rowId] = newRawDiamond;\n        return rowId;\n    }\n\n    function rawDiamondCutting(uint256 rowId) public onlyCuttingCompany returns (uint256) {\n        rawDiamondItems[rowId].cuttingCompany = msg.sender;\n        return rowId;\n    }\n\n    function diamondGrading(uint256 rowId) public onlyGradingCompany returns (uint256) {\n        rawDiamondItems[rowId].gradingLab = msg.sender;\n        return rowId;\n    }\n\n    modifier onlyMiningCompany() {\n        require(\n            companyRegistry.getCompanyType(msg.sender) == CompanyRegistry.CompanyType.Mining,\n            \"You are not the miners!\"\n        );\n        _;\n    }\n\n    modifier onlyCuttingCompany() {\n        require(\n            companyRegistry.getCompanyType(msg.sender) == CompanyRegistry.CompanyType.Cutting,\n            \"You are not the Cutters!\"\n        );\n        _;\n    }\n\n    modifier onlyGradingCompany() {\n        require(\n            companyRegistry.getCompanyType(msg.sender) == CompanyRegistry.CompanyType.Grading,\n            \"You are not the graders!\"\n        );\n        _;\n    }\n}",
  "sourcePath": "/Users/huanghongbin/VsCodeProjests/tracing-luxury/src/contracts/RawDiamondRegistry.sol",
  "compiler": {
    "name": "solc",
    "version": "0.8.7+commit.e28d00a7.Emscripten.clang"
  },
  "schemaVersion": "3.4.16",
  "updatedAt": "2023-11-10T11:04:52.253Z",
  "networkType": "ethereum",
  "devdoc": {
    "kind": "dev",
    "methods": {},
    "version": 1
  },
  "userdoc": {
    "kind": "user",
    "methods": {},
    "version": 1
  }
}