{
  "contractName": "RawDiamondRegistry",
  "abi": [
    {
      "inputs": [
        {
          "internalType": "address",
          "name": "_companyRegistry",
          "type": "address"
        }
      ],
      "stateMutability": "nonpayable",
      "type": "constructor"
    },
    {
      "inputs": [],
      "name": "rawDiamondCounts",
      "outputs": [
        {
          "internalType": "uint256",
          "name": "",
          "type": "uint256"
        }
      ],
      "stateMutability": "view",
      "type": "function",
      "constant": true
    },
    {
      "inputs": [
        {
          "internalType": "uint256",
          "name": "",
          "type": "uint256"
        }
      ],
      "name": "rawDiamondItems",
      "outputs": [
        {
          "internalType": "uint256",
          "name": "rawId",
          "type": "uint256"
        },
        {
          "internalType": "address",
          "name": "miningCompany",
          "type": "address"
        },
        {
          "internalType": "address",
          "name": "cuttingCompany",
          "type": "address"
        }
      ],
      "stateMutability": "view",
      "type": "function",
      "constant": true
    },
    {
      "inputs": [],
      "name": "getAllRawDiamonds",
      "outputs": [
        {
          "components": [
            {
              "internalType": "uint256",
              "name": "rawId",
              "type": "uint256"
            },
            {
              "internalType": "address",
              "name": "miningCompany",
              "type": "address"
            },
            {
              "internalType": "address",
              "name": "cuttingCompany",
              "type": "address"
            }
          ],
          "internalType": "struct RawDiamondRegistry.RawDiamond[]",
          "name": "",
          "type": "tuple[]"
        }
      ],
      "stateMutability": "view",
      "type": "function",
      "constant": true
    },
    {
      "inputs": [
        {
          "internalType": "uint256",
          "name": "rawId",
          "type": "uint256"
        }
      ],
      "name": "getRawDiamond",
      "outputs": [
        {
          "components": [
            {
              "internalType": "uint256",
              "name": "rawId",
              "type": "uint256"
            },
            {
              "internalType": "address",
              "name": "miningCompany",
              "type": "address"
            },
            {
              "internalType": "address",
              "name": "cuttingCompany",
              "type": "address"
            }
          ],
          "internalType": "struct RawDiamondRegistry.RawDiamond",
          "name": "",
          "type": "tuple"
        }
      ],
      "stateMutability": "view",
      "type": "function",
      "constant": true
    },
    {
      "inputs": [],
      "name": "rawDiamondRegister",
      "outputs": [
        {
          "internalType": "uint256",
          "name": "",
          "type": "uint256"
        }
      ],
      "stateMutability": "nonpayable",
      "type": "function"
    },
    {
      "inputs": [
        {
          "internalType": "uint256",
          "name": "rawId",
          "type": "uint256"
        }
      ],
      "name": "rawDiamondCutting",
      "outputs": [
        {
          "internalType": "uint256",
          "name": "",
          "type": "uint256"
        }
      ],
      "stateMutability": "nonpayable",
      "type": "function"
    }
  ],
  "bytecode": "0x608060405234801561001057600080fd5b50604051610e46380380610e468339818101604052810190610032919061008e565b80600260006101000a81548173ffffffffffffffffffffffffffffffffffffffff021916908373ffffffffffffffffffffffffffffffffffffffff16021790555050610109565b600081519050610088816100f2565b92915050565b6000602082840312156100a4576100a36100ed565b5b60006100b284828501610079565b91505092915050565b60006100c6826100cd565b9050919050565b600073ffffffffffffffffffffffffffffffffffffffff82169050919050565b600080fd5b6100fb816100bb565b811461010657600080fd5b50565b610d2e806101186000396000f3fe608060405234801561001057600080fd5b50600436106100625760003560e01c806320c9e11b146100675780632e78c4fb146100995780638d281fd2146100c9578063e669ab2d146100e7578063ee8431f414610105578063f71d60f214610123575b600080fd5b610081600480360381019061007c919061085c565b610153565b60405161009093929190610ab8565b60405180910390f35b6100b360048036038101906100ae919061085c565b6101bd565b6040516100c09190610a82565b60405180910390f35b6100d161029f565b6040516100de9190610a9d565b60405180910390f35b6100ef6102a5565b6040516100fc9190610a20565b60405180910390f35b61010d61041a565b60405161011a9190610a9d565b60405180910390f35b61013d6004803603810190610138919061085c565b610649565b60405161014a9190610a9d565b60405180910390f35b60006020528060005260406000206000915090508060000154908060010160009054906101000a900473ffffffffffffffffffffffffffffffffffffffff16908060020160009054906101000a900473ffffffffffffffffffffffffffffffffffffffff16905083565b6101c56107b8565b600080838152602001908152602001600020604051806060016040529081600082015481526020016001820160009054906101000a900473ffffffffffffffffffffffffffffffffffffffff1673ffffffffffffffffffffffffffffffffffffffff1673ffffffffffffffffffffffffffffffffffffffff1681526020016002820160009054906101000a900473ffffffffffffffffffffffffffffffffffffffff1673ffffffffffffffffffffffffffffffffffffffff1673ffffffffffffffffffffffffffffffffffffffff16815250509050919050565b60015481565b6060600060015467ffffffffffffffff8111156102c5576102c4610c4b565b5b6040519080825280602002602001820160405280156102fe57816020015b6102eb6107b8565b8152602001906001900390816102e35790505b50905060005b60015481101561041257600080828152602001908152602001600020604051806060016040529081600082015481526020016001820160009054906101000a900473ffffffffffffffffffffffffffffffffffffffff1673ffffffffffffffffffffffffffffffffffffffff1673ffffffffffffffffffffffffffffffffffffffff1681526020016002820160009054906101000a900473ffffffffffffffffffffffffffffffffffffffff1673ffffffffffffffffffffffffffffffffffffffff1673ffffffffffffffffffffffffffffffffffffffff16815250508282815181106103f4576103f3610c1c565b5b6020026020010181905250808061040a90610b75565b915050610304565b508091505090565b600080600381111561042f5761042e610bed565b5b600260009054906101000a900473ffffffffffffffffffffffffffffffffffffffff1673ffffffffffffffffffffffffffffffffffffffff1663097bcc1a336040518263ffffffff1660e01b815260040161048a9190610a05565b60206040518083038186803b1580156104a257600080fd5b505afa1580156104b6573d6000803e3d6000fd5b505050506040513d601f19601f820116820180604052508101906104da919061082f565b60038111156104ec576104eb610bed565b5b1461052c576040517f08c379a000000000000000000000000000000000000000000000000000000000815260040161052390610a62565b60405180910390fd5b6105346107b8565b60015481600001818152505033816020019073ffffffffffffffffffffffffffffffffffffffff16908173ffffffffffffffffffffffffffffffffffffffff168152505060006001600081548092919061058d90610b75565b919050559050816000808381526020019081526020016000206000820151816000015560208201518160010160006101000a81548173ffffffffffffffffffffffffffffffffffffffff021916908373ffffffffffffffffffffffffffffffffffffffff16021790555060408201518160020160006101000a81548173ffffffffffffffffffffffffffffffffffffffff021916908373ffffffffffffffffffffffffffffffffffffffff160217905550905050809250505090565b60006001600381111561065f5761065e610bed565b5b600260009054906101000a900473ffffffffffffffffffffffffffffffffffffffff1673ffffffffffffffffffffffffffffffffffffffff1663097bcc1a336040518263ffffffff1660e01b81526004016106ba9190610a05565b60206040518083038186803b1580156106d257600080fd5b505afa1580156106e6573d6000803e3d6000fd5b505050506040513d601f19601f8201168201806040525081019061070a919061082f565b600381111561071c5761071b610bed565b5b1461075c576040517f08c379a000000000000000000000000000000000000000000000000000000000815260040161075390610a42565b60405180910390fd5b3360008084815260200190815260200160002060020160006101000a81548173ffffffffffffffffffffffffffffffffffffffff021916908373ffffffffffffffffffffffffffffffffffffffff160217905550819050919050565b604051806060016040528060008152602001600073ffffffffffffffffffffffffffffffffffffffff168152602001600073ffffffffffffffffffffffffffffffffffffffff1681525090565b60008151905061081481610cd1565b92915050565b60008135905061082981610ce1565b92915050565b60006020828403121561084557610844610c7a565b5b600061085384828501610805565b91505092915050565b60006020828403121561087257610871610c7a565b5b60006108808482850161081a565b91505092915050565b60006108958383610963565b60608301905092915050565b6108aa81610b39565b82525050565b6108b981610b39565b82525050565b60006108ca82610aff565b6108d48185610b17565b93506108df83610aef565b8060005b838110156109105781516108f78882610889565b975061090283610b0a565b9250506001810190506108e3565b5085935050505092915050565b600061092a601883610b28565b915061093582610c7f565b602082019050919050565b600061094d601783610b28565b915061095882610ca8565b602082019050919050565b60608201600082015161097960008501826109e7565b50602082015161098c60208501826108a1565b50604082015161099f60408501826108a1565b50505050565b6060820160008201516109bb60008501826109e7565b5060208201516109ce60208501826108a1565b5060408201516109e160408501826108a1565b50505050565b6109f081610b6b565b82525050565b6109ff81610b6b565b82525050565b6000602082019050610a1a60008301846108b0565b92915050565b60006020820190508181036000830152610a3a81846108bf565b905092915050565b60006020820190508181036000830152610a5b8161091d565b9050919050565b60006020820190508181036000830152610a7b81610940565b9050919050565b6000606082019050610a9760008301846109a5565b92915050565b6000602082019050610ab260008301846109f6565b92915050565b6000606082019050610acd60008301866109f6565b610ada60208301856108b0565b610ae760408301846108b0565b949350505050565b6000819050602082019050919050565b600081519050919050565b6000602082019050919050565b600082825260208201905092915050565b600082825260208201905092915050565b6000610b4482610b4b565b9050919050565b600073ffffffffffffffffffffffffffffffffffffffff82169050919050565b6000819050919050565b6000610b8082610b6b565b91507fffffffffffffffffffffffffffffffffffffffffffffffffffffffffffffffff821415610bb357610bb2610bbe565b5b600182019050919050565b7f4e487b7100000000000000000000000000000000000000000000000000000000600052601160045260246000fd5b7f4e487b7100000000000000000000000000000000000000000000000000000000600052602160045260246000fd5b7f4e487b7100000000000000000000000000000000000000000000000000000000600052603260045260246000fd5b7f4e487b7100000000000000000000000000000000000000000000000000000000600052604160045260246000fd5b600080fd5b7f596f7520617265206e6f74207468652043757474657273210000000000000000600082015250565b7f596f7520617265206e6f7420746865206d696e65727321000000000000000000600082015250565b60048110610cde57600080fd5b50565b610cea81610b6b565b8114610cf557600080fd5b5056fea26469706673582212203b64d51a2b6add40cbe64ad63ff0e1c1183cebe0a4c370c9d979fa2b31c564a964736f6c63430008070033",
  "immutableReferences": {},
  "source": "// SPDX-License-Identifier: MIT\npragma solidity ^0.8.7;\n\nimport \"./CompanyRegistry.sol\";\n\ncontract RawDiamondRegistry {\n    struct RawDiamond {\n        uint256 rawId;\n        address miningCompany;\n        address cuttingCompany;\n        // address gradingLab;\n    }\n\n    mapping(uint256 => RawDiamond) public rawDiamondItems;\n    uint256 public rawDiamondCounts;\n\n    CompanyRegistry private companyRegistry;\n\n    constructor(address _companyRegistry) {\n        companyRegistry = CompanyRegistry(_companyRegistry);\n    }\n\n    function getAllRawDiamonds() public view returns (RawDiamond[] memory) {\n        RawDiamond[] memory allRawDiamonds = new RawDiamond[](rawDiamondCounts);\n        for (uint i = 0; i < rawDiamondCounts; i++) {\n            allRawDiamonds[i] = rawDiamondItems[i];\n        }\n        return allRawDiamonds;\n    }\n\n    function getRawDiamond(\n        uint256 rawId\n    ) public view returns (RawDiamond memory) {\n        return rawDiamondItems[rawId];\n    }\n\n    function rawDiamondRegister() public onlyMiningCompany returns (uint256) {\n        RawDiamond memory newRawDiamond;\n        newRawDiamond.rawId = rawDiamondCounts;\n        newRawDiamond.miningCompany = msg.sender;\n        uint256 rawId = rawDiamondCounts++;\n        rawDiamondItems[rawId] = newRawDiamond;\n        return rawId;\n    }\n\n    function rawDiamondCutting(\n        uint256 rawId\n    ) public onlyCuttingCompany returns (uint256) {\n        rawDiamondItems[rawId].cuttingCompany = msg.sender;\n        return rawId;\n    }\n\n    modifier onlyMiningCompany() {\n        require(\n            companyRegistry.getCompanyType(msg.sender) ==\n                CompanyRegistry.CompanyType.Mining,\n            \"You are not the miners!\"\n        );\n        _;\n    }\n\n    modifier onlyCuttingCompany() {\n        require(\n            companyRegistry.getCompanyType(msg.sender) ==\n                CompanyRegistry.CompanyType.Cutting,\n            \"You are not the Cutters!\"\n        );\n        _;\n    }\n}\n",
  "sourcePath": "/Users/huanghongbin/VsCodeProjests/tracing-luxury/src/contracts/RawDiamondRegistry.sol",
  "compiler": {
    "name": "solc",
    "version": "0.8.7+commit.e28d00a7.Emscripten.clang"
  },
  "schemaVersion": "3.4.16",
  "updatedAt": "2023-11-13T16:58:49.978Z",
  "networkType": "ethereum",
  "devdoc": {
    "kind": "dev",
    "methods": {},
    "version": 1
  },
  "userdoc": {
    "kind": "user",
    "methods": {},
    "version": 1
  }
}